:020000040800F2
:1000000000000320211A0008ED190008EF1900086C
:10001000F1190008F3190008F519000800000000A4
:10002000000000000000000000000000F7190008B8
:10003000F919000800000000FB190008FD1900086C
:10004000711A0008711A0008711A0008711A000864
:10005000711A0008711A0008711A0008711A000854
:10006000711A0008711A0008711A0008711A000844
:10007000711A0008711A0008711A0008711A000834
:10008000711A0008711A0008711A0008711A000824
:10009000711A0008711A0008711A0008711A000814
:1000A000711A0008711A0008711A0008711A000804
:1000B000711A0008711A0008711A0008711A0008F4
:1000C000711A0008711A0008711A0008711A0008E4
:1000D000711A0008711A0008711A0008711A0008D4
:1000E000711A0008711A0008711A0008711A0008C4
:1000F000711A0008711A0008711A0008711A0008B4
:10010000711A0008711A0008711A0008711A0008A3
:10011000711A0008711A0008711A0008711A000893
:10012000711A0008711A0008711A0008711A000883
:10013000711A0008711A0008711A0008711A000873
:10014000711A0008711A0008711A0008711A000863
:10015000711A0008711A0008711A0008711A000853
:10016000711A0008711A0008711A0008711A000843
:10017000711A0008711A0008711A000800000000C6
:10018000711A0008711A0008711A0008711A000823
:10019000711A0008711A0008711A0008711A000813
:0C01A000711A0008711A0008711A00089A
:1001AC0010B5054C237833B9044B13B10448AFF3A5
:1001BC0000800123237010BD7C5E01200000000034
:1001CC00CC1A000808B5034B1BB103490348AFF325
:1001DC00008008BD00000000805E0120CC1A0008E1
:1001EC0053B94AB9002908BF00281CBF4FF0FF3192
:1001FC004FF0FF3000F072B9ADF1080C6DE904CE90
:10020C0000F006F8DDF804E0DDE9022304B07047E5
:10021C002DE9F047089E04468846002B4BD18A42B4
:10022C00154667D9B2FA82F24AB1C2F1200701FA37
:10023C0002F320FA07F7954047EA030894404FEA87
:10024C00154E230CB8FBFEF71FFA85FC0EFB178826
:10025C0043EA084307FB0CF1994209D9EB1807F163
:10026C00FF3080F01B81994240F21881023F2B44F1
:10027C005B1AA4B2B3FBFEF00EFB103344EA03444A
:10028C0000FB0CFCA44509D92C1900F1FF3380F0BC
:10029C000781A44540F2048102382C4440EA07400F
:1002AC00A4EB0C0400271EB1D4400023C6E9004384
:1002BC003946BDE8F0878B4209D9002E00F0EB805F
:1002CC000027C6E9000138463946BDE8F087B3FA85
:1002DC0083F7002F47D18B4202D3824200F2FA807F
:1002EC00841A61EB030301209846002EE0D0C6E986
:1002FC000048DDE702B9FFDEB2FA82F2002A40F0D4
:10030C008F80491B4FEA154E1FFA85F80127B1FB68
:10031C00FEFC230C0EFB1C1143EA014308FB0CF101
:10032C00994207D9EB180CF1FF3002D2994200F236
:10033C00CD808446591AA3B2B1FBFEF00EFB10140B
:10034C0043EA044408FB00F8A04507D92C1900F136
:10035C00FF3302D2A04500F2B6801846A4EB080485
:10036C0040EA0C409FE7C7F1200CBB4022FA0CFE80
:10037C004EEA030E01FA07F420FA0CF521FA0CF3FD
:10038C004FEA1E482543B3FBF8F92C0C08FB193334
:10039C001FFA8EFA44EA034309FB0AF49C4202FA60
:1003AC0007F200FA07F10BD91EEB030309F1FF303A
:1003BC0080F087809C4240F28480A9F1020973444A
:1003CC001B1BADB2B3FBF8F008FB103345EA03443A
:1003DC0000FB0AFAA24508D91EEB040400F1FF3316
:1003EC006BD2A24569D90238744440EA0940A0FB9B
:1003FC000289A4EB0A044C45C2464B4654D351D057
:10040C00002E69D0B1EB0A0564EB030404FA0CFC72
:10041C00FD40FC404CEA0505C6E90054002747E7BF
:10042C00C2F1200320FA03F7954001FA02F021FAF9
:10043C0003F34FEA154E3843010CB3FBFEF71FFADA
:10044C0085F80EFB173341EA034107FB08F38B4297
:10045C0004FA02F407D9691807F1FF3C2FD28B423A
:10046C002DD9023F2944CB1A81B2B3FBFEF00EFB0F
:10047C00103341EA034100FB08F38B4207D969189A
:10048C0000F1FF3C17D28B4215D902382944C91A06
:10049C0040EA07473BE73746304609E70746E7E6B9
:1004AC001846FBE64145ABD2B8EB020A69EB0E02EB
:1004BC0001381346A4E76046E9E7184695E7674616
:1004CC00D1E781467CE702382C4447E7ACF1020CBB
:1004DC002B442FE7384608E73746E9E6704700BF5C
:1004EC0010B504460E4B18784FF47A73B3FBF0F347
:1004FC000C4A1068B0FBF3F000F09CF868B90F2CB4
:10050C0001D901200AE0002221464FF0FF3000F013
:10051C005DF8034B5C60002000E0012010BD00BFC3
:10052C0000000020785E012008B50B4B1A6842F4DD
:10053C0000721A601A6842F480621A601A6842F4F7
:10054C0080721A60032000F02FF80020FFF7C8FF1C
:10055C0001F026FA002008BD003C0240034A116855
:10056C00034B1B780B441360704700BF985E01204F
:10057C0000000020014B1868704700BF985E0120F6
:10058C0038B50446FFF7F6FF0546B4F1FF3F02D03D
:10059C00044B1B781C44FFF7EDFF401BA042FAD321
:1005AC0038BD00BF00000020074AD36823F4E06385
:1005BC001B041B0C000200F4E060184340F0BF6009
:1005CC0040F40030D060704700ED00E030B4174BC1
:1005DC00DB68C3F30223C3F10704042C28BF0424F3
:1005EC001D1D062D18D9033B4FF0FF3505FA04F4F9
:1005FC0021EA0401994005FA03F322EA03031943A3
:10060C0000280BDB0901C9B200F1604000F5614024
:10061C0080F8001330BC70470023E5E700F00F00B2
:10062C000901C9B2024B1954F4E700BF00ED00E018
:10063C0014ED00E00138B0F1807F0AD2064B58600F
:10064C00064AF02182F823100020986007221A60D5
:10065C0070470120704700BF10E000E000ED00E0A3
:10066C0000230F2B00F2E380F0B583B039E00922B0
:10067C0000E00022AA403A4302346D4D45F8242094
:10068C006C4A1468F24302EA04054F6817F4803F81
:10069C0001D046EA0405674C2560646802EA04054B
:1006AC004F6817F4003F01D046EA0405614C6560C1
:1006BC00A46802EA04054F6817F4801F01D046EACB
:1006CC0004055C4CA560E46822404D6815F4001FDD
:1006DC0001D046EA0402574CE26001330F2B00F2C2
:1006EC00A48001229A400C6804EA0206B242F4D1BA
:1006FC004C68651E012D03D9112C01D0122C12D17E
:10070C0085685F000324BC4025EA0405CC68BC4026
:10071C002C438460456825EA02054C68C4F300123A
:10072C009A402A434260C4685F000322BA40D24315
:10073C0014408D68BD402543C5604C68022C01D027
:10074C00122C13D1DD08083550F825E003F007040E
:10075C004FEA840C0F2404FA0CF42EEA040E0C69F4
:10076C0004FA0CF444EA0E0440F8254004682240D4
:10077C004C6804F00304BC40224302604A6812F047
:10078C00805FAAD0002201922B4A546C44F480441E
:10079C005464526C02F480420192019A9C08A51C8C
:1007AC00234A52F8257003F0030295000F22AA4049
:1007BC0027EA0207214A90423FF45BAF02F58062C0
:1007CC00904222D002F58062904220D002F58062E5
:1007DC0090421ED002F5806290421CD002F58062DD
:1007EC0090421AD002F58062904218D002F58062D5
:1007FC00904216D002F58062904214D002F58062CD
:10080C0090423FF434AF0A2234E7012232E702224D
:10081C0030E703222EE704222CE705222AE70622E2
:10082C0028E7072226E7082224E703B0F0BD70472B
:10083C0000380140003C01400038024000000240FA
:10084C0012B909048161704781617047002800F07A
:10085C00E48170B582B00446036813F0010F3BD0FD
:10086C00A74B9B6803F00C03042B2CD0A44B9B6868
:10087C0003F00C03082B21D06368B3F5803F4FD0F5
:10088C00B3F5A02F52D09E4B1A6822F480321A6016
:10089C001A6822F480221A606368002B50D0FFF78C
:1008AC0069FE0546964B1B6813F4003F14D1FFF705
:1008BC0061FE401B6428F5D90320B3E1904B5B68C3
:1008CC0013F4800FD8D08E4B1B6813F4003F03D069
:1008DC006368002B00F0A381236813F0020F55D03E
:1008EC00874B9B6813F00C0F3ED0854B9B6803F035
:1008FC000C03082B33D0E368002B68D0814B01220A
:10090C001A60FFF737FE05467D4B1B6813F0020F8C
:10091C0054D1FFF72FFE401B0228F5D9032081E1AB
:10092C00774A136843F480331360B5E7744B1A6845
:10093C0042F480221A601A6842F480321A60ABE7E3
:10094C00FFF718FE05466E4B1B6813F4003FC3D02F
:10095C00FFF710FE401B6428F5D9032062E1684BB9
:10096C005B6813F4800FC6D1654B1B6813F0020F44
:10097C0004D0E368012B01D0012053E1604A1368D5
:10098C0023F0F803216943EAC1031360236813F0D1
:10099C00080F40D0636963B35B4B01221A60FFF709
:1009AC00E9FD0546564B5B6F13F0020F33D1FFF791
:1009BC00E1FD401B0228F5D9032033E1504A1368AE
:1009CC0023F0F803216943EAC1031360DEE74D4BC2
:1009DC0000221A60FFF7CEFD0546494B1B6813F049
:1009EC00020FD3D0FFF7C6FD401B0228F5D9032018
:1009FC0018E1454B00221A60FFF7BCFD0546404B41
:100A0C005B6F13F0020F06D0FFF7B4FD401B0228FA
:100A1C00F5D9032006E1236813F0040F79D0384B85
:100A2C001B6C13F0805F33D100230193344B1A6C91
:100A3C0042F080521A641B6C03F080530193019BAB
:100A4C000125324B1B6813F4807F23D0A368012B44
:100A5C0034D0052B38D02A4B1A6F22F001021A67BA
:100A6C001A6F22F004021A67A368002B36D0FFF726
:100A7C0081FD0646224B1B6F13F0020F48D1FFF786
:100A8C0079FD801B41F288339842F3D90320C9E0E9
:100A9C000025D6E71D4A136843F480731360FFF7F3
:100AAC0069FD0646194B1B6813F4807FCED1FFF706
:100ABC0061FD801B0228F5D90320B3E0104A136FA7
:100ACC0043F001031367CFE70D4B1A6F42F004029A
:100ADC001A671A6F42F001021A67C5E7FFF74AFD61
:100AEC000646074B1B6F13F0020F11D0FFF742FDA8
:100AFC00801B41F288339842F3D9032092E000BF67
:100B0C000038024000004742800E4742007000400F
:100B1C00EDB9A369002B00F08480454A926802F07D
:100B2C000C02082A51D0022B17D0424B00221A601B
:100B3C00FFF720FD04463E4B1B6813F0007F42D0AC
:100B4C00FFF718FD001B0228F5D903206AE0384A8C
:100B5C00136C23F080531364DBE7364B00221A60CE
:100B6C00FFF708FD0546324B1B6813F0007F06D0DB
:100B7C00FFF700FD401B0228F5D9032052E0E36982
:100B8C00226A1343626A43EA8213A26A5208013A48
:100B9C0043EA0243E26A43EA0263254A5360254B67
:100BAC0001221A60FFF7E6FC0446214B1B6813F088
:100BBC00007F06D1FFF7DEFC001B0228F5D90320CD
:100BCC0030E000202EE000202CE0012B2CD0184B24
:100BDC009B6803F48001E269914201D0012021E07D
:100BEC0003F03F02216A8A4201D001201AE0616AB7
:100BFC0047F6C0721A408A4201D0012012E003F479
:100C0C004032A16A8A4201D001200BE003F07063EC
:100C1C00E26A93420AD0012004E0012070470120CF
:100C2C0000E0002002B070BD0120FBE70020F9E7D6
:100C3C000038024060004742324B9B6803F00C03C3
:100C4C00042B5CD0082B01D02F4870472DE9F04BBA
:100C5C002C4B5A6802F03F025B6813F4800F2BD0C8
:100C6C00284B5B68C3F388131E4600275C010025E4
:100C7C00E41A65EB0705A90141EA9461A001001B88
:100C8C0061EB0501CB0043EA5073C400A01943EBA0
:100C9C0007014B0243EAD053440220461946002375
:100CAC00FFF79EFA174B5B68C3F3014301335B00FC
:100CBC00B0FBF3F0BDE8F08B124B5B68C3F3881309
:100CCC001E4600275C010025E41A65EB0705A90107
:100CDC0041EA9461A001001B61EB0501CB0043EAE2
:100CEC005073C400A01943EB07018B0243EA9053E5
:100CFC008402204619460023FFF772FAD2E7034814
:100D0C00704700BF003802400024F40000127A0043
:100D1C00002800F09E8070B50446504B1B6803F011
:100D2C000F038B4209D2CBB24C4A1370136803F0F9
:100D3C000F038B4201D0012070BD236813F0020F0A
:100D4C0017D013F0040F04D0454A936843F4E053D2
:100D5C009360236813F0080F04D0414A936843F45E
:100D6C00604393603E4A936823F0F003A06803430A
:100D7C0093600D46236813F0010F32D06368012B8A
:100D8C0021D09A1E012A25D9354A126812F0020F79
:100D9C0061D033498A6822F0030213438B60FFF75A
:100DAC00E9FB06462E4B9B6803F00C036268B3EB21
:100DBC00820F16D0FFF7DEFB801B41F2883398427E
:100DCC00F0D90320B8E7264A126812F4003FE0D1AC
:100DDC000120B1E7224A126812F0007FD9D101201C
:100DEC00AAE71E4B1B6803F00F03AB4209D9EAB20A
:100DFC001A4B1A701B6803F00F03AB4201D0012091
:100E0C009AE7236813F0040F06D0154A936823F46D
:100E1C00E053E1680B439360236813F0080F07D08D
:100E2C000F4A936823F46043216943EAC10393603A
:100E3C00FFF702FF0A4B9B68C3F30313094AD35C09
:100E4C00D840094B1860094B1868FFF749FB002084
:100E5C0072E70120704701206EE700BF003C0240A2
:100E6C0000380240E41A0008785E012004000020DB
:100E7C00F8B505460F4616461C462B689B6837EAA4
:100E8C0003030CBF01230023B34237D0B4F1FF3F5F
:100E9C00F3D0FFF76FFB069BC01AA04201D2002CC7
:100EAC00EBD12A68536823F0E00353606B68B3F509
:100EBC00827F0BD0AB6AB3F5005F14D0012385F8A9
:100ECC005130002385F85030032018E0AB68B3F59F
:100EDC00004F02D0B3F5806FECD12A68136823F071
:100EEC0040031360E6E72A68136823F40053136089
:100EFC002A68136843F400531360DFE70020F8BD41
:100F0C0030B585B0164C2468164DA5FB0434640D21
:100F1C004FF47A7505FB04F403944468B4F5827FAE
:100F2C000BD0039BC3B1039B013B039303689B68EA
:100F3C0013F0800FF5D100230FE00B46044600920E
:100F4C0000228021FFF794FF034630B1636D43F01C
:100F5C0020036365032300E00023184605B030BD71
:100F6C00785E0120819F5E1600283BD010B50446A8
:100F7C000023836290F85130002B2ED0022384F88A
:100F8C0051302268136823F0400313606368A26831
:100F9C001343E26813432269134362691343A26942
:100FAC0002F400721343E2691343226A1343A16AE9
:100FBC0022680B431360638B03F00403616A22689D
:100FCC000B4353602268D36923F40063D361002080
:100FDC006065012384F8513010BD80F8503000F06A
:100FEC00A7FCCBE7012070472DE9F04182B090F8C7
:100FFC005040012C00F0C3801D461746884604461D
:10100C00012380F85030FFF7B5FA064694F85130BA
:10101C00DBB2012B09D00220012384F851300023CC
:10102C0084F8503002B0BDE8F081B8F1000F00F048
:10103C009880002F00F09780032384F85130002310
:10104C006365C4F83080A786E786A363A387E3872C
:10105C0063642364A368B3F5004F1CD023681A683B
:10106C0012F0400F03D11A6842F040021A60E36894
:10107C00B3F5006F15D063680BB1012F49D1226B0A
:10108C00236812781A73236B01332363E38E013BBD
:10109C009BB2E3863DE02268136843F480431360FF
:1010AC00DCE763680BB1012F15D1226B2368128822
:1010BC00DA60236B02332363E38E013B9BB2E3863E
:1010CC0009E0FFF757FA801BA84202D3B5F1FF3FA6
:1010DC004BD1002D4BD0E38E9BB2002B2CD0236830
:1010EC009A6812F0020FECD0226B1288DA60236B34
:1010FC0002332363E38E013B9BB2E386EBE7FFF7FE
:10110C0039FA801BA84202D3B5F1FF3F31D1002D33
:10111C0031D0E38E9BB27BB123689A6812F0020F38
:10112C00EDD0226B12781A73236B01332363E38E99
:10113C00013B9BB2E386ECE7324629462046FFF79B
:10114C00DFFE08B120236365A36833B901932368DC
:10115C00DA6801929B680193019B636D6BB9002067
:10116C005AE7012058E7012056E7032054E70320F3
:10117C0052E7032050E703204EE701204CE7022002
:10118C0050E7F8B507460D4616461C462A2000F0D7
:10119C0061F8380A00F07AF8F8B200F077F8300A03
:1011AC0000F074F8F0B200F071F82B2000F052F857
:1011BC00280A00F06BF8E8B200F068F8200A00F09A
:1011CC0065F8E0B200F062F82C2000F043F8F8BDAE
:1011DC002DE9F0410E461746DDF81880079D0244B4
:1011EC0092B20B449BB2013B013A9BB292B2FFF715
:1011FC00C8FF0024AC420CD2C6F5A07303FB07F366
:10120C00B5EB430F05D218F8040000F03FF8013499
:10121C00F0E7BDE8F081000008B500F069FB00F0D4
:10122C0063FA002204210248FFF70AFB08BD00BF45
:10123C000008024000B583B002A901F8010D01239A
:10124C001A460348FFF7D0FE03B05DF804FB00BF5D
:10125C009C5E012038B505460A4C0022042120462C
:10126C00FFF7EEFA00224FF400510748FFF7E8FAB7
:10127C002846FFF7DFFF012204212046FFF7E0FAA2
:10128C0038BD00BF00080240000C024038B50546CE
:10129C0001224FF400510948FFF7D2FA084C002202
:1012AC0004212046FFF7CCFA2846FFF7C3FF0122A2
:1012BC0004212046FFF7C4FA38BD00BF000C0240E1
:1012CC0000080240F8B507460D4616461C462A2073
:1012DC00FFF7C0FF380AFFF7D9FFF8B2FFF7D6FFC8
:1012EC00300AFFF7D3FFF0B2FFF7D0FF2B20FFF748
:1012FC00B1FF280AFFF7CAFFE8B2FFF7C7FF200AC1
:10130C00FFF7C4FFE0B2FFF7C1FF2C20FFF7A2FFED
:10131C00F8BD000008B5C820FFF732F900220421FF
:10132C000348FFF78DFAC820FFF72AF908BD00BF64
:10133C000008024010B504463620FFF78BFF012051
:10134C00FFF71EF9032C0CD8DFE804F0020C162072
:10135C004820FFF79BFF124BF0221A804FF4A0722B
:10136C005A8010BD2820FFF791FF0D4B4FF4A0724F
:10137C001A80F0225A80F4E78820FFF787FF084B89
:10138C00F0221A804FF4A0725A80EAE7E820FFF7A7
:10139C007DFF034B4FF4A0721A80F0225A80E0E7D5
:1013AC000800002008B5FFF737FFFFF7B3FF012057
:1013BC00FFF750FF4FF47A70FFF7E2F8CB20FFF7FE
:1013CC0049FF3920FFF762FF2C20FFF75FFF002059
:1013DC00FFF75CFF3420FFF759FF0220FFF756FFA1
:1013EC00CF20FFF737FF0020FFF750FFC120FFF79A
:1013FC004DFF3020FFF74AFFE820FFF72BFF852039
:10140C00FFF744FF0020FFF741FF7820FFF73EFF76
:10141C00EA20FFF71FFF0020FFF738FF0020FFF73F
:10142C0035FFED20FFF716FF6420FFF72FFF032099
:10143C00FFF72CFF1220FFF729FF8120FFF726FF73
:10144C00F720FFF707FF2020FFF720FFC020FFF752
:10145C0001FF2320FFF71AFFC120FFF7FBFE10202E
:10146C00FFF714FFC520FFF7F5FE3E20FFF70EFF38
:10147C002820FFF70BFFC720FFF7ECFE8620FFF7B5
:10148C0005FF3620FFF7E6FE4820FFF7FFFE3A2067
:10149C00FFF7E0FE5520FFF7F9FEB120FFF7DAFE6B
:1014AC000020FFF7F3FE1820FFF7F0FEB620FFF741
:1014BC00D1FE0820FFF7EAFE8220FFF7E7FE272087
:1014CC00FFF7E4FEF220FFF7C5FE0020FFF7DEFE7B
:1014DC002620FFF7BFFE0120FFF7D8FEE020FFF724
:1014EC00B9FE0F20FFF7D2FE3120FFF7CFFE2B20E5
:1014FC00FFF7CCFE0C20FFF7C9FE0E20FFF7C6FE4F
:10150C000820FFF7C3FE4E20FFF7C0FEF120FFF7C7
:10151C00BDFE3720FFF7BAFE0720FFF7B7FE1020FD
:10152C00FFF7B4FE0320FFF7B1FE0E20FFF7AEFE6F
:10153C000920FFF7ABFE0020FFF7A8FEE120FFF724
:10154C0089FE0020FFF7A2FE0E20FFF79FFE14205D
:10155C00FFF79CFE0320FFF799FE1120FFF796FE84
:10156C000720FFF793FE3120FFF790FEC120FFF715
:10157C008DFE4820FFF78AFE0820FFF787FE0F201C
:10158C00FFF784FE0C20FFF781FE3120FFF77EFE73
:10159C003620FFF77BFE0F20FFF778FE1120FFF7B8
:1015AC0059FE7820FEF7ECFF2920FFF753FE0020B0
:1015BC00FFF7C0FE08BD00002DE9F84300AF06465A
:1015CC000D464FEA4108B8F5FA7F01D34FF4FA758E
:1015DC0001224FF400511C48FFF732F9002204217C
:1015EC001A48FFF72DF9310AEB1D23F00703ADEB79
:1015FC00030D6C46002303E0E1545A1CA65402333D
:10160C00AB42F9D3B8FBF5F905FB1988B9F1000F1A
:10161C000AD0002606E00A23AAB221460C48FFF79E
:10162C00E3FC01364E45F6D30A231FFA88F2214615
:10163C000748FFF7D9FC012204210448FFF700F901
:10164C00BD46BDE8F88300BF000C02400008024014
:10165C009C5E012038B50546074C22886388002122
:10166C000846FFF72FFE2388618801FB03F128460B
:10167C00FFF7A2FF38BD00BF0800002038B51C469C
:10168C00184B1B889BB283422BD91546154B5B8894
:10169C009BB28B4225D98218013A124B1B889BB204
:1016AC009A4203DB0F4B1D882D1AADB20A19013A71
:1016BC000C4B5B889BB29A4203DB0A4B5C88641A26
:1016CC00A4B22A1892B263189BB2013B013A9BB2A6
:1016DC0092B2FFF7F7FD05FB04F1BDF81000FFF720
:1016EC006BFF38BD080000202DE9F0418AB00024C2
:1016FC00059406940794089409940094334B1A6B40
:10170C0042F020021A631A6B02F020020092009A37
:10171C0001941A6B42F080021A631A6B02F0800279
:10172C000192019A02941A6B42F004021A631A6B2A
:10173C0002F004020292029A03941A6B42F008021D
:10174C001A631A6B02F008020392039A04941A6B40
:10175C0042F040021A631B6B03F040030493049B9A
:10176C00DFF87480224604214046FFF769F8184FD1
:10177C0022464FF400513846FFF762F8154E2246C8
:10178C004FF4C0413046FFF75BF804230593012565
:10179C0006950794089405A94046FEF761FF4FF49F
:1017AC000053059306950794089405A93846FEF74F
:1017BC0057FF4FF4C043059306950794089405A969
:1017CC003046FEF74DFF0AB0BDE8F081003802400C
:1017DC00000C0240001802400008024030B595B0E1
:1017EC003022002108A800F063F90024039404942B
:1017FC0005940694079401941C4B1A6C42F0805289
:10180C001A641B6C03F080530193019B0294184AD9
:10181C00136823F4404343F480431360136803F4C8
:10182C0040430293029B0225089501230B9310233E
:10183C000C930E950F940823109346231193129535
:10184C000723139308A8FFF701F80F2303930495BC
:10185C0005944FF4805306934FF4A05307932946F5
:10186C0003A8FFF755FA15B030BD00BF0038024091
:10187C000070004010B582B0FEF756FEFFF7AEFFC9
:10188C00FFF732FF00F034F8FFF78CFD4FF6FF70D6
:10189C00FFF7E0FE00244FF6FF7300931923F022AC
:1018AC0021460020FFF7EAFE19340D4A82FB043270
:1018BC00E317C3EBE21303EB83039A01A31A9CB265
:1018CC00084B0193084B0093A123D62221460D20EF
:1018DC00FFF77EFC4FF4FA70FEF752FEDBE700BF19
:1018EC00676666662C0D01000C0000207047000036
:1018FC0008B50D480D4B03604FF482734360002311
:10190C008360C360036143614FF400728261C36101
:10191C000362436283620A23C362FFF725FB00B9AB
:10192C0008BDFFF7E3FFFBE79C5E01200050014080
:10193C0000B589B000230393049305930693079392
:10194C000268154B9A4202D009B05DF804FB0021E5
:10195C00019103F568435A6C42F480125A645A6C34
:10196C0002F480120192019A02911A6B42F0200249
:10197C001A631B6B03F020030293029B4FF46073FA
:10198C00039302230493032306930523079303A9CC
:10199C000248FEF765FED7E70050014000140240F4
:1019AC0000B583B0002100910C4B5A6C42F480427C
:1019BC005A645A6C02F480420092009A01911A6C9B
:1019CC0042F080521A641B6C03F080530193019B0C
:1019DC000720FEF7E9FD03B05DF804FB0038024078
:1019EC007047FEE7FEE7FEE7FEE77047704770477B
:1019FC0008B5FEF7B3FD08BD054BD3F8882042F4BB
:101A0C007002C3F888204FF000629A60704700BFE4
:101A1C0000ED00E0DFF834D0002103E00C4B5B5804
:101A2C00435004310B480C4B42189A42F6D30B4AE4
:101A3C0002E0002342F8043B094B9A42F9D3FFF72A
:101A4C00DBFF00F011F8FFF715FF704700000320D3
:101A5C000C1B0008000000207C5E01207C5E012035
:101A6C00F45E0120FEE7000070B50D4E0D4CA41B7A
:101A7C00A4100025A54209D10B4E0C4C00F020F807
:101A8C00A41BA4100025A54205D170BD56F8253025
:101A9C0098470135EEE756F8253098470135F2E7BF
:101AAC00041B0008041B0008041B0008081B00088A
:101ABC0002440346934200D1704703F8011BF9E737
:101ACC00F8B500BFF8BC08BC9E467047F8B500BF1F
:081ADC00F8BC08BC9E467047EF
:101AE40000000000000000000102030406070809CA
:081AF4000000000001020304E0
:081AFC0020E7FF7F010000005C
:041B0400D101000803
:041B0800AD01000823
:101B0C0001000000100000004001F000F7FFFFFF93
:101B1C00FFFFFFFFFFFFFFFFFFFFFFFFFFFFFFFFC9
:101B2C00FFFFFFFFFFFFFFFFFFFFFFFFFFFFFFFFB9
:101B3C00FFFFFFFFFFFFFFFFFFFFFFFFFFFFFFFFA9
:101B4C00FFFFFFFFFFFFFFFFFFFFFFFFFFFFFFFF99
:101B5C00FFFFFFFFFFFFFFFFFFFFFFFFFFFFFFFF89
:101B6C00FFFFFFFFFFFFFFFFFFFFFFFFFFFFFFFF79
:101B7C00FFFFFFFFFFFFFFFFFFFFFFFFFFFFFFFF69
:101B8C00FFFFFFFFFFFFFFFFFFFFFFFFFFFFFFFF59
:101B9C00FFFFFFFFF7FFF7FFF7FFF7FFF7FFF7FF79
:101BAC00FFFFFFFFFFFFFFFFFFFFFFFFFFFFFFFF39
:101BBC00FFFFFFFFFFFFF7FFF7FFF7FFF7FFF7FF51
:101BCC00F7FFF7FFFFFFFFFFFFFFFFFFFFFFFFFF29
:101BDC00FFFFFFFFF7FFF7FFF7FFF7FFF7FFF7FF39
:101BEC00FFFFF7FFFFFFFFFFFFFFFFFFFFFFFFFF01
:101BFC00FFFFFFFFFFFFFFFFFFFFFFFFFFFFFFFFE9
:101C0C00FFFFFFFFFFFFFFFFFFFFFFFFFFFFFFFFD8
:101C1C00FFFFFFFFFFFFFFFFFFFFFFFFF7FFF7FFD8
:101C2C00F7FFFFFFFFFFFFFFFFFFFFFFFFFFFFFFC0
:101C3C00FFFFFFFFFFFFFFFFFFFFFFFFFFFFFFFFA8
:101C4C00FFFFFFFFFFFFFFFFFFFFFFFFFFFFFFFF98
:101C5C00FFFFFFFFFFFFFFFFFFFFFFFFFFFFFFFF88
:101C6C00FFFFFFFFFFFFFFFFFFFFFFFFFFFFFFFF78
:101C7C00FFFFFFFFFFFFFFFFFFFFFFFFFFFFFFFF68
:101C8C00F7FFFFFFFFFFFFFFFFFFFFFFFFFFFFFF60
:101C9C00FFFFFFFFFFFFFFFFFFFFFFFFF7FFF7FF58
:101CAC00FFFFFFFFFFFFFFFFFFFFFFFFFFFFFFFF38
:101CBC00FFFFFFFFFFFFFFFFDF3CBE38BE38BE3922
:101CCC00BE38BE39BE59C659C659C659C638C638AB
:101CDC00C638C659C659CE59C659C659C659C65919
:101CEC00C658C659C659CE79CE9ACEBACE9ACE9A85
:101CFC00C67AC67AC67AC67AC67AC67AC67AC67AD8
:101D0C00C67AC69AC69AC69BC69BCEBBCEBBCEBB6A
:101D1C00CEBBCEBBCEDBCEDCCEDCD71DDF5DEFDFAA
:101D2C00CEBBC69AC69AC69ACEDBCEDBD6FCD6FC08
:101D3C00D6FCD6FDD71DD71DDF5EDF7EDF7FE79F8C
:101D4C00E7BFE7DFE7BFD75ED73ED75ED75ED71DCD
:101D5C00CEFCD71DE75EEFBFF7DFFFFFF7DFEFBF6E
:101D6C00E75EDF5EDF5EDF5EDF7EDF5FDF5EDF3D77
:101D7C00D71DD6FCD6FCD6FCD6FCDF1CDF1CDF1C2A
:101D8C00DF3CDF3DE77EE79EEFBFE79FE77EE75E48
:101D9C00DF1DD6FCE77EEFBEF7BFF7DFF7DFF7DF1F
:101DAC00FFDFFFFFFFFFFFFFFFFFFFFFFFFFFFFF57
:101DBC00FFFFFFFFFFFFFFFFFFFFF7FFEF9EF7BEE9
:101DCC00FFFFF7DFFFFFF7DFBE197C115B2D52ED34
:101DDC005B0D5B0D5B0D5B0D5B0D5B0D630D5B0DAF
:101DEC005B4E84B4A5B7E75DEF7DEF7DEF9EF7DF2B
:101DFC00FFFFEF9EE75DE75DDF3CD6DBBE3894F47A
:101E0C0073F063AF638E638F6BAF73F07C528CB3E4
:101E1C0084938472849284928CB38CB38CD394F418
:101E2C0094F49514951494F494F494D394F49D34FC
:101E3C0095149D149D149D34A554BDF6C637BE173C
:101E4C00BDF7BE18BDF8ADB7845184729D14AD9624
:101E5C00EF7DFFFFFFFFFFFFFFFFFFFFFFFFFFFF18
:101E6C00FFFFFFFFD71CADD7ADD7ADD7B5F7B5F793
:101E7C00B5F7B5F7B5F7B5F7B5D7B5D7B5D7B5D776
:101E8C00B5F7BDF7B5F7B5F7B5F7B5F7B5D7B5F7FE
:101E9C00B5F7BE18C679C67AC67AC67AC65ABE5A7D
:101EAC00BE5ABE5AB65AB65AB65AB65AB659B65998
:101EBC00B65ABE5ABE5ABE5ABE7ABE7ABE7ABE7ADE
:101ECC00BE7ABE7BBE9BC6BCD73DE7BFB639B65902
:101EDC00B67AB639BE7ABE7BC6BCC6DCC6BCC6BC3E
:101EEC00C6DDCEFDCF1ECF3ED77FD79FD7BFDFDF5E
:101EFC00D7BFCF5EC73EC73ECF1EC6DDBEBCC6FD3C
:101F0C00D75EE7BFF7FFFFFFF7FFE79FDF5EDF5E00
:101F1C00D75ED75FDF5FDF5FD73ED6FECEDDCEBCB0
:101F2C00CE9CCE9CCEBBCEDBCEDBD6FCD6FCD71C5F
:101F3C00DF3DDF7EE77EDF7EDF3DD6FDCEBCC67AA1
:101F4C00D6FCDF3DDF3DDF5DE79EEFBFEFBEFFFF61
:101F5C00FFFFFFFFFFFFFFFFFFFFFFFFFFFFFFFF85
:101F6C00FFFFFFFFFFFFEFBED6FCDF3DE75DE75D48
:101F7C00EF9EE77DA577530E31EA31C931EA31EA9C
:101F8C0031EA31EA31EA320A320A320A324B6C3324
:101F9C008D36DF3EE75DE75DE75DEFBEF7FFEF9E59
:101FAC00D6FBBE3995356BF14AEC3A8B3A8B3AAC91
:101FBC0042CD532E5B8F6BD06C116BD063AF63AF84
:101FCC0063CF63D063D06BF074317431745174513E
:101FDC0074517431743174107C307C517C307C5170
:101FEC00847184918CB29D34A574A554A574A59567
:101FFC00A57594F4638F52ED6BAFAD96E77DF7FF4B
:10200C00FFFFFFFFFFFFFFFFFFFFFFFFFFFFFFFFD4
:10201C00D71CADD7ADB6ADD7ADD7ADF7ADF7B5F7DE
:10202C00ADF7ADF7ADF7B5F7B5F7B5F7B5F7B5F75C
:10203C00B617B617B5F7B5F7B5F7B5F7B5F7BE18C8
:10204C00BE59BE5AC67ABE7ABE5ABE5ABE7ABE7A3D
:10205C00BE7ABE7ABE7ABE7ABE9BBE9BBE9BBE9B30
:10206C00C69BC69BC69BC69BC69BC69BC69BC6BC3B
:10207C00BEBCC6BCCF1DE7BFB639B639B67AB65AA8
:10208C00B67ABE7BBE9CC6BCBEBCC6BCC6DDC6DDBD
:10209C00C71EC73ECF5FCF7FD79FD7BFCF9FCF7F06
:1020AC00C73EC71EC6FEBEDDBEBCC6DCD75EE7DFC4
:1020BC00F7FFFFFFF7FFE79FDF5FD75FD75FD77FA4
:1020CC00D77FD75FD73FCF1ECEDDCEDDCEBCCEBC0B
:1020DC00CEDCCEDCCEFCCEFCCEFCD71DDF5EE79F8B
:1020EC00E7BFDF9FDF7FD73ECEDCBE5ACEDCD6FC0F
:1020FC00CEFCCEFCD71CD71CDF5DF7DFFFFFFFFF4C
:10210C00FFFFFFFFFFFFFFFFFFFFFFFFFFFFFFFFD3
:10211C00F7FFEFDFE77EEFBFEFDFEFDFEFDFE77E0D
:10212C009D77530E31EA29C931EA31EA31EA31EAB5
:10213C00320B320B320A320A326C6C338D57D75E4B
:10214C00DF7EDF7DDF7DE77DDF3DB6187C515B4DAB
:10215C00428B3A8B3A8B42AC42ED4B4E5BB05BD12F
:10216C0063B05BB05B8F5B8F63AF63B063CF63CFE8
:10217C0063D06C1074317431745174527431743185
:10218C00743174307430741074307C518471849157
:10219C008CB294D294F294D294F394F39514743147
:1021AC004AED530D5B6EB5F8EF9EFFFFFFFFFFFF8F
:1021BC00FFFFFFFFFFFFFFFFF7FFF7DFD6FBADD7FA
:1021CC00ADD7ADD7ADD7ADD7ADF7ADF7ADF7ADD783
:1021DC00ADD6ADD6ADD7B5D7B5D7B5D7B5F7B5F76D
:1021EC00B5F7B5F7B5F7B5F7ADD6B5F7BE59BE7AB5
:1021FC00BE7ABE5ABE5ABE5ABE5ABE5ABE5ABE5AF3
:10220C00BE5ABE5ABE5ABE5ABE7BBE7BBE7BBE7B7E
:10221C00BE7BBE7BBE9BBE9BC69CC6BCC6BCCEDD7D
:10222C00D71EEFBFC69BB5F9BE5AB65AB65ABE7A80
:10223C00BE9BC6BCBE9BC6BCC6BCC6BCC6FDC71D31
:10224C00CF5ED77FD79FD79FCF9FCF5ECF3FC71E85
:10225C00C71EBEDCBEBBC6DCD75DE7BFF7FFFFFF0A
:10226C00F7FFEFBFDF7FD77FD77FCF7FD79FD77F9A
:10227C00D75FCF3ECEFDCEDCC6BCCEDCCEDCCEDC1A
:10228C00CEFCCEFCCEFDD71DD75EDF9FE7BFDF9F18
:10229C00DF9FDF5FCEFDC6BCDF7EEFDFE7DFEFDF6A
:1022AC00EFDFEFDFEFDFFFFFFFFFFFFFFFFFFFFFC2
:1022BC00FFFFFFFFFFFFFFFFFFFFFFFFF7FFF7FF32
:1022CC00E77EEFBFF7DFF7FFF7FFEFBF9D774AED34
:1022DC0029E929C929E931EA31EA31EA31EA31EA55
:1022EC0031E931E9324B6C539577D73DDF3DCEFC6C
:1022FC00B6398CF463CF4AEC3A8A428A428B42ACB0
:10230C004AED534E5B6F5B8F5B8F5B6F5B6F5B6FED
:10231C005B8F638F638F63AF63AF63AF63B06BF03F
:10232C006BF174117431743174116C116C106C107C
:10233C006C106BF0741074307C517C7184928CB185
:10234C008CB18CB28CD28CD38CD36BAF4AED4AED62
:10235C00638FBE5AEFBFF7FFFFFFFFFFFFFFFFFFCB
:10236C00FFFFEFBFD71CE75DD6FBADD7ADD7ADD721
:10237C00ADD7ADF7ADF7ADF7ADF7ADF7ADF7B5F749
:10238C00ADD7B5D7B5D7B5F7B5F7B5F7B5F7B5F749
:10239C00B5D6B5D6B5D6B5F7BE59C69AC69ABE7AD5
:1023AC00BE7ABE7ABE7ABE7ABE7BBE7BBE7BBE7B5D
:1023BC00BE5ABE5ABE5BBE5BBE7BBE7BBE7BBE7BCB
:1023CC00BE7BBE9BBE9BBE9BC69CC6BCD6FDEFBF58
:1023DC00C67AADD8B63AB63AB65AB65ABE7AC69B93
:1023EC00BE7BBE9BC69BC6BCC6FDC71DCF3ED75E83
:1023FC00D77FD79FD77FCF5ECF3FCF1ECF1EC6DCF8
:10240C00BE9BC6DCD73DE7BFF7FFFFFFF7FFEFBF73
:10241C00DF7FD77FD77FD79FD79FD77FD75ECF3D23
:10242C00CEFCCEDCC6BBCEDBCEDCCEDCCEFCCEFD19
:10243C00CEFDCF1DD73EDF7FDF9FDF7ED75ED71E61
:10244C00CEDCBE9BD73DDF7EDF9EE79EEFDFEFDF6E
:10245C00F7DFF7FFFFFFFFFFFFFFFFFFFFFFFFFFB0
:10246C00FFFFFFFFFFFFFFFFF7FFEF9ED6FCDF5DD7
:10247C00DF5DE77EE77EDF3D95354AEC29E929C82B
:10248C0029E931E931E931E931E931E931E931E978
:10249C003A6B74539D97DF3DADF87431530D428BFD
:1024AC00428B428B428B4ACC530C5B4D5B4E5B4E4A
:1024BC005B4E5B4E5B4E5B4E5B6F5B6F5B6F636F3C
:1024CC00638F638F638F638F63AF6BD06BF073F12C
:1024DC007411741173F16BF06BF06C106BF06BCFBB
:1024EC0073F074307C307C518471849184918CB104
:1024FC008CB28CD28CB3636E4AEC4AED73F0CEBBCB
:10250C00F7DFFFFFFFFFFFFFFFFFFFFFF7FFDF5DC1
:10251C00CEDCDF3DCEDBADB6A5B6A5B6ADD7ADD71F
:10252C00ADD7ADD7ADD7ADD7ADD7B5D7B5D7B5D767
:10253C00B5F7B5D7B5D7B5D7B5F7B5F7B5D7B5D7CF
:10254C00B5D6B5F7BE39BE7ABE7ABE7ABE7ABE7A39
:10255C00BE7ABE7ABE7BBE7BBE7BBE7BBE9BBE9B69
:10256C00BE9BC69BC69CC69CC69CC69CC69CC6BC39
:10257C00C6BCC6BCC6BCC6DCD71DE7BFBE7AADD8D0
:10258C00B65AB63AAE3AB65AB67ABE9BB67BBE9B34
:10259C00BE9CBEBCC6FDC6FDCF1ECF5FD77FD77F0E
:1025AC00CF7FCF5FC71FC71FCF1FC6FDBEBCC6DC0A
:1025BC00CF1DE7BFF7FFF7FFF7FFEFBFDF7FD77F39
:1025CC00D77FD79FD79FD77FD75FD73ECEFDCEDCA7
:1025DC00CEBCCEDCCEDCCEDCCEFCCEFCCEFDCF1D1C
:1025EC00D75EDF9FE7BFDF9EDF7ED73ECEDCBE5AD5
:1025FC00CEDCCEFCD6FCD6FCD71CDF1CDF5DF7DFB7
:10260C00FFFFFFFFFFFFFFFFFFFFFFFFFFFFFFFFCE
:10261C00FFFFFFFFFFFFEFDFE77DEFBFEFBFEFDF58
:10262C00EFBFE75D95354ACD29E929C929E931E99B
:10263C0031E931E931E931E931E931E93A6B63F1F9
:10264C00A598CEDC6BAF3A6B428B3A6B428B4AEC63
:10265C00530D532D532D5B4E5B4E5B4E5B4E5B4EC1
:10266C005B4E5B4E5B6E5B6F5B6F5B6F5B6F5B8F31
:10267C005B8F63AF63AF63D06BF06BF06C106BF080
:10268C006BF06BF06BF06BF06BD06BCF73F0741076
:10269C007C307C518451847184718C918CB28CB25D
:1026AC0084725B2D4AEC4AEC8492D6FBF7FFFFFF59
:1026BC00FFFFFFFFFFDFFFFFDF1DDF5EDF7EE79F1A
:1026CC00D6FBB5F7B5F7ADD7B5F7B5F7B5F7B5F7A1
:1026DC00ADD7B5D7B5D7B5D7B5D7B5D7B5D7B5D796
:1026EC00B5D7B5D7B5D7B5D7B5F7B5D7B5D7B5F73E
:1026FC00B638BE59BE59BE59BE59BE5ABE5AB65A44
:10270C00B67AB67AB67AB67AB67AB67AB67AB67A3D
:10271C00BE7BBE7BBE7BBE9BBE9BBE9BC69BC6BC14
:10272C00C6BCC6FDCF3DE7BFCEFCA5D7AE59AE3972
:10273C00AE3AAE3AB67BB69BB67BB69CB69CBEBDEB
:10274C00BEDDC6FEC71ECF5FCF5FCF7FCF5FC73F5B
:10275C00C71FC71FCF3FC6FEBEBDBEDCCF1DDF9F50
:10276C00F7FFF7FFF7FFEFBFDF7FD77FD77FD79F4D
:10277C00DF7FD75FD75FD71ECEFDCEDDCEBCCEBC04
:10278C00CEDCCEDCCEFCCEFCCEFDD71DDF5EE7BFB3
:10279C00E7BFE7BFDF9FDF7ED71DCEDCE77EEFBF55
:1027AC00EFBFEFBFF7BFF7BFF7BEFFFFFFFFFFFFA6
:1027BC00FFFFFFFFFFFFFFFFFFFFFFFFFFFFFFFF1D
:1027CC00FFFFF7DFE77EF7DFF7FFF7FFF7FFE79E87
:1027DC009D564AED29C929C931E931E931E931E977
:1027EC0029CA29E931E932092A2A42ED9D97BE7A94
:1027FC004AED428B42AC4AED530E532E532E532EC0
:10280C00532D534E532E532E534E534E534E534E15
:10281C00534E536E536E5B6E5B6E5B8E5B8E5BAF1B
:10282C005BAF63CF63CF63CF63F063F063F063F0B0
:10283C006BCF6BCF6BCF6BCF73F074107C107C3184
:10284C0084518451847184918C928CB27C3152CCA1
:10285C004AEC530C9514DF3CFFFFFFFFFFFFFFDF3B
:10286C00FFDFF7DFC69BBE7ADF7FEFDFDF3CBE38D2
:10287C00BE38BE38BE39BE39BE39B639BE38BE38A0
:10288C00BE38BE38BE38BE18BE18B618BE18BE1834
:10289C00B617B5F7B5F7B5F7B5F7B5D7BE39BE7AF4
:1028AC00C69AC69ABE7ABE7ABE7ABE7ABE7BBE7B0A
:1028BC00BE7BBE7BBE7BBE7BBE7BBE7BBE7BBE7B44
:1028CC00BE7BBE7BBE7BBE9BBE7BC69CBE9CC6BD80
:1028DC00CEFDE7BFCEDC9D76B639AE39AE19AE195A
:1028EC00B65AB67BAE5AAE7BAE9BB6BCB6DDBEFD61
:1028FC00C71EC73FCF3FCF5FCF3FC71EC71FC71FE6
:10290C00C71FC71EBEBCBEBCCF1DDF9FEFDFF7FFCE
:10291C00F7FFEFBEDF7ED77FD77FD77FD77FD77FFD
:10292C00D75FCF3ECF1DCEDCC6BCC6BCCEDCCEDC6A
:10293C00CEFCCEFDCEFDCF1DD75EDF7EDF9FDF7FD1
:10294C00DF7ED73ECEFCC69BDF5EE7BFEFBFEFBF9F
:10295C00F7DFF7DFFFDFFFFFFFFFFFFFFFFFFFFFEB
:10296C00FFFFFFFFFFFFFFFFFFFFFFFFF7FFE79EEC
:10297C00D71CDF5DDF5DDF5DE77ED71C9536530E20
:10298C0029C929A829A831C929A931C931C931C9ED
:10299C0031E931E9320942CCA5D8ADF842AB4AEC69
:1029AC00530D532D532D532D532D532D532E532D3A
:1029BC00532D532D534E532D532E534E534E534E86
:1029CC00534E5B4E5B4E5B6E5B6E5B8F5B8F63AF90
:1029DC0063AF63AF63AF63AF63CF63CF6BCF6BAFEB
:1029EC006BAF6BCF73EF73EF74107C107C31845131
:1029FC0084518471849184726BD04ACC42AB530D58
:102A0C00ADB7E73DFFFFFFFFFFFFFFFFFFFFDF3D20
:102A1C00BEBCA61ACF7EDFBFDF3CBE38BE38BE3888
:102A2C00BE59BE59BE59BE59BE39BE39BE39BE3962
:102A3C00BE59BE39BE39BE39BE38BE38BE38BE17D7
:102A4C00BE17BE17BE18B618BE39BE7ABE7ABE7A8D
:102A5C00BE7ABE7ABE7ABE7ABE7BBE7BBE7BBE7BA6
:102A6C00BE9BBE9BBE9BC69BC69BC69BC69BC6BC49
:102A7C00C69BC69BC6BCC6BCC6BDC6BDCEFDE7BF0D
:102A8C00CEDC9D76AE19AE19A619A619A63AAE5A89
:102A9C00A63AAE5AAE5AB69BB6BCBEBDBEFDC71E5C
:102AAC00C73FC73FC73FBF1EC71FC71FC71FC71E94
:102ABC00BEBCBEBCCEFDDF7FEFDFF7FFF7FFEFBE86
:102ACC00DF7ED79FD79FD77FD77FD77FD75FCF3E6C
:102ADC00CF1DCEDCC6BCC6DCCEDCCEDCCEFDCEFD46
:102AEC00CEFDCF1DD75EDF9EDF9FDF9FDF7FD73E02
:102AFC00CEDCBE5ACEDCD6FCD6FCD71CDF1CDF3DB0
:102B0C00E75DF7DFFFFFFFFFFFFFFFFFFFFFFFFFAB
:102B1C00FFFFFFFFFFFFFFFFF7FFEFBFE77EEFBFFA
:102B2C00EFDFEFDFEFDFD71C9D56532E29C829A806
:102B3C0031A831C831C931C931C931C831E931E89D
:102B4C0031E84ACCA5B79D563A8B4B0D532E532EDC
:102B5C00532D532D532D532E532E532E532D532D66
:102B6C00532D5B4E532D534E532E532E534E534ECB
:102B7C00534E5B4E5B6E5B6E5B8E5B8E5B8E5B8FC8
:102B8C005B8F5B8F638F63AF63AF6BAF6BAF6BCFE1
:102B9C0073CF73EF73F07C107C107C307C518451BC
:102BAC0084717C71638F42AB42AB5B4EB619EF9E66
:102BBC00FFFFFFFFFFFFFFFFFFFFCEBB95987D16CA
:102BCC008D97B65ADF3CBE38BE38BE38BE18B63804
:102BDC00B638B638BE18BE18BE18BE18BE18BE1809
:102BEC00BE38BE38BE38BE38BE38BE17BE17BE178C
:102BFC00BE18BE18B619BE5ABE5ABE5ABE5ABE5AD6
:102C0C00B65AB65ABE5ABE5ABE5ABE5ABE5ABE7BE7
:102C1C00BE7BBE7BBE9BBE9BBE9BC69BC69BC69B08
:102C2C00C6BCC6BCCEDCCEFDD71DE7BFD75D9DB7FD
:102C3C00A618A6199E199E19A619AE3AAE19AE1A67
:102C4C00B61AB65BB67CB69CBEBDBEFEC6FEC71F32
:102C5C00C71FBEFEC71FC6FEC71EC71EBEBCBEBC5E
:102C6C00C6FDDF7EEFDFF7FFF7FFEFDFDF7ED77FFD
:102C7C00D77FD77FD77FD77FD75FCF1ECEFDCEDC58
:102C8C00C6BCC6DCCEDCCEDCCEFDCEFDCEFDD71D6B
:102C9C00DF5EE7BFE7DFE7DFE7BFDF9FD75ECEDCB6
:102CAC00E77EEFBFEFBFEFBEEFBEEF9EEFBEF7FFCD
:102CBC00FFFFFFFFFFFFFFFFFFFFFFFFFFFFFFFF18
:102CCC00FFFFFFFFF7FFEFDFE77DEFDFF7FFF7FF1A
:102CDC00F7FFDF3D9D15636F52AB632D5AEC52EC41
:102CEC0052CC52ED5B2E634E632D5B0C5AEC7C5137
:102CFC00B61884933A8B530D5B4E534E532E532E72
:102D0C00532E532E532E532D638F6BF063AF5B4DAD
:102D1C00532D532E532E532D532E532E532E534E81
:102D2C00534E5B4E5B6E5B6E5B8E5B8E5B8E5B8E17
:102D3C005B8F638F63AF63AF6BAF6BCF6BCF73CFB7
:102D4C0073EF74107C107C307C307C5184717C511E
:102D5C005B4D428B42AB638FBE5AF7DFFFFFFFFF29
:102D6C00FFFFFFFFF7DFBE597CF56CB49DD8BE9B0F
:102D7C00DF5CBE38BE59BE59BE18B638B639B63946
:102D8C00B618B618B618B618B618B618BE18BE3897
:102D9C00BE38BE38BE38BE37BE17BE17BE18BE18FA
:102DAC00B618BE59BE59BE5ABE5AB65AB65AB65ABB
:102DBC00B65AB65AB65AB65AB65ABE5ABE5ABE5A6F
:102DCC00BE5BBE7ABE7ABE7BBE7AC67AC6BBDF3D20
:102DDC00E79EE79ED73DE79ECF1C9596A5F89DF8FC
:102DEC008DF88DD78DF78DF8961896199E399E5AB9
:102DFC00A67BA67CAEBCAEDDB6DDBEFEBEDEBEBE28
:102E0C00BEFEC6FEC71EC71EBEBDBEBCC6DDD75E9F
:102E1C00EFDFF7FFFFFFEFDFDF7FD77FD77FD77FB6
:102E2C00D77FD75FCF3FCF1ECEFDCEDDC6BCC6BC95
:102E3C00CEDCCEDCCEFDCEFDCEFDCF1DD75EDF9E33
:102E4C00DFDFDFBFDFBFDF9FD73ECEDCE77FEFBF2B
:102E5C00EFDFEFFFF7FFF7FFF7FFF7FFFFFFFFFFD6
:102E6C00FFFFFFFFFFFFFFFFFFFFFFFFFFFFFFFF66
:102E7C00F7FFE77ED71CE77DE77DE77DE77ECEBBDE
:102E8C008C72738E8431AD5573AE634D4AAB52EC7C
:102E9C006BAF7BF0632D6B4C8430DF1BD6FC6BF07F
:102EAC0042AB532D5B4E5B4E532E532E532E534E33
:102EBC00534E7431BE7AD71DCEBB7411532D530DA6
:102ECC00530D530D532D532E532E532E532E532E31
:102EDC00534E5B6E5B6E5B6E5B6E5B6E5B8E5B8F85
:102EEC00638F63AF63AF6BCF6BCF6BCF73EF73F04D
:102EFC00741074107C307C307C517430530C428BC9
:102F0C00428B7410CEDBF7DFFFFFFFFFFFFFFFFFED
:102F1C00F7FFADF87CD47CF5CF5EE79EDF3CBE3886
:102F2C00BE59BE59BE39B638B639B639BE38BE38B8
:102F3C00BE38BE38BE18BE18BE18BE38BE18BE1875
:102F4C00BE18BE17BE37BE17BE18B5F8ADD8B63909
:102F5C00BE59BE5AB659B65AB659B639B63AB63A39
:102F6C00B63AB63AB63AB63AB65ABE5ABE5ABE7A1D
:102F7C00BE7ABE7ABE7AC69ADF3DF7DFFFFFFFFF4F
:102F8C00EFBEE79ECEFC8D3595968D965D134491E4
:102F9C0044D144F2453345534D9455D55DD66DF728
:102FAC0076387E59867A969B9E9CA6BCBEDDC6FE64
:102FBC00C71EC71EC6DDBE9CC6DCD73EEFBFF7FFE3
:102FCC00F7FFEFBFDF7FD77FD77FD75FD75FCF3FCD
:102FDC00CF3ECF1ECEFDCEDDC6BCC6BCCEDCCEDC1D
:102FEC00CEFDCEFDCEFDD71DD73EDF9EE7BFE7BFA2
:102FFC00E7BFDF9FD75EC6DCD73DDF5EDF5DDF7DE1
:10300C00E79EE79EEF9EF7FFFFFFFFFFFFFFFFFF2F
:10301C00FFFFFFFFFFFFFFFFFFFFFFFFFFFFEFBE05
:10302C00E79EEFDFEFDFF7DFEFDFE79EBDD77BAE8D
:10303C009CD3DEBADEDBCE797C109514BE18BDF7BE
:10304C008C309CB19CB2EF5DD6DB636E42AC532DE1
:10305C00534E5B4E534E5B4E5B4E534E5B8FB5F8EF
:10306C00DF7EE77EEFBFB6185B4E532D532D530D0D
:10307C00530D532D530D532D532D532E534E5B4E39
:10308C005B6E5B6E5B8F5B8F5B8E5B8F638F638F17
:10309C0063AF63AF63AF6BCF6BCF6BCF73F073F07A
:1030AC0074107430743073F04AAB3A6B42AC849346
:1030BC00D6FCF7DFFFFFFFFFFFFFFFFFF7FFB63880
:1030CC0085358D98B69BDF7EDF3CBE58BE59BE5908
:1030DC00BE39BE38B638B639BE38BE38BE38BE1862
:1030EC00BE18BE18BE18BE18BE18BE18BE38BE38E4
:1030FC00BE38BE17BE18B5D7ADB7B639BE59BE5A15
:10310C00B639B659B639B639AE19AE19AE19AE19BB
:10311C00B619B619B63AB63ABE5ABE5ABE5ABE5AC5
:10312C00C65ACEBBEFBFFFFFFFFFFFFFF7DFE7BFC6
:10313C00CEFB7CB27C926C714C2F3BEE340E2BEEA2
:10314C002C0E2C4F244F2C902CB02CD12CF12CD19C
:10315C003CF244F3551475D7AEBCBEDDC6FEC71E9B
:10316C00C6FDC6BCC6DDD73EE7BFF7FFF7FFEFBF16
:10317C00D77FD77FD77FD75FD75FCF3FCF3FCF1ECC
:10318C00CF1ECEDDC6BCC6BCCEDCCEDCCEFDCEFDAD
:10319C00CEFDD71DD75EDF9EEFDFEFDFEFDFEFDF7A
:1031AC00E7BFDF5EDF7EDF9EE79EE79EE79EE79E42
:1031BC00EF9EF7DFFFFFFFFFFFFFFFFFFFFFFFFFAC
:1031CC00FFFFFFFFFFFFFFFFFFFFF7DFEF9EF7DFC4
:1031DC00F7FFF7FFF7FFF7FFC6388C30AD54EF5C05
:1031EC00FFDEEF7D9D34BE39DF3CD6DAA4F3AD13A0
:1031FC00A512EF5CC65952EC4ACC532D534E5B4E84
:10320C00532E5B4E534E5B4E7431D71DDF3DDF5D4D
:10321C00E77EEF9E8492530D530D4B0D530D532DA2
:10322C00532D532E534E5B4E5B6E5B6F5B6F5B6F20
:10323C005B6E5B4E5B4E5B6E638F638F638F63AFB6
:10324C0063AF63AF6BAF6BCF73F073F0741074102C
:10325C00741063AF428B3A6B42AC9515D71DF7DFF8
:10326C00FFFFFFFFFFFFFFFFF7FFCF1CA619A63ADA
:10327C00B65ADF5DDF3CBE58BE59BE59BE59BE388A
:10328C00B638B639BE38BE18BE38BE38B618B61801
:10329C00B618B618BE18BE18BE38BE38BE38BE1723
:1032AC00BE18ADB7A597B618BE59BE39B639B639E2
:1032BC00B639B619AE19AE19AE19AE19AE19B61992
:1032CC00B63AB63AB63ABE39BE39BE39C67AE77E98
:1032DC00F7FFF7BFFFDFFFFFFFFFEFDFC6BB6C1091
:1032EC0063AE5B4C4AEC42AB3AAB3AAB32CB3B0CE9
:1032FC003B2C3B4D338D33CE340E340E340F3C30DF
:10330C004C917575A67BBEBDBEDDC71EC6FDC6DD68
:10331C00C6BDCF1EE79FF7FFF7FFEFBFD75ED77F86
:10332C00D75FD75FCF3FCF3FCF1ECF1ECEFECEDDB8
:10333C00C6BCC6BCCEDCCEDCCEFDCEFDCEFDD71DD4
:10334C00D75EE7BFF7DFF7FFF7FFF7FFEFDFE7BF6A
:10335C00E7BFE7DFEFDFF7DFF7FFF7FFFFFFFFFF69
:10336C00FFFFFFFFFFFFFFFFFFFFFFFFFFFFFFFF61
:10337C00FFFFFFFFFFFFEF9EE77DEFBEEFBEEFBE4F
:10338C00EFBEEFBEBE17AD54AD54EF5CBDF7AD55FF
:10339C00AD96BE39D6FCD6BAAD54AD54AD33EF7C38
:1033AC00B5F7428B4ACC532E532E534E532D5B4EB6
:1033BC005B4E5B4E9535D71DDF3DDF1CDF5DEF9E11
:1033CC00C69B636E532D532E532E534E534E534E5A
:1033DC00534E534E532E532D532D532D532D532E9D
:1033EC005B4E5B8F63AF63AF63AF63AF638F5B6E3B
:1033FC00636E638E6BAF6BCF6BCF6BCF6BCF5B4E54
:10340C003A6A3A4B4ACCA597DF3DF7FFFFFFFFFF27
:10341C00FFDFF7DFF7FFE79EBE9BB69BBE9BDF7E11
:10342C00DF3CBE58BE59BE59BE59BE39B638B63847
:10343C00BE38BE18BE38BE18B618B618B618B618B0
:10344C00BE18BE18BE18BE17BE17BE17B5F8ADB65F
:10345C00A576B5F8BE39B639B639B639B639B61916
:10346C00ADF9ADF9ADF9ADF9ADF9AE19B619B619AD
:10347C00B619B619B639BE39D6FCF7DFF7BFEF9ED1
:10348C00F7BEFFFFFFFFF7FFC6BA6BCF5B4C4AEAF4
:10349C004AAA4A6A422942293A09422942093A0966
:1034AC00422952AB530C3AAB3ACB3AEB4B6E7CF411
:1034BC00AE3AB69CBEBDC6FEC6DDC6BDC6BDCEFE12
:1034CC00E77FF7DFF7FFEFBFD73ED75FD75FCF3E82
:1034DC00CF1FCF1FCF1EC6FDCEFDC6DDC6BCC6BCE2
:1034EC00CEDCCEDCCEFDCEFDCEFDD73ED75EE7BF2B
:1034FC00F7DFFFFFFFFFF7FFF7FFE7DFEFFFE7FF68
:10350C00F7FFF7FFFFFFFFFFFFFFFFFFFFFFFFFFCF
:10351C00FFFFFFFFFFFFFFFFFFFFFFFFFFFFFFFFAF
:10352C00F7FFF7FFF7DFF7FFF7FFF7FFF7FFF7FFFF
:10353C00C638AD74AD75DEFA9CD28C51AD96C65AB8
:10354C00DF1CCE79BDD6BD95AD53E73C9D353A6AAF
:10355C004AEC532E532E532E532D530D5B4E5B6F53
:10356C00ADF8DF1DDF3DDF1CDEFCE75DEFBF9D35F9
:10357C005B4E532E532E532E532E532D532D530D32
:10358C00532D532E532E534E534E5B4E5B4E5B6F4F
:10359C005B6F5B6E5B8F638F638F5B6E5B4E636E7B
:1035AC00638E638E638E638E638E4B0C3A4A3A4AFB
:1035BC00532DB619DF5DF7FFFFFFFFFFFFFFFFDFA6
:1035CC00F7FFF7FFDF9FCF1ECF3DE7BEDF3CBE38D6
:1035DC00BE59BE59BE39BE38BE38BE38BE38BE38EC
:1035EC00BE38BE18BE18B618B618B618B617BE1721
:1035FC00BE17BE17BE18BE38BE17AD96A576ADD792
:10360C00B638B639B618B618B618ADF8ADD8ADD8B8
:10361C00A5D8A5D8ADF9ADF9AE19B619B619B61924
:10362C00B618C69AEFBEF7DFEF9DEF7DEF9DFFFF5B
:10363C00FFDFFFDFC6DB63AE5AEB42CA4AAA4A6A17
:10364C00424942294A294A294A294A094A296B4DA1
:10365C0083EF630C52CB4ACB532D7CB3ADF9BE7CBC
:10366C00BE9CC6DDC6DDC6BDC6BDCEDDDF7FF7DFC9
:10367C00F7FFEFBFDF1ED71FD71FD6DFCF1FCF1F20
:10368C00CF1ECEFDC6DDC6BCC6BCC6BCCEBCD6DC11
:10369C00D6FDCEFDD71DD73ED77EE7BFF7FFFFFF88
:1036AC00FFFFF7FFF7FFEFDFEFDFEFFFF7FFFFFFA6
:1036BC00FFFFFFFFFFFFFFFFFFFFFFFFFFFFFFFF0E
:1036CC00FFFFFFFFFFFFFFFFFFFFFFFFF7FFF7FF0E
:1036DC00F7FFF7FFFFFFFFFFFFFFFFFFC6389CF36D
:1036EC009CF3CE38A5349CD3A555BE39D6FCD69ABE
:1036FC00C5B5BD73B553CE7984723A6A530D5B0D63
:10370C005B2D532D5B0D5B0D5B2E63B0C67ADEFC1F
:10371C00E71DDF1CDEFCDF1CEF7EDF1C73F0530D9E
:10372C00530D532E4B0D4B0D530D530D530D530E7B
:10373C004B0D4B0D530D532E532E532E534E5B4EA0
:10374C005B4E5B4E5B6E5B6E5B6E5B4E5B4E5B6EA5
:10375C005B6E5B4E5B6E4AAC322A3A4B5B6FBE7A49
:10376C00DF7EF7FFFFFFFFFFF7FFEFFFEFFFEFDF5E
:10377C00E7BFDF9FDF7EEFBFDF3CBE38BE38BE58F1
:10378C00BE38BE38BE18BE18BE38BE38B618B6180D
:10379C00BE38BE18B618B618B618BE18BE38BE3825
:1037AC00BE18BE18BE38AD96A555ADB6B618B6182F
:1037BC00B618ADF8ADF8ADD8A5B8A5B8A5B8A5D8CC
:1037CC00A5D8A5D8ADD8ADF9B618B619BE39E75DF0
:1037DC00F7DFEF9EEF5DE75CEF9DF7FFFFDFFFDFAD
:1037EC00BEBA6B6D624952484A494A494A28420757
:1037FC0041E74207420742074A075AAA6B0B62AAE3
:10380C005A695A8A62EC8C31ADD8BE7ABE7BCEBC7A
:10381C00CEDCC6BCC6BBCEDCD75DE7DFEFFFE7DF97
:10382C00CF3CCF1DCEFDCEFDD6FDD6DDD6DDD6DC14
:10383C00D6BCCE9BCE7ACE9ACE9BD6BBD6DCD6DC73
:10384C00D6FCDF1DDF5EE7BFFFDFFFDFFFDFFFDF43
:10385C00FFDFFFBEFFBEFFDFFFDFFFBFFFBFFFBF0E
:10386C00FFDFFFDFFFDFFFDFFFBFFFBFFFDFFFDF9C
:10387C00FFDFFFDFFFDFFFDFFFDFFFDFFFDFFFDF4C
:10388C00FFDFFFDFFFDFFFDFC5D694509C91CDF744
:10389C009CB294729CF3BDF8D6DBCE18B4F2C5532F
:1038AC00BD53C5957B6E524A62EC630D630D630C80
:1038BC006AEC6AED630D7431CEBBDEFCE6FCDEFC1B
:1038CC00DEDCD6DBE71DF7BFB5D7530D4AED4ACC8E
:1038DC004AED4AED4AED4AEC4AED4AED4B0D4B0DE3
:1038EC00530E530E532E532E532E534E534E534EA4
:1038FC005B4E5B4E5B4E5B6E5B6E5B4E534D534E45
:10390C005B4E428B3A2A3A4B6BF1C6BBE77EF7DF34
:10391C00FFFFEFBFDF5DD75DD73DD71DCF1CCEDCE2
:10392C00C6BBDF5DE75DCE9AC679CE9AC699C679DD
:10393C00C679C699C679C679C679C679C679C67963
:10394C00C679C659C659C659C659BE58BE58BE388E
:10395C00BE38ADD6AD96ADD7B618B618B618B5F804
:10396C00ADF8ADF8ADD8ADD8A5B7A5B7ADB7ADD856
:10397C00ADD8ADF8B5D8B5F8D6DBF7DFEF9EE75D7F
:10398C00E71CE71CE75CEF9EF77EF7BFC6998B4DF3
:10399C00A28B9229922992298A098A098A098A2951
:1039AC008229822982498A8A92AA8A698A6A926AB7
:1039BC00928BAB4EC432CCB4CCB4D4F5DD16D4F56A
:1039CC00D4F5D516DD77EDD8F619EDF8DD77DD56A3
:1039DC00DD57DD57DD57DD77DD77DD57DD57DD56FC
:1039EC00DD56DD56DD77DD77E598E5B8E5D8E5F908
:1039FC00EE19EE5AF6BBF6DBF6DBF6DBF6BAF69A08
:103A0C00F6BAF6BAF6BBF6BBF6BBF6BBF6BBF6BB24
:103A1C00F6BBF6BBF6DBF6DBF6DBF6BAF6BAF6BAB5
:103A2C00F6BAF6DBF69AF67AF67AF67AF679EE7953
:103A3C00EE79EE59B4B19BEEAC70C554A4719451AF
:103A4C009CB3BDD7DEBBCDD6AC90BCB0CD33CCB225
:103A5C00A32EAACDB30EAB0EAB0EAB0EB30EB35062
:103A6C00ABD19C72DEBBDEBBDEBBD6BAD69AD6BB64
:103A7C00DEDBEF5DE77E7C314ACC4AED4AED4AED68
:103A8C004AEC4AEC4AED4AED4AED4B0D4B0D4B0D11
:103A9C00530E532E532E532E532E532E532E532E32
:103AAC00534E5B4E5B4E534E534D532E532D3A4A51
:103ABC003A2A426B8493CEDCE7BFF7FFF7FFE77E31
:103ACC00CEDBBE9AC69BC6BBC6BBC6BBC6BBDF5D48
:103ADC00DF1BB5D7B5F7B5F7BE17BE17BE38BE3866
:103AEC00BE38BE38BE58C658C658C659C679C679EF
:103AFC00C679C679C69AC699C699CE9AC69AC67917
:103B0C00C67AC67ACE9ACEBBC69AC67AC67AC67A18
:103B1C00C67ABE7ABE5ABE59BE59BE59BE59BE5A95
:103B2C00C659CE9AF79EF79EE73CE71CE6FBE6FBF0
:103B3C00DEFBDF1CE6FCEF1CD699AB2DB188B10681
:103B4C00B8E6B8C6B8C6B8C6B8E6B8E6B8E6B8E6D9
:103B5C00B8E6B8E6B8E6C0E6C0E7C0E7C0E7C0E73D
:103B6C00B907B928B928B928B928B948B928C1481A
:103B7C00C149C149C969C169C148C149C969C96A51
:103B8C00B98AB98AB9AAB9AAB9AAB9AAB9AAC1CA29
:103B9C00B9CAB9CAB9CBB9EBB9EBBA0BBA0BBA0BF8
:103BAC00C22CCA4CCA4CCA6CC24CC24CC24CC24C81
:103BBC00C24CC24CC24CC24CC24CC24CC24CC24C89
:103BCC00CA6CCA4CC22CC22BC20BC20BCA2CCA2C3C
:103BDC00CA0BC9EBC9EBC9EBC9EBC1EBC1CAC1EB51
:103BEC00AAEBA3CDB470A42FAC91A492AD14CE3992
:103BFC00E6FCC596AC4FA3CCD4B1BAECA9A9B96973
:103C0C00C149C149B948C149C149B98AB2CEC4D424
:103C1C00DE7AD67AD679D67AD69AD69ADEBADEFB00
:103C2C00EF9EC67A5B4E4ACC4ACC4ACC4ACD4ACCA3
:103C3C004ACC4AED4AED4AED4AED4B0D530E530E6C
:103C4C00530D532D532D532D532D532E532E532D86
:103C5C00530D532D532E532E4AED3229322A428BBB
:103C6C009D35D6FCEFDFF7FFF7FFE77EC69AB63936
:103C7C00B65AB639B619B63ABE7ADF5DD6BAA5547D
:103C8C009D349D34A534A554A554A554A554A554D0
:103C9C00A574A574A574A575AD75AD95AD95AD95CB
:103CAC00AD95AD95ADB6ADB6ADB6ADB6AD96ADB652
:103CBC00ADB6CEBACE9AADD7ADD7B5F8B5F7B61876
:103CCC00BE38BE38BE39BE59BE59C679CE9AEF7EC3
:103CDC00F7DFEF5DE71CE6FBE6DBE6DBE6DBE6DCCD
:103CEC00EEDBE6BBEE9AC30DB885C844C044C044B5
:103CFC00C044C044C044C844C844C844C824C824B0
:103D0C00C844C844C845C845C845C044C044C84454
:103D1C00C845C865C844C844C865C865C845C845D1
:103D2C00C845C845C865C865C865C845C845C8669E
:103D3C00C866C866C865C865C865C865C866C8660B
:103D4C00C866C866C866C886C886C886C886C88657
:103D5C00C887C887C886C886C8A7C8A7C8A7C8A761
:103D6C00C8A7C8A7C8A7C8A7C8A7C8A7C0C7C0E77F
:103D7C00C8E8C8C7C8C7C8E8C8E8C8E8C8E8C8E8F9
:103D8C00C8E8C908C908C108C0E7C128B2CBA3ACB0
:103D9C00B42FA3EE9C0F93EFB575D679E6FBB55413
:103DAC00AC6FABACDC91BA4BB907C8C7D0C7C8E78E
:103DBC00C907C8C7C8C8C108AA0BCD35DE59D67902
:103DCC00D679D679DE99D699D699DEBAE73CEF9EAC
:103DDC0094D44AEC4ACC4ACC42CC4ACC4ACC4ACDBC
:103DEC004ACD4AED4AED4AED4B0D4B0D4B0D530DA3
:103DFC00530D530D530D530D530D530D4B0D4AEDE8
:103E0C004B0D530D42AC31E93A2A4AACA597DF3D34
:103E1C00F7FFF7FFF7FFE79ECEDBC69BC69BBE7A8C
:103E2C00BE7ABE7AC69BE75DCE9994D294D294D2D8
:103E3C0094D294D294F294F29CF29CF29CF39CF364
:103E4C009CF39D139D139D139D139D139D339D33C7
:103E5C00A533A534A534A534A5349D349D13ADB636
:103E6C00ADB694F394F39D149D149D149D349D1440
:103E7C009D149D349D54A575CE9AF7DFEF7DE71CFC
:103E8C00E6FCE6FBE6DBE6DBE6DBE6DBE6BBE69A3E
:103E9C00EE79D36FC065D024C843C043C044C86416
:103EAC00C864C864C844C844C044C043C044C06467
:103EBC00C064C064C064C064C844C844C844C84436
:103ECC00C844C844C844C844C845C845C844C86464
:103EDC00C864C864C864C864C845C845D045C845EA
:103EEC00C845C845C865C845D045D045D045D0451E
:103EFC00D045D045D045D065C866C886C886C8862A
:103F0C00C886C886C886C886C886C886C8A6C8A6F5
:103F1C00C886C886C8A6C8A6C886C8A6C886D086BD
:103F2C00D086C8A7C8A7C8C7C8C7C8C7C8C7C8E766
:103F3C00C0E7C0E7C0E7B907B2EB9BACAC2E9BEE79
:103F4C00AC919C50B534CE37D699B533AC6FABCD64
:103F5C00D491AA6AA968B907C0E7B907B927B8E725
:103F6C00C0C7C108B24CDD96D638D659D679D679A9
:103F7C00DE99D699D699DE9ADEDAEF9ED6DB638F80
:103F8C004ACC4ACC4ACC42CC4ACC4ACD4ACD4AED5A
:103F9C004AED4AED4AED4B0D4B0D4B0D4B0D530DB0
:103FAC00530D530D530D530D4B0D4B0D4B0D4B0D25
:103FBC003A6B29E83209530DB5F8E75DF7FFF7FFC7
:103FCC00EFDFE79ECEFCCEFCCEDCC6BCCEDCCEDC7E
:103FDC00CEDCE75DC67884508C918C918CB194B119
:103FEC0094B194B294D194D294D294D294D294D2D7
:103FFC009CD29CF29CD29CD29CD29CF29CF29CF2C5
:10400C009CF29CF294F29CF29CF29D139D13849171
:10401C00847184718C918C918CB294B294B294D240
:10402C0094D2ADB6EF9DF7BEE75CE71CE6FBE6FB72
:10403C00DEDBE6DBDEDBDEDBE6BBDE9AE659DC1143
:10404C00B885C044C824C823C844C864C085C0858A
:10405C00B884B884B864C064C064C065C065C84422
:10406C00D044D044C824C844C844D044D044D044DC
:10407C00D044D044C864C864C864C864C864C86404
:10408C00C865C865C865C865C865C865C885C8857C
:10409C00C885C885C885C865C865C865C885D08504
:1040AC00D085D085D065D066D086D086D086D08697
:1040BC00D086D086D086D086D086D086D086D0A624
:1040CC00D086D086C886C886C886D086D0A6C8A614
:1040DC00C8C6C0C6C189C1EACA4CD28CCAADCAAD69
:1040EC00CAEDCB0DC450B4D1BD12BD12CDB5BD546B
:1040FC00B533BD95BDD6BD95CD94C512D574CCD375
:10410C00CC72CBF0DBD0DBF1D3F0D36FDA6DB949E5
:10411C00BAADE5B7D618D658D659D679D679D69938
:10412C00D699D699D6BADF1CF7BFA5974AEC42AC04
:10413C0042CC42AC4ACC42CC42CC4ACD4ACD4AEDE0
:10414C004AED4AED4AED4AED4AED4B0D4B0D4B0D48
:10415C004B0D4B0D4AED4B0D4B0D4AED3A2A29E810
:10416C003209638EC659EF7EF7FFEFDFEFDFE79E74
:10417C00CEFCCEDCC6BCBE7BBE7BC6BCCEDCE75D5B
:10418C00C6587C2F844F845084708C708C708C90AB
:10419C008C91949194B194B194B194B194B194D113
:1041AC0094B194B19CB19CB194B19CB19CB194B1BB
:1041BC009CD194D194D194D194F2842F7C2F7C50A7
:1041CC00845084508C708C708C718C9194D2DEFBEA
:1041DC00F7DEEF7DE73CE71BDEFBDEDBDEDBDEDB69
:1041EC00DEDBD6DAD69ACE79C617D492B106B8648D
:1041FC00C044C824C044B885B0E5A926A166A16610
:10420C00A166A186A166A126A8C5B8A5C8A5C86443
:10421C00C044C064C064C064C064C064C064C8648A
:10422C00C864C864C864C864C864C865C865C8651F
:10423C00C865C864C865C865C865C865C865C8650B
:10424C00C865C885C865C865C865C865C865C885BA
:10425C00D085D085D085D085D085C885C8A5D0A679
:10426C00D0A6D0A6D0A6C8A6C8A6C8A6D0A6C8A6B2
:10427C00C8A6C886C886C886C886C8A6B8C6D20AC4
:10428C00E492DD75E5B6DD95D574DDF6DE16D5F672
:10429C00D616D636D616DE37DE37DE78DE78D6780A
:1042AC00D679D617CDB5CD94D616DE78DE78E699CC
:1042BC00DE78C5B5C5F6EE38ECF5A1EAB36FCDB630
:1042CC00C617CE38D679D679D679D679D679D69905
:1042DC00D699D6DBE75DE75D741142CC42CC42AC9B
:1042EC0042CC42AC42CC4ACD4ACD4ACD4AED4AED05
:1042FC004AED4AEC4AEC4AED4AED4AED4AED4AEDFC
:10430C004AED530E4B0D4AED320929E8322974114E
:10431C00CEBBF7BEF7FFF7FFF7FFE79ECEFCC6BCA0
:10432C00BE9BBE5BBE7BC69BCEBCE75DCE78844F8E
:10433C008C708C708C708C908C908C908C909490E9
:10434C009490949094B194B194B194B194B194B17B
:10435C0094B194B194B094B094B094B194B194B12C
:10436C0094B194B194D28C707BCE7BEE842F842F3D
:10437C00842F842F8C508C71BDF7F7BEF79EEF3DC8
:10438C00E71CE6FBE6FBDEDBDEDBDEBAD6DBCEDAF9
:10439C00BE788DB475107BAC9967C044C044C824FA
:1043AC00C844A8A58A28736B63AB6BAC6BAC63ABCE
:1043BC005BCB632A79E7A967D989C885C864C064CF
:1043CC00C864C884C864C884C884C884C864C86401
:1043DC00C864C864C864C865C865C865C885C8842D
:1043EC00C864C864C865C885C885C885C885D065D3
:1043FC00D065D065D065D065D065D065D085D085C9
:10440C00D085D085C885C885D086D0A6D086D086E4
:10441C00D0A6C8A6C886C8A6D0C6D0A6D866D08650
:10442C00C0C6C8A6D066D087C1A9DCB2C553C59496
:10443C00CDB5ACD2ACF1CE15D636CE16CE15D61532
:10444C00CDF5D636D657D658D658D678CE379CB268
:10445C0094309450CDF6D677DE97DE98D678B55456
:10446C00B533DE17E4D4922A7B2C74907512A637E0
:10447C00C679D679D679D679CE79CE79CE99D6DB5E
:10448C00DF1CEFBEBE19530D42CC42CC42CD42CD07
:10449C0042CD42CD42CD4ACD4AED4AED4AED4AECF1
:1044AC004AEC4AED4AED4AED4AEC4AEC4AEC4B0D2B
:1044BC004AED42AC31E929C83A4A8CB3D6DBF7DF76
:1044CC00FFFFFFFFF7FFE77ECEFCC6BCBE9BBE7BAB
:1044DC00BE7BC6BCCEDCE75DCE9994918C908C9063
:1044EC008C908C9094B094B094B094B094B194B1EE
:1044FC0094D194D194D194D194D194D194D194D188
:10450C0094B194B194B194B194B194B194B194B177
:10451C009CD29491840F840F842F844F844F8C50A1
:10452C008C50A534EF5DF7BEEF5DE71CE6FCDEFBBF
:10453C00DEDBDEDBDEDADEDAD6DABEB9753254CF9C
:10454C00444D532A8A28A8C6B844C045C086A988B9
:10455C007268536A2B692B6933492B693BCB4B4AE5
:10456C006A68A22AC188B885C085C065C085C08527
:10457C00C065C065C085C885C085C085C085C0853F
:10458C00C085C085C085C085C885C865C865C86537
:10459C00C886C886C886C886C0A6C0A6C8A6C8A62F
:1045AC00C886C886C886C886C8A6C8A6C8A6C8A60F
:1045BC00C8A6C8A6C8A6C8A7C887D087C8A7C8A7B2
:1045CC00C8A7C8A7C8A7C8A7C8A7C0C7B8E7C0C707
:1045DC00D087C8C7C28CDDB5C573C5B4C595ACF260
:1045EC00B532CDF4CDD4CDD5C5B4C593BD73B553CB
:1045FC00B553AD33B553B5749C916B2B6B2C8C0FA1
:10460C00C5D5CE36D656CE36BDD5BD95C5D6D61764
:10461C00BC11824A52893B4B3B8B64B0B658CE7965
:10462C00D67AD69ACE99CE79D69AD69AD6DBE75D3B
:10463C00EF9E849342CC42CD42CD42CD4ACD4ACD61
:10464C004ACD4AED4AEE4B0E4AED4AED4AEC4AECA5
:10465C004AED4AEC4AEC4AEC4AED4AED4AED428B03
:10466C0029C829E8426B9D56D6FCFFFFFFFFFFFFD0
:10467C00FFFFE77ECEFCCEFCC6BBC69BC6BCCEFD08
:10468C00D6FCE75ECE9894B194B18CB194B194B150
:10469C0094B194D194D194D19CD19CD19CD19CD1E6
:1046AC009CD19CD19CD19CD19CD19CD19CD19CD196
:1046BC009CD19CD194D294D294D294D29CD294B1C9
:1046CC008450842F8C508C708C70949194B2D6BA88
:1046DC00FFDFEF7DE73DE71CE71CDF1CDEFBDEFBAD
:1046EC00DEDAD6DACEDAA657442D240C2BEB53ACFB
:1046FC0093AEAB0CAA2AAA0AB2ACAB6E8B6D7C0E35
:10470C004B2A430A3B293B4A644E63CD7B8DCCF349
:10471C00C36FA1A8B148B928B928B928B908B907F5
:10472C00B907B8E7C0C7C0C7C0A7C0A7C0A7C0A774
:10473C00C0A7C0A7B8A6B8C6B0C6B0C6B908C1490C
:10474C00C169C169C169C149B8E8B0C7B8A7B8C7E0
:10475C00B8C7B8C7B8C7B8C7B8C7B8C7B8C7B8C854
:10476C00B8C8B8A8B8C8B8E8B929C149B969B9690D
:10477C00C16AB949B108B108B908B8E8C0C8B908E4
:10478C00B24BD514D5D5CDD5ACF2942FA4B0BD93E6
:10479C00C593BD73BD73BD73AD118BED736B62EAC5
:1047AC0062CA734C528852895AAA7B8DBDB4C5F427
:1047BC00C615B5739491AD34C617C5D6A3CF936EF9
:1047CC00530B2B2A234A3BACAE37CE79D69AD69ACA
:1047DC00D69AD679D699CE9AD6BADEFBEF9ECEBBB8
:1047EC00638F4AED4AED4AED4AED4AED4AED4AED4A
:1047FC004AED4ACD4ACC4AAC4ACC4ACC4ACC4ACCFB
:10480C004ACC4ACC4ACC4ACC4ACD3A4A29C829E8A7
:10481C004AABADD8DF3DF7FFF7FFF7DFF7DFDF5E21
:10482C00CEFDCF1DCEFDCF1DCF1DCF1DD71DE77EDD
:10483C00C6388C7094D194F294F294D194D19CF1AA
:10484C009CF19CF29CF29CF29CF29CF29CF29CF2ED
:10485C009CF29CF29CF29CF29CF29CF29CF29CF2DC
:10486C009CD29CD29CD29CD29CF29CD28C708C7090
:10487C008C90949194B194B2BDF7F7BEF7BEEF7ED5
:10488C00E75DE73CE73CDF1CDF1CDF1BD6FBD6DA21
:10489C00D6DA9E162BEC13CA344C8D93C657DE58C1
:1048AC00EE38E659DE79DE99D699D699CE99C6B905
:1048BC00C6B8C698D6B9CE78C678D6B9D658DDF76C
:1048CC00E5D7E5B6E596E576E576E555DD35DD35F6
:1048DC00DCF4DCF4DCD4D4D3D4B3D4B3D4B3D493D9
:1048EC00CC92CC72CC72C472C492CCD3CCD3CCD379
:1048FC00D4B3D493D432CBF1CBF1D3D1D3D1CBD15C
:10490C00D3D1D3D1D3D1D3D1D3F1D3F2D3F2D3F2F8
:10491C00CBF2CC12CC53CC93CC93CC93CCB3CC93D6
:10492C00CC73D453D453DC33D433CC52BC31CD34CC
:10493C00CDD5C5B4ACD29C91A4D1B572BD72BD32EB
:10494C00B511ACF1B512A4B09C7062CA5AA96B2C0B
:10495C005ACA5AA95AAA6B4CAD33B593BDB3A5121A
:10496C008C2FB595BDF6C617C576B5347C91336BD7
:10497C000AC8230A9DF6C699CE9AD6BAD6BAD69A42
:10498C00D69AD69AD6BADEDBE73DEFBFA576534E64
:10499C004B0E4AED4AED4AED4ACD42AC42AC428C4C
:1049AC00428C428B428B42AC4AAC4AAC4AAC4ACCAD
:1049BC004ACC4ACC4AAC3A2A29C829E8532DB61914
:1049CC00DF5EEFDFEFDFE77EE77EDF5ED73DD73DD3
:1049DC00D73DD73DD73ED73ED73EE79EB5D673EEF3
:1049EC008CB19CF294F294F29D129D129CF29CF26A
:1049FC009D129D129D129D129D129D129D129D1233
:104A0C009D129D129D129D129D129D129CF29CF264
:104A1C009CF29CF29CF294D294918C9194B194B1AE
:104A2C009CD2AD54EF5DFFDFEF7DE75DE73CE73CEB
:104A3C00DF1CDF1BDEFBDEFBD6DAD6BAD6B99DF562
:104A4C002BEC13AA2BAB642E94F2AD33AD33AD54D7
:104A5C00A574A574AD54AD34A5339D53A553AD5376
:104A6C00AD33AD54A554A574AD74AD53B554B55414
:104A7C00B554B554BD74BD75C595C595BD95BDB53D
:104A8C00C5B5C5B5C5D5C5D5C5D5C5D6CDD6CDD677
:104A9C00CDD6CDF6CDF6C617C617C617C617C61790
:104AAC00CE17CE17CDF7D5F7D5F7D5F7D617D6172E
:104ABC00D617D617D617CDF7CDF7CDF7D5D7D5D77F
:104ACC00CDF7CDF7C5F7C5F7C5F7C5D7C5D7C5D74A
:104ADC00C5B6BDB6BDB5B594AD12C574CDD5C5942E
:104AEC00A4D29CB2A4F2AD31AD11B4F0ACF0ACF0E8
:104AFC00ACD1ACF1A4B162EA6B2C6B2C5ACA5289C2
:104B0C00526962EB9CD1AD52B5739CD18C50AD9572
:104B1C00BDD6BD96ACD394515B8D2B0A12E82B4AB3
:104B2C009DF6C699CE9AD699D699D699CE79CE9924
:104B3C00D69AD6DADEFBEF9EDF3D74114AED4ACDF4
:104B4C004ACD42AC4ACC42AC428C428C428B428B1A
:104B5C00428B428B428B42AB4AAC4ACC4AAC4ACCDD
:104B6C0042AC320929C832096BAFBE5ACF1DDF7E69
:104B7C00DF5EDF3DDF1DDF1DDF3DD73DD73DD73D80
:104B8C00D73EDF5EDF5EEF9FB5F6843094D29D3367
:104B9C009D339D339D329D339D139D139D139D33EA
:104BAC009D139D339D33A533A533A533A533A53371
:104BBC00A533A533A533A533A513A513A513A513A9
:104BCC009CF29CD294B194B19CD29CF29D13DEDAEF
:104BDC00FFFFF79EE73DE71CE71CDF1CDEFCDEFB5E
:104BEC00DEFBDEDBD6DAD6BAD6BA9DF53C0C23CB8F
:104BFC0023293AA87B8D93CE9B8E9B8E938D9B8D78
:104C0C009B8D938D838D73CD73CC73CD7BAD838D49
:104C1C00836D8B2C930C9B0C8B2C834C834C834C77
:104C2C00834C834C834C834C834B834B8B4B8B4CF3
:104C3C00834B834B8B4B8B4C932B930C932C932C44
:104C4C008B2C8B2C8B4C8B4C836C836C836C8B6C78
:104C5C008B4C8B4C836C836C836C836C836C834C20
:104C6C00834C834C834C834C834C834C834C834CC0
:104C7C007B4C7B4C7B4C834C832C832C834C7B4C10
:104C8C007B4C7B4B7B2BBCF2CDB4BD73A4D2A4D29A
:104C9C00A4F2AD11AD10ACF0ACD0ACD0A4B09C90E3
:104CAC00732B5268528A5269420739E74A49528932
:104CBC00840EAD52AD7394B08430B5B6BDB6B4931A
:104CCC007B0C62CB3A2822A9236A33AC9DF6C69999
:104CDC00CE9AD699CE79D679CE79CE79D69AD6BACD
:104CEC00DEDBE73CF7DFB618530D42AC42AC42AC0E
:104CFC0042AC42AC42AC428B3A6B426B428B428B25
:104D0C00428B428B428B42AB428B426B3A2A29E953
:104D1C0029C832297C72CF1CCF1DD71DD73DDF3D52
:104D2C00DF3DDF5DE75EE77EE77EE77EE79EE79FA0
:104D3C00E79EEFDFB5F6845094D2A5549D339D3396
:104D4C009D339D33A533A533A533A553A533A55367
:104D5C00A553A553A554A554A554A554A554A55481
:104D6C00A554A554A533A533A533A533A513A51375
:104D7C009CF29CD29CF2A513BDF7F7BEF7BEEF5D7B
:104D8C00E73DE71CE71CE6FCDEFBDEDBDEDBDEDA08
:104D9C00D6BAD6BACEB995D43BCB2BAA2B093206B0
:104DAC007B0BAB2DA167A927A926A126916682288A
:104DBC006A88420549E549E552066A487986914672
:104DCC00992699069946994699469946994699463F
:104DDC009966916691869186918691869186918647
:104DEC0091A691A691C791C791C791E791E791E8D8
:104DFC0091E891E892089208920892089208920819
:104E0C009208922892289208920892089208920886
:104E1C0092088A088A088A288A2882288228820886
:104E2C008A088A0889E889E889E889C889C781E8F5
:104E3C007A48BCF2CDB4BD73A4D2A4F39CF2A511F4
:104E4C00A4F0ACCFACCFACB0A4B09C4F7B8D62CAFD
:104E5C00630C630C528A42084A494A6A6B6DA5324C
:104E6C00AD7394708C50AD95C575BC11826B8B8EE7
:104E7C0041E72A882B6B3BAC95B5C679CE79D69990
:104E8C00CE79CE79CE79CE79D699D6BAD6BADEFB92
:104E9C00E77DEF9E7C5242AC4AAC4ACC4ACC4ACD20
:104EAC004ACC428C426B3A6B3A4A3A2A3229320942
:104EBC0031E931E931E929A8218721A829C8322A09
:104ECC009535DF7ECEFCCF1DDF5EEFBFF7DFF7DF62
:104EDC00F7DFF7DFF7DFF7DFF7DFF7DFF7DFF7FFF6
:104EEC00B5F67C2F94D2A5549D549D539D539D3360
:104EFC00A553A554A554A554A554A554A554A574BF
:104F0C00AD54AD54AD54AD54AD54AD54AD54AD548D
:104F1C00AD54AD54AD54AD54A5339D139CF29CF2DD
:104F2C009D13AD75EF5CFFDFEF7DE73DE73DE71CC3
:104F3C00E6FCE6FCE6DBDEDBDEDBDEBADEBAD6BAAE
:104F4C00C6B995B42B2923082B084AC8AC0FCBAF94
:104F5C00A905B884C044B844A8849905814569035F
:104F6C00690461245964718588E5A8C5B0A5B0A40D
:104F7C00B8A5B885B885B8A5C127B906B0A5B8C578
:104F8C00B8A5B8A5B8A5B8A5B8A5B8A5B8A5B8A52D
:104F9C00B8C5B8C5B8C5B8C5B8C5B8C5B8C6B8C61B
:104FAC00B8C6B8A5B8A5B8A5B8A5B8C5B8C5B8C68B
:104FBC00B8C6C0C6C0C6C0C6C0C6C0C6B8C6B8A6ED
:104FCC00B8C6B8C6B8C6B8C6B8C6C0C6C0A6C0A60D
:104FDC00B8C6B8E6B8C6C086C066B0C6A1C8CCF222
:104FEC00CD94BD53A4D2A4F3A4F2A511ACEFACCFD5
:104FFC00ACAFACB0A4B0A4D19470630B7BCF8C716C
:10500C0084308410738E52AB6B4CA512AD538C5004
:10501C008C50AD75CD55BB90928CB472628A32684F
:10502C0022E9334B9574C679CE79CE79CE79D6797F
:10503C00CE79CE79D699D699D6BADEDBDF1CEFBF06
:10504C00CEBB532E42AC428B3A6B3A6B3A2A3209A6
:10505C0031E929C829A829A829A829A829A829C833
:10506C0029C829A82167218729A8426BADD8CEDC95
:10507C00CEFCCEFCE77EF7FFFFFFFFFFFFFFFFFF3D
:10508C00FFFFFFFFFFFFF7FFF7FFFFFFBE177C30AF
:10509C009513A5749D54A554A554A554A554A55475
:1050AC00A554A554A554A574A554AD74AD74AD7494
:1050BC00AD74AD74AD74AD74AD74AD74AD53AD74FD
:1050CC00AD54AD54AD54A533A534A513A554D6BADF
:1050DC00FFDFF79EE73DE71CE71CE71CE6FCE6FB61
:1050EC00E6FBE6DBE6DBDEBADEBADE9AD6B9ADD598
:1050FC005B6C4AE96B8CACB1C4D2D471B146C84478
:10510C00D024C043B843B843B063B864B064A86457
:10511C00A884A884B064B844C043C023C024C0444D
:10512C00C824C064CA09B166B844C824C824C043A2
:10513C00C043C043C844C844C844C844C844C84415
:10514C00C824C824C824C824C844C844C844C84473
:10515C00C844C844C844C845C845C845C844C844E0
:10516C00C844C844C844C844C844C844C844C844D3
:10517C00C844C844C845C845C845C845C044C045CE
:10518C00C845C865C845C066B9EAD513CD94BD54A9
:10519C009CB2A4F3A4D2ACF1ACD0ACAFACB0A4B084
:1051AC00A4B09CB0949173AD7C308C928C719CF3B8
:1051BC008C9252CB634D9CF3AD3494308C50AD75C6
:1051CC00CD55BB4FAACDCCF4949152CA42AA534CA4
:1051DC00AD95CE59CE79CE79CE79D679D679D67998
:1051EC00D699D69AD69AD6DADEFBEF5DEFBF8CD481
:1051FC0031E929C829C821A821A821A8218721A7DC
:10520C0021A721A721A729A729C829C829C821A8CE
:10521C0021A721A729C84AECADF8C69BCEFCCEFC31
:10522C00E77EF7DFFFFFFFFFFFFFFFFFFFFFFFFF43
:10523C00FFFFFFFFFFFFFFFFBE1773EF8CD29D74C4
:10524C00A574A554A554AD54A554A554A554A57442
:10525C00A574AD74AD74AD74AD74AD74AD74AD7442
:10526C00AD74AD74AD74AD74AD74AD54A5139491AF
:10527C008C7184508C7194B2B5D7F7BEFFDFEF5DA3
:10528C00E73DE71CE71CE71CE6FCE6FBE6FBE6DB80
:10529C00E6DBDEBADEBADE9AD699CE58A5339CF29E
:1052AC00BD74CD94CCF2DCF3B1E8C064C844B8430F
:1052BC00B843C023B843C043C844C024C044C0440E
:1052CC00C044C843C823C823C824C044C044B884BD
:1052DC00C229B9E8B064C844C824C824C824C82466
:1052EC00C824C824C824C824C844C844C844C844D2
:1052FC00C844C844C844C844C844C844C844C84442
:10530C00C844C844C844C844C844C844C844C84431
:10531C00C844C844C844C844C844C844C844C84421
:10532C00C864C864C864C864C864C844C845C06557
:10533C00C865C065B9E9DD33CD94BD53A4B2A4F3FF
:10534C00A4F2ACF1ACD0ACD0ACB0ACB09C4F94707F
:10535C009CD27C0F84308C92740F8491951352EBF9
:10536C00636D9D13A534842F8C91AD74C534B34EED
:10537C00BB4FCD14A5348CB27C718CF3BDF7CE59D8
:10538C00CE79CE79CE79D679D679D679D699D69A70
:10539C00D6BAD6BAD6DBE71CEFBFDF1D52CC2987B5
:1053AC0021872187218721A729A729A729A729A7F1
:1053BC0029A729C829C8320932093A2A428B52EC4A
:1053CC005B2D8493BE39C69BCEDCD6FCEF9EF7FFDB
:1053DC00FFFFFFFFFFFFFFFFFFFFFFFFFFFFFFFFD1
:1053EC00FFFFFFFFBE18740F9513A574A5749D33B2
:1053FC009D33A513A534A533A533A5339D33A554EF
:10540C00AD95AD74AD74AD74AD74AD74AD74AD7467
:10541C00AD74AD74AD74AD74738D420739C631A6DD
:10542C0042286B4DDEDBFFDFEF9EE73DE73CE71CE0
:10543C00E71CE71CE6FCE6FBE6FBE6DBE6DBDEBA9C
:10544C00DEBADE9ADEBACE58B595B574C5B5C5547C
:10545C00CCF2DD13C2ABC084C844C064C823C823DB
:10546C00C043C844C844C044C064C064C063C043A3
:10547C00C843C843C823C844C824C064C1A7C1C812
:10548C00B884C844C844C844C844C844C844C84480
:10549C00C844C844D044D044D044D044D044D04470
:1054AC00D044D044D044D044D044D044D044D04450
:1054BC00D044D045D044D044D044D044D044D0443F
:1054CC00D044D044D044D044D044D044D044D04430
:1054DC00D044D044D044D044D044D045D045C84525
:1054EC00C1A8DCF2CD94BD53A4B29CD2A4D2AD120F
:1054FC00AD11A4F1A4F19CD1844F7C2E84B16C2FFE
:10550C006C0F7470642F74B184F34B0C5B8D84F24C
:10551C008D53746F8CF2AD74C534A34EBBF1BD14B6
:10552C005B4C3AA9430B8D13B5F7CE58CE79CE7997
:10553C00D679D679D679D679D699D69AD6BAD6BA24
:10554C00D6BADEFBE75DF7DFAD9631C82987298730
:10555C0029A731C831E83A29426A4ACB5B2D636EE0
:10556C0073F084728CB395159D1584528CD4BE390E
:10557C00C65AC67ACEDCD6FCEFBEFFFFFFFFFFFF9C
:10558C00FFFFFFFFFFFFFFFFFFFFFFFFFFFFFFFF1F
:10559C00BE387C308CB19D54A5748470845094B109
:1055AC0094F29CF294D28CB18CB19CF2AD75AD7529
:1055BC00AD94AD94AD94AD94AD74AD74AD94AD7437
:1055CC00AD95AD5452A918C218E329654208AD54E3
:1055DC00F7BFF7BEE75DE73DE71CE71CE71CE71CE0
:1055EC00E6FCE6FBE6FBE6DBE6DBDEBADEBADE9AE1
:1055FC00DEBAD658B574CE17DE58C533BCB1D51348
:10560C00D38EB8C5C844C864D023D023C844C8447A
:10561C00C844C843D044C843C843C843C823D02354
:10562C00D023C843C823C843C146DA09C084C84440
:10563C00D043D023D023D023D044D044D044D04422
:10564C00D044D044D044D044D044D044D044D044AE
:10565C00D044D044D044D044D044D044D044D0449E
:10566C00D044D064D064D064D064D064D064D064AE
:10567C00D044D064D064D064D044D044D044D0441E
:10568C00D064D044D044C864C845C865B988DCD25D
:10569C00CD94BD53A4F2A4F2A4F2AD52A53194F072
:1056AC007CD074AF646E544D548E442D442E440DF6
:1056BC003C0D4C2E5BEF4B2C53AD5C6F5CB05CAF78
:1056CC009573B5B5C595B451CD349C71324722470D
:1056DC0022887CF2BE38C638D659D679D679D67996
:1056EC00D679D679D699D69AD6BAD6BAD6DADEDBA8
:1056FC00DF1CF79EEF7E7C105AEC632D6BAF7C1198
:10570C00847294D39D35A576ADB7B5F8B5F8ADB622
:10571C00A555AD9794F452EC8CB3C65AC67ABE5AC2
:10572C00CEDBD6FCEFBEFFFFFFFFFFFFFFFFFFFF4F
:10573C00FFFFFFFFFFFFFFFFFFFFFFFFCEBA9D3311
:10574C009D549D54A57484507C2F94B19CF39D134F
:10575C009CF294D28C7094D2AD75AD75AD94AD9421
:10576C00AD94AD94AD94AD94AD94AD94AD95AD7543
:10577C005AEB10A210C21903632CEF5DF7BFEF7D3B
:10578C00E73CE71CE71CE71CE6FCE6FCE6FCE6FB5A
:10579C00E6FBE6DBE6DBDEBADEBADE9AE6DADE99BB
:1057AC00CE17DE79E699D5B5C513D533DC71B126A4
:1057BC00C064B864C844C844C064C064C864C84306
:1057CC00C843C843C843C843C823C823C823C043DD
:1057DC00C843C843C0E5D1A7C063C864C844C84423
:1057EC00C844C844C844C844C844C844C864C8640D
:1057FC00C864C864C864C864C864C864C864C8643D
:10580C00C864C864C864C864C864C864C864C8642C
:10581C00C864C864C864C864C864C864C864C8641C
:10582C00C864C864C864C864C864C865C884C884CB
:10583C00C084C085C085C0A5B1C8D4F2D615D636F3
:10584C00CE17CE17C616BDF584CF53AB330923083C
:10585C002BAA238A1BAA138A138A138A136A234B33
:10586C003B2B4B4D4BCD3BED3C2D4C8EA616CE78A9
:10587C00DE79DE38DE38738D322722A822E96C906F
:10588C00B637C658D659D659D679D679D679D69947
:10589C00D699D69AD6BAD6DADEDBDEDBDEFBEF5D46
:1058AC00FFDFDEFCB5B6B5B7B5D7BDF8BDF8BE1891
:1058BC00BE18BE38BE39C639BE39AD769D14ADB7EB
:1058CC00A5558C92ADB7C65ABE5ABE19CEBBCEFCEE
:1058DC00E79EF7FFFFFFFFFFFFFFFFFFFFFFFFFF4D
:1058EC00FFFFFFFFFFFFFFFFD6DAA575A5749D54E0
:1058FC00A59584707C0F8C9194D29CF29CF294B2FE
:10590C0084708C91AD74AD95AD95AD95AD95AD9410
:10591C00AD94AD95AD95AD95AD95AD956B6C10C247
:10592C0010C22986BE17F7DFEF9EE73DE71CE71C88
:10593C00E71CE71CE6FCE6FCE6FCE6FBE6FBE6DB2C
:10594C00E6DBDEBADEBADEBAE6DAE6BADE99E6BA4B
:10595C00E699C533B4B1D553ECD3C188B865B864F6
:10596C00C044C844C064C084C084B863C063C0630E
:10597C00C043C064C043C044C823C823C823D02339
:10598C00C063C084D044C844C844C844C844C84454
:10599C00C844C864C864C864C844D044D044D04423
:1059AC00D044D044D044D044D044D044D044D0444B
:1059BC00D044D044D044D044D044D044D044D0453A
:1059CC00D044D044D044D044D045D045D045D04428
:1059DC00D044D044D045D045C865C864C865C0859E
:1059EC00C885C885C1A8DCD2DE15DE77DE78D6572F
:1059FC00CE57A572642D2AE809C4122623091B2947
:105A0C001349134913491329132A1B0A330B4B8EC1
:105A1C0043CD2BCC2C0C446E9E15D698DE78DE989C
:105A2C00C61752AA2A0722C92309542EAE17C658E4
:105A3C00D659D659D659D679D679D699D699D69AE1
:105A4C00D6BAD6DADEDBDEFBDEFBE71CEF9EFFDF31
:105A5C00D6DBBE18C639BE18BE39BE39BE39BE3902
:105A6C00BE39C659BE18AD96A576B5F8BDF8B5D8F1
:105A7C00C65ABE5AB5F9ADD8C6BBCEFCE79EF7FFE9
:105A8C00FFFFFFFFFFFFFFFFFFFFFFFFFFFFFFFF1A
:105A9C00FFFFFFFFD6DAA5759D749D74A5958CB19B
:105AAC007C0F8C508C9194B294B28C918C708C91A4
:105ABC00A574AD95AD95AD95AD95AD95AD95AD95F3
