:020000040800F2
:1000000000000320BD1F0008891F00088B1F000887
:100010008D1F00088F1F0008911F000800000000BE
:10002000000000000000000000000000931F000816
:10003000951F000800000000971F0008991F000886
:100040000D2000080D2000080D2000080D200008DC
:100050000D2000080D2000080D2000080D200008CC
:100060000D2000080D2000080D2000080D200008BC
:100070000D2000080D2000080D2000080D200008AC
:100080000D2000080D2000080D2000080D2000089C
:100090000D2000080D2000080D2000080D2000088C
:1000A0000D2000080D2000080D2000080D2000087C
:1000B0000D2000080D2000080D2000080D2000086C
:1000C0000D2000080D2000080D2000080D2000085C
:1000D0000D2000080D2000080D2000080D2000084C
:1000E0000D2000080D2000080D2000080D2000083C
:1000F0000D2000080D2000080D2000080D2000082C
:100100000D2000080D2000080D2000080D2000081B
:100110000D2000080D2000080D2000080D2000080B
:100120000D2000080D2000080D2000080D200008FB
:100130000D2000080D2000080D2000080D200008EB
:100140000D2000080D2000080D2000080D200008DB
:100150000D2000080D2000080D2000080D200008CB
:100160000D2000080D2000080D2000080D200008BB
:100170000D2000080D2000080D20000800000000E0
:100180000D2000080D2000080D2000080D2000089B
:100190000D2000080D2000080D2000080D2000088B
:0C01A0000D2000080D2000080D200008B4
:1001AC0010B5054C237833B9044B13B10448AFF3A5
:1001BC0000800123237010BD1000002000000000FF
:1001CC006820000808B5034B1BB103490348AFF383
:1001DC00008008BD0000000014000020682000080A
:1001EC0053B94AB9002908BF00281CBF4FF0FF3192
:1001FC004FF0FF3000F072B9ADF1080C6DE904CE90
:10020C0000F006F8DDF804E0DDE9022304B07047E5
:10021C002DE9F047089E04468846002B4BD18A42B4
:10022C00154667D9B2FA82F24AB1C2F1200701FA37
:10023C0002F320FA07F7954047EA030894404FEA87
:10024C00154E230CB8FBFEF71FFA85FC0EFB178826
:10025C0043EA084307FB0CF1994209D9EB1807F163
:10026C00FF3080F01B81994240F21881023F2B44F1
:10027C005B1AA4B2B3FBFEF00EFB103344EA03444A
:10028C0000FB0CFCA44509D92C1900F1FF3380F0BC
:10029C000781A44540F2048102382C4440EA07400F
:1002AC00A4EB0C0400271EB1D4400023C6E9004384
:1002BC003946BDE8F0878B4209D9002E00F0EB805F
:1002CC000027C6E9000138463946BDE8F087B3FA85
:1002DC0083F7002F47D18B4202D3824200F2FA807F
:1002EC00841A61EB030301209846002EE0D0C6E986
:1002FC000048DDE702B9FFDEB2FA82F2002A40F0D4
:10030C008F80491B4FEA154E1FFA85F80127B1FB68
:10031C00FEFC230C0EFB1C1143EA014308FB0CF101
:10032C00994207D9EB180CF1FF3002D2994200F236
:10033C00CD808446591AA3B2B1FBFEF00EFB10140B
:10034C0043EA044408FB00F8A04507D92C1900F136
:10035C00FF3302D2A04500F2B6801846A4EB080485
:10036C0040EA0C409FE7C7F1200CBB4022FA0CFE80
:10037C004EEA030E01FA07F420FA0CF521FA0CF3FD
:10038C004FEA1E482543B3FBF8F92C0C08FB193334
:10039C001FFA8EFA44EA034309FB0AF49C4202FA60
:1003AC0007F200FA07F10BD91EEB030309F1FF303A
:1003BC0080F087809C4240F28480A9F1020973444A
:1003CC001B1BADB2B3FBF8F008FB103345EA03443A
:1003DC0000FB0AFAA24508D91EEB040400F1FF3316
:1003EC006BD2A24569D90238744440EA0940A0FB9B
:1003FC000289A4EB0A044C45C2464B4654D351D057
:10040C00002E69D0B1EB0A0564EB030404FA0CFC72
:10041C00FD40FC404CEA0505C6E90054002747E7BF
:10042C00C2F1200320FA03F7954001FA02F021FAF9
:10043C0003F34FEA154E3843010CB3FBFEF71FFADA
:10044C0085F80EFB173341EA034107FB08F38B4297
:10045C0004FA02F407D9691807F1FF3C2FD28B423A
:10046C002DD9023F2944CB1A81B2B3FBFEF00EFB0F
:10047C00103341EA034100FB08F38B4207D969189A
:10048C0000F1FF3C17D28B4215D902382944C91A06
:10049C0040EA07473BE73746304609E70746E7E6B9
:1004AC001846FBE64145ABD2B8EB020A69EB0E02EB
:1004BC0001381346A4E76046E9E7184695E7674616
:1004CC00D1E781467CE702382C4447E7ACF1020CBB
:1004DC002B442FE7384608E73746E9E6704700BF5C
:1004EC0010B504460E4B18784FF47A73B3FBF0F347
:1004FC000C4A1068B0FBF3F000F02CFB68B90F2C21
:10050C0001D901200AE0002221464FF0FF3000F013
:10051C00EDFA034B5C60002000E0012010BD00BF31
:10052C00000000200C00002008B50B4B1A6842F4A8
:10053C0000721A601A6842F480621A601A6842F4F7
:10054C0080721A60032000F0BFFA0020FFF7C8FF8A
:10055C0001F0F4FC002008BD003C0240034A116885
:10056C00034B1B780B441360704700BF2C0000201A
:10057C0000000020014B1868704700BF2C000020C1
:10058C0038B50446FFF7F6FF0546B4F1FF3F02D03D
:10059C00044B1B781C44FFF7EDFF401BA042FAD321
:1005AC0038BD00BF000000204A4B5A6822F440328C
:1005BC005A605A6841680A435A600268536823F4C7
:1005CC008073536002685368016943EA01235360E6
:1005DC000268536823F04073536002685368816863
:1005EC000B4353600268936823F4006393600268C2
:1005FC009368C1680B439360826A374B9A424BD025
:10060C000268936823F07063936002689368816A50
:10061C000B4393600268936823F040539360026825
:10062C009368C16A0B4393600268936823F00203DA
:10063C00936002689368017E43EA4103936090F8EB
:10064C002030002B33D10268536823F400635360CD
:10065C000268D36A23F47003D3620168CB6AC2695F
:10066C00013A43EA0253CB620268936823F40073A5
:10067C0093600268936890F8301043EA41239360CA
:10068C000268936823F480639360026893684169FD
:10069C0043EA8123936070470268936823F0706388
:1006AC0093600268936823F040539360BCE7026840
:1006BC00536843F4006353600268536823F4604347
:1006CC00536001684B68426A013A43EA42334B601B
:1006DC00BEE700BF002301400100000F38B310B586
:1006EC000446036C43B1236C13F0100F0BD00120A4
:1006FC00002384F83C3010BD01F07EFA00236364C3
:10070C0084F83C30EFE7236C23F4885323F0020386
:10071C0043F0020323642046FFF746FF0020606489
:10072C00236C23F0030343F001032364E0E701206F
:10073C007047000082B00023019390F83C30012BED
:10074C007DD0012380F83C3003689A6812F0010FC9
:10075C0013D19A6842F001029A603E4B1B683E4AE4
:10076C00A2FB03239B0C03EB4303019302E0019BCD
:10077C00013B0193019B002BF9D10268936813F0A4
:10078C00010F5ED0036C23F4E06323F0010343F408
:10079C0080730364536813F4806F05D0036C23F4E7
:1007AC00405343F480530364036C13F4805F1BD0F9
:1007BC00436C23F006034364002380F83C306FF055
:1007CC0022031360254B5B6813F01F0F27D10368BE
:1007DC00234A934219D002F58072934207D0214AE2
:1007EC0093420BD000202DE000234364E4E702F594
:1007FC000072526812F01F0F07D0F0E702F58072FA
:10080C00526802F01F020F2A1ED89A6812F0405F3D
:10081C001CD19A6842F080429A60002012E0036872
:10082C000F4A934201D000200CE09A6812F0405F0E
:10083C000ED19A6842F080429A60002002E00220B9
:10084C0000E0002002B070470020FBE70020F9E731
:10085C000020F7E70C00002083DE1B43002301403F
:10086C00002001400022014003689A6812F4806F56
:10087C0003D09B6813F4807F1CD170B50D460446E1
:10088C00FFF778FE064623681A6812F0020F1AD199
:10089C00B5F1FF3FF7D025B1FFF76CFE801BA842E6
:1008AC00F1D9236C43F004032364002384F83C3017
:1008BC0003202DE0036C43F020030364002380F835
:1008CC003C30012070476FF012021A60236C43F425
:1008DC000073236423689A6812F0405F17D1227E5C
:1008EC00BAB9DA6A12F4700F03D09B6813F4806FF4
:1008FC0011D1236C23F480732364236C13F4805F75
:10090C000BD1236C43F001032364002000E0002092
:10091C0070BD0020FCE70020FAE70020F8E7036830
:10092C00D86C704730B482B00023019390F83C30FF
:10093C00012B00F0BD80012380F83C300B68092BA3
:10094C003ED90568EA689BB203EB43031E3B0724C0
:10095C0004FA03F322EA0303EB600568EA688C6887
:10096C000B8803EB43031E3B04FA03F31343EB60C6
:10097C004B68062B3AD805686A6B03EB8303053B7F
:10098C001F2404FA03F322EA03036B6305686A6B02
:10099C004B6803EB8303053B0C8804FA03F3134306
:1009AC006B630268434B9A4250D00268414B9A42A7
:1009BC0059D0002380F83C30184602B030BC704748
:1009CC0005682A699BB203EB4303072404FA03F37B
:1009DC0022EA03032B6105682A698C680B8803EBF8
:1009EC00430304FA03F313432B61C1E70C2B16D812
:1009FC0005682A6B03EB8303233B1F2404FA03F3E0
:100A0C0022EA03032B6305682A6B4B6803EB830311
:100A1C00233B0C8804FA03F313432B63C1E70568EB
:100A2C00EA6A03EB8303413B1F2404FA03F322EA33
:100A3C000303EB620568EA6A4B6803EB8303413BF3
:100A4C000C8804FA03F31343EB62AAE70B68122B2E
:100A5C00ABD1194B5A6822F400025A605A6842F41E
:100A6C0080025A60A1E70B68144A934201D0112B03
:100A7C009FD1114B5A6822F480025A605A6842F492
:100A8C0000025A600A680D4B9A4292D10C4B1B68BB
:100A9C000C4AA2FB03239B0C03EB83035A00019229
:100AAC0002E0019B013B0193019B002BF9D180E7F4
:100ABC00022082E7002001400023014012000010B8
:100ACC000C00002083DE1B43074AD36823F4E06349
:100ADC001B041B0C000200F4E060184340F0BF60E4
:100AEC0040F40030D060704700ED00E030B4174B9C
:100AFC00DB68C3F30223C3F10704042C28BF0424CE
:100B0C001D1D062D18D9033B4FF0FF3505FA04F4D3
:100B1C0021EA0401994005FA03F322EA030319437D
:100B2C0000280BDB0901C9B200F1604000F56140FF
:100B3C0080F8001330BC70470023E5E700F00F008D
:100B4C000901C9B2024B1954F4E700BF00ED00E0F3
:100B5C0014ED00E00138B0F1807F0AD2064B5860EA
:100B6C00064AF02182F823100020986007221A60B0
:100B7C0070470120704700BF10E000E000ED00E07E
:100B8C0000230F2B00F2E380F0B583B039E009228B
:100B9C0000E00022AA403A4302346D4D45F824206F
:100BAC006C4A1468F24302EA04054F6817F4803F5C
:100BBC0001D046EA0405674C2560646802EA040526
:100BCC004F6817F4003F01D046EA0405614C65609C
:100BDC00A46802EA04054F6817F4801F01D046EAA6
:100BEC0004055C4CA560E46822404D6815F4001FB8
:100BFC0001D046EA0402574CE26001330F2B00F29D
:100C0C00A48001229A400C6804EA0206B242F4D194
:100C1C004C68651E012D03D9112C01D0122C12D158
:100C2C0085685F000324BC4025EA0405CC68BC4001
:100C3C002C438460456825EA02054C68C4F3001215
:100C4C009A402A434260C4685F000322BA40D243F0
:100C5C0014408D68BD402543C5604C68022C01D002
:100C6C00122C13D1DD08083550F825E003F00704E9
:100C7C004FEA840C0F2404FA0CF42EEA040E0C69CF
:100C8C0004FA0CF444EA0E0440F8254004682240AF
:100C9C004C6804F00304BC40224302604A6812F022
:100CAC00805FAAD0002201922B4A546C44F48044F9
:100CBC005464526C02F480420192019A9C08A51C67
:100CCC00234A52F8257003F0030295000F22AA4024
:100CDC0027EA0207214A90423FF45BAF02F580629B
:100CEC00904222D002F58062904220D002F58062C0
:100CFC0090421ED002F5806290421CD002F58062B8
:100D0C0090421AD002F58062904218D002F58062AF
:100D1C00904216D002F58062904214D002F58062A7
:100D2C0090423FF434AF0A2234E7012232E7022228
:100D3C0030E703222EE704222CE705222AE70622BD
:100D4C0028E7072226E7082224E703B0F0BD704706
:100D5C0000380140003C01400038024000000240D5
:100D6C0012B90904816170478161704710B582B076
:100D7C0000230193194B1A6C42F080521A641B6CBD
:100D8C0003F080530193019B154B01221A60FFF76E
:100D9C00F1FB0446134B5B6813F4803F08D1FFF75B
:100DAC00E9FB001BB0F57A7FF4D9032002B010BD2B
:100DBC000D4B01221A60FFF7DDFB0446094B5B6803
:100DCC0013F4003F07D1FFF7D5FB001BB0F57A7F7A
:100DDC00F4D90320EAE70020E8E700BF003802401E
:100DEC0040000E420070004044000E42002800F00B
:100DFC00E48170B582B00446036813F0010F3BD058
:100E0C00A74B9B6803F00C03042B2CD0A44B9B68C2
:100E1C0003F00C03082B21D06368B3F5803F4FD04F
:100E2C00B3F5A02F52D09E4B1A6822F480321A6070
:100E3C001A6822F480221A606368002B50D0FFF7E6
:100E4C0099FB0546964B1B6813F4003F14D1FFF732
:100E5C0091FB401B6428F5D90320B3E1904B5B68F0
:100E6C0013F4800FD8D08E4B1B6813F4003F03D0C3
:100E7C006368002B00F0A381236813F0020F55D098
:100E8C00874B9B6813F00C0F3ED0854B9B6803F08F
:100E9C000C03082B33D0E368002B68D0814B012264
:100EAC001A60FFF767FB05467D4B1B6813F0020FBA
:100EBC0054D1FFF75FFB401B0228F5D9032081E1D9
:100ECC00774A136843F480331360B5E7744B1A68A0
:100EDC0042F480221A601A6842F480321A60ABE73E
:100EEC00FFF748FB05466E4B1B6813F4003FC3D05D
:100EFC00FFF740FB401B6428F5D9032062E1684BE7
:100F0C005B6813F4800FC6D1654B1B6813F0020F9E
:100F1C0004D0E368012B01D0012053E1604A13682F
:100F2C0023F0F803216943EAC1031360236813F02B
:100F3C00080F40D0636963B35B4B01221A60FFF763
:100F4C0019FB0546564B5B6F13F0020F33D1FFF7BD
:100F5C0011FB401B0228F5D9032033E1504A1368DA
:100F6C0023F0F803216943EAC1031360DEE74D4B1C
:100F7C0000221A60FFF7FEFA0546494B1B6813F076
:100F8C00020FD3D0FFF7F6FA401B0228F5D9032045
:100F9C0018E1454B00221A60FFF7ECFA0546404B6E
:100FAC005B6F13F0020F06D0FFF7E4FA401B022828
:100FBC00F5D9032006E1236813F0040F79D0384BE0
:100FCC001B6C13F0805F33D100230193344B1A6CEC
:100FDC0042F080521A641B6C03F080530193019B06
:100FEC000125324B1B6813F4807F23D0A368012B9F
:100FFC0034D0052B38D02A4B1A6F22F001021A6715
:10100C001A6F22F004021A67A368002B36D0FFF780
:10101C00B1FA0646224B1B6F13F0020F48D1FFF7B3
:10102C00A9FA801B41F288339842F3D90320C9E016
:10103C000025D6E71D4A136843F480731360FFF74D
:10104C0099FA0646194B1B6813F4807FCED1FFF733
:10105C0091FA801B0228F5D90320B3E0104A136FD4
:10106C0043F001031367CFE70D4B1A6F42F00402F4
:10107C001A671A6F42F001021A67C5E7FFF77AFA8E
:10108C000646074B1B6F13F0020F11D0FFF772FAD5
:10109C00801B41F288339842F3D9032092E000BFC1
:1010AC000038024000004742800E4742007000406A
:1010BC00EDB9A369002B00F08480454A926802F0D8
:1010CC000C02082A51D0022B17D0424B00221A6076
:1010DC00FFF750FA04463E4B1B6813F0007F42D0DA
:1010EC00FFF748FA001B0228F5D903206AE0384ABA
:1010FC00136C23F080531364DBE7364B00221A6029
:10110C00FFF738FA0546324B1B6813F0007F06D008
:10111C00FFF730FA401B0228F5D9032052E0E369AF
:10112C00226A1343626A43EA8213A26A5208013AA2
:10113C0043EA0243E26A43EA0263254A5360254BC1
:10114C0001221A60FFF716FA0446214B1B6813F0B4
:10115C00007F06D1FFF70EFA001B0228F5D90320F9
:10116C0030E000202EE000202CE0012B2CD0184B7E
:10117C009B6803F48001E269914201D0012021E0D7
:10118C0003F03F02216A8A4201D001201AE0616A11
:10119C0047F6C0721A408A4201D0012012E003F4D3
:1011AC004032A16A8A4201D001200BE003F0706347
:1011BC00E26A93420AD0012004E00120704701202A
:1011CC0000E0002002B070BD0120FBE70020F9E731
:1011DC000038024060004742324B9B6803F00C031E
:1011EC00042B5CD0082B01D02F4870472DE9F04B15
:1011FC002C4B5A6802F03F025B6813F4800F2BD023
:10120C00284B5B68C3F388131E4600275C0100253E
:10121C00E41A65EB0705A90141EA9461A001001BE2
:10122C0061EB0501CB0043EA5073C400A01943EBFA
:10123C0007014B0243EAD0534402204619460023CF
:10124C00FEF7CEFF174B5B68C3F3014301335B0022
:10125C00B0FBF3F0BDE8F08B124B5B68C3F3881363
:10126C001E4600275C010025E41A65EB0705A90161
:10127C0041EA9461A001001B61EB0501CB0043EA3C
:10128C005073C400A01943EB07018B0243EA90533F
:10129C008402204619460023FEF7A2FFD2E703483A
:1012AC00704700BF003802400024F40000127A009E
:1012BC00002800F09E8070B50446504B1B6803F06C
:1012CC000F038B4209D2CBB24C4A1370136803F054
:1012DC000F038B4201D0012070BD236813F0020F65
:1012EC0017D013F0040F04D0454A936843F4E0532D
:1012FC009360236813F0080F04D0414A936843F4B9
:10130C00604393603E4A936823F0F003A068034364
:10131C0093600D46236813F0010F32D06368012BE4
:10132C0021D09A1E012A25D9354A126812F0020FD3
:10133C0061D033498A6822F0030213438B60FFF7B4
:10134C0019F906462E4B9B6803F00C036268B3EB4D
:10135C00820F16D0FFF70EF9801B41F288339842AA
:10136C00F0D90320B8E7264A126812F4003FE0D106
:10137C000120B1E7224A126812F0007FD9D1012076
:10138C00AAE71E4B1B6803F00F03AB4209D9EAB264
:10139C001A4B1A701B6803F00F03AB4201D00120EB
:1013AC009AE7236813F0040F06D0154A936823F4C8
:1013BC00E053E1680B439360236813F0080F07D0E8
:1013CC000F4A936823F46043216943EAC103936095
:1013DC00FFF702FF0A4B9B68C3F30313094AD35C64
:1013EC00D840094B1860094B1868FFF779F80020B2
:1013FC0072E70120704701206EE700BF003C0240FD
:10140C0000380240802000080C000020040000205E
:10141C00F8B505460F4616461C462B689B6837EAFE
:10142C0003030CBF01230023B34237D0B4F1FF3FB9
:10143C00F3D0FFF79FF8069BC01AA04201D2002CF4
:10144C00EBD12A68536823F0E00353606B68B3F563
:10145C00827F0BD0AB6AB3F5005F14D0012385F803
:10146C005130002385F85030032018E0AB68B3F5F9
:10147C00004F02D0B3F5806FECD12A68136823F0CB
:10148C0040031360E6E72A68136823F400531360E3
:10149C002A68136843F400531360DFE70020F8BD9B
:1014AC0030B585B0164C2468164DA5FB0434640D7C
:1014BC004FF47A7505FB04F403944468B4F5827F09
:1014CC000BD0039BC3B1039B013B039303689B6845
:1014DC0013F0800FF5D100230FE00B460446009269
:1014EC0000228021FFF794FF034630B1636D43F077
:1014FC0020036365032300E00023184605B030BDCC
:10150C000C000020819F5E1600283BD010B50446CD
:10151C000023836290F85130002B2ED0022384F8E4
:10152C0051302268136823F0400313606368A2688B
:10153C001343E26813432269134362691343A2699C
:10154C0002F400721343E2691343226A1343A16A43
:10155C0022680B431360638B03F00403616A2268F7
:10156C000B4353602268D36923F40063D3610020DA
:10157C006065012384F8513010BD80F8503000F0C4
:10158C00A5FCCBE7012070472DE9F04182B090F823
:10159C005040012C00F0C3801D4617468846044677
:1015AC00012380F85030FEF7E5FF064694F85130E1
:1015BC00DBB2012B09D00220012384F85130002327
:1015CC0084F8503002B0BDE8F081B8F1000F00F0A3
:1015DC009880002F00F09780032384F8513000236B
:1015EC006365C4F83080A786E786A363A387E38787
:1015FC0063642364A368B3F5004F1CD023681A6896
:10160C0012F0400F03D11A6842F040021A60E368EE
:10161C00B3F5006F15D063680BB1012F49D1226B64
:10162C00236812781A73236B01332363E38E013B17
:10163C009BB2E3863DE02268136843F48043136059
:10164C00DCE763680BB1012F15D1226B236812887C
:10165C00DA60236B02332363E38E013B9BB2E38698
:10166C0009E0FEF787FF801BA84202D3B5F1FF3FCC
:10167C004BD1002D4BD0E38E9BB2002B2CD023688A
:10168C009A6812F0020FECD0226B1288DA60236B8E
:10169C0002332363E38E013B9BB2E386EBE7FEF759
:1016AC0069FF801BA84202D3B5F1FF3F31D1002D59
:1016BC0031D0E38E9BB27BB123689A6812F0020F93
:1016CC00EDD0226B12781A73236B01332363E38EF4
:1016DC00013B9BB2E386ECE7324629462046FFF7F6
:1016EC00DFFE08B120236365A36833B90193236837
:1016FC00DA6801929B680193019B636D6BB90020C2
:10170C005AE7012058E7012056E7032054E703204D
:10171C0052E7032050E703204EE701204CE702205C
:10172C0050E7000008B500F0B1FB00F099FA002278
:10173C0004210248FFF714FB08BD00BF000802405B
:10174C0000B583B002A901F8010D01231A46034824
:10175C00FFF71AFF03B05DF804FB00BF7800002010
:10176C0038B505460A4C002204212046FFF7F8FA4A
:10177C0000224FF400510748FFF7F2FA2846FFF712
:10178C00DFFF012204212046FFF7EAFA38BD00BF33
:10179C0000080240000C024038B5054601224FF407
:1017AC0000510948FFF7DCFA084C002204212046BE
:1017BC00FFF7D6FA2846FFF7C3FF01220421204683
:1017CC00FFF7CEFA38BD00BF000C02400008024003
:1017DC00F8B507460D4616461C462A20FFF7C0FFF3
:1017EC00380AFFF7D9FFF8B2FFF7D6FF300AFFF738
:1017FC00D3FFF0B2FFF7D0FF2B20FFF7B1FF280A81
:10180C00FFF7CAFFE8B2FFF7C7FF200AFFF7C4FFD4
:10181C00E0B2FFF7C1FF2C20FFF7A2FFF8BD0000DC
:10182C0008B5C820FEF7ACFE002204210348FFF7E0
:10183C0097FAC820FEF7A4FE08BD00BF00080240BE
:10184C0010B504463620FFF78BFF0120FEF798FEFB
:10185C00032C0CD8DFE804F0020C16204820FFF70C
:10186C009BFF124BF0221A804FF4A0725A8010BDCD
:10187C002820FFF791FF0D4B4FF4A0721A80F02235
:10188C005A80F4E78820FFF787FF084BF0221A8074
:10189C004FF4A0725A80EAE7E820FFF77DFF034B74
:1018AC004FF4A0721A80F0225A80E0E70800002062
:1018BC0008B5FFF737FFFFF7B3FF0120FFF750FF25
:1018CC004FF47A70FEF75CFECB20FFF749FF39200E
:1018DC00FFF762FF2C20FFF75FFF0020FFF75CFF94
:1018EC003420FFF759FF0220FFF756FFCF20FFF7F8
:1018FC0037FF0020FFF750FFC120FFF74DFF3020CE
:10190C00FFF74AFFE820FFF72BFF8520FFF744FF86
:10191C000020FFF741FF7820FFF73EFFEA20FFF79A
:10192C001FFF0020FFF738FF0020FFF735FFED20E9
:10193C00FFF716FF6420FFF72FFF0320FFF72CFFA4
:10194C001220FFF729FF8120FFF726FFF720FFF772
:10195C0007FF2020FFF720FFC020FFF701FF232007
:10196C00FFF71AFFC120FFF7FBFE1020FFF714FF53
:10197C00C520FFF7F5FE3E20FFF70EFF2820FFF7EE
:10198C000BFFC720FFF7ECFE8620FFF705FF362084
:10199C00FFF7E6FE4820FFF7FFFE3A20FFF7E0FED8
:1019AC005520FFF7F9FEB120FFF7DAFE0020FFF714
:1019BC00F3FE1820FFF7F0FEB620FFF7D1FE08204B
:1019CC00FFF7EAFE8220FFF7E7FE2720FFF7E4FE91
:1019DC00F220FFF7C5FE0020FFF7DEFE2620FFF702
:1019EC00BFFE0120FFF7D8FEE020FFF7B9FE0F2065
:1019FC00FFF7D2FE3120FFF7CFFE2B20FFF7CCFEF6
:101A0C000C20FFF7C9FE0E20FFF7C6FE0820FFF7DB
:101A1C00C3FE4E20FFF7C0FEF120FFF7BDFE3720BE
:101A2C00FFF7BAFE0720FFF7B7FE1020FFF7B4FE52
:101A3C000320FFF7B1FE0E20FFF7AEFE0920FFF7E3
:101A4C00ABFE0020FFF7A8FEE120FFF789FE002087
:101A5C00FFF7A2FE0E20FFF79FFE1420FFF79CFE5F
:101A6C000320FFF799FE1120FFF796FE0720FFF7E2
:101A7C0093FE3120FFF790FEC120FFF78DFE48202A
:101A8C00FFF78AFE0820FFF787FE0F20FFF784FE82
:101A9C000C20FFF781FE3120FFF77EFE3620FFF78A
:101AAC007BFE0F20FFF778FE1120FFF759FE782000
:101ABC00FEF766FD2920FFF753FE0020FFF7C0FE5E
:101ACC0008BD00002DE9F84300AF06460D464FEA6D
:101ADC004108B8F5FA7F01D34FF4FA7501224FF49F
:101AEC0000511C48FFF73CF9002204211A48FFF76B
:101AFC0037F9310AEB1D23F00703ADEB030D6C46F0
:101B0C00002303E0E1545A1CA6540233AB42F9D330
:101B1C00B8FBF5F905FB1988B9F1000F0AD00026BE
:101B2C0006E00A23AAB221460C48FFF72DFD013628
:101B3C004E45F6D30A231FFA88F221460748FFF7D1
:101B4C0023FD012204210448FFF70AF9BD46BDE834
:101B5C00F88300BF000C024000080240780000200F
:101B6C0038B50546074C2288638800210846FFF7E4
:101B7C002FFE2388618801FB03F12846FFF7A2FFA3
:101B8C0038BD00BF0800002000B585B000230093CD
:101B9C000193029303931548154A02604FF4803267
:101BAC00426083600361037680F82030C362114A7F
:101BBC008262C3600122C26180F830304261FEF75C
:101BCC008DFD60B9002300930122019202936946B6
:101BDC000648FEF7A7FE28B905B05DF804FB00F037
:101BEC0053F9EFE700F050F9F6E700BF30000020A2
:101BFC00002001400100000F00B589B000230393C1
:101C0C000493059306930793026803F1804303F54D
:101C1C0090339A4202D009B05DF804FB0021019187
:101C2C0003F58C335A6C42F480725A645A6C02F489
:101C3C0080720192019A02911A6B42F001021A63AE
:101C4C001B6B03F001030293029B012303930323F9
:101C5C00049303A90148FEF793FFDCE70000024060
:101C6C002DE9F0418CB000240794089409940A944F
:101C7C000B940194384B1A6B42F020021A631A6BC6
:101C8C0002F020020192019A02941A6B42F0800237
:101C9C001A631A6B02F080020292029A03941A6B76
:101CAC0042F004021A631A6B02F004020392039AC4
:101CBC0004941A6B42F001021A631A6B02F00102CF
:101CCC000492049A05941A6B42F008021A631A6B78
:101CDC0002F008020592059A06941A6B42F0400233
:101CEC001A631B6B03F040030693069BDFF87480AA
:101CFC00224604214046FFF733F8184F22464FF492
:101D0C0000513846FFF72CF8154E22464FF4C041CF
:101D1C003046FFF725F8042307930125089509940D
:101D2C000A9407A94046FEF72BFF4FF40053079384
:101D3C00089509940A9407A93846FEF721FF4FF439
:101D4C00C0430793089509940A9407A93046FEF7F7
:101D5C0017FF0CB0BDE8F08100380240000C0240C7
:101D6C00001802400008024030B595B03022002126
:101D7C0008A800F06BF900240394049405940694CD
:101D8C00079401941C4B1A6C42F080521A641B6C21
:101D9C0003F080530193019B0294184B1A6842F490
:101DAC0040421A601B6803F440430293029B0225D5
:101DBC00089501230B9310230C930E950F94082375
:101DCC001093B423119312950723139308A8FFF7CC
:101DDC000DF8FEF7CBFF0F230393049505944FF4F6
:101DEC00A05306934FF480530793052103A8FFF7E4
:101DFC005FFA15B030BD00BF0038024000700040E3
:101E0C0010B5FEF791FBFFF7AFFFFFF729FF00F0CE
:101E1C003DF8FFF7B9FEFFF74BFD0020FFF710FD73
:101E2C004FF6FF70FFF79CFE0CE0154C01224FF4AF
:101E3C0000512046FEF794FF00224FF480412046CB
:101E4C00FEF78EFF0F4C2046FEF774FC0521204652
:101E5C00FEF70AFD0028F5D12046FEF760FDB0F52F
:101E6C00006FE2D2064C00224FF400512046FEF7E0
:101E7C0077FF01224FF480412046FEF771FFE1E726
:101E8C0000180240300000207047000008B50D48D3
:101E9C000D4B03604FF48273436000238360C36077
:101EAC00036143614FF400728261C3610362436258
:101EBC0083620A23C362FFF727FB00B908BDFFF753
:101ECC00E3FFFBE7780000200050014000B589B02B
:101EDC000023039304930593069307930268154B11
:101EEC009A4202D009B05DF804FB0021019103F580
:101EFC0068435A6C42F480125A645A6C02F4801291
:101F0C000192019A02911A6B42F020021A631B6B28
:101F1C0003F020030293029B4FF46073039302239C
:101F2C000493032306930523079303A90248FEF7A2
:101F3C0027FED7E7005001400014024000B583B0E3
:101F4C00002100910C4B5A6C42F480425A645A6C3A
:101F5C0002F480420092009A01911A6C42F0805275
:101F6C001A641B6C03F080530193019B0720FEF74E
:101F7C00ABFD03B05DF804FB003802407047FEE790
:101F8C00FEE7FEE7FEE770477047704708B5FEF7BF
:101F9C00E5FA08BD054BD3F8882042F47002C3F86B
:101FAC0088204FF000629A60704700BF00ED00E09F
:101FBC00DFF834D0002103E00C4B5B584350043164
:101FCC000B480C4B42189A42F6D30B4A02E0002302
:101FDC0042F8043B094B9A42F9D3FFF7DBFF00F0C0
:101FEC0011F8FFF70DFF704700000320A820000830
:101FFC00000000201000002010000020D000002065
:10200C00FEE7000070B50D4E0D4CA41BA41000256E
:10201C00A54209D10B4E0C4C00F020F8A41BA410C7
:10202C000025A54205D170BD56F8253098470135DD
:10203C00EEE756F8253098470135F2E7A020000866
:10204C00A0200008A0200008A42000080244034699
:10205C00934200D1704703F8011BF9E7F8B500BFB4
:10206C00F8BC08BC9E467047F8B500BFF8BC08BC6D
:04207C009E467047C5
:102080000000000000000000010203040607080928
:0820900000000000010203043E
:0820980084E1FF7F010000005C
:0420A000D101000862
:0420A400AD01000882
:1020A80001000000100000004001F0000024F400CE
:0400000508001FBD13
:00000001FF
