:020000040800F2
:1000000070040020C101000843120008250D0008FB
:1000100041120008CD020008DD13000800000000B6
:100020000000000000000000000000003513000880
:10003000CF0200080000000045120008D9010008A6
:10004000DB010008DB010008DB010008DB01000820
:10005000DB010008DB010008DB010008DB01000810
:10006000DB010008DB010008DB010008DB01000800
:10007000DB010008DB010008DB010008DB010008F0
:10008000DB010008DB010008DB010008DB010008E0
:10009000DB010008DB010008DB010008DB010008D0
:1000A000DB010008DB010008DB010008DB010008C0
:1000B000DB010008DB010008DB010008DB010008B0
:1000C000DB010008DB010008DB010008DB010008A0
:1000D000DB010008DB010008DB010008DB01000890
:1000E000DB010008DB010008DB010008DB01000880
:1000F000DB010008DB010008DB010008DB01000870
:10010000DB010008DB010008DB010008DB0100085F
:10011000DB010008DB010008DB010008DB0100084F
:10012000DB010008DB010008DB010008DB0100083F
:10013000DB010008DB010008DB010008DB0100082F
:10014000DB010008DB010008DB010008DB0100081F
:10015000DB010008DB010008DB010008DB0100080F
:10016000DB010008DB010008DB010008DB010008FF
:10017000DB010008DB010008DB01000800000000D3
:10018000DB010008DB010008DB010008DB010008DF
:10019000DB010008DB010008DB010008DB010008CF
:1001A000DB010008DB010008DB010008DFF80CD0F0
:1001B00000F07AF800480047E114000870040020BD
:1001C0000648804706480047FEE7FEE7FEE7FEE7F1
:1001D000FEE7FEE7FEE7FEE7FEE7FEE7C1130008E5
:1001E000AD0100082DE9F05F0546002092469B46D0
:1001F00088460646814640241BE02846414647463D
:10020000224600F041F853465A46C01A914110D395
:1002100011461846224600F028F82D1A67EB01080F
:100220004F4622460120002100F01FF817EB00097D
:100230004E41201EA4F10104DFDC484631462A4627
:100240004346BDE8F09FD2B201E000F8012B491E01
:10025000FBD270470022F6E710B513460A46044663
:100260001946FFF7F0FF204610BD202A04DB203A94
:1002700000FA02F1002070479140C2F1200320FAF9
:1002800003F3194390407047202A04DB203A21FAF7
:1002900002F00021704721FA02F3D040C2F120029F
:1002A0009140084319467047064C074D06E0E06848
:1002B00040F0010394E8070098471034AC42F6D3AD
:1002C000FFF778FF4015000860150008FEE770474B
:1002D0002DE9F84F00224FF0010803254FF00F0ED3
:1002E0000B6808FA02F42340A3426ED14E68012E37
:1002F00005D0022E03D0112E01D0122E12D1866805
:100300004FEA420C05FA0CF7BE43CF6807FA0CF728
:10031000374387604668A6430C79C4F300149440C1
:1003200034434460C668570005FA07FC8C6826EA27
:100330000C06BC403443C4604C68022C01D0122C23
:1003400013D1D40800EB8404A346D4F820905407BA
:100350004FEAD46A0EFA0AF629EA06090E6906FA85
:100360000AF646EA0906CBF8206004680E7924EA0A
:100370000C0406F00306BE40264306604C68E40009
:100380006FD53B4C266846F480462660246822F0F0
:10039000030604F480440094364C3444A446D4F854
:1003A00008489607360F0EFA06F7BC43324FB8429C
:1003B00001D100272EE0314FB84201D1012729E0B9
:1003C0002F4FB84202D1022724E04AE02D4FB84215
:1003D00001D103271EE02C4FB84201D1042719E0B8
:1003E0002A4FB84201D1052714E0294FB84201D164
:1003F00006270FE0274FB84201D107270AE0264F12
:10040000B84201D1082705E0244FB84201D109279D
:1004100000E00A27B7402743CCF80878204E34681C
:100420004F689C43FF0300D51C4334601C4E361DAF
:1004300034684F689C43BF0300D51C433460184E9A
:10044000083634684F689C43FF0200D51C43346073
:10045000134E0C3634684F689C43BF0200D51C43D2
:100460003460521C102AFFF43BAFBDE8F88F000047
:1004700044380240003001400000024000040240C5
:1004800000080240000C024000100240001402402C
:1004900000180240001C02400020024000240240DC
:1004A000003C01400AB1816170470904FBE700008C
:1004B0000148806870470000040000200B4810B518
:1004C000016841F400710160016841F480610160DC
:1004D000016841F480710160032000F061F80020A0
:1004E00000F006F800F024F8002010BD003C0240A7
:1004F00070B50D4D04464FF47A712878B1FBF0F0D9
:100500000A490968B1FBF0F000F0F8FB48B9102C7B
:1005100007D200222146501E00F022F800206C6015
:1005200070BD012070BD00000400002010000020FC
:100530000A4808B5016841F480410160006800F490
:10054000804000900548001F016841F08051016023
:10055000006800F08050009008BD00004438024060
:10056000F0B40E4B1B680C46C3F30223C3F107051E
:10057000042D00D90425191D072901D2002300E00C
:10058000DB1E012606FA05F1491E214099409E40D6
:10059000761E16403143F0BC00F021BF0CED00E0A8
:1005A000064900F0070208684FF6FF03184040EACA
:1005B0000220034A10430860704700000CED00E081
:1005C0000000FA052DE9F0470E46050065D0DFF87A
:1005D0001481D8F80000F7B200F00F00B04207D243
:1005E00088F80070D8F8000000F00F00B04254D135
:1005F00028683D4C810712D5400703D5206840F498
:10060000E05020602878000703D5206840F460405F
:1006100020602068A96820F0F00008432060287856
:10062000C0072DD0304968680839012812D0022847
:1006300013D0032811D00968890700292DDA216811
:1006400021F0030101432160FFF732FF814641F2AF
:10065000883A0EE009688903EFE709688901ECE749
:10066000FFF726FFA0EB0901514502D90320BDE8A1
:10067000F0872068696800F00C00B0EB810FEFD1C3
:10068000D8F80010404601F00F01B14207D90770B9
:10069000006800F00F00B04201D00120E7E72878A1
:1006A000400705D52068E96820F4E0500843206041
:1006B0002878000706D52068296920F4604040EAC0
:1006C000C100206000F018F82168084AC1F3031146
:1006D000515CC8400649086006480068FFF708FFFB
:1006E0000020C4E7003C02400838024030150008F2
:1006F0001000002008000020154810B5006810F018
:100700000C02144813D04110042A0FD0082A0ED12D
:100710000F4C241F2268236802F03F025B0207D5BA
:100720002068C0F38810A0FB010106E0084610BD58
:100730002168C1F38811A1FB00010023FFF752FDDE
:100740002168C1F30141491C4900B0FBF1F010BD23
:10075000083802400024F4002DE9F84F040076D058
:100760002078DFF838A3CE4DC00749D0DAF8001062
:100770005046C1F38101012908D00068C0F381000F
:1007800002280AD1281D0068400206D52868800387
:1007900036D560680028E2D032E06068B0F5803F6E
:1007A00010D0B0F5A02F286810D020F48030286039
:1007B000286820F4802028606068A0B1FFF778FEE8
:1007C00006460CE0286840F48030F4E740F48020CE
:1007D0002860F7E7FFF76CFE801B642873D8286851
:1007E0008003F7D50CE0FFF763FE064605E000BF87
:1007F000FFF75EFE801B6428F0D828688003F7D4DA
:100800002078DFF8A08280074FF000093ED5DAF8A3
:100810000010504611F00C0F09D00068C0F38100A1
:1008200002280BD19D48001F0068400206D42868AA
:10083000800715D5E068012809D111E0E068B8B15A
:100840000120C8F80000FFF733FE064605E020E16E
:10085000FFF72EFE801B0228C0D828688007F7D536
:100860002868216920F0F80040EAC10028600DE006
:10087000C8F80090FFF71CFE064604E0FFF718FEDC
:10088000801B02281FD828688007F7D4207800072B
:1008900022D5824E844861696C3671B101210160B4
:1008A000FFF706FE074604E0FFF702FEC01B022822
:1008B00009D830688007F7D50EE0C0F80090FFF740
:1008C000F7FD074605E082E0FFF7F2FDC01B0228B6
:1008D0007DD830688007F7D42078400768D5DFF8E6
:1008E000BCB100270BF1380BDBF80000C0000BD4C3
:1008F000DBF8001041F08051CBF80010DBF800006D
:10090000012700F080500090684E3068C00510D478
:10091000306840F480703060FFF7CAFD009005E059
:10092000FFF7C6FD0099401A022850D83068C0056C
:10093000F6D55A4EA068683601280FD005283068D1
:1009400010D020F001003060306820F004003060EA
:10095000A068B8B1FFF7ACFD00900FE0306840F040
:100960000100F4E740F004003060F7E7FFF7A0FD76
:100970000099411A41F28830814266D83068800778
:10098000F4D50EE0FFF794FD009007E0FFF790FD2F
:100990000099411A41F28830814256D83068800768
:1009A000F4D42FB1DBF8001021F08051CBF8001007
:1009B000A069D0B3DAF800205146C2F38102022ABE
:1009C0004AD00228484607D0C8F8600000E03CE062
:1009D000FFF76EFD04463BE04746C8F86000FFF7AE
:1009E00067FD064605E000BFFFF762FD801B022899
:1009F0002BD828688001F7D4D4E907010843A16AFD
:100A00002B4A490802EB0141626A41EA821108431C
:100A100094F82C1040EA01612048001F0160012079
:100A20003866FFF745FD044605E034E0FFF740FD7A
:100A3000001B022809D828688001F7D52BE000BFE9
:100A4000FFF736FD001B022802D90320BDE8F88F0E
:100A500028688001F4D41EE00128F7D00868E26914
:100A600000F48001914214D1226A00F03F019142CA
:100A70000FD147F6C071626A0140914209D1A26A62
:100A800000F44031914204D1E16A00F07060884284
:100A900001D00120DAE70020D8E700000838024042
:100AA0000038024000004742800E4742007000407C
:100AB0000000FFFF70B5040005D00025A56294F882
:100AC000510010B106E0012070BD84F8505020465E
:100AD00000F030F8022084F851002068016821F00D
:100AE00040010160D4E901010843D4E90312114334
:100AF000084361690843218B01F400710843E169EF
:100B00000843216A0843A16A084321680860A06974
:100B1000042101EA1040616A0843216848602068A6
:100B2000C16921F40061C1616565012084F851004B
:100B3000002070BD10B586B0044614216846FFF74A
:100B400089FB14492068884221D11348002102689A
:100B500042F480120260006800F4801005900E4894
:100B60001438026842F020020260006800F02000A1
:100B700005904FF4207000900220CDE90101032080
:100B800003900520049069460448FFF7A1FB06B0D6
:100B900010BD0000005001404438024000140240E3
:100BA0002DE9F84F044690F8500000271D461646E0
:100BB000894601280DD04FF0010B84F850B0FFF7A3
:100BC00077FC804694F85100BA46012804D00227E9
:100BD0008EE00220BDE8F88FB9F1000F7DD0002E25
:100BE0007BD0032084F85100C4F854A0C4F830909E
:100BF000A686E686C4F838A0A4F83CA0A4F83EA0D7
:100C0000C4F844A0C4F840A0A068B0F5004F04D1D7
:100C10002068016841F4804101602068016849064C
:100C200003D4016841F040010160E068B0F5006F55
:100C3000606803D030B3012E24D040E008B1012E0B
:100C40001CD1206B21680088C86006E0206881689C
:100C5000890709D5216B0988C160206B801C20633E
:100C6000E08E401EE08609E0FFF722FCA0EB0800C2
:100C7000A84202D3681C01D031E07DB3E08E002889
:100C8000E4D11FE0206B21680078087306E020683B
:100C90008168890709D5216B09780173206B401C95
:100CA0002063E08E401EE08609E0FFF701FCA0EB28
:100CB0000800A84202D3681C01D010E075B1E08E94
:100CC0000028E4D142462946204600F0BDFA08B18A
:100CD00020206065A06820B107E008E0FFE7032757
:100CE00006E02068C16880680090606D00B101274F
:100CF00084F851B084F850A038466BE710B5401E18
:100D0000B0F1807F01D3012010BD4FF0E02460617D
:100D10000F21601700F063FB0020A0610720206115
:100D2000002010BDFEE710B514460B46024600F049
:100D3000CDF8200A00F0B8F8E0B2BDE8104000F0AD
:100D4000B3B8000070B5054610484FF4963440F231
:100D50003F120178012906D0032904D0022905D0C9
:100D6000042903D007E01346EF2200E0EF2300211F
:100D7000084600F0ABF82E0A3046641E00F094F8E6
:100D8000E8B200F091F8002CF6D170BD0000002010
:100D900010B5012000F074F8282000F071F8C02090
:100DA00000F06EF8262000F07FF8C12000F068F80F
:100DB000112000F079F8C52000F062F8352000F02D
:100DC00073F83E2000F070F8C72000F059F8BE20FC
:100DD00000F06AF8362000F053F8482000F064F87C
:100DE0003A2000F04DF8552000F05EF8B12000F0F8
:100DF00047F8002000F058F81F2000F055F82A208E
:100E000000F03EF8002000F04FF8002000F04CF811
:100E1000002000F049F8EF2000F046F82B2000F009
:100E20002FF8002000F040F8002000F03DF80120ED
:100E300000F03AF83F2000F037F8342000F020F8B6
:100E4000B72000F01DF8072000F02EF8B62000F0C3
:100E500017F80A2000F028F8822000F025F8272053
:100E600000F022F8002000F01FF8112000F008F830
:100E7000292000F005F8BDE810402C20AFF30080D9
:100E800001B500224FF400510548FFF70BFB4FF46A
:100E90009673012269460348FFF782FE08BD0000F1
:100EA000000C02401400002001B501225103054846
:100EB000FFF7F8FA4FF49673012269460248FFF7EC
:100EC0006FFE08BD000C0240140000202DE9F04127
:100ED00007461C4615460E462A20FFF7D1FF380A62
:100EE000FFF7E2FFF8B2FFF7DFFF280AFFF7DCFFAA
:100EF000E8B2FFF7D9FF2B20FFF7C2FF300AFFF758
:100F0000D3FFF0B2FFF7D0FF200AFFF7CDFFE0B22A
:100F1000FFF7CAFFBDE8F0412C20FFF7B1BF00008A
:100F20002DE9FF4F0746C2F1010014460FFA80F881
:100F3000C2EBC43040000FFA80FA83B00E460819A5
:100F400081B24FF001090025B8B2069AFFF7EBFE17
:100F5000301B81B2B8B2069AFFF7E5FE3819B1B27C
:100F600080B2069AFFF7DFFEB1B2381B57E000BF30
:100F7000B8F1000F09DB0AF102000FFA80FA641ED3
:100F800008EB0A0024B20FFA80F809F102000FFA08
:100F900080F96D1C08EB09002DB20FFA80F8781962
:100FA000019006EB040B1FFA8BF180B2069AFFF753
:100FB000BAFE781B00901FFA8BF180B2069AFFF7F9
:100FC000B2FE0198A6EB040B1FFA8BF180B2069AD1
:100FD000FFF7A9FE00981FFA8BF180B2069AFFF77F
:100FE000A2FE3819019006EB050B1FFA8BF180B2B7
:100FF000069AFFF798FE381B00901FFA8BF180B21B
:10100000069AFFF790FE0198A6EB050B1FFA8BF1ED
:1010100080B2069AFFF787FE00981FFA8BF180B224
:10102000069AFFF780FEA542A2DB07B0BDE8F08F6D
:1010300008B50A44521E009313B2024600F001F8AC
:1010400008BD2DE9F05F0C4606461546191BA2EBBC
:10105000060000D54942002800DA4042814207DDFF
:10106000304626461D464FF001080446134601E06F
:101070004FF00008AE4205DD30462E4605462046BC
:101080001C460346A81B0FFA80F9181B00D54042E6
:101090000FFA80FB09EBD97047109C4201DA01205E
:1010A00001E04FF0FF30824617E0B8F1000F02D0A8
:1010B000B1B2A0B201E0A1B2B0B20A9AFFF733FE1A
:1010C000A7EB0B0007B2002F05DA04EB0A0004B20D
:1010D00007EB090007B2761C36B2AE42E5DDBDE88B
:1010E000F09F2DE9FC4107461446012000EB440027
:1010F00002B20D46081B01B21E463846FFF798FFA4
:101100000020CDE90006032322462946384600F098
:1011100085F9BDE8FC81000010B5012213490128C2
:1011200005D0022809D003280ED0042813D00A7055
:101130003620FFF7A5FE882013E002200870362035
:10114000FFF79EFE28200CE0032008703620FFF7F2
:1011500097FE482005E0042008703620FFF790FE37
:10116000E820BDE81040FFF79FBE0000000000200F
:101170002DE9F04186B014216846FFF76BF81F484F
:101180000024016841F020010160016801F02001A4
:101190000591016841F004010160016801F004015A
:1011A0000591016841F0080101600068144F00F0EA
:1011B00008000590002204213846FFF773F9DFF894
:1011C00044804FF40056002231464046FFF76AF94A
:1011D000042000900125CDE9015469463846039466
:1011E000FFF776F80096CDE901546946404603942E
:1011F000FFF76EF806B0BDE8F0810000303802401D
:1012000000080240000C02400C480B494FF40072E9
:1012100001604FF4827141604FF400418160002110
:10122000C1600161C0E90512C16101624162816270
:101230000A21C162FFF73EBC0050014014000020AB
:10124000FEE770477047000038B504461248134B5C
:101250000068B0FBF3F04FF47A7358430090606875
:10126000B0F5827F0DD10B460092002280212046EE
:1012700000F016F870B1606D40F02000606503204A
:1012800038BD009830B1401E009020688068C0438F
:101290000006F6D5002038BD1000002000366E0193
:1012A0002DE9F0411D4617460E460446DDF818802C
:1012B00008E0681C06D0FFF7FBF8A0EB0800A84286
:1012C0000BD255B12068806836EA000030D000208B
:1012D000B842EED10020BDE8F0812068416821F0DD
:1012E000E00141606068B0F5827F0BD1A068B0F585
:1012F000004F02D0B0F5806F04D12068016821F062
:1013000040010160A06AB0F5005F09D12068016862
:1013100021F4005101602068016841F4005101602E
:10132000012084F85100002084F850000320D2E707
:101330000120CDE77047000030B593B030216846FA
:10134000FEF788FF14210CA8FEF784FF1A48002539
:10135000016841F080510160006800F080501190F8
:101360001648016821F4404141F480410160006861
:10137000022400F4404011900120039010200490BA
:10138000009406940820CDE907503220CDE90904E5
:1013900004200B906846FFF7DFF90CA90F2081E8C5
:1013A00031004FF4A0500F90E002109001210CA8E2
:1013B000FFF708F913B030BD40380240007000401C
:1013C0000548016841F47001016003494FF0006075
:1013D000803908607047000088ED00E0FEE70907EB
:1013E000090E002804DB00F1E02080F800147047AB
:1013F00000F00F0000F1E02080F8141D704702E0BB
:1014000008C8121F08C1002AFAD17047704700208F
:1014100001E001C1121F002AFBD170472DE9FF5FD7
:101420008146C2F1010006B2C2EBC2304000012782
:1014300088460FFA80FB00251446DDF838A04AE004
:10144000002E08DB0BF102000FFA80FB641E06EB96
:101450000B0024B206B2BF1C6D1C3FB2F01906B2DD
:1014600003982DB2C00719D00AEB4400401C02B209
:10147000A8EB040001B209EB050000B20F9BFFF7D7
:10148000D7FD0AEB4500401C02B2A8EB050001B2F3
:1014900009EB040000B20F9BFFF7CAFD0398800719
:1014A00019D50AEB4400401C02B2A8EB040001B2BB
:1014B000A9EB050000B20F9BFFF7BAFD0AEB450050
:1014C000401C02B2A8EB050001B2A9EB040000B277
:1014D0000F9BFFF7ADFDA542B2DBBDE8FF9F00000B
:1014E000FEF7ECFFFFF728FFFFF742FEFFF78CFE49
:1014F000002204210D48FEF7D5FFFFF749FC032029
:10150000FFF70AFE4FF6FF70FFF71CFC32214FF485
:10151000FC6328220846FFF703FD4FF4784350226E
:10152000BE216E20FFF7DDFDFEE70000000802404F
:101530000000000000000000010203040607080983
:10154000601500080000002014000000FE130008D1
:1015500074150008140000205C0400000E1400083C
:101560000100000001000000100000000000000069
:041570000024F4005F
:04000005080001AD41
:00000001FF
