:020000040800F2
:10000000B8570020C101000847160008C90D0008B4
:10001000451600082B030008E51700080000000043
:100020000000000000000000000000003917000878
:100030002D03000800000000491600083B170008C7
:10004000DB010008DB010008DB010008DB01000820
:10005000DB010008DB010008DB010008DB01000810
:10006000DB010008DB010008DB010008DB01000800
:10007000DB010008DB010008DB010008DB010008F0
:10008000DB010008DB010008DB010008DB010008E0
:10009000DB010008DB010008DB010008DB010008D0
:1000A000DB010008DB010008DB010008DB010008C0
:1000B000DB010008DB010008DB010008DB010008B0
:1000C000DB010008DB010008DB010008DB010008A0
:1000D000DB010008DB010008DB010008DB01000890
:1000E000DB010008DB010008DB010008DB01000880
:1000F000DB010008DB010008DB010008DB01000870
:10010000DB010008DB010008DB010008DB0100085F
:10011000DB010008DB010008DB010008DB0100084F
:10012000DB010008DB010008DB010008DB0100083F
:10013000DB010008DB010008DB010008DB0100082F
:10014000DB010008DB010008DB010008DB0100081F
:10015000DB010008DB010008DB010008DB0100080F
:10016000DB010008DB010008DB010008DB010008FF
:10017000DB010008DB010008DB01000800000000D3
:10018000DB010008DB010008DB010008DB010008DF
:10019000DB010008DB010008DB010008DB010008CF
:1001A000DB010008DB010008DB010008DFF80CD0F0
:1001B00000F07AF80048004775180008B85700208A
:1001C0000648804706480047FEE7FEE7FEE7FEE7F1
:1001D000FEE7FEE7FEE7FEE7FEE7FEE7C9170008D9
:1001E000AD0100082DE9F05F0546002092469B46D0
:1001F00088460646814640241BE02846414647463D
:10020000224600F041F853465A46C01A914110D395
:1002100011461846224600F028F82D1A67EB01080F
:100220004F4622460120002100F01FF817EB00097D
:100230004E41201EA4F10104DFDC484631462A4627
:100240004346BDE8F09FD2B201E000F8012B491E01
:10025000FBD270470022F6E710B513460A46044663
:100260001946FFF7F0FF204610BD202A04DB203A94
:1002700000FA02F1002070479140C2F1200320FAF9
:1002800003F3194390407047202A04DB203A21FAF7
:1002900002F00021704721FA02F3D040C2F120029F
:1002A0009140084319467047064C074D06E0E06848
:1002B00040F0010394E8070098471034AC42F6D3AD
:1002C000FFF778FFC01B0008E01B000870B58D1811
:1002D00010F8014B14F0030201D110F8012B231187
:1002E00006D110F8013B03E010F8016B01F8016B37
:1002F000521EF9D1ABB110F8012B04F00C048A1A8C
:100300000C2C03D0A2EB84129B1C08E010F8014BCC
:10031000A2EB0422F8E712F8014B01F8014B5B1E37
:10032000F9D5A942D4D3002070BDFEE770477047CD
:1003300070B5044600F004F90546601C02D004487C
:100340000078044400F0FCF8401BA042FAD370BDD2
:10035000445100202DE9F84F00224FF001080325F9
:100360004FF00F0E0B6808FA02F42340A3426ED13F
:100370004E68012E05D0022E03D0112E01D0122E70
:1003800012D186684FEA420C05FA0CF7BE43CF68DB
:1003900007FA0CF7374387604668A6430C79C4F325
:1003A0000014944034434460C668570005FA07FCC3
:1003B0008C6826EA0C06BC403443C4604C68022CAE
:1003C00001D0122C13D1D40800EB8404A346D4F836
:1003D000209054074FEAD46A0EFA0AF629EA060971
:1003E0000E6906FA0AF646EA0906CBF820600468A8
:1003F0000E7924EA0C0406F00306BE40264306608C
:100400004C68E4006FD53B4C266846F48046266075
:10041000246822F0030604F480440094364C3444EB
:10042000A446D4F808489607360F0EFA06F7BC43E0
:10043000324FB84201D100272EE0314FB84201D1EE
:10044000012729E02F4FB84202D1022724E04AE0D9
:100450002D4FB84201D103271EE02C4FB84201D1E5
:10046000042719E02A4FB84201D1052714E0294F8B
:10047000B84201D106270FE0274FB84201D1072724
:100480000AE0264FB84201D1082705E0244FB842C0
:1004900001D1092700E00A27B7402743CCF80878A4
:1004A000204E34684F689C43FF0300D51C433460E2
:1004B0001C4E361D34684F689C43BF0300D51C4357
:1004C0003460184E083634684F689C43FF0200D5EC
:1004D0001C433460134E0C3634684F689C43BF0293
:1004E00000D51C433460521C102AFFF43BAFBDE81A
:1004F000F88F000044380240003001400000024004
:100500000004024000080240000C024000100240BB
:100510000014024000180240001C0240002002406B
:1005200000240240003C0140426931EA020200D14D
:100530000904816170470AB1816170470904FBE7D2
:1005400001488068704700004451002002488168DB
:100550000278114481607047445100200B4810B567
:10056000016841F400710160016841F4806101603B
:10057000016841F480710160032000F063F80020FD
:1005800000F006F800F024F8002010BD003C024006
:1005900070B50D4D04464FF47A712878B1FBF0F038
:1005A0000A490968B1FBF0F000F0FAFB48B9102CD9
:1005B00007D200222146501E00F024F800206C6073
:1005C00070BD012070BD000044510020505100203A
:1005D0000B4882B0016841F480410160006800F47A
:1005E000804000900648001F016841F08051016082
:1005F000006800F080500090072002B000F022B8A0
:1006000044380240F0B40E4B1B680C46C3F302237F
:10061000C3F10705042D00D90425191D072901D2AE
:10062000002300E0DB1E012606FA05F1491E2140E9
:1006300099409E40761E16403143F0BC01F0D3B87D
:100640000CED00E0064900F0070208684FF6FF03D2
:10065000184040EA0220034A104308607047000037
:100660000CED00E00000FA052DE9F0470E4605000C
:1006700065D0DFF81481D8F80000F7B200F00F0061
:10068000B04207D288F80070D8F8000000F00F00E0
:10069000B04254D128683D4C810712D5400703D59C
:1006A000206840F4E05020602878000703D52068D7
:1006B00040F4604020602068A96820F0F000084302
:1006C00020602878C0072DD0304968680839012893
:1006D00012D0022813D0032811D0096889070029F5
:1006E0002DDA216821F0030101432160FFF728FF83
:1006F000814641F2883A0EE009688903EFE709680C
:100700008901ECE7FFF71CFFA0EB0901514502D975
:100710000320BDE8F0872068696800F00C00B0EBAA
:10072000810FEFD1D8F80010404601F00F01B1421F
:1007300007D90770006800F00F00B04201D0012017
:10074000E7E72878400705D52068E96820F4E050FD
:10075000084320602878000706D52068296920F41E
:10076000604040EAC100206000F018F82168084AA3
:10077000C1F30311515CC84006490860064800688F
:10078000FFF706FF0020C4E7003C024008380240A3
:10079000B01B00085051002048510020154810B5EA
:1007A000006810F00C02144813D04110042A0FD036
:1007B000082A0ED10F4C241F2268236802F03F0242
:1007C0005B0207D52068C0F38810A0FB010106E09A
:1007D000084610BD2168C1F38811A1FB0001002368
:1007E000FFF700FD2168C1F30141491C4900B0FB3E
:1007F000F1F010BD083802400024F4002DE9F84F54
:10080000040076D02078DFF838A3CE4DC00749D059
:10081000DAF800105046C1F38101012908D00068C0
:10082000C0F3810002280AD1281D0068400206D5C5
:100830002868800336D560680028E2D032E060681E
:10084000B0F5803F10D0B0F5A02F286810D020F46C
:1008500080302860286820F4802028606068A0B17B
:10086000FFF76EFE06460CE0286840F48030F4E79F
:1008700040F480202860F7E7FFF762FE801B6428C1
:1008800073D828688003F7D50CE0FFF759FE0646B9
:1008900005E000BFFFF754FE801B6428F0D82868ED
:1008A0008003F7D42078DFF8A08280074FF000099A
:1008B0003ED5DAF80010504611F00C0F09D0006850
:1008C000C0F3810002280BD19D48001F0068400240
:1008D00006D42868800715D5E068012809D111E001
:1008E000E068B8B10120C8F80000FFF729FE06460D
:1008F00005E020E1FFF724FE801B0228C0D828680D
:100900008007F7D52868216920F0F80040EAC10087
:1009100028600DE0C8F80090FFF712FE064604E0DC
:10092000FFF70EFE801B02281FD828688007F7D427
:100930002078000722D5824E844861696C3671B1F7
:1009400001210160FFF7FCFD074604E0FFF7F8FD19
:10095000C01B022809D830688007F7D50EE0C0F820
:100960000090FFF7EDFD074605E082E0FFF7E8FDA8
:10097000C01B02287DD830688007F7D42078400754
:1009800068D5DFF8BCB100270BF1380BDBF80000AD
:10099000C0000BD4DBF8001041F08051CBF8001000
:1009A000DBF80000012700F080500090684E3068AE
:1009B000C00510D4306840F480703060FFF7C0FD8F
:1009C000009005E0FFF7BCFD0099401A022850D8BE
:1009D0003068C005F6D55A4EA068683601280FD099
:1009E0000528306810D020F001003060306820F019
:1009F00004003060A068B8B1FFF7A2FD00900FE0DE
:100A0000306840F00100F4E740F004003060F7E7A0
:100A1000FFF796FD0099411A41F28830814266D86D
:100A200030688007F4D50EE0FFF78AFD009007E0FC
:100A3000FFF786FD0099411A41F28830814256D86D
:100A400030688007F4D42FB1DBF8001021F080511A
:100A5000CBF80010A069D0B3DAF800205146C2F3F9
:100A60008102022A4AD00228484607D0C8F860000E
:100A700000E03CE0FFF764FD04463BE04746C8F871
:100A80006000FFF75DFD064605E000BFFFF758FD7B
:100A9000801B02282BD828688001F7D4D4E90701ED
:100AA0000843A16A2B4A490802EB0141626A41EA04
:100AB0008211084394F82C1040EA01612048001F7D
:100AC000016001203866FFF73BFD044605E034E095
:100AD000FFF736FD001B022809D828688001F7D5EA
:100AE0002BE000BFFFF72CFD001B022802D90320DA
:100AF000BDE8F88F28688001F4D41EE00128F7D003
:100B00000868E26900F48001914214D1226A00F081
:100B10003F0191420FD147F6C071626A0140914294
:100B200009D1A26A00F44031914204D1E16A00F097
:100B30007060884201D00120DAE70020D8E7000089
:100B4000083802400038024000004742800E474209
:100B5000007000400000FFFF70B5040005D00025C4
:100B6000A56294F8510010B106E0012070BD84F830
:100B70005050204600F030F8022084F851002068E0
:100B8000016821F040010160D4E901010843D4E982
:100B900003121143084361690843218B01F400717A
:100BA0000843E1690843216A0843A16A08432168B0
:100BB0000860A069042101EA1040616A08432168C5
:100BC00048602068C16921F40061C1616565012048
:100BD00084F85100002070BD10B586B00446142181
:100BE0006846FFF737FB14492068884221D1134833
:100BF0000021026842F480120260006800F4801054
:100C000005900E481438026842F020020260006825
:100C100000F0200005904FF4607000900220CDE9B4
:100C20000101032003900520049069460448FFF762
:100C300091FB06B010BD0000005001404438024056
:100C4000001402402DE9F84F044690F850000027A8
:100C50001D461646894601280DD04FF0010B84F839
:100C600050B0FFF76DFC804694F85100BA46012859
:100C700004D002278EE00220BDE8F88FB9F1000F02
:100C80007DD0002E7BD0032084F85100C4F854A0FE
:100C9000C4F83090A686E686C4F838A0A4F83CA034
:100CA000A4F83EA0C4F844A0C4F840A0A068B0F5E1
:100CB000004F04D12068016841F480410160206840
:100CC0000168490603D4016841F040010160E06811
:100CD000B0F5006F606803D030B3012E24D040E03F
:100CE00008B1012E1CD1206B21680088C86006E085
:100CF00020688168890709D5216B0988C160206B4C
:100D0000801C2063E08E401EE08609E0FFF718FC9F
:100D1000A0EB0800A84202D3681C01D031E07DB3EB
:100D2000E08E0028E4D11FE0206B21680078087372
:100D300006E020688168890709D5216B097801736D
:100D4000206B401C2063E08E401EE08609E0FFF728
:100D5000F7FBA0EB0800A84202D3681C01D010E00A
:100D600075B1E08E0028E4D142462946204600F0C5
:100D70006DFC08B120206065A06820B107E008E0A4
:100D8000FFE7032706E02068C16880680090606D77
:100D900000B1012784F851B084F850A038466BE7C1
:100DA00010B5401EB0F1807F01D3012010BD4FF07F
:100DB000E02460610F21601700F015FD0020A061A4
:100DC00007202061002010BDFEE700002DE9FE4F46
:100DD0009146DDE90C629B468A46202801D32038E3
:100DE000C0B2224B00EB4000002103EB400001ACFD
:100DF000435C6354491CC9B20629F9D34FF6FF700E
:100E000006EB4601009200EA410200EAC6034946A9
:100E1000504600F02DF90025A04601275FF00004A0
:100E200018F8050007FA04F108420DD0012E15D07C
:100E300004FB069081B205FB06A0334680B21A4639
:100E4000CDF800B000F014F9641CE4B2082CE7D32C
:100E50006D1CEDB2062DE1D3BDE8FE8F09EB040158
:100E60000AEB05005A4600F055F8EDE77019000846
:100E70002DE9F0470E464FF4FA740746B4EB460FDF
:100E800000D90C46012251031F48FFF754FBDFF83D
:100E90007C90002204214846FFF74DFB4FEA1728BB
:100EA000204600F02FFD05460020F9B205E000BF06
:100EB00005F800802A18801C5170A042F8D37000F9
:100EC000B0FBF4F1B0FBF4F704FB110857B10026B6
:100ED00006E0A2B20A2329460D48FFF7B3FE761CAE
:100EE000BE42F6D31FFA88F20A2329460848FFF7C4
:100EF000A9FE012204214846FFF71DFB2846BDE854
:100F0000F04700F08FBC0000000C024000080240D7
:100F10005C5100202DE9FE43054651480C4616461B
:100F200041888D427DD2008884427AD2DFF83481B4
:100F30004FF40057002239464046FFF7FCFADFF82D
:100F40002891002204214846FFF7F5FA2A2000F0F4
:100F500017FA012239464046FFF7EDFA0122042133
:100F60004846FFF7E8FA002204214846FFF7E3FA73
:100F7000280A8DF800008DF801506D1C280A8DF8A4
:100F800002008DF803500123042269463748FFF719
:100F900059FE012204214846FFF7CDFA00223946C6
:100FA0004046FFF7C8FA002204214846FFF7C3FA7B
:100FB0002B2000F0E5F9012239464046FFF7BBFA45
:100FC000012204214846FFF7B6FA002204214846D0
:100FD000FFF7B1FA200A8DF804008DF80540641C73
:100FE000200A8DF806008DF807400123042201A98C
:100FF0001E48FFF727FE012204214846FFF79BFA0F
:10100000002239464046FFF796FA0022042148465E
:10101000FFF791FA2C2000F0B3F90122394640463F
:1010200000E01BE0FFF787FA012204214846FFF7A2
:1010300082FA002204214846FFF77DFA300A8DF833
:1010400008008DF809600123022202A90748FFF772
:10105000F9FD012204214846FFF76DFABDE8FE8341
:1010600040510020000C0240000802405C5100206A
:101070002DE9F041154C1646069F62881D469042A8
:1010800021D2228891421ED263888219521E9A422E
:1010900002DB6288121A96B223884A19521E9A42BB
:1010A00002DB2288521A95B24A19521E93B2821953
:1010B000521E92B200F097F905FB06F13846BDE8E2
:1010C000F041FFF7D5BEBDE8F0810000405100209F
:1010D0002DE9FC479946DDE90A7892460D4604461B
:1010E00007EB47060AE0CDE900784B465246294611
:1010F000641CFFF76BFE05EB4600C5B220780028A4
:10110000F1D1BDE8FC87000070B5084C0546238886
:1011100062880021084600F066F961882088414312
:101120002846BDE87040FFF7A3BE000040510020F4
:1011300010B500F017F900F005F9012000F0A4F94E
:101140004FF47A70FFF7F4F8CB2000F09DF93920C6
:1011500000F0B6F92C2000F0B3F9002000F0B0F94F
:10116000342000F0ADF9022000F0AAF9CF2000F001
:101170008BF9002000F0A4F9C12000F0A1F9302083
:1011800000F09EF9E82000F07FF9852000F098F942
:10119000002000F095F9782000F092F9EA2000F0A4
:1011A00073F9002000F08CF9002000F089F9ED209F
:1011B00000F06AF9642000F083F9032000F080F960
:1011C000122000F07DF9812000F07AF9F72000F07C
:1011D0005BF9202000F074F9C02000F055F92320BD
:1011E00000F06EF9C12000F04FF9102000F068F90E
:1011F000C52000F049F93E2000F062F9282000F0F7
:101200005FF9C72000F040F9862000F059F9362038
:1012100000F03AF9482000F053F93A2000F034F990
:10122000552000F04DF9B12000F02EF9002000F01B
:1012300047F9182000F044F9B62000F025F90820FD
:1012400000F03EF9822000F03BF9272000F038F949
:10125000F22000F019F9002000F032F9262000F009
:1012600013F9012000F02CF9E02000F00DF90F2017
:1012700000F026F9312000F023F92B2000F020F9AE
:101280000C2000F01DF90E2000F01AF9082000F0E3
:1012900017F94E2000F014F9F12000F011F9372071
:1012A00000F00EF9072000F00BF9102000F008F90B
:1012B000032000F005F90E2000F002F9092000F0EB
:1012C000FFF8002000F0FCF8E12000F0DDF800203D
:1012D00000F0F6F80E2000F0F3F8142000F0F0F81B
:1012E000032000F0EDF8112000F0EAF8072000F0EC
:1012F000E7F8312000F0E4F8C12000F0E1F84820E0
:1013000000F0DEF8082000F0DBF80F2000F0D8F83D
:101310000C2000F0D5F8312000F0D2F8362000F093
:10132000CFF80F2000F0CCF8112000F0ADF87820B5
:10133000FEF7FEFF292000F0A7F8BDE810400020CE
:1013400000F07AB810B5C820FEF7F2FF00220421A1
:101350000348FFF7F0F8BDE81040C820FEF7E8BFEB
:101360000008024010B500F04BF900F0D9F8002257
:10137000BDE8104004210148FFF7DDB80008024035
:1013800001B501231A4669460148FFF75BFC08BD19
:101390005C5100202DE9F04107461C4615460E46DB
:1013A0002A2000F071F8380A00F08AF8F8B200F04C
:1013B00087F8280A00F084F8E8B200F081F82B20C2
:1013C00000F062F8300A00F07BF8F0B200F078F834
:1013D000200A00F075F8E0B200F072F8BDE8F041C4
:1013E0002C2000F051B82DE9F04107461C46154667
:1013F0000E462A2000F048F8380A00F061F8F8B2EA
:1014000000F05EF8280A00F05BF8E8B200F058F847
:101410002B2000F039F8300A00F052F8F0B200F05A
:101420004FF8200A00F04CF8E0B200F049F8BDE8AF
:10143000F0412C2000F028B82DE9F0410746362075
:1014400000F022F80120FEF773FF0E4CF0254FF458
:10145000A0766FB1012F0DD0022F0DD0032F05D133
:101460005FF0E80000F02CF866802580BDE8F08190
:10147000482002E02820F5E7882000F021F8658068
:101480002680F3E74051002070B50B4C0546002242
:1014900004212046FFF74FF800224FF4005107487F
:1014A000FFF749F82846FFF76BFF2046BDE870407C
:1014B00001220421FFF73FB800080240000C02405F
:1014C00070B50546012251030948FFF734F8094C6D
:1014D000002204212046FFF72EF82846FFF750FF90
:1014E0002046BDE8704001220421FFF724B8000027
:1014F000000C02400008024070B50B44DDE90465B1
:1015000002445B1E521E9BB292B2FFF743FF0024BF
:1015100003E0305DFFF7D4FF641CAC42F9D370BD2B
:101520002DE9F04786B014216846FEF793FE304857
:101530000024016841F020010160016801F02001F0
:101540000591016841F080010160016801F08001AE
:101550000591016841F004010160016801F0040196
:101560000591016841F008010160016801F008017E
:101570000591016841F0400101600068DFF8748066
:1015800000F040000590002204214046FEF7D3FF02
:10159000DFF864904FF40056002231464846FEF7CB
:1015A000CAFFDFF858A04FF4C04700223946504622
:1015B000FEF7C1FF042000900125CDE901546946E2
:1015C00040460394FEF7C6FE0096CDE901546946F5
:1015D00048460394FEF7BEFE0097CDE901546946E4
:1015E00050460394FEF7B6FE06B0BDE8F087000053
:1015F0003038024000080240000C0240001802404F
:101600000F4810B50D4901604FF48271416000210F
:101610008160C1604FF400720161C0E90512C161CF
:101620000162416281620A21C162FFF795FA0028D6
:1016300003D0BDE81040FEF77ABE10BD0050014057
:101640005C510020FEE770477047000038B5044643
:101650001248134B0068B0FBF3F04FF47A73584311
:1016600000906068B0F5827F0DD10B460092002299
:101670008021204600F016F870B1606D40F0200027
:101680006065032038BD009830B1401E009020688E
:101690008068C0430006F6D5002038BD50510020B8
:1016A00000366E012DE9F0411D4617460E460446F0
:1016B000DDF8188008E0681C06D0FEF741FFA0EBBB
:1016C0000800A8420BD255B12068806836EA0000B5
:1016D00030D00020B842EED10020BDE8F081206873
:1016E000416821F0E00141606068B0F5827F0BD174
:1016F000A068B0F5004F02D0B0F5806F04D120682B
:10170000016821F040010160A06AB0F5005F09D1D5
:101710002068016821F4005101602068016841F4EB
:1017200000510160012084F85100002084F850002D
:101730000320D2E70120CDE77047FEF707BF000086
:1017400030B593B030216846FEF784FD14210CA813
:10175000FEF780FD1A480025016841F080510160C4
:10176000006800F0805011901648016821F4404153
:1017700041F4804101600068022400F4404011906F
:101780000120039010200490009406940820CDE9D5
:1017900007504620CDE9090407200B906846FFF763
:1017A0002DF80CA90F2081E83100E0020F904FF4D2
:1017B000A050109002210CA8FEF756FF13B030BDC8
:1017C00040380240007000400548016841F4700153
:1017D000016003494FF000608039086070470000E5
:1017E00088ED00E0FEE70907090E002804DB00F1A0
:1017F000E02080F80014704700F00F0000F1E020B6
:1018000080F8141D704702E008C8121F08C1002AA2
:10181000FAD170477047002001E001C1121F002A71
:10182000FBD1704710B5002821D0114B0022001FBA
:10183000196803E0814203D80A4649680029F9D1B2
:1018400052B11368841A9C4204D100681844106095
:10185000104602E0506000E0186039B102680B1ACF
:10186000934203D10B681A4402604968416010BD7D
:10187000545100201CB5FEF771FEFFF761FFFFF722
:101880004FFEFFF7BDFEFFF753FC4FF6FF742046F7
:10189000FFF73AFC0120CDE900040A22002311469B
:1018A0000FA0FFF715FC4FF4FA60FEF741FD45F27B
:1018B00040111248CDE9000132218223502208460E
:1018C000FFF71AFE0E4D4FF4C0444FF47A762146CE
:1018D0002846FEF729FE3046FEF72AFDF7E700000E
:1018E00046505320544553542C203430206C6F6F95
:1018F0007020322073637265656E730000000020F3
:1019000000180240F0B50B30154D20F007010024FF
:10191000144A0FE003688B420BD38B4205D95E1A41
:1019200043184768C3E9006700E04368136002C0DA
:1019300004E0021D10680028ECD12046002802D1E6
:10194000286808B10020F0BD064A07481060074A21
:10195000121A22F00702C0E9002401202860D7E70C
:101960005851002054510020BC510020B853002091
:101970000000000000005C000000000006000600FF
:101980000000287C287C28005C54FE54740044200D
:1019900010084400285454205000060000000000A5
:1019A0003844000000004438000000000207020034
:1019B000000010107C101000C0000000000010108B
:1019C0001010100040000000000060100C0000002B
:1019D0007C64544C7C00487C4000000064545454A7
:1019E0004800445454546C003C20702020005C5447
:1019F000545424007C5454547400040464140C00A3
:101A00007C5454547C005C5454547C0044000000CA
:101A10000000C40000000000102844000000282836
:101A2000282828004428100000000804540800005A
:101A30007C4454545C007C2424247C007C54545406
:101A40006C007C44444444007C44444438007C544E
:101A5000545444007C14141404007C444454740012
:101A60007C1010107C0044447C444400604040449E
:101A70007C007C10102844007C40404040007C08E2
:101A800010087C007C0810207C0038444444380056
:101A90007C14141408003C2464243C007C141414AA
:101AA00068005C545454740004047C0404007C40BA
:101AB00040407C000C3040300C003C4030403C004A
:101AC0004428102844000C1060100C004464544C4E
:101AD00044007C44000000000C1060000000447CC6
:101AE0000000000000010001000040404040404074
:101AF0000001000000007C2424247C007C54545409
:101B00006C007C44444444007C44444438007C548D
:101B1000545444007C14141404007C444454740051
:101B20007C1010107C0044447C44440060404044DD
:101B30007C007C10102844007C40404040007C0821
:101B400010087C007C0810207C0038444444380095
:101B50007C14141408003C2464243C007C141414E9
:101B600068005C545454740004047C0404007C40F9
:101B700040407C000C3040300C003C4030403C0089
:101B80004428102844000C1060100C004464544C8D
:101B90004400107C440000006C0000000000447C05
:101BA000100000000201020100000000000000001F
:101BB00000000000000000000102030406070809FD
:101BC000E01B0008000000205C510000CC0200086F
:101BD000506000085C5100205C06000016180008E8
:101BE0000245FF0110079CB1398539C602000D89F5
:101BF000E64A48422742275AE9EF9DFF0100154275
:101C000094705A8841E739C62944318439A54A2756
:101C10005268F77D5810057E3265B002629002026C
:101C2000156D02111C12B006912A412C40247590AA
:101C3000AE15BDD5BDB4840E6B2A4A484A2731651E
:101C400041E64A276B2A5AA8D678DEDAC6D87DD272
:101C5000750272F2026004D27DF202237E120281CA
:101C600010711A5010F37DF37E137E338E740C685E
:101C7000040603E60212C60221060216E6029304D7
:101C8000062E513410116CEEE71AC5D483ED52685C
:101C900052686B4B42269C100CC97BAD4A47BDD4A1
:101CA000EF7CA6144E12E702415CE15A0211E702F2
:101CB0009118300B04070C28044804070407181077
:101CC00006C703A603860492C60261B8414E1108F6
:101CD000D1CE111210215C6CA5129C8F7BAC5A895D
:101CE00042278C2ECE36BDB54A4773AC4A479490F6
:101CF000AD74955203A75852C77C128660850A01BD
:101D0000129E12C73082A7B880050C080427B6F0CF
:101D10000733894BCA33699E01160242E5BA101D8A
:101D20005C6C94907BAB736B41E642065AA8946F4F
:101D30007BCD42064A885288944EA532A0328776DF
:101D4000217C1406A664496C690052C7DA05113E6D
:101D5000800723682B273B88A26214A0311E7407DA
:101D60002B07740A4BCA4246A5D410111C283C4BC1
:101D700033A9442B23E803450346032604100445F6
:101D800003250C42A620141F74CFD698A531738B5F
:101D900010C218C2294429032944210320E24A47DA
:101DA000AD73EF5CA5B432119A451C180533663B40
:101DB000874252C7A20111A054071B076BCA4BEB05
:101DC00042E2C7A01540E404494BAA40100F342A50
:101DD000844F52898C8F5C6C64EE2C49BE210210BA
:101DE00004850B45A235F8541F134723473B68630E
:101DF0002A10C210A152687BAD630B18E220E35297
:101E00002753CA23472367E045E229E0219C0A13B0
:101E1000C77A25222369438261A016C7409608FC31
:101E2000B806462B880B667C158870112C29846FA8
:101E30005B2A7C4E4BCB1BC913C80365022D4C0398
:101E400019AE24150B4613474BEA634A10A118C27A
:101E5000630AAD535AEA31644028074BEA13470B33
:101E6000468050051C090BE864215676C74266C6B9
:101E7000284D0E031D08038806A73BEB0B678E3F1A
:101E800013E81C035D62039C071387746D33C9223A
:101E90000331A0140B1BE7BE37B5D5D6B885503E2D
:101EA000B55A14040C070B765427648FCE989D32D4
:101EB0006B4B10A1630A736BAD3373CD734C31233D
:101EC0005247A552D679A5930BA713E8650E3CACF3
:101ED00040CD7E0376C65C4EC67E03840723E9634D
:101EE000EA6CAC6011A08E278C0398070B8643A97F
:101EF000444A803412A644EC4C8C54ACEF5BE73B74
:101F0000EF5BA5D43C6BA066A6FC200D550D75912A
:101F10003CAC6C6DAD5383EDA0341F5AA96B4B6B79
:101F20002B6B4B630A29234A478C2EAD338D12034A
:101F3000A7448C74EF5C6D02E534215C1EA7C603D8
:101F40001406A703870BA7562C05A60BC70BB203D5
:101F50004DE2038808E61BE8540B4CAC123D20030D
:101F60008D2C04100685030403444417C50B1C2163
:101F7000D6101524282429444BDF1AD6D9DED9A53A
:101F8000F413A7142914081A8D7C041422C70BC853
:101F90006C8EA553738B63CD8C6E8C0C7BED73CCE8
:101FA0007BAB83CB842D6C0D6B6CB5938D11B21014
:101FB0000EEA9512642D2BAA4C8C242934499E1CC0
:101FC000120533C92BA90B463C2B5CEF0B474C8CFD
:101FD0005CEE72036646D21960B6A7403E078803DE
:101FE00021A032A6A01245065407A62C6A5D0E2435
:101FF000CE9C13342AE75ADF1AE71AA5D324293CCA
:10200000AC654F3CABD00511A210116C6EADB4B5F0
:10201000931264230642E742A73A86021C30E73255
:10202000C73B897C4EAD5295310387338929843B68
:102030002812E65C6D3BA93409038613064C0B435A
:102040006A442C0A851AC60AC50B250B250E0416F0
:1020500046E64D6205C2A7A01528419E200AA503A9
:1020600065138723871387A0100B54AD7D0F3C0B9E
:102070002BC93C6AA0100C29C657BE36D6B89D5154
:102080000B861C2D7804201CC52C4A2C6B3CAC44C0
:10209000ED342A6D913BA9648E4BAA02A402820AF8
:1020A0008409E30250310A243B083BCA3308748F89
:1020B0004BCB03263B4810E233084C2CADB474CF15
:1020C0009593442B5C2C846F848E9D7233289D31B4
:1020D0007CEF344A3429A05EE7DC038EC7E4033189
:1020E000A065DC2C08663B885BAB3B489C03140B6B
:1020F00043899D53542D646E448BF61008655C0C27
:102100004B6A7C8E1A16665C2102240FA53C6B3C40
:10211000AB550E54EE5CEE75900B7A1C18650305FA
:1021200002A433686C6E5BCB642D438A232702A420
:10213000030503062E053426264BEA7C2E3B694315
:10214000CA8C2D640B8C4D53AA534942264A4652E1
:10215000A843697C0C63CB7C8F7CAF02A540ADD8D3
:10216000034D840472C7A01DD6043015136719836C
:102170004A6731A43C09032522452984642CADF526
:10218000A0100AA6544C53AB642C43CAA04D5A0469
:102190001EA5CA0319D8110229E01D140718130B34
:1021A000660AC44BEB6C6D7C8F8CCF84AF7C6E1356
:1021B0004728102C6623C8546C7530544B5BEC4494
:1021C0000B440B9CD06C0C6C2D540B3247214421DA
:1021D000242964438A846E746E9510748E02C5FA45
:1021E000CD26057DE00651A01C2CA585909DB21939
:1021F000024A4619023B68028419C41923640C7C04
:102200006F4BEA0BC744AC740C6C0C636A5C4C4CAF
:10221000CD03662C094806100AA62C4A348B85305B
:1022200095520220189395727D109531540C53AB42
:102230007C2E7C0D840D7C4E7BCC1C08F2101F1470
:10224000084CCD240954CDB5F45CCE4C4B8D1053C5
:10225000CB2BC913473AE83A0621C4632AD0500869
:102260006E646D648E540CA00D113808660B401C12
:102270002EA5340943E929A418A121033B480224CF
:102280003AE8742E6C8D84F04BEB1367754F8CF02D
:102290009511848F74AE5CCD1B675C6C33EA540778
:1022A0001DDC05301D642C63CC5B6A7C8F53296C6C
:1022B0006E52E853EB7CAF953163CC63CC6C0D630D
:1022C0006BA01420C644AC650F2C497CEFD6754C2E
:1022D0002B4C4BA5928C6E9D523BA932E72AA60A45
:1022E000035BACFE74088723E96C8E646E405D0A64
:1022F0000803100BC7A0181703650B2521A4398408
:1023000018E23B290224438A53EB3BC90B054428BE
:10231000162513864C0B4C2B448C342A5C4CCE7700
:10232000BDD5B615440BC2183D750F84F0851085D8
:102330003084F074CF7CCF5CCD442A542C7C6E94D6
:10234000F08CF094CF23A80B460BA6346A7D912C19
:10235000297CEFCE14546C444B842D5B09740D64BE
:102360006E4C4C0B26241666D41012862C094B2A70
:102370005BCC4C0B442B7DB17D916D70042C0A30ED
:102380005D2F75903CAC4CED400635E02996100A67
:1023900086034502E419426AE8A01C0C0802643B6B
:1023A00089742E740D5C4C96031EC45E031E651862
:1023B000091C0EC623C7A511526839844A277C4ED2
:1023C000E806283CE71B481B0733897CCE234713CC
:1023D0002613262367650F3C0A3BEA33C93BEA3BD9
:1023E000EB2BA975102BCA342A54EE03C74C8DA5CC
:1023F000D4548D1BE9340A23C82BEA2BE91BA99C72
:102400003C2303860BA724093C0A21643A684C0C40
:102410008D926D2F8591757095F35CEE5D2E550D47
:102420005D0E6D7060092C04070C0874091C095CB2
:10243000CD5CAD1326216444072C16E33BA90305AC
:10244000442B6C2D642C544B034513661B670BC740
:102450000C051C31442A8C0E39A539C54226738CD3
:102460002BE90BC7548D3C0A438A8C8E2B890B05B4
:1024700013062B883BE92BA83389236812E6646C8A
:10248000ADD45C4C2C091A89B21C0CC7446B953135
:102490004C8C2C0A1B47D0031C1F062B68540C4382
:1024A000EA74EF4C2B1B475C6D64AD3A474B2A0A2C
:1024B000A50B870B8714080BB0081E141008320BED
:1024C0000225A4370BE7401004C664CDE21009468C
:1024D00029C518C2192333E0204734296D2E54CC66
:1024E0000BA6448B8D5094F05C0C8CD03BC953AA46
:1024F00083ED4A476B4B4A48738B2BA903A71347BD
:1025000002C5540BA5922B89436A746E63AB744D5C
:10251000742D5BCB7C8E438B4B69948E2B6702E5CD
:1025200002180703254C0B4AC8BC1010CE4C6C0295
:10253000E602E65C0C94F123082347665C0A060B6E
:10254000064C0C640C644DB6094DBC0A9EC7BA0A11
:1025500071A014114C8B6D4F0B0619427B6818C18A
:1025600033870324381C0BA613E703853C4B7CEF11
:10257000635C04100F8C6F8D518510840D4A278485
:102580000E5288A01E88F4041C202602C523477C16
:10259000EF12A54349742E638C7C4E7C0D638B84B3
:1025A0004E434A3B6985111B67FC041E05760710E4
:1025B0001D26442B8CF03C4B03261B27B635951269
:1025C00031C639854248ADF4D6F94C8D4C011C0515
:1025D00075306D3092073266A282A69A5D400B4636
:1025E0000740100B54CD6CCE1306192318C1A01E42
:1025F0008884071DE4042DFA04101744CC750F7469
:10260000EF546B8D7054AC5C6D842D4A6873AC5282
:10261000A8A02404681C08D0200B1B2785103B2988
:1026200031C631E60210043A063202100929E632B8
:10263000E8540C1B687411A0140802E5130733EA70
:102640001322100E1BA885519D5241E65A4631A512
:10265000B5A03C0754CE5D0F2C2A500A2DFC073E36
:102660006686070211A6A01D0A041DA60814068C82
:1026700013053A06E01601E02E448407ADC8081C95
:102680000B13A603A53BE98C2E5288680C1C12C9BB
:102690006B6B2AE713273BEA23683B8A8C8F636BBB
:1026A000360B2264A41C103A073A063A0631C56B71
:1026B0006B8CCF4C2C24E8051D440631A42C072339
:1026C000A823C823E932051C0F41C5314331A4AD0D
:1026D000D4D6D954CE7D5112096DCE0922C7A21D80
:1026E000DA03AEA700053D20031D1A0C1C19650E68
:1026F000548B234721434A4710C153EB1B262388A1
:1027000064AC4BCA5CAD30081E6590041DA40A1869
:102710001303A63C098C4E528883ED630A6B4A2A48
:10272000C602C460200FC543EBA532842E29A54202
:102730002731A639A01C0C273A0639C58C2EA59244
:102740005C4C9E042DFA071E2516031C1A053BEA55
:10275000855123C97D30953239A541E531C5ADB3E9
:10276000D6B854CE75714003AD120A9406469E1435
:102770002BA8E615401D400B2D20081EA66004184E
:102780000AE51102210210A184AEEA1C0A8E7C4DDA
:10279000534974AE0AE5DA051C0CE6446B8CB02C88
:1027A0002A3C0A8C4EDA0E1C092B5AC9632A2307CD
:1027B00003B403240D33C94BCB8C4F6B6C31C64231
:1027C00026DE2102100639E631A57330500443CBD2
:1027D00003A01D2403341A05340A857123C8A5F308
:1027E0008D3231A562E831C59D72CEB7448C4C8CD8
:1027F0004065421C08E654EEE73BA655C20B5D500F
:102800000BB1A01C14650B05320618A1110233A8E8
:1028100003240B852408242906061008C63C8B6D6A
:1028200050546C702C06CA43898C2E20031C075A06
:10283000EA632A22C64604300C6D85515C6E9D32D7
:102840007BED31C69811A21742074A340AC683EDC0
:10285000A573544C1B873E2D24031C0D054C8C8501
:102860005113871B671B07290411A00B31C633A91D
:1028700013670366652FA01C0B13E8C6D8E73BD788
:1028800019346BEA0B4E066A0F31A076E7401C1133
:102890002239E410A13BA902E50B65444A3C093CFE
:1028A0004C0B1D82041C1A083C8B5C2D2BE93BCA87
:1028B000946E41E631C531A5630A2AE712A58D0F52
:1028C000D209200CEB94D073CD31E6424739E602B1
:1028D000119E112084097BAC951243CB0B0640104E
:1028E000071B87442B1BA80815681C0639E629A579
:1028F00013DA0834050B6654ADE051A03C0B6D5063
:10290000A67554AD342B8DF3F4093DFC0F30050B47
:10291000E70428A046A5E0141139C510A16C6D4349
:102920008A642D8CAF52E884CFE03D52101E0BB666
:102930000E10133C4A8C8E5288318529647BAB2261
:10294000C7234794F02A2C0ACA9CF1738C31C542E4
:10295000061A121A427E580B29A529847B8C9532BF
:102960004C0C7E35401C0C13663C4B13677D516448
:102970004D29E005500D31A5642CAE353C2B3C6C47
:102980003C6CA05C10E6244ABEB76D503C4BB6567A
:10299000E73A655032101EE63C1021A04EE6C2090F
:1029A0002DA005180F18E24C0A33E83C4A446B3C52
:1029B0002A3C6AE46E45C80D141B13C7646C9CD096
:1029C0007B8C8C8F844E12E513069D936C8F43AAEB
:1029D000A5737C0E3419761DDA0415441C0B318561
:1029E0003185842E9D944C2C66076A058014154C05
:1029F0008C446C23A985108D1129A5394442059D6D
:102A000052CE983E85401C04C79E34460C2C0AF9D1
:102A1000DF5ACED8CEB8C6D846064D820D15404DE9
:102A2000DC0B11A01C071942318310C1E0061E25E2
:102A3000E00E1286023EC7880F6DD0102024A62318
:102A4000E964ADA5938D3033C9344A4BEB7D3054E6
:102A50006E3BEC4BEC43493A4742473A27424842E7
:102A600048061C0632061A0423D00B2F33E95E04F5
:102A700049804C1B3C2A4C4B2BA97D309D9231E662
:102A800010404A68ADB3CEB854CD650E448C6E0D7F
:102A900010081408961496149E025C099DF49DF487
:102AA0007DB21C49220E3E087C1141A07C182519DC
:102AB00042528610C27C6E438A4BAAA5726BAB8DC4
:102AC000510284034572111D86091C210B451326F2
:102AD0000B0523A7340A74CF6CCE544D544D5C2C97
:102AE0005BEC5BAA8C8F6BCC846E7C6E40065C0AC0
:102AF000AF4B8A0A657CEF4C4BB6063DBC061C19F1
:102B00002C0933C933888551955231E562C7422675
:102B1000A573D6D854CD6D2FA007ADA0112EE7D840
:102B20000D1D32046EE80E0A51A029821C16850B79
:102B30006629E5190221435C8D2C2A23C8648D4B3C
:102B4000CA546CBE087E2456123DC80B1C1102A448
:102B50001AC58C8E8CEF94F1544C6CAEA5B4560C07
:102B6000200CF03B4A6C0D5B8B6C2D5BAB06300F81
:102B70004348132694D05C2C3C6C54AD2C0AA23DE7
:102B8000C803100F1B47A5D49D7331E64A47216443
:102B90009552A02C04AD652FE0084D4C0E701165C8
:102BA00070A676A676AE76A656AE75A6556590A0AA
:102BB00049803DBE0D11E414066733881BC7DE2D26
:102BC000400825321E45480C2D78062DCE101D6874
:102BD0000D102333C943AA642D7BEC7C4EA53154E0
:102BE0008D644C6BCC740D6C4D0AC51B2712E60A24
:102BF000E60AC60AA6064C0DE513878D3164AE1CA5
:102C0000092C290B540C2DE20E1D90071F4C0C2A89
:102C10000C1C064A42A84AE9F00B20042B0B670261
:102C20003D0C0F1C0AC71C085D4F346B44AD660A8F
:102C30003C042B23C9CE0F5EE620122E286E043DE5
:102C4000AA101E85F8041D920A240A23C80B864484
:102C50006A54CC1B6E5E45BA0751021C1923A83C6E
:102C60004C4C6D9DF464CE6D2F33CA75109DB39D91
:102C700092855002C5020A1D8E081F1367D0101DD1
:102C800016032C070AC543CA23C93011853E2D2AD5
:102C90000D3C0B02C602E51B2612C51B26FA0A32A2
:102CA000260229006012667DB144EDA655E73AE799
:102CB0003A6D30AE158E13A01D40105D2A0331A071
:102CC0001C086423E923A7652F0A131FAD6CFA08BB
:102CD0001F74CFC4044A05C21C290C281C291C09D6
:102CE0002449242924292C090B263C2B54CD0B469E
:102CF00043EA3BCA2B893BEA2B884C2B3BCA4C8DC1
:102D00002BA99C0A1C04687CEF740E2C1C8D75305A
:102D1000753003872C2A6D303C6C2BE92C2A33EA62
:102D200023281AC62B692307D20A6D5E061D8C0361
:102D30001C0D661BA8CEF9C6D83C8CC6D8CED608CA
:102D40004007D75A2C6B1428A0220BA06D0A121D25
:102D5000DC0E11801D8E053C0D0BC785109CCF8CA1
:102D60008E84AF12C6280E1D0C121C391C289E140E
:102D70007550961385D285F29DF423A97D316CCFD1
:102D800033CA5C4D74CE95D285516CAE4C2C648D9B
:102D90007D0F6CAE64AD5CCD7D714C4C546C7D2F61
:102DA000A5F33C4C180B13717D0210064C2C7D30A2
:102DB0007D281C058D516C8E300C3E4C1C0A2D82DA
:102DC0000E2C1A8602E57510D73AD7198E33550E98
:102DD0006CEF9DF49E343CAC9E342C6A9214560BDE
:102DE000403DA4032D82111D46141C210BC654CC5A
:102DF0009D9274CE43AA440A53CB328719E44B68A0
:102E00004C0B03461C0944AC7CEF5CADE4101C1673
:102E10002924092BC9240A13682BA923671B4613ED
:102E2000461B052B886E09140C26230712E51AE6AB
:102E30002B6823682E100C8823E903E71C484CAC50
:102E40008571BC1C04713C6C2C122C09872C091355
:102E5000872BE913AE081C0686036602A522041C14
:102E600004860305CC042C12A7142885F23C6BD7EA
:102E7000393C8B2C6A75701C29321595E06DE41075
:102E80001D8A071C335C6CAD92546C542C0AE54BC4
:102E9000CB32052184426774AF1B87955084CFAD38
:102EA00051748D654E244A750F1BE91BA81BC87C05
:102EB000F084EF8CCF74CFE6031F650BBE111C08A6
:102EC00002A453EB84CF84300D2C0754CC6CED441A
:102ED000AC6603100F4C6CC6776C2DB5D464CE4431
:102EE0004B54AD965E65E60F1E66DE0C2FC5028460
:102EF000033EE5FA091DB80D1C050B8613A77E05D8
:102F00005DFE135D8011AD4E162DEE092C2FA54BE5
:102F1000E98C0B744D7C4D2B680A8529E529645298
:102F200087744D2BE9948E848EA4CF6C2C64AC2BCB
:102F3000E85C8C3C0A4C8B54AC8D3084CE031C0472
:102F4000AE036442101C060402840264060F181AC1
:102F50000C844E742E1BC854EC6D704CEC03E73C93
:102F60000B642D4BCB6CCE346CBC1E09880A5E45BD
:102F700086101E867E0D11A215462D26096EA648C6
:102F8000091D9A15155A1D96111DE00D31A05EC63A
:102F900096173D0E121C271BE80BC65C4B9D108438
:102FA000AE94AF33E98D514287218453098D725C11
:102FB0008C8CCE951094F0646D33EA2BC964062E88
:102FC00046EA102C0D440A7CAE9511AD947D0F8518
:102FD00050BE061C0984F0ADB4A5935C0BA0081C80
:102FE0000806650F4CEE444BAE125C0668B5F52B37
:102FF0008978152C068653EB746EA006154036654D
:103000004021A032E6A01C04C61407540C2E65CC47
:10301000043DBA0C1D88132DA00F4DCA081F5D0E6C
:1030200098121EC5860A1C0DAB2C6934293BA95C7D
:103030008D64CE1B721620071A8423071B27D61C0B
:1030400005342A2C29CE11100C6B3C6B5CAD3BCAAD
:10305000850F7CEF9E1C12EEBDB49CB194708C2E3B
:103060007BCD6B2A6B2A62EA5E0B10184C94F04CF5
:103070002C74EF8CD07CCF8D317D10644CC61554F0
:103080006D348B3A340A4A3C4A744DA5524C2CE6B6
:103090001E04000C3C0AC40AC503468DB2750FC657
:1030A0000B2C04CC54EDF0112DEC0B1D54101D967F
:1030B0000C2D400641A01C08961375706CEE6C88B0
:1030C0000C3009548C5C8C4C8B346AE01406E52B74
:1030D000E94C2B962C06851B861B86E60B1C2024B0
:1030E0002A64CEAD318C8EDDF0C58F848E7BEC31C1
:1030F000A429644A473A0652674A47528842020A5C
:103100003C19212339C5A552A5529CD0530A9D11C3
:10311000A5D443CBADB54C2C654FDA141C04A65C8A
:103120000C44101C04EB13C8A00C1E45A00C254039
:1031300010066574EF74EE7C140EED6CEE5CAC6CF6
:10314000CD54AC2BC903875455401C22346A4CCC57
:103150004CCB550D0BA69D71A4CF9D515C8C7C4C26
:10316000542A4CAC448C5C4C5C6D3C2B1BB0051C55
:10317000210345A592CE5574AE02E53BEA6CAE7BC9
:10318000EC948DE56BDD4B840C6309216429847319
:103190006C780E1C088C634A6B4B5AE93C15200472
:1031A000642964982C137C8E5BEC7CCFB6151B28AD
:1031B00002A61BC98591244AC40B1DA4051C0885C1
:1031C0003C6B4C6B5CCD08032C22863BA9544C4CC9
:1031D0006B546C2C288CAF9CED846E6CED9C8D7CBC
:1031E000EE442B44AB648D6D2F3C8B401010073C9C
:1031F0008B550E4CEDA013C695A01DEA111C104B6B
:103200008C8E5C0A4CAC650D5C8D6CCE33AAB6120C
:103210001014640B44D5ADE58B948C02642BA84B41
:10322000CB746D94CDA01C144A740B6B2A31842985
:1032300064420641E641E639C531657E1B1C1A64CD
:103240004A268C0E94F18CF1A511634BAD92ADF42E
:103250005C4CADF4440B75700A101D2C173C075CD8
:103260004D95733C2BAA181D5609100743CA74EEDE
:10327000548CA0100C29848DA4AE7C8E74EEA4CE48
:10328000A0100A4B6D2E5C6C6D0E3C6BA06E281668
:103290001A1F0BC61408180C073B4823C8128502D6
:1032A000C5448A8E2C042403859C131C0B134513E0
:1032B00025CD4BE509946BD6031824AE53CBA571ED
:1032C0009CCEDCE9CCAA4B686BABA4F1A4D1947082
:1032D000944F8C4E946F9C909C90AD129CD0801219
:1032E0000CC62C108E538B7CAF9D934BAAC65654A4
:1032F0002C244A1C101C0713E8746DB5F6DC084E2C
:1033000045F2133D08031C064503042C49561018CA
:103310000E28438A1BE81B051326442A03A7801D99
:10332000CC032DC00D1D80191C1ECB3CCC2C8A0B50
:10333000C66C6C9CAD63EB1AC6844D4B48544B2451
:1033400049448B3C2A1B88DA11102ACF7C4DCD4C86
:10335000DD29944A6BAB6BCC5BCC946E846EAC6C09
:10336000A48C3BC912C5538A6BEC6C0D748E9511FD
:103370009D3284D0041C06907C6E4BAA9A04501E89
:10338000C66C6D6C8E5C2D7CCF642CB6156CAF5CFE
:10339000EE550D2C8A2C6B6C4D95742368A01C0483
:1033A000E733CAE005100FC702E42C285BEA948DCE
:1033B0004BA93367948219FE1C0409238816122E28
:1033C00085A00F2C2E44CC5D0D6D4F4CCB0BA57CF6
:1033D000CEA4AF742D2AC68C8E538A43E964ED6D5A
:1033E0002F6CCE3BCA64CD844D7BCAB46ABBA68B1E
:1033F000EA7340131C124C7BEC84CF6C4E748E4CE1
:103400004B5C0C846E94CF8C091C148963AB73AB3A
:10341000540B73AB7C4F94CE842C8D317CAE0E1448
:103420003C104E8CEFA5103C4B4C0C74F07D724C54
:10343000EFBC171E0534062EE530132D5C1C181347
:103440004C0A5C8D23E7030424086C2B942A5C2B24
:103450005409801C088E442A4C2A4C8B540C16A606
:10346000E05E275E1C3C12C50BA53C2922E50AE460
:1034700003051A6401E344091A081E25241111F4F6
:103480001C1763EB846D5B496C0D7C0D7C6E74AE18
:103490009532542C23282368E8121C06884BEA4BEB
:1034A000A9CE15100C8443094B085C0B6309430932
:1034B000661C182C5C6D6C8F638C638B8C8E7C0C03
:1034C000444BB5D584F19D129D945C191C0866345B
:1034D0002A342B03A6B6092DDE191F250BC2031DA6
:1034E00038093C14052C492B0722A5024402441A32
:1034F0008412A53BEA02E4AA052D60131C1E271CBA
:103500004824691C0824690BA654AC7CAC4C091BEC
:1035100025742C2AC64C2A2BA72C4912131C10C91F
:1035200003061366134643C95BEB3BCA3C2B4A0CAC
:103530001C044C64AF39111D42061DAE141C0A6DEB
:103540008D7212E602A40AA59E14100C11540CA54B
:10355000726C6E542B54CEA01D0A0411021C07522B
:103560009510446C6DEA0D15421C06115C6D034705
:1035700073115E6D80051EC7CC091406A81B460B8F
:10358000C6E01C12294BAA7C4C33272306846C43CB
:10359000A93BCA2C099E0E1EC6601D19B41C214CE5
:1035A000CD75707D70654E0BA6852F9C6C84EE33B7
:1035B0008894AE5349642B9DB3859164CF4C6DB60E
:1035C000061C128402A422E843092B2723483369EE
:1035D0002348548C9E171FC93B600C2F134688123A
:1035E0001D000D2C0E0C8D308D517CAF8531955109
:1035F00043EA48131C0D2368440C5CCE750F95926A
:103600002C6A0E161E4B54041C048D9E1388141E27
:10361000900A053C04E603461A0E1C07054C0A6D89
:103620002F2390125C1524087CADA46B646B544A64
:10363000ACCD7C8D3BC95CAC654E80161F281386D3
:10364000161F0BE872131C15A5444A540A23870B56
:103650000443491A664C2A13450BC713080719304F
:103660001C0AC4232732A83A683AA798171EA5D285
:10367000031C046602C56C0F2D42131C20C54BCAE7
:103680003B683BA853CB7CF074AE642C7D126C8EEF
:10369000438A3BAB2B2943AA336A336914081C12B3
:1036A0008C85929D52AD93ADB49D72AD72ADB3B6A3
:1036B00014B41E1DFA0A3D14081DAC03170BA7CC49
:1036C0001E85F0081C1047434812850A84432722B0
:1036D000C63BCA13A7461036E6E04F280BC6121D9C
:1036E000E40E100D4C0A6C0A334712E56C2C2AA626
:1036F000A01225A01D460F2DC6071C05334829859D
:103700009C0F1C0485540CEE1312EA9A1EC4140973
:103710001C060502E40284260A24222B8C4C7389A1
:10372000846D7C2C6BCB84AF6BEC6BED748F63EC96
:10373000642E6C505BAD6C4E7590548CEA140BA5E6
:103740005295725B4B744F5BEBE64D12103205A045
:103750001EA6A2192010452B8743696BEA1AC61BC7
:103760004563EA3328A01C0413870BFE0E2D60046A
:103770001C1F5D4D5D2D44EB13E60BA58D10ACAD0C
:10378000846D3B279C8D63AB5C0B8550544B7570EF
:10379000061215DE1C0F2AE729646AE831A45C0CC6
:1037A0003389646DFC03101E0433E96CCE2C0912BE
:1037B000C6736B7BCC7BED636B740E6BAD638C6CF3
:1037C0000F5B8D5B8D062C248C63AD73ED636C43B6
:1037D0004902A423A84C2C6C8F7D31857294AFAD27
:1037E000B3B5F59DB34CEE4CCD550E340D14095CBC
:1037F0008D6D0E7D50440AE01C148D9C6C63EB5360
:10380000889CAC84CE43EA754F85B04CCCE21F1245
:1038100028A22006271C472C49A020154C0B63EB3F
:1038200033270A646C0C3B494C4B13452C092BC8BD
:10383000E815401F08217A1E1C0B39A45C2C438913
:103840005C4D238802111E057A171C062D32273184
:10385000A5321012850612A602210C410653A5318D
:10386000022C0D536A74F033AA23A9548C750F4EA1
:10387000181C094C0C5C8D1B678D71FC0B354014BA
:103880001313E723871BA72428338863C922A612B2
:10389000A45BA9403C0AEA13A71BA81C4904082002
:1038A000176D9C0A1C10A5440A43281AE702855389
:1038B0008A2B48446A06043EE4E8031C092502A456
:1038C0003B2821435ABC192C09846F9530AD726492
:1038D000AE18091C076C2D6BED39E68007300664C5
:1038E00029852965064102426508411A1C0B634A75
:1038F0006C2E2B8813474C4BF6176E05B20F1DDE4E
:10390000161E4D80131E06A0102EA642061C08246B
:10391000492BA83B270A8A03118219803D66093E7C
:10392000C620031C0827552E5D0D3CAB0E1C1C0B3E
:10393000A5850F944C7C6D3B489CA6052C09542B07
:1039400075703CAB44CC8C1B135C4CA0280E645AA5
:10395000C929648C8F8CAEA5105C0C7E1E7D141959
:10396000800642272964219A32649C51AC171903BE
:10397000745C0EA57BCC8D333BEB03052BA823A8F1
:10398000B20D1D240E2C057C8F85312C0E1DAE0C26
:103990001C1EED3BEA4C8B4CAB7C8D948D5C0B4B31
:1039A000A99C4A7CAE43CA754F44AC448B552E2E1D
:1039B0001D1C04271C28EE1B1C184A142703A55C99
:1039C0002B7C4C438912A58CAE5C0C4C6B1BE834F1
:1039D0006A140A1C1A4633882367436921C53227B3
:1039E0003226955184AF84F05C6C1B673BEAC81AA1
:1039F0001E2D101215DC3E39FC131D7E1166C644C7
:103A00005331C50A1C06A56349746F9E0A353A1DD9
:103A1000920C1D8E042D50151D000F2E2C20171CEE
:103A20001B1B882C292BC92BE93C8B4BA9844D33BC
:103A3000271AE6740B43893BCA23C8C80510048AB9
:103A40002C8BA01E08960A3DF41A1D40061C050A80
:103A500022A60A12081C051AA50A845C131DEA0B8B
:103A6000240503450AC5E61C0D2B48434943493B41
:103A7000682B881B2652051DF4111C0B0AE57CCF10
:103A80008CAF42072985FC093005A842474A022D20
:103A90007E131F2985DE241404C952877011A01CCF
:103AA000086B8B7CD04C2C13CE172C071326B5D467
:103AB000A5B382181DF20E3E65BE0D2D060F1D101A
:103AC0001E15E01C042823A8400620046402647C20
:103AD000373BEAE01D00072D6E1E1F44CB281D1C3E
:103AE0001A8A1C0703A57CAEA4CD7C4C2AE7A4ADA2
:103AF00084CE5C4C64EE446B648D42152C0C040245
:103B0000E41B0653EB53EC2B88B019215A21A01368
:103B10008510A01C042729A54C223EC99C0A10042C
:103B2000274A470420062729854A6814111C31A01A
:103B30001B94F1501D4C041C0D0B06744E63CC8C71
:103B4000F08D31546CAA1D1DFE0415481C042B6415
:103B5000EE8A031E6680071C0C2C9C8C53C943689C
:103B6000AC8C746DA0051404CC3C6ABE26CCE01B62
:103B7000348B681C16CB244803A56C8D94AE748DD1
:103B80001AA5948D8CAF5C0B3BAAE40B3EADE6040A
:103B90001C0AE41305542B53EB234776164EE4D846
:103BA0001824072B89744E842EE04DAC032DD815B4
:103BB000410215DE3D6A133D26031C068463297409
:103BC0004EAA072D04141E46F2061C083284B07457
:103BD0008E7D71A60D2666EA101533C9448B442AE2
:103BE00023A724275C0B9CCE436833279C8C7A2F19
:103BF000CA343C0933AB4CA05DFA211D20081C06D9
:103C0000442A12860A920E1C0712433B694BCADEF5
:103C10000B1D2C082DC40311963EC46C0D1FA41B54
:103C2000FC0F470AE6407C07955194D04248B60302
:103C30000111022DC203140B7BEC9D72546D3C2AC2
:103C400002C5401C0ACF74EF84F07CF05CAED82132
:103C50002245A03D84083604E01C0CC70A23024319
:103C600002830A430A63C00325601D32241E1460C8
:103C7000091409346B348B24491C28401C0E6C9C9D
:103C8000CF642B1AC6740B748D540BBC101EE990B4
:103C90001F15DE1D2E062C04040304E8221F84AF2A
:103CA000FE192E68980C00091902E57C6E7C0D3A0D
:103CB00007A03D72042C0763097C4E2B69AA141CD3
:103CC0000502E55C2DF0091C0A885C2C540B548D10
:103CD00023E9820C1C060533C83C8C4C1C1C1B665B
:103CE0001C085C0A9CEE4389332794EE640C3BC9A4
:103CF000446A444A2C690406147C2518094CEC4C8F
:103D0000CC5D2E34AA801C06CE9C8E7CAEA00A44CC
:103D10000C2C7CAE5C2C64AE7D5064EE421D3A12DD
:103D2000180C04644D8CD063AC4B2A2B689014069D
:103D30006733EA8D114029642E851C172DA0191DAB
:103D4000E0153C06073A074248AC194E270A052CF5
:103D50000773AC9CF033CAFC121C140B05544D2B9A
:103D6000CA3BEA7C8E6C0CA5D47D306D100B5C1ABE
:103D700038075D0E5C6C23C7802C0AAD540A43677C
:103D80009CCD748E72043C096D2E4D0D04071428D1
:103D90008E213D000A2DA0051D98173C0AC602641D
:103DA00012443348542B5C1926E43A2B03A5762D94
:103DB0002A0B1C059D117CB0DC1A2D20033006C592
:103DC00084D0846E8662859C2DC41710054268429B
:103DD00048B042C61A2DA0051C0594AF4C0BEE1A34
:103DE0001DCE061E4C98042F0B2650041D2C172D9B
:103DF000F81521045EC6C0036E89C0031F128562D8
:103E00001E4E669E24254015DC1C04481C29481AB9
:103E10001D00051F844CFE141C0E645B8A43495B25
:103E2000EB33C81B672367B00A2EA542061D300678
:103E30004C0A8D7CAF8D0F748E2BA81C0414056C5E
:103E40004D844EE04DDE062D20031EC68416254A05
:103E50003DEE1A5D200311A09C058C4E2B68AE121E
:103E60003D541E3D4E141D5C1E24052BA83449E014
:103E70003C0E24084BCA8C6C330722E6844B4B0063
:103E80000A2F2C09E4152D80251C09550D6D4E6552
:103E90002E346920081C0A0F9C4C84AE12A5842C79
:103EA000C61038082C6CCE8D9195B23A19823C0D13
:103EB0002BA88D30959285707CAE544C32180C082E
:103EC0001A678D3194B0424720032D60041C07739C
:103ED000CC9D113C0AFE13519E1DB0093EA4140D49
:103EE0003D581A1C055C8C6D0E10092EA720081D6C
:103EF000000A1D4006140D942B848E43CA64ED65A0
:103F00002E552DE011A02D00281D701D3D80071C91
:103F10000E4B8A2367028422C622C7540B0BC406A9
:103F20001D800B4D84101DEC0F1C0413260A16086F
:103F30001D72093D78033C071B476C0D73CC50186C
:103F4000918E0110A014075AE97C2D43CAB23D6A34
:103F5000185D741D2D66235D8A072DC4091C050399
:103F6000662429401E1C044712659C051E678007B5
:103F70003C08EA0B851387140740244E070E1E2DBC
:103F800026225DC0082C08A5640C4349542B0A174F
:103F90001F13259E0521505106310A199411BC3E6C
:103FA00006A005062268404DA005519E2DB4047E52
:103FB000E518191C042613C7DC1C1C106524283BBB
:103FC000A96BEB22E612A5640B3B49A00A3C06A6AE
:103FD00013860BE6A0281C0707652D654E44600E6E
:103FE0001C1703C69530A46B84AE2B488C2D7C8E99
:103FF000642B7D308DB28D71821B2205A4415C2D16
:10400000AC052E0B32031DC4151E6CF01D6D06038E
:104010000118A02F634A08132D681D4E0AB01E2DEB
:10402000141E2DDA101D5E1C1D20081C168C6D2F11
:10403000546C2BE81C077C6C9C6B642B53A99C6C08
:104040007CCE20081E4E542642ABA01C0513E7135D
:10405000E7FE041DC0031C0F4C0B6C0B3BA90A852B
:1040600053EB2B284C0B76142004672BC9A03D344E
:10407000061DA4051E0A480B1C043BA913D6112DCE
:10408000001F1F5C6DBE141E259C196EA6EC091D39
:10409000081E12C60E2102110A3D120A4C08C65B08
:1040A0008A5C4D1B68EE1C4DE4051DF41A1D2E1490
:1040B0002DC207292E1C04240823D4272C052408EC
:1040C0003BA97A0F100512A55BAA642C08EA0BA67F
:1040D00024091C8A2017AD60041C0643E94B681AAA
:1040E000400668073B4822C64BEB2E31F8119E1C58
:1040F0001113061A643B073B2722C51AC50AC323BE
:1041000027221A1C1A66230673CC73AC7BCD636B13
:1041100073ED6BCD5B6C740E63AD5B8C6C0E5C0EE3
:104120001C088C73CD6B6B430A30041004A5234824
:104130009A32849A2C05251367133A152DF6092215
:104140008758120B063C0703451C282BA8800C1A25
:1041500085801DE4111D26261D5E0E1DF6161D20F0
:1041600008641F550D54ED4CEC1C080BA584EEA4FF
:104170008C7C8D3328A532748E5C0C85504C2B6C56
:10418000EFD81C0F12E6A551D58CD58BD56BBCCCC6
:104190009511BE0F1C084C84AF1BC802E5282310E4
:1041A000040C740D941C1E2F5C0D4BAC6C6F4BAC4F
:1041B00053CC6C4F5BAC63EC6C2E638A5C2C0305B8
:1041C00074EF957176252C04AD342A50131A5438A7
:1041D0001F346B620D2EC4D8151D60241C0A507D3F
:1041E0003033E923E87C6CC00D1C042B4B89820A18
:1041F0001C0A8D43EA6D4E85906D6F1E274EE700B9
:104200000F1F246AF21A1C0FA55C4B8C8D5C2B12BD
:10421000A5742D2B084B0E081D2E225AEA781C106F
:10422000C41AE5BDB3ED8AE529E52AC44A84AFACDA
:104230000B1C042C8CAE30081809A4334933AA4354
:10424000CA2BD41C073BA9234933A9B80F1E29BA8E
:104250000D1C08283BAA33492B484C091C06256C29
:104260004C846EC40B1E4708031C0A664BEA6C0C98
:104270007C4E3B8A72252DBA181DA6041C122C0AEE
:10428000448B1BC823E74BCA846D332722E6748214
:10429000055C093BEA1BC7446A2C69E0244DBE1A41
:1042A0002D40101F0A227E09170284C02C04854C61
:1042B0000BA40D79D81C14E412C574AD946A94490A
:1042C0008C287BA9644C2C0833E92C0D2C048854D1
:1042D0002C32192F1B6730181B2388681D381C1CB3
:1042E000251B2602C41B4733C902A523873C291B73
:1042F00046540B6C4C0324238833C923C84BCA6330
:10430000CC6BEC3B897E151E657C162D24032E6537
:10431000A6101624E01D000A3C0863026422A512C0
:1043200064EA252DF81B2DA01E1E274A131C052EFE
:104330003CCB0BC00D5C157CAE9C8D746C1AC69486
:10434000AF6C4D5C2B74EE7D3064EE4E091E687AC6
:10435000232C14A93B273A652A044B292B475CAD33
:1043600043EB0AA42B68540C3DE2032C10052BC828
:104370002BA93C0B9D525BAC8D11440B2A051F0AE7
:10438000E5E0221C078D748D334633D8191DAE0924
:104390002DD0161E84EC223E46201519D21E6CFC30
:1043A000091D78241C126A5CCB64ED746CA4AD5CAE
:1043B0000A43689CAD7CCFAC0C1C048A54ACF40955
:1043C0001E6980111E08581A1C11AC44EC14070B0E
:1043D000A66C6D9CAE6C8D128574A60D3C07542B9B
:1043E0004409752F82201D60041DE20B1D880F14E7
:1043F00011640C7BAA62C7740D3AE77C2D63CB0273
:1044000063261C06A80AE57D30B0241C1025548DB7
:104410005CAE64CE7C6E4AE8848F4C0C182014127B
:10442000063C6BADB3C48BE56CE54BD58C8CAE7C98
:104430006EDA1C05AF8CF084BC1B1C0B442B3BA814
:104440003368036554EDFC131C11CD3C6A3C695C78
:10445000ED5C0B948D43A933079C82173C04442ADE
:1044600044341511A02D20085EA6FA2B1C0AA63C88
:104470004A12C40AC4026484091C04644C2BEC294B
:104480001E24F0294D641E1D62111C14334853ABC9
:104490004B084B286BEC432952E84B490A8413F62E
:1044A0000C1C0533A985503E223D4E071E0B002CE7
:1044B00010137D306CCE4CCD6D505CEE652EADB3DF
:1044C000CC49E56A023C128B8C6D640C3AC84B29CE
:1044D0005BEB42C763CB43AA001B2DB421254C1DC7
:1044E000E8131D40061C04C91244000A3C06630A76
:1044F000240AC40A173DE22A1DC0081C04272C699F
:1045000014172C044A3CCB46241C119CEE6CAD12B3
:10451000C5848E53CB542B4C6C544C2A141C06056A
:10452000440A542C44051C12E98C8F4AE87C4E6BDB
:10453000AB63696BEC52E9536A4C152C1A68544D05
:104540007D3164CF0B055CCE54AF3C6C1346957146
:10455000AD91ADB2754F8C142C0D24296CCD740A1D
:104560007BE97BC873E8E0291DEC191C0AC701E34D
:10457000020302230264780C3D28241E3448161FCF
:104580003C8BB6191C0829642BA4CD4BAA000A1039
:1045900006AD640C3C8A022C04AA348A222C2C0915
:1045A0000C2744CB6D4F652F20121C0D7D2F9CAD29
:1045B000850F12E6740C53EB460A2C066D85926447
:1045C000AD0A081C11440C95325C2C742C8CAF95F0
:1045D00010848E7C4EA0291A6F041E6952181C0686
:1045E00052646D0B26861B3C10AA4C0C3C2C1347C6
:1045F0008510A5719531648ED42E1DD21E1C0E0A15
:10460000E542E8328532854B684B8A642E291D00CD
:104610002E1C0A494B8A4B69648D64EFA8271EE75C
:104620008227180D2E7D6F346B2408744CA4AD5373
:10463000441C04946C7CB6292C073CAB6D8F2C6A0F
:1046400020305DC0032D8C2515E01C053388132612
:10465000E00B3E64C0031D20073E0B10093C3633BF
:1046600089CE16B5519CAF5AE94A48196522083AD5
:104670002842085AE973CDB5B4AD125C2C1B67AD66
:1046800092638C94F16CAE1B262B0622452AA5431F
:10469000C944AC1418221C0D1347AD52AD308C6EBA
:1046A0006B6A5288DE212E474A211C0552E9842D6F
:1046B00046302C04F57CCFF2223DFA182E46C0037A
:1046C0001F1A85C0031C06631A6512E5822B2D2A6A
:1046D0002D3DC0301C090C2724692C6924498E0704
:1046E0002EC6000A1C05540A0A64620B1C06695493
:1046F0000B33C8C81F2DA6141C1E05234895937C98
:10470000AE742D52AA19870B110BB40B930A0A3AF7
:10471000075B6B63EC746ECC071C0847646D4BCA77
:104720006C4D521F1C04EE4288EC1F1C1168534A4A
:10473000444B4CCD5D0E0BE713478D526C4C031C64
:10474000075AE921021902CC0F1C1E4410C139E698
:1047500073CC7C8E84EF542C03C72BE934292408B6
:104760001386240853CA848C00051EE5820A1C089F
:10477000893CAA2C492C6AE0101D1E211C040C0740
:104780004DDE151C073CAA0C0603A602261F0C7C56
:10479000C00D1E842A131F644C92183C04EF95B27E
:1047A000D2072D3E071C14643B2831E602F1037644
:1047B00003560355039509872A45D00C1DD00D2DAE
:1047C0004C101F4C2BCA051C04C42BA940241C0CE4
:1047D000273A284A891AE63CAB85705E2B1E86B0C4
:1047E0001F1F2622B60A2C0E18E218E210A210A2F1
:1047F000190318E25378212E86361F2F54CDDE1C64
:104800001C0F3C8B24287C6D944B6C6D4BA9AC8B9E
:10481000E0151C068B5CED85B1421216E7401D00C9
:10482000284D8C2D1D962B1C040A43488007140428
:104830006422C6E02F2B0A761E2C084602E5544B54
:104840002B6A4A1910074369322803959C21021CE0
:1048500008760A6D32C70284F8271C0AA933EA6475
:104860004C74AE7CCF0A1E11A01F4269282120166D
:10487000C81387751095108D30548D0BA80B8623A7
:104880006829A511029E2D44301C0519035BCB0439
:104890001C2D58221DF22F1DFA271D281A1D20122B
:1048A0001C05A943470A00142C053B2823070E2F9B
:1048B0002F0BC6B42F29801E13C60D3E14001414EE
:1048C000074BEA6BEA33A7E01C062C2B2853EA2A95
:1048D000101D2E0C2C0713262BAA1B486C25340701
:1048E0003B0832280B753E11A01C0C126C32C8021A
:1048F000442B473C0A54740B1C05CE13AD94800521
:104900001C1089320631E731E742A81326ADD3CE19
:1049100034D219500CAF85716CEE2B2829A52123B8
:10492000A03C06A218E263CBEE271962100613879B
:10493000138813CE1D000A2C04C96C0B000A100743
:104940006BEB334844AC141D5C0E3D80161C08080C
:104950005D2F6D50650EEE061C0BA68D2F944B7CC3
:104960008D22E78CE618141B646D8D716CCE6C6D16
:104970007D3003063348A5B38D106BEB424812AE71
:104980000396E01C0C760B7419A652E99510ADD372
:10499000DC0E1C0D0B7CCF33484BEC33CA2B48424A
:1049A0006A221D220D1C14A812A6A59173EB73CBCD
:1049B0007C6EA5939D314B294A279C2922C2022C4B
:1049C0000B18C22124738B9D32ADF5A8141C05640D
:1049D000ED750F862515E01D08181C074B6C4C5310
:1049E000AA9CE00B1C04548C6D00144F54EC8007FF
:1049F0001D22081E681E171D40152C0D540A640B3D
:104A00002B270244436922C6400B1F2BA8801E1D82
:104A10004E291C1C3BEACE78B5D39CF052A829E75E
:104A2000128D1B741331220942077C0EB592A40427
:104A30001C400F3BCA544E7CD08C8F64CE2B483A1E
:104A400026A01C0F0A859D527C2E73CD642DB55374
:104A5000B5933A051C056831A6211E032DFC1A1CCE
:104A60000B420783CDC5D3BD937D10602F1EA79247
:104A7000191EE8000F1D400B2E5B000A1E85401515
:104A80001F493CFE031DB60D2E4A20173D60274DE1
:104A900020121C06C644094367DE072C08643B69E4
:104AA0001AA6542AF00A1D6A2B1E263A241C0E88C8
:104AB0004C6D4C0B53EA748D6C6D63EBF0221C054E
:104AC000CB5B6A6322051C05438A43EB32171D1238
:104AD0002B1C157D0F7CAE7D104C2B638B534A4BEA
:104AE0002A4B8A1306746E2E131D8C201D8C1210F7
:104AF00018283B697C6E6BCC43084B293AA742C906
:104B000063CC74AE33A93C0AFA2EE760042DDE1B99
:104B10001C051C2833C8000A1C08A50A6443482346
:104B200026C0213D54243D80342C10085D2E6D6F2D
:104B300044EC348A13A68CEF9C4CA00F1C068C8E80
:104B4000748E64000A5C076CCD4C4C44AC9E272DDF
:104B50003A1E1C04242B8858104C06E933A802C3C3
:104B6000F4102D680E1DAA261C14C803A72BC833E9
:104B7000EA54ACA5B243283B293B491B47EE0D1C28
:104B800004106CAE482E2C0A06238964AF646D2A8B
:104B9000E7180B2D66091E134A293DF01D1C06A6B9
:104BA00003A754AD56151C11ED3C4A23C77C8C94C9
:104BB0002B642C53AAA4AC84861B1C077D4F6D2E3E
:104BC000754FBE171DF80E1C091C482C692CAA2411
:104BD0006A60251C064C7C6C4389000F2C04EB2A70
:104BE000E70E121DEE223EEBF4311D5C0B2D501E24
:104BF0001F0344D82A1C04073B28E4031D2A072D61
:104C00007C2C1C092B482B6864EF344C902F1C0C17
:104C10000B3C2C1C29A593B5B2BDD3DE1F1C0A2D5D
:104C20009CF06B8B9D5233CAEA171C0427748F5E6D
:104C30002E1C086A6B8C7CAF6CAEC21D3C04EE442B
:104C40006CC0341D2A311C0F1BC92BC92C4A23E808
:104C500023A84BAA846C00192C0D07848D53CA4CD1
:104C6000CD1BE83CAB34BE1C1E2900323EC6E41FFF
:104C70002D20081C060A228512A4C40F1D000A1D3F
:104C8000E00B4EC4802B3D82164D3E0C1E843C072B
:104C90001C060301E2022244071C12430A832B482C
:104CA00084D095719D738CD18D105C8DD61D1C06A2
:104CB000A885316C2D7C0B2C0A4D540C7C6E5B8AC4
:104CC00074AFE00A1C05240973AC52312C04094A64
:104CD00088981B2F2307180D5DFC222D160F2D28F9
:104CE0001A1C06C623A82B4894291E64DC0E1C043B
:104CF0008512C5A0234D6E313D20031D7E112C0A67
:104D00000D3CCB346913E77CCE1E191F1A85521B4C
:104D10001C0C4D5C0B648D544C43EB446BBE082D56
:104D2000A2191E847E061E43641221011E226A12ED
:104D30001C08641A84748F8C8EF41F1C0AAF8CB00C
:104D40008C8E2C0A64CE662D1C0E0F6D10444B23E6
:104D5000E89DD3A6142BC9D62C1C0A4654AE6CCEA3
:104D600084B0438AFA131C046F642DEE1D7E0BFA87
:104D7000221D241C1C04444A5CC8152C07348A23B9
:104D8000876C4C5A131F4B68620C1F4D4CB60F1C9E
:104D900006652E54AC0B402E10070407348A3CAB3A
:104DA000A01DA2142DC01C1C085BEC12646BEB4B05
:104DB000E02E1C0533A94BEADA2E120A9C1283025C
:104DC0003004C302A3083663421E230A091F64533A
:104DD0002C031F640B982F10162D74AE23696CAE34
:104DE0008C8F9D307D11648E95939D1194B0AA1C7B
:104DF0000EAD4C4C6C4D2AC76C0E3369442B3C19DC
:104E00004DC80D2D7A0C5D802B2F346A3E131C0883
:104E10002C6A23685BEA847828340F33278C6C640F
:104E20000C44AC344A5D0D4CCDE06D3E382D40064F
:104E3000132A12782D84091D822F4EEA0E0E31029C
:104E40001E84F60E1008242366238602E3A842235C
:104E5000022C0D01C21A24120409C312241244D6D2
:104E6000031F748F16111C0A0C8D725BCA848F9DF0
:104E70007352301C0DF095528CF16B8C11634AA863
:104E800022B6222F1BA88E063D76125EC59C236596
:104E9000E61C060523872BC8000A15E01D7C0A1EA8
:104EA000C596173D5E222D601815401E8BFE1D3CD9
:104EB0000489246A400B2C06AD644B0A64400B1C29
:104EC000074BEA43EA440A240D36A934180EC40BF2
:104ED0002523472BA943CA5BAA7C6E2A20084309D5
:104EE000E3116329C5022E32542C1C10E53267955C
:104EF0001263CD9DB4A572ACEFAD3196051D3E1F7A
:104F00001D68221E2DC6171C0E2319033286232767
:104F10008CF184F03349C0184E64CE0A2D22321C25
:104F200005340A444B0C1C1D20266D000A1C069CEF
:104F3000ED6C2B44D0172C074CCC346A042740105E
:104F40002DFE131F4D0CE2151DA41B1C0B948C741D
:104F50004C126473EB53AA54301C050B6CEF3BC22C
:104F6000241DB6161C064302A30AE5942E1C0487D2
:104F7000438A52314C0B4D2AE602231244218421EC
:104F8000F82C1DB8121D26171C10676C6E4B6A6337
:104F9000EC7C6F7C6D742D8530EC071C05497C6EB4
:104FA00064922C2C144A684227534A84F0530953C4
:104FB0006B7C70546D1B2723402435E01C0544ACEA
:104FC0004CCCCA151C18AA1C28744D9C8B5BEA3B60
:104FD000479C6C742C4C6B4CAB654E552E5E095C3B
:104FE0000428042680252D5C221C050922840A84BD
:104FF000091DA8111644E01A84725D180311A0203F
:1050000012C41B06234853CA738B846E32E7028492
:1050100009E2A05DFC1811A01C1B32676C6D94F1B5
:10502000951195519DD3955285117CD08D309DB3AE
:105030002307A59372311C08B04BAB95317C2D44EE
:10504000321E0D1E301EAA7A172D98338EC50638D3
:105050001DA00F1C04A92285C0031E85000A6C0434
:10506000C53CCC123A2D60131D94261D02142D2030
:105070000D1C055C2A7C2B000A14064463CB32E825
:105080006C1C0668338723067C1E1263A812C404B6
:1050900011022C0E22E5328643691B06026309E3E6
:1050A00021C61A2EA60E1721021C0532666C2D325F
:1050B0001F1C064D7C8F7551AE071C08328D329D2A
:1050C000938D9210101FAA33B4381C053AE853AAE6
:1050D000220A1EAFDE1C1EEB001D7D0238117C1261
:1050E00069021C0828346A4BEA842BB8101FE68C2E
:1050F000840715521E4A3A034E49C0121D66371FD7
:105100006F5D36361C151C0884CE8BEA7C6D1264EC
:105110007C0B4B4953EA6C6C8D70C8211E0A2C061F
:105120003EE4BE031DC003100D33273AC643083BBF
:105130004902E401C2A02DBC171D941921041C17BB
:1051400032467C8F94D09490A5B3AE14ADD48D111B
:105150009573B615955104181C096D230653696B98
:10516000CB4334112E136E2B1E04F40E6245A01D8A
:105170005A161D08121E4CAA251D401A1C062B6C1F
:105180002C4388C2061C0C6D4C8B64CD756F754F1B
:105190001C6960132C06060C07142762092C060BE9
:1051A000C63BE93B000A1C08431A840A0443C99C15
:1051B000362C05660B650B58251DB60314112B877D
:1051C0003BC91AC463CB83EC840D744E0A23402E72
:1051D000A4A0172D50182DAA171020322663EC8496
:1051E0009084D184CF85718D32532A7CB07D5264F6
:1051F000D04C2DA572B4EDC4CAC54D1FAD0EC6303E
:105200002DF4192DF4277D823A1DE4041DA4171DE9
:10521000A00F1DFC181D1C1A1F643B441A1DC0035F
:105220001D04321DDC2E7E0740242DFC2A1D001E8D
:105230001D000A2E07E0061C0532E743A9442C1284
:1052400086A01DFE211F0303FE04181284026202C1
:105250006243093A253A864BCB024409E4802C0884
:1052600024214431E531A59A081C053A674BAAC8A8
:10527000211C0E4E84F08CEF7C4D95518CF08CD01F
:10528000CC243C0E939D72CD6EE54AE52ADD49C5DE
:10529000D02C072DDA107D843D151A4C0A081428ED
:1052A0001407242943CA00142C076BEA3B6844AB5B
:1052B000940A1D381F2D800C1C06285D4E7D90C061
:1052C0001724066A2C298CEFE02C1122A7840C6C81
:1052D0000D53AA74CE7D2F444B652E060F1C0A0277
:1052E000C312E6232712C45BA6211C0573CB640CF2
:1052F000D40338042321E57A12C5A21C09E529C587
:105300002AE7540B5B282B1C079D529D319D1052A0
:10531000351C0772A5328CAE84F21F1C04848D8C60
:10532000DA231DF8071E6D26351D36041D9C126EEE
:1053300026483E1C1B5D0D656F3CCB650E5CED8CFD
:105340008E9C0B6C2C4B899C4B84AE546B752EC081
:10535000241D00382D40241D6E281E6A8E0C4C061C
:105360006913C74BEA000A2C0B3AE71A654BAA12DD
:10537000C523C89C091B0324803408A41AE62326ED
:105380001AC540176653402C13024412442A662261
:10539000441A652A861A653B4933E9302C1DB43717
:1053A0001D941E1C194B6A53CB4BCB436A3B494B94
:1053B000AB43CA7C6D4368226532853348F0333C89
:1053C000054D5CCF13721B3D84341E66942F100470
:1053D000A7244A801C08693BCA5BCA1B06000A1D39
:1053E000400B1E4C38281D000A3C04691C6A002D25
:1053F0004EC71E082C050BA63BEA84091C0A024472
:105400002AE6126543A90AFC2C2DA81B1DE03B1EB1
:105410002536081D58062C0902434349636A6BABC5
:105420005E3911021C076A642E5C0C5364251D3C16
:10543000301C16EB3BEA448C650F5D2F7D108C8F82
:105440007C0D95318D318C4F1C171F5264F2101C4E
:10545000094B8B4B0B532B130596121E0B18303E2A
:1054600086AC1421022D2A1B2EE620081D000A1CE2
:1054700006CA4368128498084C0628230644ABF4F5
:105480002E1D00141DA0231C0F5D2E7D904D0D4C74
:10549000AB23E884EF9C2BC0031C068673EC5BAB4C
:1054A000F0211C06CF64EE6D2F38062C056733689B
:1054B0003B66041C104302433B0742254B083B0755
:1054C0002B2743CA44391C063133088CD058221C80
:1054D000150B6C4D53CA43C97CCF74CE746E7C2EB1
:1054E000638B5BAB74920A1C05638A84D07C361C88
:1054F000104E5BEC536C538D12E62B8864AF232760
:10550000A2144E0654141D001E1C0A8D6CCF4C4C68
:105510005CCE652EFC281C06ED640B436942183CEA
:105520000C6D546B6D6E6D4E4C8B554E000A1C0EFF
:10553000492C8A34AB24481BC7540A7C2B000A1C14
:105540000E44430812454BA91B063BA93BC97836BC
:105550001C1EC532E742E72AC732C632A64B085A9C
:10556000C85B2A53493B2833EA73EC73EC2B0716CC
:10557000211C0BAB848EAD728CCFA593951E081D9C
:1055800070251C0EAB744E29E57C2E748F9D93AD57
:10559000F464346C142B2B480A650AA513058D316D
:1055A0008551752F4D2F85D1243F1E1B94131DB09F
:1055B000191EC9363A1E0B000F1C0D071AA4742BB6
:1055C00043284C8B1C072CE2102F2CAA800C7D1C2E
:1055D0002B2C078533E922850AC4231C06650A03A0
:1055E00043A9923A2E4394152F0A65160E2F08A14F
:1055F0001C0E3D820D1C1AC210C109021B277C0C17
:105600007BEC2B48740C73EC940BCC49A4098CAE46
:10561000780B1C164DA510538B94D031843AA754A7
:105620002D7CD0851174CFA5B48C131C0AA595527E
:105630006C0C9D712368A41E4C05A81B881C763237
:105640002D98303D681D1D502B1E89BC241D2A0934
:105650006C072AC512844C6BD4291DC0121C090684
:1056600044CB4CEC54ED2CA0191C12748D9C6D6C29
:105670002C12857C6D538A4B89542C4CA829100719
:105680003C091A0419239A528102310A1C0D08E2BE
:10569000132784B0848F33687C6D5A0F10092BE573
:1056A0004ABCAA8C8D8C0C1C15AD1053AB6C0C290C
:1056B000844288646E7CD09573748E6BEDB21C3C12
:1056C000126DBE357C8F8D100AE6748F840D7BAC15
:1056D0009D73A02E1DEA041C0D5D0E4BEA544C5C1C
:1056E0004C8CCEACAEA2241C0427ACAD42152C04CD
:1056F000EA54CC20122F3CEC00281C0534AA3CAA0A
:1057000060181E6AC01C140B4B9CAD53EA0A6573EB
:10571000CB22E01D340E1EEBF6131406C91A252108
:1057200003401260024261A61C07088108E11B27A2
:10573000960A1C06D03368848F94201C1C0BDD2A2B
:10574000BC898D2F8D108D319D924389746E3226C8
:105750005B4A646D95529D930C231AAC982C14AE41
:10576000B5F463AC85110284640B632A6B4A848EA2
:105770000B878E42295A2F4CAB08141C0B748DB525
:105780004F4B892AC6948D9C081C060A2C49450C4F
:10579000961E6FAC0C201C2D84323C06A533E912FA
:1057A00003260B5404240223E01008A5030412244A
:1057B0002124942261A022089E3261A01C14076B50
:1057C000CC5308336863CA52E7946BE58BBCCA6C50
:1057D000CDAA262D3A0C1E0A563A1DB22F1DB4131F
:1057E0001C166B246A5C8D84D0646E33EA7CCF5BBC
:1057F000EC5CAD0AE51A451C3B2C04A41A24D834F1
:105800007DD0421EE640101FE80A80031D9C1C1E2E
:10581000237C143E4B4A433E07E242198A1C0F3454
:10582000AA24481C281BC6642B9C8D642B000A1CD0
:10583000054D4B6943EC091F3BA9E2161404870A86
:1058400045E03681403260A01660E01C05E11B0691
:1058500074482C15E01C104D84AF63AB9CEF7C4E5C
:105860008550344A5CEDFA231C0626240913E70C04
:105870003E1C0BCC2C4A44CC1B872BC91B743E1DF1
:10588000562E1C085085925BAB5AE92C322805072E
:105890004A87127C1D18321E34080D1DA0121E08E6
:1058A000E00B1D60132C082B079CAD6C6C4C1C038B
:1058B0001D96143D000F1E07A43F1808CD44CC448C
:1058C000CC3469801C046B6C4C0E0B1C048A2A457A
:1058D000E83C540BEB5C6E43CB3BE90A4419E025F2
:1058E000DA55E21C0AE11B265C2C53AB2B476C1EDD
:1058F0001DD40F1C042BA72B74331DE6141E8B76AE
:10590000341D92361C092C6B654F550E34AB902D0F
:105910002DA6271C04050AE6CE2D2C084723074296
:10592000C85289E8351C085AE912E684F054C23599
:105930001F44CDAE3A2EEC000A1C05ACCD5C0A002B
:105940000A1C04AD742C9E1E1C06CB654E5D4E1EBB
:105950002B6DC00345E01EC9C0171E64E00B1C047C
:1059600003020306433E04D61F82E4A049802106B9
:105970001C0500C11AC6AC0A1EEC2C1B1EC9D42182
:105980001E07CE172C04CD344A72193D78284EE6F6
:105990003E3E1F0B66FC1B1D5C312DAE203C0B9D5B
:1059A00052A59384F1534B4228E4121C06271AA6F1
:1059B000948E1E194E66202E2C051C472BC99A1258
:1059C0001D3C181EA500145ECB2C451DBE351DC008
:1059D000081DBE081D2E121C11E613C653EA7C2BAF
:1059E0004BC912856C0C1A45430E1854092B681BC1
:1059F0000613461A25406E61200315E01FC11AD810
:105A00000E2D2E0E1DDE2A1C0A4C13881BE924299C
:105A100013E84E202D7E423D1A391DF83D2F061207
:105A2000801441A0100868530984AF5329A01E6850
:105A3000C21E1D0E341C091B078CD05CCD2489F4BA
:105A4000291B8A145E2C05540B844C000A2C077CFD
:105A50002C4BA93C8A9214332C8AA01C17275D2E4C
:105A60005CED54ED3C8B448B84CE9C4B744C2B07EB
:105A700063692A4A192C09548C64CE4BCA648C6021
:105A8000045608406DC2031F00C1F2311E05980C78
:105A90002EE418346E03B21A2D96122E6556171C7A
:105AA000070B0543AA746EE80822841E1D462D1EAE
:105AB000A8043E1C06728D71534A7C221C10484A71
:105AC000894A6913273C6B2C494CED5D2E020A1C58
:105AD0000ACC1C297CAEACAB6C2B60181D24241D99
