:020000040800F2
:1000000078060020C10100083B1300086D0D0008B0
:1000100039130008CD020008D914000800000000C0
:100020000000000000000000000000002D14000887
:10003000CF020008000000003D1300082F14000844
:10004000DB010008DB010008DB010008DB01000820
:10005000DB010008DB010008DB010008DB01000810
:10006000DB010008DB010008DB010008DB01000800
:10007000DB010008DB010008DB010008DB010008F0
:10008000DB010008DB010008DB010008DB010008E0
:10009000DB010008DB010008DB010008DB010008D0
:1000A000DB010008DB010008DB010008DB010008C0
:1000B000DB010008DB010008DB010008DB010008B0
:1000C000DB010008DB010008DB010008DB010008A0
:1000D000DB010008DB010008DB010008DB01000890
:1000E000DB010008DB010008DB010008DB01000880
:1000F000DB010008DB010008DB010008DB01000870
:10010000DB010008DB010008DB010008DB0100085F
:10011000DB010008DB010008DB010008DB0100084F
:10012000DB010008DB010008DB010008DB0100083F
:10013000DB010008DB010008DB010008DB0100082F
:10014000DB010008DB010008DB010008DB0100081F
:10015000DB010008DB010008DB010008DB0100080F
:10016000DB010008DB010008DB010008DB010008FF
:10017000DB010008DB010008DB01000800000000D3
:10018000DB010008DB010008DB010008DB010008DF
:10019000DB010008DB010008DB010008DB010008CF
:1001A000DB010008DB010008DB010008DFF80CD0F0
:1001B00000F07AF80048004769150008780600202A
:1001C0000648804706480047FEE7FEE7FEE7FEE7F1
:1001D000FEE7FEE7FEE7FEE7FEE7FEE7BD140008E8
:1001E000AD0100082DE9F05F0546002092469B46D0
:1001F00088460646814640241BE02846414647463D
:10020000224600F041F853465A46C01A914110D395
:1002100011461846224600F028F82D1A67EB01080F
:100220004F4622460120002100F01FF817EB00097D
:100230004E41201EA4F10104DFDC484631462A4627
:100240004346BDE8F09FD2B201E000F8012B491E01
:10025000FBD270470022F6E710B513460A46044663
:100260001946FFF7F0FF204610BD202A04DB203A94
:1002700000FA02F1002070479140C2F1200320FAF9
:1002800003F3194390407047202A04DB203A21FAF7
:1002900002F00021704721FA02F3D040C2F120029F
:1002A0009140084319467047064C074D06E0E06848
:1002B00040F0010394E8070098471034AC42F6D3AD
:1002C000FFF778FF3016000850160008FEE7704769
:1002D0007047000070B5044600F004F90546601C44
:1002E00002D004480078044400F0FCF8401BA0420F
:1002F000FAD370BD040000202DE9F84F00224FF022
:10030000010803254FF00F0E0B6808FA02F4234092
:10031000A3426ED14E68012E05D0022E03D0112EBD
:1003200001D0122E12D186684FEA420C05FA0CF762
:10033000BE43CF6807FA0CF7374387604668A64389
:100340000C79C4F30014944034434460C6685700E9
:1003500005FA07FC8C6826EA0C06BC403443C460EE
:100360004C68022C01D0122C13D1D40800EB840469
:10037000A346D4F8209054074FEAD46A0EFA0AF63E
:1003800029EA06090E6906FA0AF646EA0906CBF8D2
:10039000206004680E7924EA0C0406F00306BE40CF
:1003A000264306604C68E4006FD53B4C266846F453
:1003B00080462660246822F0030604F480440094FA
:1003C000364C3444A446D4F808489607360F0EFA43
:1003D00006F7BC43324FB84201D100272EE0314F1F
:1003E000B84201D1012729E02F4FB84202D102279C
:1003F00024E04AE02D4FB84201D103271EE02C4FE4
:10040000B84201D1042719E02A4FB84201D105278B
:1004100014E0294FB84201D106270FE0274FB84218
:1004200001D107270AE0264FB84201D1082705E08D
:10043000244FB84201D1092700E00A27B7402743DB
:10044000CCF80878204E34684F689C43FF0300D5F1
:100450001C4334601C4E361D34684F689C43BF03F8
:1004600000D51C433460184E083634684F689C43EE
:10047000FF0200D51C433460134E0C3634684F68BD
:100480009C43BF0200D51C433460521C102AFFF469
:100490003BAFBDE8F88F0000443802400030014017
:1004A000000002400004024000080240000C02402C
:1004B000001002400014024000180240001C0240DC
:1004C0000020024000240240003C0140426931EA21
:1004D000020200D10904816170470AB1816170474D
:1004E0000904FBE701488068704700000400002011
:1004F000024881680278114481607047040000203E
:100500000B4810B5016841F400710160016841F4C5
:1005100080610160016841F480710160032000F096
:1005200063F8002000F006F800F024F8002010BD69
:10053000003C024070B50D4D04464FF47A712878A6
:10054000B1FBF0F00A490968B1FBF0F000F0FAFBEA
:1005500048B9102C07D200222146501E00F024F882
:1005600000206C6070BD012070BD00000400002000
:10057000100000200B4882B0016841F48041016006
:10058000006800F4804000900648001F016841F0B8
:1005900080510160006800F080500090072002B098
:1005A00000F022B844380240F0B40E4B1B680C46F1
:1005B000C3F30223C3F10705042D00D90425191D37
:1005C000072901D2002300E0DB1E012606FA05F10F
:1005D000491E214099409E40761E16403143F0BC92
:1005E00000F07BBF0CED00E0064900F00702086850
:1005F0004FF6FF03184040EA0220034A1043086008
:10060000704700000CED00E00000FA052DE9F0470E
:100610000E46050065D0DFF81481D8F80000F7B267
:1006200000F00F00B04207D288F80070D8F8000040
:1006300000F00F00B04254D128683D4C810712D51C
:10064000400703D5206840F4E05020602878000778
:1006500003D5206840F4604020602068A96820F03D
:10066000F000084320602878C0072DD03049686822
:100670000839012812D0022813D0032811D00968A4
:10068000890700292DDA216821F003010143216047
:10069000FFF728FF814641F2883A0EE00968890396
:1006A000EFE709688901ECE7FFF71CFFA0EB090100
:1006B000514502D90320BDE8F0872068696800F041
:1006C0000C00B0EB810FEFD1D8F80010404601F0DC
:1006D0000F01B14207D90770006800F00F00B04267
:1006E00001D00120E7E72878400705D52068E968B0
:1006F00020F4E050084320602878000706D52068E1
:10070000296920F4604040EAC100206000F018F838
:100710002168084AC1F30311515CC84006490860CA
:1007200006480068FFF706FF0020C4E7003C0240CF
:1007300008380240201600081000002008000020A1
:10074000154810B5006810F00C02144813D0411081
:10075000042A0FD0082A0ED10F4C241F22682368C8
:1007600002F03F025B0207D52068C0F38810A0FBAF
:10077000010106E0084610BD2168C1F38811A1FB04
:1007800000010023FFF72EFD2168C1F30141491C40
:100790004900B0FBF1F010BD083802400024F4001D
:1007A0002DE9F84F040076D02078DFF838A3CE4D3D
:1007B000C00749D0DAF800105046C1F38101012981
:1007C00008D00068C0F3810002280AD1281D006803
:1007D000400206D52868800336D560680028E2D03C
:1007E00032E06068B0F5803F10D0B0F5A02F2868E7
:1007F00010D020F480302860286820F48020286001
:100800006068A0B1FFF76EFE06460CE0286840F471
:100810008030F4E740F480202860F7E7FFF762FEBD
:10082000801B642873D828688003F7D50CE0FFF795
:1008300059FE064605E000BFFFF754FE801B642802
:10084000F0D828688003F7D42078DFF8A0828007EA
:100850004FF000093ED5DAF80010504611F00C0FA9
:1008600009D00068C0F3810002280BD19D48001F09
:100870000068400206D42868800715D5E068012882
:1008800009D111E0E068B8B10120C8F80000FFF715
:1008900029FE064605E020E1FFF724FE801B022822
:1008A000C0D828688007F7D52868216920F0F800AB
:1008B00040EAC10028600DE0C8F80090FFF712FE82
:1008C000064604E0FFF70EFE801B02281FD82868AA
:1008D0008007F7D42078000722D5824E84486169CA
:1008E0006C3671B101210160FFF7FCFD074604E0A1
:1008F000FFF7F8FDC01B022809D830688007F7D53C
:100900000EE0C0F80090FFF7EDFD074605E082E03D
:10091000FFF7E8FDC01B02287DD830688007F7D4B8
:100920002078400768D5DFF8BCB100270BF1380B01
:10093000DBF80000C0000BD4DBF8001041F0805160
:10094000CBF80010DBF80000012700F08050009089
:10095000684E3068C00510D4306840F48070306054
:10096000FFF7C0FD009005E0FFF7BCFD0099401ABD
:10097000022850D83068C005F6D55A4EA0686836AF
:1009800001280FD00528306810D020F00100306019
:10099000306820F004003060A068B8B1FFF7A2FD15
:1009A00000900FE0306840F00100F4E740F00400F0
:1009B0003060F7E7FFF796FD0099411A41F2883061
:1009C000814266D830688007F4D50EE0FFF78AFDD3
:1009D000009007E0FFF786FD0099411A41F2883048
:1009E000814256D830688007F4D42FB1DBF800106C
:1009F00021F08051CBF80010A069D0B3DAF80020C4
:100A00005146C2F38102022A4AD00228484607D042
:100A1000C8F8600000E03CE0FFF764FD04463BE0FE
:100A20004746C8F86000FFF75DFD064605E000BFD9
:100A3000FFF758FD801B02282BD828688001F7D4C7
:100A4000D4E907010843A16A2B4A490802EB014196
:100A5000626A41EA8211084394F82C1040EA01616D
:100A60002048001F016001203866FFF73BFD044667
:100A700005E034E0FFF736FD001B022809D828689E
:100A80008001F7D52BE000BFFFF72CFD001B0228EB
:100A900002D90320BDE8F88F28688001F4D41EE055
:100AA0000128F7D00868E26900F48001914214D16E
:100AB000226A00F03F0191420FD147F6C071626A8D
:100AC0000140914209D1A26A00F44031914204D11F
:100AD000E16A00F07060884201D00120DAE700206E
:100AE000D8E70000083802400038024000004742C2
:100AF000800E4742007000400000FFFF70B5040008
:100B000005D00025A56294F8510010B106E001203F
:100B100070BD84F85050204600F030F8022084F870
:100B200051002068016821F040010160D4E9010111
:100B30000843D4E903121143084361690843218B38
:100B400001F400710843E1690843216A0843A16A7E
:100B5000084321680860A069042101EA1040616A25
:100B60000843216848602068C16921F40061C161BF
:100B70006565012084F85100002070BD10B586B075
:100B8000044614216846FFF765FB14492068884233
:100B900021D113480021026842F4801202600068EB
:100BA00000F4801005900E481438026842F02002CC
:100BB0000260006800F0200005904FF46070009023
:100BC0000220CDE90101032003900520049069462D
:100BD0000448FFF791FB06B010BD00000050014033
:100BE00044380240001402402DE9F84F044690F8C2
:100BF000500000271D461646894601280DD04FF0AB
:100C0000010B84F850B0FFF76DFC804694F851005A
:100C1000BA46012804D002278EE00220BDE8F88FF2
:100C2000B9F1000F7DD0002E7BD0032084F8510055
:100C3000C4F854A0C4F83090A686E686C4F838A05C
:100C4000A4F83CA0A4F83EA0C4F844A0C4F840A076
:100C5000A068B0F5004F04D12068016841F48041DC
:100C6000016020680168490603D4016841F0400131
:100C70000160E068B0F5006F606803D030B3012E0A
:100C800024D040E008B1012E1CD1206B21680088DF
:100C9000C86006E020688168890709D5216B09884A
:100CA000C160206B801C2063E08E401EE08609E05E
:100CB000FFF718FCA0EB0800A84202D3681C01D083
:100CC00031E07DB3E08E0028E4D11FE0206B216885
:100CD0000078087306E020688168890709D5216BD0
:100CE00009780173206B401C2063E08E401EE08673
:100CF00009E0FFF7F7FBA0EB0800A84202D3681C4D
:100D000001D010E075B1E08E0028E4D142462946BA
:100D1000204600F015FB08B120206065A06820B1D6
:100D200007E008E0FFE7032706E02068C168806865
:100D30000090606D00B1012784F851B084F850A094
:100D400038466BE710B5401EB0F1807F01D301201B
:100D500010BD4FF0E02460610F21601700F0BDFB73
:100D60000020A06107202061002010BDFEE70000E8
:100D70002DE9F0470E464FF4FA740746B4EB460FE0
:100D800000D90C46012251031F48FFF7A6FBDFF8EC
:100D90007C90002204214846FFF79FFB4FEA17286A
:100DA000204600F007FC05460020F9B205E000BF30
:100DB00005F800802A18801C5170A042F8D37000FA
:100DC000B0FBF4F1B0FBF4F704FB110857B10026B7
:100DD00006E0A2B20A2329460D48FFF705FF761C5C
:100DE000BE42F6D31FFA88F20A2329460848FFF7C5
:100DF000FBFE012204214846FFF76FFB2846BDE8B1
:100E0000F04700F089BB0000000C024000080240DF
:100E10001C0000202DE9F041154C1646069F628803
:100E20001D46904221D2228891421ED263888219A7
:100E3000521E9A4202DB6288121A96B223884A191D
:100E4000521E9A4202DB2288521A95B24A19521E49
:100E500093B28219521E92B200F052F905FB06F1CC
:100E60003846BDE8F041FFF783BFBDE8F0810000E0
:100E70000000002070B5084C0546238862880021D8
:100E8000084600F03DF96188208841432846BDE8C6
:100E90007040FFF76DBF00000000002010B500F0AB
:100EA00017F900F005F9012000F07CF94FF47A7091
:100EB000FFF710FACB2000F075F9392000F08EF919
:100EC0002C2000F08BF9002000F088F9342000F08D
:100ED00085F9022000F082F9CF2000F063F90020AC
:100EE00000F07CF9C12000F079F9302000F076F9AB
:100EF000E82000F057F9852000F070F9002000F09C
:100F00006DF9782000F06AF9EA2000F04BF9002032
:100F100000F064F9002000F061F9ED2000F042F9E2
:100F2000642000F05BF9032000F058F9122000F073
:100F300055F9812000F052F9F72000F033F9202014
:100F400000F04CF9C02000F02DF9232000F046F904
:100F5000C12000F027F9102000F040F9C52000F072
:100F600021F93E2000F03AF9282000F037F9C72097
:100F700000F018F9862000F031F9362000F012F95F
:100F8000482000F02BF93A2000F00CF9552000F031
:100F900025F9B12000F006F9002000F01FF9182013
:100FA00000F01CF9B62000F0FDF8082000F016F95A
:100FB000822000F013F9272000F010F9F22000F051
:100FC000F1F8002000F00AF9262000F0EBF80120EB
:100FD00000F004F9E02000F0E5F80F2000F0FEF842
:100FE000312000F0FBF82B2000F0F8F80C2000F086
:100FF000F5F80E2000F0F2F8082000F0EFF84E208F
:1010000000F0ECF8F12000F0E9F8372000F0E6F805
:10101000072000F0E3F8102000F0E0F8032000F0D3
:10102000DDF80E2000F0DAF8092000F0D7F80020F3
:1010300000F0D4F8E12000F0B5F8002000F0CEF880
:101040000E2000F0CBF8142000F0C8F8032000F0C8
:10105000C5F8112000F0C2F8072000F0BFF83120D9
:1010600000F0BCF8C12000F0B9F8482000F0B6F854
:10107000082000F0B3F80F2000F0B0F80C2000F0CA
:10108000ADF8312000F0AAF8362000F0A7F80F20C4
:1010900000F0A4F8112000F085F87820FFF71AF985
:1010A000292000F07FF8BDE81040002000F052B881
:1010B00010B5C820FFF70EF9002204210348FFF7FE
:1010C0000CFABDE81040C820FFF704B90008024040
:1010D00010B500F00FF900F09DF80022BDE81040B7
:1010E00004210148FFF7F9B90008024001B50123C6
:1010F0001A4669460148FFF777FD08BD1C0000202D
:101100002DE9F04107461C4615460E462A2000F000
:1011100049F8380A00F062F8F8B200F05FF8280ADF
:1011200000F05CF8E8B200F059F82B2000F03AF833
:10113000300A00F053F8F0B200F050F8200A00F046
:101140004DF8E0B200F04AF8BDE8F0412C2000F084
:1011500029B800002DE9F0410746362000F022F8BA
:101160000120FFF7B7F80E4CF0254FF4A0766FB1D1
:10117000012F0DD0022F0DD0032F05D15FF0E80015
:1011800000F02CF866802580BDE8F081482002E060
:101190002820F5E7882000F021F865802680F3E715
:1011A0000000002070B50B4C0546002204212046AB
:1011B000FFF793F900224FF400510748FFF78DF92C
:1011C0002846FFF793FF2046BDE870400122042126
:1011D000FFF783B900080240000C024070B50546D5
:1011E000012251030948FFF778F9094C0022042134
:1011F0002046FFF772F92846FFF778FF2046BDE842
:10120000704001220421FFF768B90000000C024081
:10121000000802402DE9F04786B014216846FFF728
:1012200019F830480024016841F02001016001688C
:1012300001F020010591016841F080010160016821
:1012400001F080010591016841F00401016001682D
:1012500001F004010591016841F008010160016895
:1012600001F008010591016841F04001016000684A
:10127000DFF8748000F04000059000220421404611
:10128000FFF72BF9DFF864904FF400560022314647
:101290004846FFF722F9DFF858A04FF4C047002274
:1012A00039465046FFF719F9042000900125CDE991
:1012B0000154694640460394FFF71EF80096CDE9B5
:1012C0000154694648460394FFF716F80097CDE9A4
:1012D0000154694650460394FFF70EF806B0BDE886
:1012E000F08700003038024000080240000C024045
:1012F000001802400F4810B50D4901604FF482718B
:10130000416000218160C1604FF400720161C0E959
:101310000512C1610162416281620A21C162FFF767
:10132000EDFB002803D0BDE81040FEF7D1BF10BD93
:10133000005001401C000020FEE77047704700008D
:1013400038B504461248134B0068B0FBF3F04FF475
:101350007A73584300906068B0F5827F0DD10B46D8
:10136000009200228021204600F016F870B1606DD6
:1013700040F020006065032038BD009830B1401E69
:10138000009020688068C0430006F6D5002038BD74
:101390001000002000366E012DE9F0411D46174671
:1013A0000E460446DDF8188008E0681C06D0FFF7FA
:1013B00099F8A0EB0800A8420BD255B120688068CC
:1013C00036EA000030D00020B842EED10020BDE85F
:1013D000F0812068416821F0E00141606068B0F56B
:1013E000827F0BD1A068B0F5004F02D0B0F5806FBE
:1013F00004D12068016821F040010160A06AB0F5C5
:10140000005F09D12068016821F400510160206863
:10141000016841F400510160012084F8510000206E
:1014200084F850000320D2E70120CDE77047FFF792
:101430005FB8000030B593B030216846FEF70AFF70
:1014400014210CA8FEF706FF1A480025016841F098
:1014500080510160006800F08050119016480168CA
:1014600021F4404141F4804101600068022400F40D
:1014700040401190012003901020049000940694A5
:101480000820CDE907504620CDE9090407200B903C
:101490006846FFF785F90CA90F2081E83100E002CA
:1014A0000F904FF4A050109002210CA8FFF7AEF857
:1014B00013B030BD4038024000700040054801685C
:1014C00041F47001016003494FF000608039086009
:1014D0007047000088ED00E0FEE70907090E0028CC
:1014E00004DB00F1E02080F80014704700F00F00EA
:1014F00000F1E02080F8141D704702E008C8121FB8
:1015000008C1002AFAD170477047002001E001C1EC
:10151000121F002AFBD1704710B5002821D0114BB3
:101520000022001F196803E0814203D80A46496877
:101530000029F9D152B11368841A9C4204D1006881
:1015400018441060104602E0506000E0186039B1A5
:1015500002680B1A934203D10B681A44026049686F
:10156000416010BD1400002008B5FEF7C9FFFFF769
:1015700061FFFFF74FFEFFF7BDFEFFF78FFC4FF453
:101580007840FFF777FC1F203223642100901A4631
:101590000846FFF73FFC064D4FF4C0444FF47A76FF
:1015A00021462846FEF792FF3046FEF793FEF7E706
:1015B00000180240F0B50B30154D20F00701002453
:1015C000144A0FE003688B420BD38B4205D95E1A95
:1015D00043184768C3E9006700E04368136002C02E
:1015E00004E0021D10680028ECD12046002802D13A
:1015F000286808B10020F0BD064A07481060074A75
:10160000121A22F00702C0E9002401202860D7E75F
:1016100018000020140000207C0000207802002028
:101620000000000000000000010203040607080992
:1016300050160008000000201C000000FA140008EA
:101640006C1600081C0000205C0600000A1500084B
:10165000F000400101000000100000000000000048
:0C1660000024F400000000000000000066
:04000005080001AD41
:00000001FF
