:020000040800F2
:1000000078060020C1010008171700086D0D0008D0
:1000100015170008CD020008B51800080000000000
:1000200000000000000000000000000009180008A7
:10003000CF02000800000000191700080B18000884
:10004000DB010008DB010008DB010008DB01000820
:10005000DB010008DB010008DB010008DB01000810
:10006000DB010008DB010008DB010008DB01000800
:10007000DB010008DB010008DB010008DB010008F0
:10008000DB010008DB010008DB010008DB010008E0
:10009000DB010008DB010008DB010008DB010008D0
:1000A000DB010008DB010008DB010008DB010008C0
:1000B000DB010008DB010008DB010008DB010008B0
:1000C000DB010008DB010008DB010008DB010008A0
:1000D000DB010008DB010008DB010008DB01000890
:1000E000DB010008DB010008DB010008DB01000880
:1000F000DB010008DB010008DB010008DB01000870
:10010000DB010008DB010008DB010008DB0100085F
:10011000DB010008DB010008DB010008DB0100084F
:10012000DB010008DB010008DB010008DB0100083F
:10013000DB010008DB010008DB010008DB0100082F
:10014000DB010008DB010008DB010008DB0100081F
:10015000DB010008DB010008DB010008DB0100080F
:10016000DB010008DB010008DB010008DB010008FF
:10017000DB010008DB010008DB01000800000000D3
:10018000DB010008DB010008DB010008DB010008DF
:10019000DB010008DB010008DB010008DB010008CF
:1001A000DB010008DB010008DB010008DFF80CD0F0
:1001B00000F07AF80048004745190008780600204A
:1001C0000648804706480047FEE7FEE7FEE7FEE7F1
:1001D000FEE7FEE7FEE7FEE7FEE7FEE79918000808
:1001E000AD0100082DE9F05F0546002092469B46D0
:1001F00088460646814640241BE02846414647463D
:10020000224600F041F853465A46C01A914110D395
:1002100011461846224600F028F82D1A67EB01080F
:100220004F4622460120002100F01FF817EB00097D
:100230004E41201EA4F10104DFDC484631462A4627
:100240004346BDE8F09FD2B201E000F8012B491E01
:10025000FBD270470022F6E710B513460A46044663
:100260001946FFF7F0FF204610BD202A04DB203A94
:1002700000FA02F1002070479140C2F1200320FAF9
:1002800003F3194390407047202A04DB203A21FAF7
:1002900002F00021704721FA02F3D040C2F120029F
:1002A0009140084319467047064C074D06E0E06848
:1002B00040F0010394E8070098471034AC42F6D3AD
:1002C000FFF778FFC86D0008E86D0008FEE770478B
:1002D0007047000070B5044600F004F90546601C44
:1002E00002D004480078044400F0FCF8401BA0420F
:1002F000FAD370BD040000202DE9F84F00224FF022
:10030000010803254FF00F0E0B6808FA02F4234092
:10031000A3426ED14E68012E05D0022E03D0112EBD
:1003200001D0122E12D186684FEA420C05FA0CF762
:10033000BE43CF6807FA0CF7374387604668A64389
:100340000C79C4F30014944034434460C6685700E9
:1003500005FA07FC8C6826EA0C06BC403443C460EE
:100360004C68022C01D0122C13D1D40800EB840469
:10037000A346D4F8209054074FEAD46A0EFA0AF63E
:1003800029EA06090E6906FA0AF646EA0906CBF8D2
:10039000206004680E7924EA0C0406F00306BE40CF
:1003A000264306604C68E4006FD53B4C266846F453
:1003B00080462660246822F0030604F480440094FA
:1003C000364C3444A446D4F808489607360F0EFA43
:1003D00006F7BC43324FB84201D100272EE0314F1F
:1003E000B84201D1012729E02F4FB84202D102279C
:1003F00024E04AE02D4FB84201D103271EE02C4FE4
:10040000B84201D1042719E02A4FB84201D105278B
:1004100014E0294FB84201D106270FE0274FB84218
:1004200001D107270AE0264FB84201D1082705E08D
:10043000244FB84201D1092700E00A27B7402743DB
:10044000CCF80878204E34684F689C43FF0300D5F1
:100450001C4334601C4E361D34684F689C43BF03F8
:1004600000D51C433460184E083634684F689C43EE
:10047000FF0200D51C433460134E0C3634684F68BD
:100480009C43BF0200D51C433460521C102AFFF469
:100490003BAFBDE8F88F0000443802400030014017
:1004A000000002400004024000080240000C02402C
:1004B000001002400014024000180240001C0240DC
:1004C0000020024000240240003C0140426931EA21
:1004D000020200D10904816170470AB1816170474D
:1004E0000904FBE701488068704700000400002011
:1004F000024881680278114481607047040000203E
:100500000B4810B5016841F400710160016841F4C5
:1005100080610160016841F480710160032000F096
:1005200063F8002000F006F800F024F8002010BD69
:10053000003C024070B50D4D04464FF47A712878A6
:10054000B1FBF0F00A490968B1FBF0F000F0FAFBEA
:1005500048B9102C07D200222146501E00F024F882
:1005600000206C6070BD012070BD00000400002000
:10057000100000200B4882B0016841F48041016006
:10058000006800F4804000900648001F016841F0B8
:1005900080510160006800F080500090072002B098
:1005A00000F022B844380240F0B40E4B1B680C46F1
:1005B000C3F30223C3F10705042D00D90425191D37
:1005C000072901D2002300E0DB1E012606FA05F10F
:1005D000491E214099409E40761E16403143F0BC92
:1005E00001F069B90CED00E0064900F00702086867
:1005F0004FF6FF03184040EA0220034A1043086008
:10060000704700000CED00E00000FA052DE9F0470E
:100610000E46050065D0DFF81481D8F80000F7B267
:1006200000F00F00B04207D288F80070D8F8000040
:1006300000F00F00B04254D128683D4C810712D51C
:10064000400703D5206840F4E05020602878000778
:1006500003D5206840F4604020602068A96820F03D
:10066000F000084320602878C0072DD03049686822
:100670000839012812D0022813D0032811D00968A4
:10068000890700292DDA216821F003010143216047
:10069000FFF728FF814641F2883A0EE00968890396
:1006A000EFE709688901ECE7FFF71CFFA0EB090100
:1006B000514502D90320BDE8F0872068696800F041
:1006C0000C00B0EB810FEFD1D8F80010404601F0DC
:1006D0000F01B14207D90770006800F00F00B04267
:1006E00001D00120E7E72878400705D52068E968B0
:1006F00020F4E050084320602878000706D52068E1
:10070000296920F4604040EAC100206000F018F838
:100710002168084AC1F30311515CC84006490860CA
:1007200006480068FFF706FF0020C4E7003C0240CF
:1007300008380240B86D00081000002008000020B2
:10074000154810B5006810F00C02144813D0411081
:10075000042A0FD0082A0ED10F4C241F22682368C8
:1007600002F03F025B0207D52068C0F38810A0FBAF
:10077000010106E0084610BD2168C1F38811A1FB04
:1007800000010023FFF72EFD2168C1F30141491C40
:100790004900B0FBF1F010BD083802400024F4001D
:1007A0002DE9F84F040076D02078DFF838A3CE4D3D
:1007B000C00749D0DAF800105046C1F38101012981
:1007C00008D00068C0F3810002280AD1281D006803
:1007D000400206D52868800336D560680028E2D03C
:1007E00032E06068B0F5803F10D0B0F5A02F2868E7
:1007F00010D020F480302860286820F48020286001
:100800006068A0B1FFF76EFE06460CE0286840F471
:100810008030F4E740F480202860F7E7FFF762FEBD
:10082000801B642873D828688003F7D50CE0FFF795
:1008300059FE064605E000BFFFF754FE801B642802
:10084000F0D828688003F7D42078DFF8A0828007EA
:100850004FF000093ED5DAF80010504611F00C0FA9
:1008600009D00068C0F3810002280BD19D48001F09
:100870000068400206D42868800715D5E068012882
:1008800009D111E0E068B8B10120C8F80000FFF715
:1008900029FE064605E020E1FFF724FE801B022822
:1008A000C0D828688007F7D52868216920F0F800AB
:1008B00040EAC10028600DE0C8F80090FFF712FE82
:1008C000064604E0FFF70EFE801B02281FD82868AA
:1008D0008007F7D42078000722D5824E84486169CA
:1008E0006C3671B101210160FFF7FCFD074604E0A1
:1008F000FFF7F8FDC01B022809D830688007F7D53C
:100900000EE0C0F80090FFF7EDFD074605E082E03D
:10091000FFF7E8FDC01B02287DD830688007F7D4B8
:100920002078400768D5DFF8BCB100270BF1380B01
:10093000DBF80000C0000BD4DBF8001041F0805160
:10094000CBF80010DBF80000012700F08050009089
:10095000684E3068C00510D4306840F48070306054
:10096000FFF7C0FD009005E0FFF7BCFD0099401ABD
:10097000022850D83068C005F6D55A4EA0686836AF
:1009800001280FD00528306810D020F00100306019
:10099000306820F004003060A068B8B1FFF7A2FD15
:1009A00000900FE0306840F00100F4E740F00400F0
:1009B0003060F7E7FFF796FD0099411A41F2883061
:1009C000814266D830688007F4D50EE0FFF78AFDD3
:1009D000009007E0FFF786FD0099411A41F2883048
:1009E000814256D830688007F4D42FB1DBF800106C
:1009F00021F08051CBF80010A069D0B3DAF80020C4
:100A00005146C2F38102022A4AD00228484607D042
:100A1000C8F8600000E03CE0FFF764FD04463BE0FE
:100A20004746C8F86000FFF75DFD064605E000BFD9
:100A3000FFF758FD801B02282BD828688001F7D4C7
:100A4000D4E907010843A16A2B4A490802EB014196
:100A5000626A41EA8211084394F82C1040EA01616D
:100A60002048001F016001203866FFF73BFD044667
:100A700005E034E0FFF736FD001B022809D828689E
:100A80008001F7D52BE000BFFFF72CFD001B0228EB
:100A900002D90320BDE8F88F28688001F4D41EE055
:100AA0000128F7D00868E26900F48001914214D16E
:100AB000226A00F03F0191420FD147F6C071626A8D
:100AC0000140914209D1A26A00F44031914204D11F
:100AD000E16A00F07060884201D00120DAE700206E
:100AE000D8E70000083802400038024000004742C2
:100AF000800E4742007000400000FFFF70B5040008
:100B000005D00025A56294F8510010B106E001203F
:100B100070BD84F85050204600F030F8022084F870
:100B200051002068016821F040010160D4E9010111
:100B30000843D4E903121143084361690843218B38
:100B400001F400710843E1690843216A0843A16A7E
:100B5000084321680860A069042101EA1040616A25
:100B60000843216848602068C16921F40061C161BF
:100B70006565012084F85100002070BD10B586B075
:100B8000044614216846FFF765FB14492068884233
:100B900021D113480021026842F4801202600068EB
:100BA00000F4801005900E481438026842F02002CC
:100BB0000260006800F0200005904FF46070009023
:100BC0000220CDE90101032003900520049069462D
:100BD0000448FFF791FB06B010BD00000050014033
:100BE00044380240001402402DE9F84F044690F8C2
:100BF000500000271D461646894601280DD04FF0AB
:100C0000010B84F850B0FFF76DFC804694F851005A
:100C1000BA46012804D002278EE00220BDE8F88FF2
:100C2000B9F1000F7DD0002E7BD0032084F8510055
:100C3000C4F854A0C4F83090A686E686C4F838A05C
:100C4000A4F83CA0A4F83EA0C4F844A0C4F840A076
:100C5000A068B0F5004F04D12068016841F48041DC
:100C6000016020680168490603D4016841F0400131
:100C70000160E068B0F5006F606803D030B3012E0A
:100C800024D040E008B1012E1CD1206B21680088DF
:100C9000C86006E020688168890709D5216B09884A
:100CA000C160206B801C2063E08E401EE08609E05E
:100CB000FFF718FCA0EB0800A84202D3681C01D083
:100CC00031E07DB3E08E0028E4D11FE0206B216885
:100CD0000078087306E020688168890709D5216BD0
:100CE00009780173206B401C2063E08E401EE08673
:100CF00009E0FFF7F7FBA0EB0800A84202D3681C4D
:100D000001D010E075B1E08E0028E4D142462946BA
:100D1000204600F003FD08B120206065A06820B1E6
:100D200007E008E0FFE7032706E02068C168806865
:100D30000090606D00B1012784F851B084F850A094
:100D400038466BE710B5401EB0F1807F01D301201B
:100D500010BD4FF0E02460610F21601700F0ABFD83
:100D60000020A06107202061002010BDFEE70000E8
:100D70002DE9FE4F9146DDE90C629B468A4620280C
:100D800001D32038C0B2224B00EB4000002103EB1E
:100D9000400001AC435C6354491CC9B20629F9D335
:100DA0004FF6FF7006EB4601009200EA410200EAAE
:100DB000C6034946504600F0FFF90025A04601272A
:100DC0005FF0000418F8050007FA04F108420DD09E
:100DD000012E15D004FB069081B205FB06A0334618
:100DE00080B21A46CDF800B000F0E6F9641CE4B217
:100DF000082CE7D36D1CEDB2062DE1D3BDE8FE8FC4
:100E000009EB04010AEB05005A4600F027F9EDE76B
:100E1000786B00082DE9F0470E464FF4FA74074648
:100E2000B4EB460F00D90C46012251031F48FFF7CF
:100E300054FBDFF87C90002204214846FFF74DFB6D
:100E40004FEA1728204600F0C1FD05460020F9B200
:100E500005E000BF05F800802A18801C5170A042F0
:100E6000F8D37000B0FBF4F1B0FBF4F704FB110809
:100E700057B1002606E0A2B20A2329460D48FFF723
:100E8000B3FE761CBE42F6D31FFA88F20A23294627
:100E90000848FFF7A9FE012204214846FFF71DFB81
:100EA0002846BDE8F04700F025BD0000000C0240D8
:100EB000000802401C0000202DE9F047DFF890A157
:100EC000644DFEB004464FF4A0774FF400594FF440
:100ED000FA764FF49978012930D0032960D002299D
:100EE0007ED0002959D1002000F022FB00213B4692
:100EF000F022084600F0F2FA012249465046FFF778
:100F0000ECFA00220421AA462846FFF7E6FA00255B
:100F10002F46E9460020494632462B18E35C0B5425
:100F2000401C9042F9D30A2369464B48FFF75CFE08
:100F30007F1C05F5FA754745ECD929E0012000F042
:100F4000F7FA0021F0233A46084600F0C7FA0122DA
:100F500049465046FFF7C1FA00220421AA46284616
:100F6000FFF7BBFA00252F46E946002049463246E6
:100F70002B18E35C0B54401C9042F9D30A236946BA
:100F80003548FFF731FE7F1C05F5FA754745ECD96A
:100F9000012204215046FFF7A0FA7EB0BDE8F08799
:100FA000032000F0C5FA0021F0233A46084600F07D
:100FB00095FA012249465046FFF78FFA0022042194
:100FC000AA462846FFF789FA00252F46E946002061
:100FD000494632462B18E35C0B54401C904200E01B
:100FE0000BE0F7D30A2369461B48FFF7FDFD7F1C82
:100FF00005F5FA754745EAD9CAE7022000F098FAE4
:1010000000213B46F022084600F068FA01224946DA
:101010005046FFF762FA00220421AA462846FFF74D
:101020005CFA00252F46E9460020494632462B1837
:10103000E35C0B54401C9042F9D30A2369460648EE
:10104000FFF7D2FD7F1C05F5FA754745ECD99FE700
:10105000000C0240000802401C0000202DE9FE4365
:10106000054651480C46164641888D427DD200887F
:1010700084427AD2DFF834814FF400570022394697
:101080004046FFF72AFADFF828910022042148465B
:10109000FFF723FA2A2000F017FA012239464046CA
:1010A000FFF71BFA012204214846FFF716FA002237
:1010B00004214846FFF711FA280A8DF800008DF840
:1010C00001506D1C280A8DF802008DF80350012391
:1010D000042269463748FFF787FD0122042148466C
:1010E000FFF7FBF9002239464046FFF7F6F90022E8
:1010F00004214846FFF7F1F92B2000F0E5F9012221
:1011000039464046FFF7E9F9012204214846FFF736
:10111000E4F9002204214846FFF7DFF9200A8DF8A0
:1011200004008DF80540641C200A8DF806008DF837
:1011300007400123042201A91E48FFF755FD0122A3
:1011400004214846FFF7C9F9002239464046FFF717
:10115000C4F9002204214846FFF7BFF92C2000F013
:10116000B3F901223946404600E01BE0FFF7B5F92C
:10117000012204214846FFF7B0F900220421484625
:10118000FFF7ABF9300A8DF808008DF809600123EC
:10119000022202A90748FFF727FD01220421484641
:1011A000FFF79BF9BDE8FE8300000020000C024021
:1011B000000802401C0000202DE9F041154C1646A5
:1011C000069F62881D46904221D2228891421ED2FB
:1011D00063888219521E9A4202DB6288121A96B202
:1011E00023884A19521E9A4202DB2288521A95B26B
:1011F0004A19521E93B28219521E92B200F06EF931
:1012000005FB06F13846BDE8F041FFF703BEBDE837
:10121000F0810000000000202DE9FC479946DDE93F
:101220000A7892460D46044607EB47060AE0CDE9E8
:1012300000784B4652462946641CFFF799FD05EBA2
:101240004600C5B220780028F1D1BDE8FC87000037
:1012500070B5084C0546238862880021084600F0D6
:101260003DF96188208841432846BDE87040FFF77A
:10127000D1BD00000000002010B500F017F900F00B
:1012800005F9012000F07CF94FF47A70FFF722F89D
:10129000CB2000F075F9392000F08EF92C2000F0F9
:1012A0008BF9002000F088F9342000F085F9022045
:1012B00000F082F9CF2000F063F9002000F07CF903
:1012C000C12000F079F9302000F076F9E82000F034
:1012D00057F9852000F070F9002000F06DF97820B2
:1012E00000F06AF9EA2000F04BF9002000F064F900
:1012F000002000F061F9ED2000F042F9642000F0D8
:101300005BF9032000F058F9122000F055F9812014
:1013100000F052F9F72000F033F9202000F04CF9EA
:10132000C02000F02DF9232000F046F9C12000F084
:1013300027F9102000F040F9C52000F021F93E20E7
:1013400000F03AF9282000F037F9C72000F018F92A
:10135000862000F031F9362000F012F9482000F024
:101360002BF93A2000F00CF9552000F025F9B120B6
:1013700000F006F9002000F01FF9182000F01CF919
:10138000B62000F0FDF8082000F016F9822000F0E9
:1013900013F9272000F010F9F22000F0F1F80020F6
:1013A00000F00AF9262000F0EBF8012000F004F923
:1013B000E02000F0E5F80F2000F0FEF8312000F00A
:1013C000FBF82B2000F0F8F80C2000F0F5F80E20C8
:1013D00000F0F2F8082000F0EFF84E2000F0ECF8F2
:1013E000F12000F0E9F8372000F0E6F8072000F0DF
:1013F000E3F8102000F0E0F8032000F0DDF80E2004
:1014000000F0DAF8092000F0D7F8002000F0D4F856
:10141000E12000F0B5F8002000F0CEF80E2000F03A
:10142000CBF8142000F0C8F8032000F0C5F8112014
:1014300000F0C2F8072000F0BFF8312000F0BCF83F
:10144000C12000F0B9F8482000F0B6F8082000F0FC
:10145000B3F80F2000F0B0F80C2000F0ADF8312008
:1014600000F0AAF8362000F0A7F80F2000F0A4F84A
:10147000112000F085F87820FEF72CFF292000F0DD
:101480007FF8BDE81040002000F052B810B5C82029
:10149000FEF720FF002204210348FFF71EF8BDE8F5
:1014A0001040C820FEF716BF0008024010B500F03B
:1014B0000FF900F09DF80022BDE81040042101481A
:1014C000FFF70BB80008024001B501231A46694630
:1014D0000148FFF789FB08BD1C0000202DE9F04101
:1014E00007461C4615460E462A2000F049F8380AE1
:1014F00000F062F8F8B200F05FF8280A00F05CF83B
:10150000E8B200F059F82B2000F03AF8300A00F069
:1015100053F8F0B200F050F8200A00F04DF8E0B2B5
:1015200000F04AF8BDE8F0412C2000F029B8000096
:101530002DE9F0410746362000F022F80120FEF7A1
:10154000C9FE0E4CF0254FF4A0766FB1012F0DD0DF
:10155000022F0DD0032F05D15FF0E80000F02CF82A
:1015600066802580BDE8F081482002E02820F5E76C
:10157000882000F021F865802680F3E70000002035
:1015800070B50B4C0546002204212046FEF7A5FF4E
:1015900000224FF400510748FEF79FFF2846FFF74F
:1015A00093FF2046BDE8704001220421FEF795BF5D
:1015B00000080240000C024070B5054601225103AC
:1015C0000948FEF78AFF094C002204212046FEF755
:1015D00084FF2846FFF778FF2046BDE870400122CF
:1015E0000421FEF77ABF0000000C02400008024010
:1015F0002DE9F04786B014216846FEF72BFE3048EF
:101600000024016841F020010160016801F020011F
:101610000591016841F080010160016801F08001DD
:101620000591016841F004010160016801F00401C5
:101630000591016841F008010160016801F00801AD
:101640000591016841F0400101600068DFF8748095
:1016500000F040000590002204214046FEF73DFFC7
:10166000DFF864904FF40056002231464846FEF7FA
:1016700034FFDFF858A04FF4C047002239465046E7
:10168000FEF72BFF042000900125CDE901546946A7
:1016900040460394FEF730FE0096CDE901546946BA
:1016A00048460394FEF728FE0097CDE901546946A9
:1016B00050460394FEF720FE06B0BDE8F087000018
:1016C0003038024000080240000C0240001802407E
:1016D0000F4810B50D4901604FF48271416000213F
:1016E0008160C1604FF400720161C0E90512C161FF
:1016F0000162416281620A21C162FFF7FFF900289D
:1017000003D0BDE81040FEF7E3BD10BD005001401E
:101710001C000020FEE770477047000038B5044603
:101720001248134B0068B0FBF3F04FF47A73584340
:1017300000906068B0F5827F0DD10B4600920022C8
:101740008021204600F016F870B1606D40F0200056
:101750006065032038BD009830B1401E00902068BD
:101760008068C0430006F6D5002038BD1000002078
:1017700000366E012DE9F0411D4617460E4604461F
:10178000DDF8188008E0681C06D0FEF7ABFEA0EB81
:101790000800A8420BD255B12068806836EA0000E4
:1017A00030D00020B842EED10020BDE8F0812068A2
:1017B000416821F0E00141606068B0F5827F0BD1A3
:1017C000A068B0F5004F02D0B0F5806F04D120685A
:1017D000016821F040010160A06AB0F5005F09D105
:1017E0002068016821F4005101602068016841F41B
:1017F00000510160012084F85100002084F850005D
:101800000320D2E70120CDE77047FEF771BE00004C
:1018100030B593B030216846FEF71CFD14210CA8AA
:10182000FEF718FD1A480025016841F0805101605B
:10183000006800F0805011901648016821F4404182
:1018400041F4804101600068022400F4404011909E
:101850000120039010200490009406940820CDE904
:1018600007504620CDE9090407200B906846FEF793
:1018700097FF0CA90F2081E83100E0020F904FF490
:10188000A050109002210CA8FEF7C0FE13B030BD8E
:1018900040380240007000400548016841F4700182
:1018A000016003494FF00060803908607047000014
:1018B00088ED00E0FEE70907090E002804DB00F1CF
:1018C000E02080F80014704700F00F0000F1E020E5
:1018D00080F8141D704702E008C8121F08C1002AD2
:1018E000FAD170477047002001E001C1121F002AA1
:1018F000FBD1704710B5002821D0114B0022001FEA
:10190000196803E0814203D80A4649680029F9D1E1
:1019100052B11368841A9C4204D1006818441060C4
:10192000104602E0506000E0186039B102680B1AFE
:10193000934203D10B681A4402604968416010BDAC
:10194000140000201CB5FEF7DBFDFFF761FFFFF779
:101950004FFEFFF7BDFEFFF78FFC4FF6FF742046EA
:10196000FFF776FC0120CDE900040A22002311468E
:101970000DA0FFF751FC4FF4FA60FEF7ABFC00211D
:101980001048FFF799FA0020FFF7D2FD0E4D4FF4F3
:10199000C0444FF47A7621462846FEF797FD30463C
:1019A000FEF798FCF7E70000465053205445535487
:1019B0002C203430206C6F6F70203220736372657E
:1019C000656E7300381A000800180240F0B50B303D
:1019D000154D20F007010024144A0FE003688B42E4
:1019E0000BD38B4205D95E1A43184768C3E90067D9
:1019F00000E04368136002C004E0021D1068002884
:101A0000ECD12046002802D1286808B10020F0BDA2
:101A1000064A07481060074A121A22F00702C0E976
:101A2000002401202860D7E71800002014000020BF
:101A30007C00002078020020FFFFFFFFFFFFFFFF78
:101A4000FFFFFFFFFFFFFFFFFFFFFFFFFFFFFFFFA6
:101A5000FFFFFFFFFFFFFFFFFFFFFFFFFFFFFFFF96
:101A6000FFFFFFFFFFFFFFFFFFFFFFFFFFFFFFFF86
:101A7000FFFFFFFFFFFFFFFFFFFFFFFFFFFFFFFF76
:101A80009CB1398539C639C639E64A4842274227CA
:101A90005AE9EF9DFFFFFFFFFFFFFFFFFFFFFFFF83
:101AA000FFFFFFFFFFFFFFFFFFFFFFFFFFFFFFFF46
:101AB000FFFFFFFFFFFFFFFFFFFFFFFFFFFFFFFF36
:101AC000FFFFFFFFFFFFFFFFFFFFFFFFFFFFFFFF26
:101AD000FFFFFFFFFFFFFFFFFFFFFFFFFFFFFFFF16
:101AE000FFFFFFFFFFFFFFFFFFFFFFFFFFFFFFFF06
:101AF000FFFFFFFFFFFFFFFFFFFFFFFFFFFFFFFFF6
:101B0000FFFFFFFFFFFFFFFFFFFFFFFFFFFFFFFFE5
:101B1000FFFFFFFFFFFFFFFFFFFFFFFFFFFFFFFFD5
:101B200094705A8841E739C62944318439A54A2737
:101B30005268F77DFFFFFFFFFFFFFFFFFFFFFFFF83
:101B4000FFFFFFFFFFFFFFFFFFFFFFFFFFFFFFFFA5
:101B5000FFFFFFFFFFFFFFFFFFFFFFFFFFFFFFFF95
:101B6000FFFFFFFFFFFFFFFFFFFFFFFFFFFFFFFF85
:101B7000FFFFFFFFFFFFFFFF7E3265B065B065909E
:101B800065906590659065906D906D906D906D908D
:101B90006D906D906D906D906D906D906D906D905D
:101BA000659065B06D9065B0659065906590659045
:101BB000659065906D906D907590AE15BDD5BDB476
:101BC000840E6B2A4A484A27316541E64A276B2A28
:101BD0005AA8D678DEDAC6D87DD275D275D275D23B
:101BE00075F275F275F275F275F275D27DF27DF2CD
:101BF0007DF27DF27DF27E127E127E127DF27DF20A
:101C00007DF27DF27DF27DF27DF27DF27DF27DF35B
:101C10007DF37E137E338E740C68040603E603E6C0
:101C200003E603E603C603C603E603C603E603E6CC
:101C300003E603E603E603E603E603E603E603E65C
:101C400003E603E603E60406040603E603E603E60A
:101C500003E603E603E603E603C66CEEE71AC5D423
:101C600083ED526852686B4B42266B2A5AC97BAD92
:101C70004A47BDD4EF7CA61403C603E703E703E697
:101C800003C603C603C603E603E603E603E603E66C
:101C900003E603E603E703E703E703E703E703E7F6
:101CA00003E703E703E703E703E603E603E703E7E6
:101CB00003E703E704070C2804480407040703E7C5
:101CC00003E603C703A6038603A603C603C603C62B
:101CD00003C603C603C603E603E603E603C603E63C
:101CE00003E603E703C603E6040603E603E603E6AA
:101CF00003E603C603C603C603E65C6CA5129C8F0D
:101D00007BAC5A8942278C2ECE36BDB54A4773AC80
:101D10004A479490AD74955203A703C703C703E7DE
:101D200003E703E70386038603E603E603E603C649
:101D300003C603E703E703E703E703E703E703E774
:101D400003E703E703E703C703A703A703E703E7E3
:101D500003E703E703E70C08042703E703E703E6C9
:101D600003E603E733894BCA336903C603C603C6D8
:101D700003C603C603E603E603E603E603E603E65B
:101D800003E603E603E603E603E603E603E603E60B
:101D900003E603E503E603C603E65C6C94907BABC5
:101DA000736B41E642065AA8946F7BCD42064A887F
:101DB0005288944EA5329552038703E703C703E781
:101DC00003E703A664496C6903A603C703C603C6F9
:101DD00003C603E703E703E703E703E703E703E7D4
:101DE00003E703E703E723682B273B8803A703E701
:101DF00003E703E703E71408042703E703E703E720
:101E000003E703E72B07740A4BCA03A603C603C6FE
:101E100003C603A503E603E603E61C283C4B33A9EF
:101E2000442B23E8034503460326034603450325C5
:101E3000034503A603E603E603E674CFD698A5316F
:101E4000738B10C218C2294429032944210320E2BC
:101E50004A47AD73EF5CA5B4038603E703A603E727
:101E600003E703C733663B8703C603C703C703C63D
:101E700003C603E703E703E703E703E703E703E733
:101E800003E703E703E71B076BCA4BEB03A703E773
:101E900003E703C703E71408042703E703E703E79F
:101EA00003E703E733894B494BAA03C603C603C6BE
:101EB00003C603C603E603E603E6342A844F5289C9
:101EC0008C8F5C6C64EE2C4903A603A603A60385E5
:101ED0000B45034503C603E603E6134723473B6868
:101EE000632A10C210A152687BAD630B18E220E395
:101EF000522753CA2347236703A703C703C703C750
:101F000003E703E703C603C603C703C603C703E724
:101F100003E703E703E703E703E703E703E703E771
:101F200003E703E703E72B6943494BAA03A703E74A
:101F300003E703C703C71408040803E703E703E73D
:101F400003E703C703462B880B6603C603C603C615
:101F500003C603E603E603C603C62C29846F5B2A87
:101F60007C4E4BCB1BC913C8036503650365036532
:101F7000036503C603E603A603C60B4613474BEAF5
:101F8000634A10A118C2630AAD535AEA316420E2D1
:101F90004A474BEA13470B4603A703C71C090BE844
:101FA00003E703E703E703C603E603C703C703C763
:101FB00003C603C603C603E703E703C703E703E754
:101FC00003E70407040703A73BEB0B6703E703E7FB
:101FD00003E703E703C713E8040703E703E703E79F
:101FE00003E603C61387746D33C903A603C603C68D
:101FF00003C603C603E603C603C61BE7BE37B5D553
:10200000D6B885502C4903C603C603C603C603E6EB
:1020100003E603E60C070BE703E7648FCE989D32D7
:102020006B4B10A1630A736BAD3373CD734C3123CB
:102030005247A552D679A5930BA713E8650E3CAC81
:1020400003E703E703C603A603C603C603C603C626
:1020500003C603C603C603C703C703C703E703C614
:1020600003E703C603E623E963EA6CAC03C703E7AF
:1020700003E703E703E713E8042703E603E603C6E1
:1020800003C603C60B8643A9444A03A603C603C678
:1020900003C603A503A644EC4C8C54ACEF5BE73BB2
:1020A000EF5BA5D43C6B03C603C703A603C603C6F8
:1020B00003E603E6550D75913CAC6C6DAD5383EDB5
:1020C0006B4B10A15AA96B4B6B2B6B4B630A2923EB
:1020D0004A478C2EAD338D1203A7448C74EF5C6D90
:1020E00002E503C703C603A603C603A7038603A727
:1020F00003870BA70BE803A60BC70BA703A703C710
:1021000003E703E703E61BE8540B4CAC03C703C724
:1021100003C703E703E71408042703E603E603C63F
:1021200003C603C603850304034403A603C50BE6E5
:102130000C0703E703C624282429444BDF1AD6D909
:10214000DED9A5F413A7142914080C0703C603C687
:1021500003C603E603E603C70BC86C8EA553738B57
:1021600063CD8C6E8C0C7BED73CC7BAB83CB842DE1
:102170006C0D6B6CB5938D1103A73BEA9512642D22
:102180002BAA4C8C2429344903A7030533C92BA956
:102190000B463C2B5CEF0B474C8C5CEE0346034636
:1021A00003E703E703E703C70B6603A703C703E7D8
:1021B00003E703E703E713E8040703A603E603C600
:1021C00003C603A6038503040345038503A62C6AFF
:1021D0005D0E244903C603C603C6342AE75ADF1A34
:1021E000E71AA5D324293CAC654F3CAB03E603E6D4
:1021F00003E603E603C603E603C76C6EADB4B5930E
:102200001264230642E742A73A863A863AE732C783
:102210003B897C4EAD5295310387338929843B2815
:1022200012E65C6D3BA93409038613064C0B436A26
:10223000442C0A851AC60AC50B250B25032503461F
:1022400003C703E603E703C603A703A703C703E720
:1022500003E703E703E713E80C0703E603C603C637
:1022600003A50365138723871387038503A654AD4E
:102270007D0F3C0B2BC93C6A03C63429C657BE36BA
:10228000D6B89D510B86038503C603A503C52C4A0A
:102290002C6B3CAC44ED342A6D913BA9648E4BAA67
:1022A00002A402820A8409E309E309E30A243B0841
:1022B0003BCA3308748F4BCB03263B4810E23308EC
:1022C0004C2CADB474CF9593442B5C2C846F848ECE
:1022D0009D7233289D317CEF344A3429032503460F
:1022E00003C703E703C703C603C703C703C703C680
:1022F00003C703E703E713E80C0703C603C603C6D7
:10230000038503663B885BAB3B48036503654389F4
:102310009D53542D646E448B03C603655C0C4B6A5D
:102320007C8E3B48036603850385038503A53C6BD0
:102330003CAB550E54EE5CEE75900BC603A60365E0
:10234000030502A433686C6E5BCB642D438A23279C
:1023500002A403050306032603264BEA7C2E3B69F1
:1023600043CA8C2D640B8C4D53AA534942264A46CE
:1023700052A843697C0C63CB7C8F7CAF02A50346DB
:1023800003C703C703C703C703C603C603C603C601
:1023900003C703E703C713E80C0703C603C603A676
:1023A00003A6136719834A6731A43C090325224514
:1023B0002984642CADF5448B03C603A6544C53AB5F
:1023C000642C43CA036603650365036503A52C49B2
:1023D00003C70BA70BA70BA60BC70B8603A60B66A1
:1023E0000AC44BEB6C6D7C8F8CCF84AF7C6E134733
:1023F0000345036623C8546C7530544B5BEC440BA7
:10240000440B9CD06C0C6C2D540B3247214421247E
:102410002964438A846E746E9510748E02C50366B7
:1024200003C703C703C703E703E703C603C603E7FE
:1024300003E703E703E70C080C0703C603C603A57D
:1024400085909DB219024A4619023B68028419C45C
:102450001923640C7C6F4BEA0BC744AC740C6C0CF6
:10246000636A5C4C4CCD03662C0923E803A62C4A16
:10247000348B853095529552959395727D10953198
:10248000540C53AB7C2E7C0D840D7C4E7BCC1C08F5
:1024900003A603A614084CCD240954CDB5F45CCE94
:1024A0004C4B8D1053CB2BC913473AE83A0621C445
:1024B000632A4BEB6C6E646D648E540C02C503662C
:1024C00003C703E603E603E603E603E603E703E7E1
:1024D00003E703E703E70BE80C0703C603C603A5FE
:1024E000340943E929A418A121033B4802243AE80E
:1024F000742E6C8D84F04BEB1367754F8CF0951137
:10250000848F74AE5CCD1B675C6C33EA038703C7B2
:1025100003C7642C63CC5B6A7C8F53296C6E52E8D2
:1025200053EB7CAF953163CC63CC6C0D636B1C08B3
:1025300003A603C644AC650F2C497CEFD6754C2B23
:102540004C4BA5928C6E9D523BA932E72AA60A03FA
:102550005BAC0306038723E96C8E646E02C50366D9
:1025600003C703C703E703E703E603E60BC703E775
:1025700003E703E703E70BE80C0703C603C603A55D
:1025800003650B2521A4398418E23B290224438AE0
:1025900053EB3BC90B050305032513864C0B4C2B52
:1025A000448C342A5C4CCE77BDD5B615440B03C79A
:1025B00003C6750F84F08510853084F074CF7CCF0E
:1025C0005CCD442A542C7C6E94F08CF094CF23A8DC
:1025D0000B460BA6346A7D912C297CEFCE14546CEB
:1025E000444B842D5B09740D646E4C4C0B260365C3
:1025F0000366036603862C094B2A5BCC4C0B442BE9
:102600007DB17D916D707D916D305D2F75903CAC8D
:102610004CED03E703C70C080C0703C703C7038689
:10262000034502E419426AE818E23B0802643B8968
:10263000742E740D5C4C02A402C40325036503864A
:1026400003C623C7A511526839844A277C4E13C894
:1026500003E71B481B0733897CCE23471326132629
:102660002367650F3C0A3BEA33C93BEA3BEB2BA9E6
:1026700075102BCA342A54EE03C74C8DA5D4548D43
:102680001BE9340A23C82BEA2BE91BA9034503667F
:1026900003860BA724093C0A21643A684C0C8D92EE
:1026A0006D2F8591757095F35CEE5D2E550D5D0E69
:1026B0006D7003E703E70C070C0803C703A75CCDA5
:1026C0005CAD1326216410A118E33BA90305442B3C
:1026D0006C2D642C544B034513661B670BC72449B0
:1026E00003C6442A8C0E39A539C54226738C2BE9C2
:1026F0000BC7548D3C0A438A8C8E2B890B0513061D
:102700002B883BE92BA83389236812E6646CADD48F
:102710005C4C23682B894CCD03C7446B95314C8CA2
:102720002C0A1B47030603062B68540C43EA74EF7C
:102730004C2B1B475C6D64AD3A474B2A0AA50B87AF
:102740000B8714080BE71408140803E70BE70BE7E3
:102750000BE703C703C60BE70C0703C703C664CD2B
:10276000548D1B4629C518C2192333A903453429A2
:102770006D2E54CC0BA6448B8D5094F05C0C8CD0F9
:102780003BC953AA83ED4A476B4B4A48738B2BA92D
:1027900003A7134702C5540BA5922B89436A746E95
:1027A00063AB744D742D5BCB7C8E438B4B69948EE5
:1027B0002B6702E502E502E503254C0B4AC874AE1F
:1027C0005CCE4C6C02E602E65C0C94F123082347D5
:1027D00033A903060B064C0C640C644D0346032618
:1027E0000346038603E603E603C703C603E703E7DE
:1027F00003E703E703C60BE70C0703C703C64C8BCD
:102800006D4F0B0619427B6818C1338703240345BB
:1028100013A613E703853C4B7CEF63AB642C8C6FF2
:102820008D518510840D4A27840E5288738B2B8816
:1028300003A6032602C523477CEF12A54349742E45
:10284000638C7C4E7C0D638B844E434A3B698511BF
:102850001B670326030502E50326442B8CF03C4B43
:1028600003261B27B635951231C639854248ADF48B
:10287000D6F94C8D4C4C4C4C75306D3003A703662B
:102880000326034603A603E703E703E703E703C6BC
:1028900003E703E703E70C070C0703C703C654CDA0
:1028A0006CCE1306192318C118C13388034403657D
:1028B00003A503C603A644CC750F74EF546B8D704B
:1028C00054AC5C6D842D4A6873AC52A8738B2B6832
:1028D0001C083BE92BA81B2785103B2931C631E694
:1028E00031E631E63A063206320629E632E8540C81
:1028F0001B680366030502E502E5130733EA134686
:1029000003261BA885519D5241E65A4631A5B5F4D0
:10291000D6F954CE5D0F2C2A03A603A603C603C620
:1029200003660346034603A603E703E703E703C67C
:1029300003E703E703E70C070C0703A603C64C8C69
:10294000548C13053A0618C2190133A903440385B0
:1029500003A603A603C603C603C603A503A613A6C0
:1029600003A53BE98C2E52887BAC5AC96B6B2AE7D6
:1029700013273BEA23683B8A8C8F636B29442964C5
:1029800031C631E63A073A063A0631C56B6B8CCF51
:102990004C2C240903250305030502E502E523A8C1
:1029A00023C823E98530955241C5314331A4ADD4C4
:1029B000D6D954CE7D513C6B03A603C603C603C6CD
:1029C00003C7036603460B2603A703E603E703E7F3
:1029D00003E703E703E70C070C0803E703A6650E0C
:1029E000548B234721434A4710C153EB1B262388AE
:1029F00064AC4BCA5CAD0304036503E60BC62C292B
:102A000003A63C098C4E528883ED630A6B4A2AC6A2
:102A100002C402E502C543EBA532842E29A5422754
:102A200031A639E63A073A273A0639C58C2EA592DF
:102A30005C4C0B05032503250325030603053BEA30
:102A4000855123C97D30953239A541E531C5ADB3F6
:102A5000D6B854CE75714CCD03A603C603C603C6C3
:102A600003C603C603469E142BA803A603E703E789
:102A700003E703E703E70C07040803E603C603A61E
:102A8000034502E51102210210A184AE744D748E3B
:102A90007C4D534974AE0AE5036603E6446B8CB083
:102AA0002C2A3C0A8C4E4A276B2B5AC9632A2307CF
:102AB0000305130633C94BCB8C4F6B6C31C64226D2
:102AC00031E63A063A063A0639E631A5736B8CB020
:102AD00043CB030503250325032502E50305340A3B
:102AE000857123C8A5F38D3231A562E831C59D7289
:102AF000CEB7448C4C8C3C6B03A603A603C603C61E
:102B000003C603E654EEE73BA6550B6603E703E76F
:102B100003E7040703E70C07040803E603C603A65C
:102B200003650B05320618A1110233A803240B8597
:102B3000240824291C0803C63C8B6D50546C8CB0AF
:102B400043CA43898C2E4A27840E5AEA632A22C636
:102B500012E6646D85515C6E9D327BED31C63A069E
:102B600039E631E63A064207422731C683EDA573BE
:102B7000544C1B8703250325030502E503054C8CF4
:102B8000855113871B671B0729C639C631C633A970
:102B900013670366652F3C6B03A603A603C603C633
:102BA00003C613E8C6D8E73BD719346B04070406FD
:102BB0000406040603E60C07040803E703C603A69D
:102BC000034502E5112239E410A13BA902E50B659A
:102BD000444A3C093C4A03A60BE70C083C8B5C2D9D
:102BE0002BE93BCA946E41E631C531A5630A2AE759
:102BF00012A58D0F5C6D3BEB94D073CD31E642474F
:102C000039E639E639E6422731C531A57BAC951264
:102C100043CB0B0603250325032502E503051B878C
:102C2000442B1BA803051B2631E639E629A513060C
:102C300003260B6654AD4CCD03A603A603C603C6FC
:102C400003C66D50A67554AD342B8DF30C0703E607
:102C500003E603E603C60BE7042803E703C603A560
:102C6000034502E5110239C510A16C6D438A642D3C
:102C70008CAF52E884CF0AE503C603E603C60BA671
:102C800003C73C4A8C8E5288318529647BAB22C7AE
:102C9000234794F06C6D43CA9CF1738C31C5420696
:102CA00039C639E642273A0629A529847B8C953214
:102CB0004C0C032503250325030502E503051366D4
:102CC0003C4B13677D51644D29C5422631A5642CC8
:102CD000AE353C2B3C6C3C6C03A603A603C603E656
:102CE000244ABEB76D503C4BB656E73A65500407D0
:102CF00003E703E603E60407042803E703E603A665
:102D00000365030529C518C218E24C0A33E83C4A9A
:102D1000446B3C2A3C6A0B05034503E603E603C605
:102D200003C613C7646C9CD07B8C8C8F844E12E5D9
:102D300013069D936C8F43AAA5737C0E31C531E6B3
:102D400031A531C639E639E631853185842E9D9429
:102D50004C2C0B2603050325032502E503054C8CAB
:102D6000446C23A985108D1129A5394442059D5233
:102D7000CE9854AD4CAD4CCD03A603A603C603C7F5
:102D80009E34DF1AD6F9DF5ACED8CEB8C6D814088A
:102D900003E703E603E60C07042803C603C603A6FD
:102DA000036503051942318310C13BA9032503853F
:102DB0000B860B860BC70325034503E603E603E6F4
:102DC00003E603A623E964ADA5938D3033C9344AE5
:102DD0004BEB7D30546E3BEC4BEC43493A4742475A
:102DE0003A27424842483A27424832061A042328E2
:102DF00012E633E903050305030502E503053C2A52
:102E00004C4B2BA97D309D9231E610404A68ADB302
:102E1000CEB854CD650E448C03A603C603C6140871
:102E2000961496149E149E149DF49DF47DB21C4934
:102E300003E603E603E60C08040703E703C603A65C
:102E4000036503251942528610C27C6E438A4BAA41
:102E5000A5726BAB8D5102840345040603E603E6BD
:102E600003E603C603A50B4513260B0523A7340A67
:102E700074CF6CCE544D544D5C2C5BEC5BAA8C8FA4
:102E80006BCC846E7C6E638B84AF4B8A0A657CEF5F
:102E90004C4B0346032603460346032603462C09F0
:102EA00033C933888551955231E562C74226A573EF
:102EB000D6D854CD6D2F4CCD03A703C703C703E766
:102EC00003E703E703E703A70387036603E803C7F2
:102ED00003E603E603E60C08040703E703E703C67B
:102EE00003850B6629E5190221435C8D2C2A23C832
:102EF000648D4BCA546C02C4032403E703E703E662
:102F000003E603C603A6036502A41AC58C8E8CEFE4
:102F100094F1544C6CAEA5B4ADB474F03B4A6C0D56
:102F20005B8B6C2D5BAB5B8B6C2D4348132694D075
:102F30005C2C3C6C54AD2C0A034603460325032548
:102F400003051B47A5D49D7331E64A47216495527A
:102F5000D6D854AD652F54EE03C703C703C703E7A4
:102F60006570A676A676AE76A656AE75A655659021
:102F700003E603E603E60C08042803E703E603C6BA
:102F800003A6038533C9336733881BC703850BE763
:102F90000BE703E603C6034502A4034603460345C5
:102FA00003450325032533C943AA642D7BEC7C4EDE
:102FB000A531548D644C6BCC740D6C4D0AC51B2728
:102FC00012E60AE60AC60AA60AE60AE513878D3162
:102FD00064AE1C092C290BC703C703C703A703A7AB
:102FE000036703264C0C544C534A42A84AE9440B4D
:102FF000442B0B670B670B67038603A703C71C08EB
:103000005D4F346B44AD448C342B23C93CAC03E797
:1030100003E603E703E7140804280407040603E6AD
:1030200003A6038503240B05030523C80B86446A06
:1030300054CC1BE703A70345036603260346034658
:1030400003460346034623A83C4C4C6D9DF464CED6
:103050006D2F33CA75109DB39D92855002C51326FE
:1030600013060B0613670B46032603050AC543CA5E
:1030700023C903C703460346034603250325030567
:103080000326032602C602E51B2612C51B260B05D6
:1030900003050326032603260346032603667DB1A4
:1030A00044EDA655E73AE73A6D30AE158E1303E7C7
:1030B00003E603E703E713E8040803E703E603E690
:1030C00003A60385036423E923A7652F03A664AD44
:1030D0006C0C640C74CF0B06030503A603C603C671
:1030E0000C281C291C092449242924292C090B26D5
:1030F0003C2B54CD0B4643EA3BCA2B893BEA2B8839
:103100004C2B3BCA4C8D2BA93BEB2B687CEF3BA98E
:10311000648D7530753003872C2A6D303C6C2BE93B
:103120002C2A33EA23281AC62B69230723471326A0
:103130000305032503250325032503661BA8CEF9F4
:10314000C6D83C8CC6D8CEF94C8DD75A2C6B1428D7
:1031500003E603E703E70BE8040803C603E603E618
:1031600003C6038503C6244924083C8B0BC785107E
:103170009CCF8C8E84AF12C602A40305036503C6E0
:103180001C289E147550961385D285F29DF423A9B0
:103190007D316CCF33CA5C4D74CE95D285516CAE07
:1031A0004C2C648D7D0F6CAE64AD5CCD7D714C4C50
:1031B000546C7D2FA5F33C4C6D2F85717D717D7115
:1031C0004C2C7D307D516CAE8D516C8E4C0B4C4C2B
:1031D00002E502E503050306038602E57510D73A0A
:1031E000D7198E33550E6CEF9DF49E343CAC9E3453
:1031F0002C6A03E603E70BE8040803E703E604068A
:1032000003E603C603C60BE703A60BC654CC9D9288
:1032100074CE43AA440A53CB328719E44B684C0B53
:1032200003461C0944AC7CEF5CAD14291429240925
:103230002BC9240A13682BA923671B4613461B05B9
:103240002B882BA81B26230712E51AE62B68236878
:1032500033EA238823E903E71C484CAC8571648D6D
:103260007D713C6C0BA713872C0913872BE913C7BF
:1032700003660386036602A50284038603050B86A4
:103280000BA7142885F23C6BD7393C8B2C6A7570E0
:103290001C2903E603E713E8040803E703E603E653
:1032A00003E603C603C603A603A603655C6CAD92E2
:1032B000546C542C0AE54BCB32052184426774AF21
:1032C0001B87955084CFAD51748D654E244A750F80
:1032D0001BE91BA81BC87CF084EF8CCF74CF0324A0
:1032E00003650B85030402A453EB84CF84CF7CCF0A
:1032F00054CC6CED44AC0BE703E64C6CC6776C2DFC
:10330000B5D464CE444B54AD038603650385038571
:103310000385036602A402C502C6034502E503460F
:1033200003A603E60BC70B8613A7032503E703E7F2
:1033300003C703C703E713E8040703E603E603E64E
:1033400003C603C603C603C603A503A54BE98C0B3E
:10335000744D7C4D2B680A8529E529645287744D8C
:103360002BE9948E848EA4CF6C2C64AC2BE85C8CFF
:103370003C0A4C8B54AC8D30842D7BEC7CAE0364CA
:10338000036503040284026453AB7C0C844E742EE8
:103390001BC854EC6D704CEC03E73C0B642D4BCB1D
:1033A0006CCE346C24292409036603450385038508
:1033B0000385038602A402A402C5036602E5036630
:1033C00003A603E603C603A6034503450386036677
:1033D0000B250366038613E8040703C604060406E8
:1033E00003E603C603C603C61BE80BC65C4B9D1071
:1033F00084AE94AF33E98D514287218453098D7295
:103400005C8C8CCE951094F0646D33EA2BC93BA98B
:10341000034603850385440A7CAE9511AD947D0F68
:10342000855085108D1184F0ADB4A5935C0B33A944
:103430001306650F4CEE444B03053368B5F52B8935
:1034400003A603A603A6038653EB746E0325038528
:103450000385036502A402C502C5036602E603668E
:1034600003A603C6140713E703650345034502E5F6
:1034700002E503A703860BE80C070406040603E62F
:103480005D0E3CAB03C503A63CAB2C6934293BA9BC
:103490005C8D64CE1BE803451A8423071B27034574
:1034A0000345342A2C29344A346B3C6B5CAD3BCA4F
:1034B000850F7CEF440A7CEEBDB49CB194708C2ED9
:1034C0007BCD6B2A6B2A62EA5AC96B4C94F04C2C68
:1034D00074EF8CD07CCF8D317D10644CC615546D4B
:1034E000348B346B3C4A3C4A744DA5524C2C0386B9
:1034F00003650304030502C40AC503468DB2750FB4
:1035000003A603C64CCC54ED03C60365036603460D
:1035100002C503A703660C0804070406040603E6B5
:10352000961375706CEE6CCD6CCE548C5C8C4C8BA1
:10353000346A036502A402E52BE94C2B24090385B8
:103540001B861B8613A603A5242A64CEAD318C8E60
:10355000DDF0C58F848E7BEC31A429644A473A069E
:1035600052674A47528842064207212339C5A5526D
:10357000A5529CD0530A9D11A5D443CBADB54C2C7C
:10358000654F03C703A603A65C0C9D523BEB13C813
:103590001B680345030502C502C5036574EF74EE9D
:1035A0006CEE6CED6CEE5CAC6CCD54AC2BC903874F
:1035B00002E603A703860BE80C07346A4CCC4CCB1D
:1035C000550D0BA69D71A4CF9D515C8C7C4C542A4B
:1035D0004CAC448C5C4C5C6D3C2B1BC80B8603458F
:1035E000A592CE5574AE02E53BEA6CAE7BEC948DB1
:1035F000E56BDD4B840C630921642984736C4A47B5
:103600006B8C634A6B4B5AE9630A296429649D11E8
:10361000A5D47C8E5BEC7CCFB6151B2802A61BC9FB
:103620008591244A03C603C602C602853C6B4C6BD7
:103630005CCD032503863BA9544C4C6B546C2C2861
:103640008CAF9CED846E6CED9C8D7CEE442B44AB7A
:10365000648D6D2F3C8B0C080C073C8B550E4CED8C
:10366000550D0BC69571A4CF9531544B8C8E5C0AC9
:103670004CAC650D5C8D6CCE33AA036603640B44C1
:10368000D5ADE58B948C02642BA84BCB746D94CD97
:10369000E56BDD4A740B6B2A31842964420641E6EE
:1036A00041E639C53165294431644A268C0E94F1CE
:1036B0008CF1A511634BAD92ADF45C4CADF4440BB1
:1036C00075700C0803A703C75C4D95733C2B03452D
:1036D000034603C603C743CA74EE548C546C2C29AA
:1036E000848DA4AE7C8E74EEA4CE7CEE444B6D2E05
:1036F0005C6C6D0E3C6B0C080C2803C603E60406DC
:1037000003E60BC6648D4B073B4823C8128502C5F0
:10371000448A03C50324038502A5034613451325E4
:10372000CD4BE509946B744D7CAE53CBA5719CCE0B
:10373000DCE9CCAA4B686BABA4F1A4D19470944F94
:103740008C4E946F9C909C90AD129CD094F04C0C3D
:103750004BCB748E538B7CAF9D934BAAC656542C87
:10376000244A1408140813E8746DB5F64C4B03454D
:10377000034603C703C702E502E5034503042C49DA
:10378000540C4328438A1BE81B051326442A03A72D
:1037900002C503A603450C070C081C283CCB3CCCF7
:1037A0002C8A0BC66C6C9CAD63EB1AC6844D4B48DF
:1037B000544B2449448B3C2A1B88444B84CF7C4D7A
:1037C000CD4CDD29944A6BAB6BCC5BCC946E846E94
:1037D000AC6CA48C3BC912C5538A6BEC6C0D748E17
:1037E00095119D3284D09D3284907C6E4BAA2B68BB
:1037F0000AC66C6D6C8E5C2D7CCF642CB6156CAFDC
:103800005CEE550D2C8A2C6B6C4D9574236803452A
:10381000034603C703E733CA23671BC702E42C2808
:103820005BEA948D4BA9336794AD63EB4C8B340901
:10383000238803C703850C070C0744CC5D0D6D4F2F
:103840004CCB0BA57CCEA4AF742D2AC68C8E538A8C
:1038500043E964ED6D2F6CCE3BCA64CD844D7BCAC9
:10386000B46ABBA68BEA73CC63CC6C4C7BEC84CF84
:103870006C4E748E4C4B5C0C846E94CF648D4B8973
:1038800063AB73AB540B73AB7C4F94CE842C8D31F4
:103890007CAE7C2E7C4E8CEFA5103C4B4C0C74F017
:1038A0007D724CEF03C603A7030502A502E503A53D
:1038B000036503E603C64C0A5C8D23E70304240872
:1038C0006C2B942A5C2B54099C8D7C8E442A4C2AA8
:1038D0004C8B0BA603A60C080C2703E703E603C6D4
:1038E00003C50BA53C2922E50AE403051A6401E39C
:1038F0004409030503A603250B064C6B6C4D63EBD3
:10390000846D5B496C0D7C0D7C6E74AE9532542CCD
:103910002328236802643B884BEA4BA923270284AF
:1039200043094B085C0B630943095C2B542C5C6D09
:103930006C8F638C638B8C8E7C0C444BB5D584F17F
:103940009D129D9433C90366342A342B03A602A426
:1039500003C603E603250B0502C5038503052C49B1
:103960002B0722A5024402441A8412A53BEA02E472
:1039700003A6034503C70C080C271C4824691C0830
:1039800024690BA654AC7CAC4C091B25742C2AC6AC
:103990004C2A2BA72C4923C82BC9030613661346B0
:1039A00043C95BEB3BCA3C2B4C8C444C64AF4C4C46
:1039B0004C8C3C0A1B675C6D8D7212E602A40AA552
:1039C0007CAF9511540CA5726C6E542B54CE5C6D6B
:1039D0006CCF9D519D519D529510446C6D0F5C6D47
:1039E00074F07D115C6D03474C4C4C6D034502E552
:1039F00002E503C7030523A81B460BC602E42C29D6
:103A00004BAA7C4C33272306846C43A93BCA2C0960
:103A10001B8703C604070C0814084CCD75707D7015
:103A2000654E0BA6852F9C6C84EE338894AE53496B
:103A3000642B9DB3859164CF4C6D0284028402A4F3
:103A400022E843092B27234833692348548C3BCA77
:103A500033C93BE90305134633A9030603054C0CA0
:103A60008D308D517CAF8531955143EA03060306B5
:103A70002368440C5CCE750F95922C6A2C4A344B0B
:103A80003C6B4C8D9E13442B7D90654F03E60346A3
:103A90000AE503C603054C0A6D2F23870324240877
:103AA0007CADA46B646B544AACCD7C8D3BC95CACE3
:103AB000654E03E703E70C080C2813E70C080BE836
:103AC0000BE70BA5444A540A23870B0443491A66A3
:103AD0004C2A13450BC713660B2502A502C42327E6
:103AE00032A83A683AA7232702A502A5036602C5B1
:103AF0001B671B6702E502C54BCA3B683BA853CB5B
:103B00007CF074AE642C7D126C8E438A3BAB2B2907
:103B100043AA336A336964CE448C85929D52AD9337
:103B2000ADB49D72AD72ADB3B614A61403E703A78E
:103B300002E50346030513260BA702E40385236869
:103B40003347434812850A84432722C63BCA13A73A
:103B50000B6603E603C70C080C280BE70C070C07E1
:103B600003C60BA64C0A6C0A334712E56C2C2AA636
:103B70004C2A13250BC713260B6602A402A4334854
:103B8000298541E63185540C2B8943EA1B6702C421
:103B900003050B0502E402848C8E842B8C4C738904
:103BA000846D7C2C6BCB84AF6BEC6BED748F63EC12
:103BB000642E6C505BAD6C4E7590548C9D519D5134
:103BC000A55295725B4B744F5BEB5C6D03E703C6CC
:103BD00003A60305030513260BA60B250B452B8710
:103BE00043696BEA1AC61B4563EA33283BCA13A72D
:103BF00013870BE604070C070C085D4D5D2D44EBA5
:103C000013E60BA58D10ACAD846D3B279C8D63AB8B
:103C10005C0B8550544B757002E5028402A42AE7C0
:103C200029646AE831A45C0C3389646D2388030439
:103C300033E96CCE2C0912C6736B7BCC7BED636BC6
:103C4000740E6BAD638C6C0F5B8D5B8D6C0F5B8C3E
:103C500063AD73ED636C434902A423A84C2C6C8FB5
:103C60007D31857294AFADB3B5F59DB34CEE4CCDBF
:103C7000550E032503055C8D6D0E7D50440A240806
:103C80007C8D9C6C63EB53889CAC84CE43EA754F6F
:103C900085B04CCC03E704280C070C271C472C49A3
:103CA00013E60BA54C0B63EB33270A646C0C3B4902
:103CB0004C4B13452C092BC803A6030502A433085B
:103CC0002144290339A45C2C43895C4D238802E5F7
:103CD0000B056C8E642D322731A529A5298531A5C8
:103CE00029A629A629A529A529A629A529A529A561
:103CF00031A531A531A531A5536A74F033AA23A9A2
:103D0000548C750F646D648E4C0C5C8D1B678D71CB
:103D1000753003050305132613E723871BA7242803
:103D2000338863C922A612A45BA933283BEA13A7F0
:103D30001BA81C4904080C080C0703E603E603C68D
:103D400003C603A5440A43281AE70285538A2B4871
:103D5000446A03A602E402E403A6032502A43B2866
:103D600021435A6731A4846F9530AD7264AE02C5A9
:103D700002C56C2D6BED39E621642964298529651E
:103D80002964298529852985298529652985298504
:103D90002985216429642985634A6C2E2B88134761
:103DA0004C4B440B030503050305030502E56C2D8D
:103DB000644D0B0503060B0503A602E503452449E4
:103DC0002BA83B270A84028443281AC63BCA0365F2
:103DD000034503C603E70C080C27552E5D0D3CABCD
:103DE000244903A5850F944C7C6D3B489CAF742DF2
:103DF000542B75703CAB44CC03A654AD5C4C3B28B3
:103E000021645AC929648C8F8CAEA5105C0C030503
:103E10000B057D11848F422729642164298529851A
:103E200029852985296429652985296529642985A4
:103E300029851903214429A57BCC8D333BEB030550
:103E40002BA823A8032603260326030503057C8F3E
:103E500085310B05030564AD5CED3BEA4C8B4CAB47
:103E60007C8D948D5C0B4BA99C4A7CAE43CA754FEC
:103E700044AC448B552E14080C271C282C4A2C4A81
:103E8000142703A55C2B7C4C438912A58CAE5C0CDB
:103E90004C6B1BE8346A3CAB0346338823674369A9
:103EA00021C532273226955184AF84F05C6C1B67A4
:103EB0003BEA84AF7C2D3A06298531A539E63A06DE
:103EC0003A0639E639C6298529852985298531C5E6
:103ED00029852985298529A56349746F2B890305BF
:103EE00003050305238823A9030602E502E5440B25
:103EF000442C03060B061B882C292BC92BE93C8B71
:103F00004BA9844D33271AE6740B43893BCA23C857
:103F1000342A348A2C8B14080C0803C503E703C623
:103F200003C60BA53C0A22A60A8502A51AA50A8487
:103F30003C4A03A503A503450AC502E402E42B4855
:103F4000434943493B682B881B261B460B2502E54A
:103F50000AE57CCF8CAF420729853A0652A8424732
:103F60004A474A474A4731C531A5298542275AC998
:103F700052875AC9298529A56B8B7CD04C2C136795
:103F800002E51326B5D4A5B3338923680326036558
:103F900002E503050305030503A7030503452428DC
:103FA00023A822A5026402641AA50A843BEA0365D9
:103FB000034503E603C614080C0744CB44ED348ADA
:103FC0001C0703A57CAEA4CD7C4C2AE7A4AD84CE0F
:103FD0005C4C64EE446B648D0AE5030402E41B064A
:103FE00053EB53EC2B8802A402C402E5030502E55F
:103FF0000AE585108CAF422729A54A8852C94A474D
:10400000528842274A4742274A2729854A684A88D0
:1040100052C94227298529A56B8B94F13BCA030518
:1040200003050B06744E63CC8CF08D31546C0B86FB
:104030000346030502E5442B64EE4C4B136624084B
:104040006C2C9C8C53C94368AC8C746D3BC95CCCA4
:104050003C6A346A3CCC14080C27348B3CAB44CB10
:10406000244803A56C8D94AE748D1AA5948D8CAFE5
:104070005C0B3BAA5C8D64AD0B0502E402E4130506
:10408000542B53EB234702C402E402E502E502E5A8
:104090002B89744E842E3A06298529A531A531A590
:1040A00039E631A531A531A531A5298531C639E6D5
:1040B00039E62985298529846329744E236802E518
:1040C000030513469D519D3284B0748E7D7113A7F4
:1040D0000366030602E533C9448B442A23A7242739
:1040E0005C0B9CCE436833279C8C5C0B3BCA3449E9
:1040F000448B3CAB4CCC14080C2703E703E703C606
:1041000003C50BA5442A12860AA5028412433B6903
:104110004BCA02A402E4030502E402E402C402C49E
:1041200002A402A402A41B0723470AE6030502E532
:104130000AE5955194D04248298529852985298504
:1041400029852985298529852985298529852985FF
:1041500029852985216429647BEC9D72546D3C2A54
:1041600002C50B0674CF74EF84F07CF05CAE0B4696
:104170000345030602E5030503A6030403452428BB
:1041800023C70A23024302830A430A633BCA038606
:10419000034603E603E714070C07346B348B24490A
:1041A0001C2803A56C6C9CCF642B1AC6740B748DF1
:1041B000540B43EA3BE93409030402E402C4030458
:1041C00003041347234784AF94F1236802A402E554
:1041D00002E57C6E7C0D3A0729852985298529858C
:1041E000298529852985298529852985298529855F
:1041F000298529642985298563097C4E2B69030556
:10420000032502E55C2D33CA23885C2C540B548DA6
:1042100023E91B68030533C83C8C23A80B661C08E4
:104220005C0A9CEE4389332794EE640C3BC9446AD4
:10423000444A2C690406140704074CEC4CCC5D2E50
:1042400034AA03A57CCE9C8E7CAE1AC6842C7CAE90
:104250005C2C64AE7D5064EE030502E402E40324AA
:104260000B04644D8CD063AC4B2A2B6802E41B67B3
:1042700033EA8D1194D042272985298539E631E624
:1042800031E631E642273A073A07424831E631E65D
:104290003A2729852965298573AC9CF033CA032503
:1042A00003250B05544D2BCA3BEA7C8E6C0CA5D420
:1042B0007D306D100B26442B5D0E5C6C23C72408EB
:1042C0006C2C9CAD540A43679CCD748E3BEA4C8B9E
:1042D0006D2E4D0D040714280C0703C603E603C614
:1042E00003C503A5440A22C612C602641244334819
:1042F000542B0305030502E40304030403A502E4AD
:1043000002E5538A6BEC9D117CB02B88030502E516
:104310000AC584D0846E3A272985298531E631E69D
:1043200042273A0739E631E64268424839E631C663
:104330003A27298529852985634A94AF4C0B1B6749
:10434000032503054C6C1B670B262BC92BE91BA807
:10435000032502E5032502E503C6030503452428DA
:10436000238922A5026402641AA5128533EA036632
:10437000034503C603E61407040724491C481C2907
:104380000C0703A55C2B844C4B8A0A645B8A434967
:104390005BEB33C81B6723670AE403A5032502A46C
:1043A00002C56C8D7CAF8D0F748E2BA802E50305C2
:1043B00003056C4D844E3A0729A5298531A529A509
:1043C00039E631C631A531E631E631C631E631E6AE
:1043D00039E6298529852985634A8C4E2B68030592
:1043E00003250325032503250305030503250345AD
:1043F0000325030503252BA8344923A80B662408AD
:104400004BCA8C6C330722E6844B4BA93BCA2C0960
:104410002C091C4903E614080427550D6D4E652E22
:1044200034690BA58D0F9C4C84AE12A5842C6C2C8A
:10443000642C6CCE8D9195B20305032502E402C471
:104440002BA88D30959285707CAE544C02E5030507
:104450001B678D3194B04247298529852985298597
:1044600029852985298529852985298529852985DC
:1044700029852985298529A573CC9D113C0A032608
:1044800003250325032503050B2502A402E50345A7
:104490000325030603055C8C6D0E43EA1BA7240865
:1044A0007C8DA46B640B4BA9942B848E43CA64ED62
:1044B000652E552D040714080427040704070BE78D
:1044C0000BC603A5440A4B8A2367028422C622C76F
:1044D000540B0B050B050B0502A402C502C5030412
:1044E000030513260AE50B0513260B0602E5030553
:1044F0001B476C0D73CC3A0629A52985298529858A
:104500002985298529A5298529852985298529851B
:1045100029852985298529A55AE97C2D43CA33EAAD
:104520000325030502E502E502E502E50304034570
:1045300003050305030502E50BC7132603662429BB
:104540002B883B4712650A843B671AC63BEA0B85FA
:104550001387140703E7140804070BE70BE70BE7BF
:104560000BC603A64C0B63EB33270AA5640C434927
:10457000542B13260B051325030402E5030403043F
:1045800002E5030403040304030402E403040B052B
:104590000B0685108CAF42682985298529852985D8
:1045A000298529852985298529852985298529859B
:1045B00029852985298529A573CC9D113BCA030529
:1045C000030502E502E502E502E4030502E5032531
:1045D000030502E50305132613C7134603652428C4
:1045E0003BA96BEB22E612A5640B3B493BCA13A621
:1045F00013860BE603E70C080407652D654E44CCD3
:104600002C8A03C69530A46B84AE2B488C2D7C8EEF
:10461000642B7D308DB28D710AE50305030402E53C
:1046200002E502E502E402E402E40B0403040305EC
:104630000AC56C4E7C0D3A2729852985298529854F
:1046400029852985298529852985298529852985FA
:1046500029852985298529A5634A7C4D2B6802E592
:1046600002E50AE502E502E5030502E50345030567
:1046700002E502C50305648C6D2F546C2BE81C0702
:104680007C6C9C6B642B53A99C6C7CCE43CA754E8E
:10469000650E3CAB03E70C08040713E713E71C287F
:1046A00003C503A54C0B6C0B3BA90A8553EB2B28C8
:1046B0004C0B13461B672BC90AE5030502E402E510
:1046C00002C402C40AA433483BA9130502C4234709
:1046D00033A95C6D53CB322531C531A631A531A547
:1046E00031A531A531C631C631A631A631A631C6B4
:1046F00031C629A629A629C65B8A5C4D1B6802C45F
:1047000002E502C502A402A402A403250324036552
:1047100002E50AE50B051326240823880B66240806
:104720003BA963EB1AC612A55BAA33483BEA0BA66A
:1047300024091C8A03E714080C0703C603E603C612
:1047400003C503A543E94B681AA502843B4822C66A
:104750004BEB02E502E502E502E50AE502E502C4EB
:1047600002C413061A643B073B2722C51AC50AC3B5
:1047700023274C2C0B66230673CC73AC7BCD636B69
:1047800073ED6BCD5B6C740E63AD5B8C6C0E638CE8
:10479000638C73CD6B6B430A1AA512A5234802A440
:1047A000028402A40325032513671366038603A668
:1047B00002E5038702E502C40B8702E503451C28D6
:1047C0002BA8434812850A853B671AE53BEA0B662E
:1047D000034503C703C60C080C07550D54ED4CECFC
:1047E0001C080BA584EEA48C7C8D3328A532748E16
:1047F0005C0C85504C2B6CEF02E502E502E402E410
:1048000012E6A551D58CD58BD56BBCCC951143E95F
:10481000644C84AF1BC802E5742E6C0C740D5B8C69
:104820006C2F5C0D4BAC6C6F4BAC53CC6C4F5BACDA
:1048300063EC6C2E638A5C2C030574EF9571442B3A
:104840005CAD342A030502C4542B7D30346B0366FF
:1048500002C403860305546C75507D3033E923E8A8
:104860007C6CA46B642B4B89944C7C8D43EA6D4E1D
:1048700085906D6F03C70BE70C271C482469246AD9
:10488000140803A55C4B8C8D5C2B12A5742D2B0892
:104890004BEB23473BEA33EA02E502E502E402C4BC
:1048A0001AE5BDB3ED8AE529E52AC44A84AF750F40
:1048B000642C8CAE234702A4334933AA43CA2B4944
:1048C0003BCA3BA9234933A923282329336A332828
:1048D0003BAA33492B48236803256C4C846E2387FD
:1048E0001B47134603664BEA6C0C7C4E3B8A02A5C1
:1048F0000345036603051B672C0A448B1BC823E78B
:104900004BCA846D332722E6744C4B8A3BEA1BC7A3
:10491000446A2C6903E70C080C0703E603E603E688
:1049200003C50BA53C0A22A50A8402841AC50A8580
:104930004C0B02C4030502E502E50AE502E502E4C8
:1049400012C574AD946A94498C287BA9644C2C08D8
:1049500033E95C0C3388542C0B0503051B671326C5
:10496000030523881B6802E513061B2602C41B47A8
:1049700033C902A523873C291B46540B6C4C0324E6
:10498000238833C923C84BCA63CC6BEC3B890346ED
:10499000036502C502E502C5036503A603252428B5
:1049A0002BA822A50263026422A5126443CA0366EF
:1049B000034503E603E70C0704274CAC652E3CCB0C
:1049C0000BE60BA57CAE9C8D746C1AC694AF6C4D37
:1049D0005C2B74EE7D3064EE02E502E502E52B68A7
:1049E0003BEA33A93B273A652A044B292B475CADA8
:1049F00043EB0AA42B68440B03050AE503050305F2
:104A00002BC82BA93C0B9D525BAC8D11440B0AE5C6
:104A10000B050AE55C6D648D748D3346334623A81F
:104A20003BAA5C4D2B680A840AA50B460366034625
:104A300002C402C46CEE4C4B5CCD446A5CCB64EDAA
:104A4000746CA4AD5C0A43689CAD7CCF4C4B448A2B
:104A500054AC44CB24690C080C08346B44AC44ECD3
:104A600014070BA66C6D9CAE6C8D1285742C43895B
:104A7000542B4409752F5CAD03040305030423671D
:104A800043CA3B68640C7BAA62C7740D3AE77C2D6D
:104A900063CB02631B4733A80AE57D300B26032551
:104AA000548D5CAE64CE7C6E4AE8848F4C0C0AE573
:104AB00003063C6BADB3C48BE56CE54BD58C8CAE7B
:104AC0007C6E6C0C7CAF8CF0848E8CEF442B3BA8FE
:104AD0003368036554ED548C54CD3C6A3C695CEDFD
:104AE0005C0B948D43A933079CCF6C2C442A446AF9
:104AF0004CCC4CCB24690C280C0703A603E703C657
:104B000003C603A63C4A12C40AC402640A430A64E8
:104B10004C2B03040324030403250325030502A4EB
:104B20000AA5334853AB4B084B286BEC432952E89A
:104B30004B490A8413052BA833A985501346032536
:104B4000030503250B462B887D306CCE4CCD6D5074
:104B50005CEE652EADB3CC49E56AE56AE58B8C6DFC
:104B6000640C3AC84B295BEB42C763CB43AA43CAE8
:104B700023C903C603C70346036603A603452429C6
:104B80002BC91244024302630A240AC43CAB03C586
:104B900003C603E603E614280C272C693CAB2C4A19
:104BA0003CCB03C664CD9CEE6CAD12C5848E53CB5A
:104BB000542B4C6C544C442A0305440A542C546C1A
:104BC0002BE98C8F4AE87C4E6BAB63696BEC52E946
:104BD000536A02642B68544D7D3164CF0B055CCE63
:104BE00054AF3C6C13469571AD91ADB2754F14083E
:104BF000140824296CCD740A7BE97BC873E83B2830
:104C000012E653CB32C701E3020302230264030519
:104C100003C703C603E7342A4CAC3C8B13872C290B
:104C2000642BA4CD4BAA332794AD640C3C8A3C8AF8
:104C30003CAA348A03E60C070C2744CB6D4F652F42
:104C4000654E0BA67D2F9CAD850F12E6740C53EBC1
:104C50005C2C546D859264AD03051B67440C953242
:104C60005C2C742C8CAF9510848E7C4E846F846F7A
:104C7000742C436985108D52646D0B2643EA3BAA60
:104C80004C0C3C2C13478510A5719531648E03E7BD
:104C900003C703E603A60AE542E8328532854B687E
:104CA0004B8A640C63CB4B494B494B8A4B69648DEF
:104CB00064EF33EA03E744AC652E7D6F346B240860
:104CC000744CA4AD53CA3B68946C7C6E448B3CAB73
:104CD0006D8F2C6A04070C280C0703E603E603C754
:104CE00003C60BA63C4A33881326028412640A8545
:104CF0004C0B02E503050B25030503053389CE168E
:104D0000B5519CAF5AE94A48196522083A28420829
:104D10005AE973CDB5B4AD125C2C1B67AD92638CB0
:104D200094F16CAE1B262B0622452AA543C944AC40
:104D3000140803E603C61347AD52AD308C6E6B6AA0
:104D400052883A06424731E6424752E9842DCE3630
:104D5000BDF57CCF03C60346036603A6034624289D
:104D60002BA81A85026302631A6512E53CAB03C6E1
:104D700003A603E704070C280C2724692C6924499F
:104D80000BE603C65C2B844C540A0A64640C3B6932
:104D9000540B33C833C934090305030523489593DD
:104DA0007CAE742D52AA19870B110BB40B930A0A0F
:104DB0003A075B6B63EC746E3BCA1347646D4BCA76
:104DC0006C4D74CF6CEE42883A474268534A444B6C
:104DD0004CCD5D0E0BE713478D526C2D63CB5AE91A
:104DE000210219022964214410C139E673CC7C8E5A
:104DF00084EF542C03C72BE9342924081386240894
:104E000053CA848C332722E5844C4B893CAA2C4915
:104E10002C6A1C49040704280C074D0D6D4F3CAA51
:104E20000C0603A68510840C7C8D1AA584AE642C18
:104E3000644C6CEE6CEF95B202E5030502C402E52A
:104E400002643B2831E602F10376035603550395CD
:104E500009872A45024302C402E403050B054C2BD3
:104E600033EA02C42BA93A273A273A284A891AE694
:104E70003CAB8570448B03860387032622E631E62C
:104E800018E218E210A210A2190318E2536A0B05E7
:104E9000038603C703E754CD85717D713C8B2428BD
:104EA0007C6D944B6C6D4BA9AC8B7C8E448B5CED14
:104EB00085B1550E03E70C280C0803C70C0703E760
:104EC00003C603A53C0A43481AA5026422C60A8504
:104ED0004C2B0AC51326134602E5544B2B6A0305D7
:104EE00002C54369322803950355035503550376DC
:104EF0000A6D32C7028413062BA933EA644C74AEE0
:104F00007CCF3BCA2BA93A274269424842C8138743
:104F1000751095108D30548D0BA80B86236829A52C
:104F2000110210A210A210C210A119035BCB03251D
:104F300003A603A603C703460B870BA70366242813
:104F400033A943470A850A843B2823073CAC03E77F
:104F50000BC60BE803E70C280C0713E7140714072C
:104F600003C60BA64BEA6BEA33A70A64642C2B2812
:104F700053EA1B261B670B2613262BAA1B4802E5A8
:104F800002C53B0832280B750356035503550376BB
:104F9000126C32C802442B473C0A544C84AECE13E8
:104FA000AD945C4D2B89320631E731E742A81326D8
:104FB000ADD3CE34CE5574AF85716CEE2B2829A5B8
:104FC000212310A210A210C210A218E263CB034644
:104FD000038603A603E71387138813C813872428BF
:104FE0003BC96C0B22E612A56BEB334844AC13C8EB
:104FF00013E7140703C70C080C085D2F6D50650EEE
:105000002C6903A68D2F944B7C8D22E78C4D7CAEB2
:10501000646D8D716CCE6C6D7D3003063348A5B325
:105020008D106BEB424812AE0396035603760B7459
:1050300019A652E99510ADD3546D3C0B7CCF334883
:105040004BEC33CA2B4842474247426842A812A65B
:10505000A59173EB73CB7C6EA5939D314B294A27A9
:10506000216410C210C210C218C22124738B9D3259
:10507000ADF55C6D03E764ED750F4C8C3C8B24281B
:10508000846E944B6C4C53AA9C2B848E548C6D4F25
:1050900085B054EC03E70C080C070C271C68246946
:1050A0000BC60BA6540A640B2B270244436922C685
:1050B000542B13262BA82BA923A903453BEACE7812
:1050C000B5D39CF052A829E7128D1B741331220925
:1050D00042077C0EB592A4D07CCF3BCA544E7CD004
:1050E0008C8F64CE2B483A264247426842A80A85F4
:1050F0009D527C2E73CD642DB553B5938C8F4A6829
:1051000031A62164214429642964420783CDC5D393
:10511000BD937D1003E713A71BE81BE80B661C2853
:105120003BA95BEB1AC6128563EA33493CAC140811
:1051300024491C4A04070C080C0803E703E703C6CC
:1051400003C60BC6440943671B2602643B691AA6C3
:10515000542A0AE502E50B26032603C613884C6D84
:105160004C0B53EA748D6C6D63EB5BEC5BCB5B6A51
:1051700063EB5C2C438A43EB234833C93BEA7D0F46
:105180007CAE7D104C2B638B534A4B2A4B8A130603
:10519000746E5C0B4BEB2B683BCA23283B697C6E1F
:1051A0006BCC43084B293AA742C963CC74AE33A9F0
:1051B0003C0A23A903E7034603660B8603451C2824
:1051C00033C8434812A50A64434823263CAC03A6CF
:1051D00003C603C703E70C0804085D2E6D6F44EC9B
:1051E000348A13A68CEF9C4C7CAE1AC68C8E748EBF
:1051F000640C85506CCD4C4C44AC03C603C603C64E
:1052000003A6034503242B88540B43E933A802C3A8
:1052100002C402C402A403050305544C1BC803A71F
:105220002BC833EA54ACA5B243283B293B491B4762
:105230008D3095106CAE13470306238964AF646DFF
:105240002AE733483BEA1B47134613261BA803668D
:1052500003A603A603A754AD750F64ED3C4A23C70C
:105260007C8C942B642C53AAA4AC848E74EE7D4F5A
:105270006D2E754F0C080C290C071C482C692CAAA4
:10528000246A13C7644C7C6C43890A645BEB2AE78D
:1052900053EB234733C943EB3C6B03C603C503A55C
:1052A000038503650344234733073B281AA50243BC
:1052B000026302A402C42B482B6864EF344C3C6B9D
:1052C0003C0B3C2C1C29A593B5B2BDD37CCF542DEF
:1052D0009CF06B8B9D5233CA02C51B27748F540CF4
:1052E000536A6B8C7CAF6CAE6CCD6CEE446C03255A
:1052F0000345034503851BC92BC92C4A23E823A872
:105300004BAA846C33272307848D53CA4CCD1BE8EA
:105310003CAB348B0C080C29042703C6040703E6B6
:1053200003C603A63C0A228512A402641AC50A8594
:105330004BEB02C402E502E5032503A6030502E5E3
:1053400002C502A402840223020301E20222022314
:1053500002430A832B4884D095719D738CD18D10A4
:105360005C8D3BEB13A885316C2D748E5C4D540C19
:105370007C6E5B8A74AF33EA02E5240973AC4C0B94
:1053800043094A884BAA2B68230702C50305032655
:10539000032603260326032503A6034503C623A8E5
:1053A0002B482AC602640284228512C53CAC03C77E
:1053B00003E603E703E70C080C074CCC5D0D3CCB80
:1053C000346913E77CCEACCD7C8D1A8594CF644DC7
:1053D0005C0B648D544C43EB446B030502840284E4
:1053E0000284026302430A230202020202220243EF
:1053F00002641A84748F8C8E951094AF8CB08C8E4E
:105400002C0A64CE8D926D0F6D10444B23E89DD312
:10541000A6142BC90B870B4654AE6CCE84B0438ABE
:1054200063CC8C6F642D544C4C0B03050325032572
:10543000032503450346444A5CAC448B348A2387E6
:105440006C4C9C8C5C0B4B68A48C7C4D4C8C6D0E16
:10545000652E54AC0BC70C080407348A3CAB3CCB1C
:10546000348A1C076C6C9CAD5BEC12646BEB4B8A52
:1054700053EB33A94BEA4C0B4C0A028402830283A0
:1054800002C302A3028302830263020301E2022336
:1054900002630A6453EB5BEC640B74AE5C2D74AE78
:1054A00023696CAE8C8F9D307D11648E95939D1118
:1054B00094B06D1044AD4C4C6C4D2AC76C0E3369E2
:1054C000442B540C2B6802C402E502C403860385F6
:1054D00003A603A603C6346A346B348B2C6A236894
:1054E0005BEA846D438A33278C6C640C44AC344A89
:1054F0005D0D4CCD0C080C290407040703E703E6F7
:1055000003C603A53C2A1223026302630A24022471
:1055100043EA02A402A402A402A402A4028402E4B4
:105520000B242366238602E302C302230223022301
:10553000022301C21A24120409C31224124463EB89
:105540005BEC748F6C2C640C8D725BCA848F9D73C2
:10555000951184F095528CF16B8C11634AA822A6A8
:1055600003651BA8134602E50305030502C502E512
:1055700003050306032603260326032603052387C4
:105580002BC81244026402840A430AC544CC03C7F0
:1055900003C703E704080C080407348B3CCC2C89B0
:1055A000246A0BA66C6D9CAD644B0A64742C438911
:1055B0004BEA43EA440A23473BA90283026302C43D
:1055C0000B2523472BA943CA5BAA7C6E2AC602433C
:1055D00009E3116329C529C529C532063A0631E513
:1055E0003267951263CD9DB4A572ACEFAD31A59332
:1055F0009D11634B844E742D1903212319033286A8
:1056000023278CF184F033491AE70264032503054C
:10561000032503450366340A444B2C091BC71C08A9
:10562000642BA4CD4BAA33279CED6C2B448B4CAB45
:105630004CCC346A04270C0804074CCC5D2E4D0C6E
:1056400044CB24087CAD948C744C126473EB53AA45
:105650004C0B440B6CEF3BCA5C4D0264024302A34B
:105660000AE523473387438A5B6A7C4D2AE6022397
:10567000124421842144296431C631C631A52985CB
:105680003A676C6E4B6A63EC7C6F7C6D742D853071
:105690006C6D4B497C6E644E52884A684227534A6F
:1056A00084F05309536B7C70546D1B2723E913C797
:1056B00003A603A603C644AC4CCC448B3CAA1C28CE
:1056C000744D9C8B5BEA3B479C6C742C4C6B4CABD5
:1056D000654E552E0C280C28042603C603E603E667
:1056E00003C503A63C0922840A63026312650A44C7
:1056F00043EA028402A3028402840263024302A3F7
:105700000AC41B06234853CA738B846E32E7028493
:1057100009E22184214421642985298529A5298537
:1057200032676C6D94F1951195519DD39552851109
:105730007CD08D309DB32307A59394F08CB04BABF8
:1057400095317C2D848F740D540C43AA64EE448BE8
:1057500003C603C503C603C603E603E603C61C2847
:105760002BA92285026402851A6512C53CCC03E789
:1057700003E603E603E714080427244924491C48E8
:1057800014070BA65C2A7C2B540A0A4463CB32E82C
:105790004BAA3368338723062327026302A302C47C
:1057A00002A302A302A322E5328643691B06026319
:1057B00009E321A529A531A6298531C631C631C6FF
:1057C00032666C2D7C2E7C4D7C8F7551A5B38D324D
:1057D0008D329D938D920A853BAA336943493AE8FD
:1057E00053AA6C4D74AF6C8E43EB02A503A603C69F
:1057F00003C603C603C62449246924692428346ADD
:105800004BEA842B3B4822E68C4C53AA448B3C4AFF
:10581000346A344903E714080407550D756F5D4F6A
:105820003CAB1C0884CE8BEA7C6D12647C0B4B492C
:1058300053EA6C6C8D705C0A4C0A02C302E402C32A
:1058400002A302A3028333273AC643083B4902E47A
:1058500001C221A5298529A531C6298531C62985F9
:1058600032467C8F94D09490A5B3AE14ADD48D11F4
:105870009573B61595513BAA5C6D230653696BCBA6
:10588000434822C613050345030402C5034503C666
:1058900003C603C603C64CCC5D0E3CAB4CED44AC1A
:1058A0007C8D942B6C2C43889C4C7C6D4C8B64CDF4
:1058B000756F754F1C69140804060C07142714072C
:1058C00014070BC63BE93B481AA502431A840A0495
:1058D00043C90AC50B660B650B65030402E302C3EB
:1058E0002B873BC91AC463CB83EC840D744E0A2307
:1058F00009E321A42164296431A52985298521642E
:10590000322663EC849084D184CF85718D32532A02
:105910007CB07D5264D04C2DA572B4EDC4CAC50ACA
:10592000C50BAD0E3C4B03A503A50325032503C6FC
:1059300003C603C603C603E60BC70C070C072428DF
:105940002BC943680A8502643B271AE644CC03E767
:105950000BE70C0704070C0804070406040603C63B
:1059600003A50BA64C0A6BEA33070A645BEB32E72C
:1059700043A912E513860B650B450304030302C319
:1059800002840262026243093A253A864BCB024402
:1059900009E421842124214431E531A521642144F5
:1059A0003A674BAA6C0D744E84F08CEF7C4D955188
:1059B0008CF08CD0744DA5939D72CD6EE54AE52A8E
:1059C000DD49C5D03C6B03C603A50345030603E6CA
:1059D00003E603E603E61427140814281407242911
:1059E00043CA6BEB22E612A56BEA3B6844AB13E7B4
:1059F000140713E70C070C280C285D4E7D905D2ED4
:105A0000346A2C298CEF8BEA7C6D22A7840C6C0DF8
:105A100053AA74CE7D2F444B652E0324030402C386
:105A200012E6232712C45BAB73AB73CB640C026426
:105A3000022321E531C631C631C531E531E529C53D
:105A40002AE7540B5B4A6C0D9D529D319D108CF0E2
:105A50009572A5328CAE84AF8531848D8C8B948CFD
:105A6000A4AC846D4C2B4CCC346A0B66032603C665
:105A700003E603C603E65D0D656F3CCB650E5CED8A
:105A80008C8E9C0B6C2C4B899C4B84AE546B752E6E
:105A90004CAC44AC44ED0C080C071429246A2C6A65
:105AA0001C6913C74BEA640B2B2702443AE71A65BB
:105AB0004BAA12C523C81BE80B66032402E402A408
:105AC0001AE623261AC543093A253A6653CB0244FF
:105AD000024412442A6622441A652A861A653B4902
