:020000040800F2
:10000000285E0020C101000847160008C90D00083D
:10001000451600082B030008E51700080000000043
:100020000000000000000000000000003917000878
:100030002D03000800000000491600083B170008C7
:10004000DB010008DB010008DB010008DB01000820
:10005000DB010008DB010008DB010008DB01000810
:10006000DB010008DB010008DB010008DB01000800
:10007000DB010008DB010008DB010008DB010008F0
:10008000DB010008DB010008DB010008DB010008E0
:10009000DB010008DB010008DB010008DB010008D0
:1000A000DB010008DB010008DB010008DB010008C0
:1000B000DB010008DB010008DB010008DB010008B0
:1000C000DB010008DB010008DB010008DB010008A0
:1000D000DB010008DB010008DB010008DB01000890
:1000E000DB010008DB010008DB010008DB01000880
:1000F000DB010008DB010008DB010008DB01000870
:10010000DB010008DB010008DB010008DB0100085F
:10011000DB010008DB010008DB010008DB0100084F
:10012000DB010008DB010008DB010008DB0100083F
:10013000DB010008DB010008DB010008DB0100082F
:10014000DB010008DB010008DB010008DB0100081F
:10015000DB010008DB010008DB010008DB0100080F
:10016000DB010008DB010008DB010008DB010008FF
:10017000DB010008DB010008DB01000800000000D3
:10018000DB010008DB010008DB010008DB010008DF
:10019000DB010008DB010008DB010008DB010008CF
:1001A000DB010008DB010008DB010008DFF80CD0F0
:1001B00000F07AF80048004775180008285E002013
:1001C0000648804706480047FEE7FEE7FEE7FEE7F1
:1001D000FEE7FEE7FEE7FEE7FEE7FEE7C9170008D9
:1001E000AD0100082DE9F05F0546002092469B46D0
:1001F00088460646814640241BE02846414647463D
:10020000224600F041F853465A46C01A914110D395
:1002100011461846224600F028F82D1A67EB01080F
:100220004F4622460120002100F01FF817EB00097D
:100230004E41201EA4F10104DFDC484631462A4627
:100240004346BDE8F09FD2B201E000F8012B491E01
:10025000FBD270470022F6E710B513460A46044663
:100260001946FFF7F0FF204610BD202A04DB203A94
:1002700000FA02F1002070479140C2F1200320FAF9
:1002800003F3194390407047202A04DB203A21FAF7
:1002900002F00021704721FA02F3D040C2F120029F
:1002A0009140084319467047064C074D06E0E06848
:1002B00040F0010394E8070098471034AC42F6D3AD
:1002C000FFF778FFAC1B0008CC1B000870B58D1839
:1002D00010F8014B14F0030201D110F8012B231187
:1002E00006D110F8013B03E010F8016B01F8016B37
:1002F000521EF9D1ABB110F8012B04F00C048A1A8C
:100300000C2C03D0A2EB84129B1C08E010F8014BCC
:10031000A2EB0422F8E712F8014B01F8014B5B1E37
:10032000F9D5A942D4D3002070BDFEE770477047CD
:1003300070B5044600F004F90546601C02D004487C
:100340000078044400F0FCF8401BA042FAD370BDD2
:10035000B45700202DE9F84F00224FF00108032583
:100360004FF00F0E0B6808FA02F42340A3426ED13F
:100370004E68012E05D0022E03D0112E01D0122E70
:1003800012D186684FEA420C05FA0CF7BE43CF68DB
:1003900007FA0CF7374387604668A6430C79C4F325
:1003A0000014944034434460C668570005FA07FCC3
:1003B0008C6826EA0C06BC403443C4604C68022CAE
:1003C00001D0122C13D1D40800EB8404A346D4F836
:1003D000209054074FEAD46A0EFA0AF629EA060971
:1003E0000E6906FA0AF646EA0906CBF820600468A8
:1003F0000E7924EA0C0406F00306BE40264306608C
:100400004C68E4006FD53B4C266846F48046266075
:10041000246822F0030604F480440094364C3444EB
:10042000A446D4F808489607360F0EFA06F7BC43E0
:10043000324FB84201D100272EE0314FB84201D1EE
:10044000012729E02F4FB84202D1022724E04AE0D9
:100450002D4FB84201D103271EE02C4FB84201D1E5
:10046000042719E02A4FB84201D1052714E0294F8B
:10047000B84201D106270FE0274FB84201D1072724
:100480000AE0264FB84201D1082705E0244FB842C0
:1004900001D1092700E00A27B7402743CCF80878A4
:1004A000204E34684F689C43FF0300D51C433460E2
:1004B0001C4E361D34684F689C43BF0300D51C4357
:1004C0003460184E083634684F689C43FF0200D5EC
:1004D0001C433460134E0C3634684F689C43BF0293
:1004E00000D51C433460521C102AFFF43BAFBDE81A
:1004F000F88F000044380240003001400000024004
:100500000004024000080240000C024000100240BB
:100510000014024000180240001C0240002002406B
:1005200000240240003C0140426931EA020200D14D
:100530000904816170470AB1816170470904FBE7D2
:100540000148806870470000B45700200248816865
:100550000278114481607047B45700200B4810B5F1
:10056000016841F400710160016841F4806101603B
:10057000016841F480710160032000F063F80020FD
:1005800000F006F800F024F8002010BD003C024006
:1005900070B50D4D04464FF47A712878B1FBF0F038
:1005A0000A490968B1FBF0F000F0FAFB48B9102CD9
:1005B00007D200222146501E00F024F800206C6073
:1005C00070BD012070BD0000B4570020C05700204E
:1005D0000B4882B0016841F480410160006800F47A
:1005E000804000900648001F016841F08051016082
:1005F000006800F080500090072002B000F022B8A0
:1006000044380240F0B40E4B1B680C46C3F302237F
:10061000C3F10705042D00D90425191D072901D2AE
:10062000002300E0DB1E012606FA05F1491E2140E9
:1006300099409E40761E16403143F0BC01F0D3B87D
:100640000CED00E0064900F0070208684FF6FF03D2
:10065000184040EA0220034A104308607047000037
:100660000CED00E00000FA052DE9F0470E4605000C
:1006700065D0DFF81481D8F80000F7B200F00F0061
:10068000B04207D288F80070D8F8000000F00F00E0
:10069000B04254D128683D4C810712D5400703D59C
:1006A000206840F4E05020602878000703D52068D7
:1006B00040F4604020602068A96820F0F000084302
:1006C00020602878C0072DD0304968680839012893
:1006D00012D0022813D0032811D0096889070029F5
:1006E0002DDA216821F0030101432160FFF728FF83
:1006F000814641F2883A0EE009688903EFE709680C
:100700008901ECE7FFF71CFFA0EB0901514502D975
:100710000320BDE8F0872068696800F00C00B0EBAA
:10072000810FEFD1D8F80010404601F00F01B1421F
:1007300007D90770006800F00F00B04201D0012017
:10074000E7E72878400705D52068E96820F4E050FD
:10075000084320602878000706D52068296920F41E
:10076000604040EAC100206000F018F82168084AA3
:10077000C1F30311515CC84006490860064800688F
:10078000FFF706FF0020C4E7003C024008380240A3
:100790009C1B0008C0570020B8570020154810B512
:1007A000006810F00C02144813D04110042A0FD036
:1007B000082A0ED10F4C241F2268236802F03F0242
:1007C0005B0207D52068C0F38810A0FB010106E09A
:1007D000084610BD2168C1F38811A1FB0001002368
:1007E000FFF700FD2168C1F30141491C4900B0FB3E
:1007F000F1F010BD083802400024F4002DE9F84F54
:10080000040076D02078DFF838A3CE4DC00749D059
:10081000DAF800105046C1F38101012908D00068C0
:10082000C0F3810002280AD1281D0068400206D5C5
:100830002868800336D560680028E2D032E060681E
:10084000B0F5803F10D0B0F5A02F286810D020F46C
:1008500080302860286820F4802028606068A0B17B
:10086000FFF76EFE06460CE0286840F48030F4E79F
:1008700040F480202860F7E7FFF762FE801B6428C1
:1008800073D828688003F7D50CE0FFF759FE0646B9
:1008900005E000BFFFF754FE801B6428F0D82868ED
:1008A0008003F7D42078DFF8A08280074FF000099A
:1008B0003ED5DAF80010504611F00C0F09D0006850
:1008C000C0F3810002280BD19D48001F0068400240
:1008D00006D42868800715D5E068012809D111E001
:1008E000E068B8B10120C8F80000FFF729FE06460D
:1008F00005E020E1FFF724FE801B0228C0D828680D
:100900008007F7D52868216920F0F80040EAC10087
:1009100028600DE0C8F80090FFF712FE064604E0DC
:10092000FFF70EFE801B02281FD828688007F7D427
:100930002078000722D5824E844861696C3671B1F7
:1009400001210160FFF7FCFD074604E0FFF7F8FD19
:10095000C01B022809D830688007F7D50EE0C0F820
:100960000090FFF7EDFD074605E082E0FFF7E8FDA8
:10097000C01B02287DD830688007F7D42078400754
:1009800068D5DFF8BCB100270BF1380BDBF80000AD
:10099000C0000BD4DBF8001041F08051CBF8001000
:1009A000DBF80000012700F080500090684E3068AE
:1009B000C00510D4306840F480703060FFF7C0FD8F
:1009C000009005E0FFF7BCFD0099401A022850D8BE
:1009D0003068C005F6D55A4EA068683601280FD099
:1009E0000528306810D020F001003060306820F019
:1009F00004003060A068B8B1FFF7A2FD00900FE0DE
:100A0000306840F00100F4E740F004003060F7E7A0
:100A1000FFF796FD0099411A41F28830814266D86D
:100A200030688007F4D50EE0FFF78AFD009007E0FC
:100A3000FFF786FD0099411A41F28830814256D86D
:100A400030688007F4D42FB1DBF8001021F080511A
:100A5000CBF80010A069D0B3DAF800205146C2F3F9
:100A60008102022A4AD00228484607D0C8F860000E
:100A700000E03CE0FFF764FD04463BE04746C8F871
:100A80006000FFF75DFD064605E000BFFFF758FD7B
:100A9000801B02282BD828688001F7D4D4E90701ED
:100AA0000843A16A2B4A490802EB0141626A41EA04
:100AB0008211084394F82C1040EA01612048001F7D
:100AC000016001203866FFF73BFD044605E034E095
:100AD000FFF736FD001B022809D828688001F7D5EA
:100AE0002BE000BFFFF72CFD001B022802D90320DA
:100AF000BDE8F88F28688001F4D41EE00128F7D003
:100B00000868E26900F48001914214D1226A00F081
:100B10003F0191420FD147F6C071626A0140914294
:100B200009D1A26A00F44031914204D1E16A00F097
:100B30007060884201D00120DAE70020D8E7000089
:100B4000083802400038024000004742800E474209
:100B5000007000400000FFFF70B5040005D00025C4
:100B6000A56294F8510010B106E0012070BD84F830
:100B70005050204600F030F8022084F851002068E0
:100B8000016821F040010160D4E901010843D4E982
:100B900003121143084361690843218B01F400717A
:100BA0000843E1690843216A0843A16A08432168B0
:100BB0000860A069042101EA1040616A08432168C5
:100BC00048602068C16921F40061C1616565012048
:100BD00084F85100002070BD10B586B00446142181
:100BE0006846FFF737FB14492068884221D1134833
:100BF0000021026842F480120260006800F4801054
:100C000005900E481438026842F020020260006825
:100C100000F0200005904FF4607000900220CDE9B4
:100C20000101032003900520049069460448FFF762
:100C300091FB06B010BD0000005001404438024056
:100C4000001402402DE9F84F044690F850000027A8
:100C50001D461646894601280DD04FF0010B84F839
:100C600050B0FFF76DFC804694F85100BA46012859
:100C700004D002278EE00220BDE8F88FB9F1000F02
:100C80007DD0002E7BD0032084F85100C4F854A0FE
:100C9000C4F83090A686E686C4F838A0A4F83CA034
:100CA000A4F83EA0C4F844A0C4F840A0A068B0F5E1
:100CB000004F04D12068016841F480410160206840
:100CC0000168490603D4016841F040010160E06811
:100CD000B0F5006F606803D030B3012E24D040E03F
:100CE00008B1012E1CD1206B21680088C86006E085
:100CF00020688168890709D5216B0988C160206B4C
:100D0000801C2063E08E401EE08609E0FFF718FC9F
:100D1000A0EB0800A84202D3681C01D031E07DB3EB
:100D2000E08E0028E4D11FE0206B21680078087372
:100D300006E020688168890709D5216B097801736D
:100D4000206B401C2063E08E401EE08609E0FFF728
:100D5000F7FBA0EB0800A84202D3681C01D010E00A
:100D600075B1E08E0028E4D142462946204600F0C5
:100D70006DFC08B120206065A06820B107E008E0A4
:100D8000FFE7032706E02068C16880680090606D77
:100D900000B1012784F851B084F850A038466BE7C1
:100DA00010B5401EB0F1807F01D3012010BD4FF07F
:100DB000E02460610F21601700F015FD0020A061A4
:100DC00007202061002010BDFEE700002DE9FE4F46
:100DD0009146DDE90C629B468A46202801D32038E3
:100DE000C0B2224B00EB4000002103EB400001ACFD
:100DF000435C6354491CC9B20629F9D34FF6FF700E
:100E000006EB4601009200EA410200EAC6034946A9
:100E1000504600F02DF90025A04601275FF00004A0
:100E200018F8050007FA04F108420DD0012E15D07C
:100E300004FB069081B205FB06A0334680B21A4639
:100E4000CDF800B000F014F9641CE4B2082CE7D32C
:100E50006D1CEDB2062DE1D3BDE8FE8F09EB040158
:100E60000AEB05005A4600F055F8EDE75C1900085A
:100E70002DE9F0470E464FF4FA740746B4EB460FDF
:100E800000D90C46012251031F48FFF754FBDFF83D
:100E90007C90002204214846FFF74DFB4FEA1728BB
:100EA000204600F025FD05460020F9B205E000BF10
:100EB00005F800802A18801C5170A042F8D37000F9
:100EC000B0FBF4F1B0FBF4F704FB110857B10026B6
:100ED00006E0A2B20A2329460D48FFF7B3FE761CAE
:100EE000BE42F6D31FFA88F20A2329460848FFF7C4
:100EF000A9FE012204214846FFF71DFB2846BDE854
:100F0000F04700F08FBC0000000C024000080240D7
:100F1000CC5700202DE9FE43054651480C461646A5
:100F200041888D427DD2008884427AD2DFF83481B4
:100F30004FF40057002239464046FFF7FCFADFF82D
:100F40002891002204214846FFF7F5FA2A2000F0F4
:100F500017FA012239464046FFF7EDFA0122042133
:100F60004846FFF7E8FA002204214846FFF7E3FA73
:100F7000280A8DF800008DF801506D1C280A8DF8A4
:100F800002008DF803500123042269463748FFF719
:100F900059FE012204214846FFF7CDFA00223946C6
:100FA0004046FFF7C8FA002204214846FFF7C3FA7B
:100FB0002B2000F0E5F9012239464046FFF7BBFA45
:100FC000012204214846FFF7B6FA002204214846D0
:100FD000FFF7B1FA200A8DF804008DF80540641C73
:100FE000200A8DF806008DF807400123042201A98C
:100FF0001E48FFF727FE012204214846FFF79BFA0F
:10100000002239464046FFF796FA0022042148465E
:10101000FFF791FA2C2000F0B3F90122394640463F
:1010200000E01BE0FFF787FA012204214846FFF7A2
:1010300082FA002204214846FFF77DFA300A8DF833
:1010400008008DF809600123022202A90748FFF772
:10105000F9FD012204214846FFF76DFABDE8FE8341
:10106000B0570020000C024000080240CC5700207E
:101070002DE9F041154C1646069F62881D469042A8
:1010800021D2228891421ED263888219521E9A422E
:1010900002DB6288121A96B223884A19521E9A42BB
:1010A00002DB2288521A95B24A19521E93B2821953
:1010B000521E92B200F097F905FB06F13846BDE8E2
:1010C000F041FFF7D5BEBDE8F0810000B057002029
:1010D0002DE9FC479946DDE90A7892460D4604461B
:1010E00007EB47060AE0CDE900784B465246294611
:1010F000641CFFF76BFE05EB4600C5B220780028A4
:10110000F1D1BDE8FC87000070B5084C0546238886
:1011100062880021084600F066F961882088414312
:101120002846BDE87040FFF7A3BE0000B05700207E
:1011300010B500F017F900F005F9012000F0A4F94E
:101140004FF47A70FFF7F4F8CB2000F09DF93920C6
:1011500000F0B6F92C2000F0B3F9002000F0B0F94F
:10116000342000F0ADF9022000F0AAF9CF2000F001
:101170008BF9002000F0A4F9C12000F0A1F9302083
:1011800000F09EF9E82000F07FF9852000F098F942
:10119000002000F095F9782000F092F9EA2000F0A4
:1011A00073F9002000F08CF9002000F089F9ED209F
:1011B00000F06AF9642000F083F9032000F080F960
:1011C000122000F07DF9812000F07AF9F72000F07C
:1011D0005BF9202000F074F9C02000F055F92320BD
:1011E00000F06EF9C12000F04FF9102000F068F90E
:1011F000C52000F049F93E2000F062F9282000F0F7
:101200005FF9C72000F040F9862000F059F9362038
:1012100000F03AF9482000F053F93A2000F034F990
:10122000552000F04DF9B12000F02EF9002000F01B
:1012300047F9182000F044F9B62000F025F90820FD
:1012400000F03EF9822000F03BF9272000F038F949
:10125000F22000F019F9002000F032F9262000F009
:1012600013F9012000F02CF9E02000F00DF90F2017
:1012700000F026F9312000F023F92B2000F020F9AE
:101280000C2000F01DF90E2000F01AF9082000F0E3
:1012900017F94E2000F014F9F12000F011F9372071
:1012A00000F00EF9072000F00BF9102000F008F90B
:1012B000032000F005F90E2000F002F9092000F0EB
:1012C000FFF8002000F0FCF8E12000F0DDF800203D
:1012D00000F0F6F80E2000F0F3F8142000F0F0F81B
:1012E000032000F0EDF8112000F0EAF8072000F0EC
:1012F000E7F8312000F0E4F8C12000F0E1F84820E0
:1013000000F0DEF8082000F0DBF80F2000F0D8F83D
:101310000C2000F0D5F8312000F0D2F8362000F093
:10132000CFF80F2000F0CCF8112000F0ADF87820B5
:10133000FEF7FEFF292000F0A7F8BDE810400020CE
:1013400000F07AB810B5C820FEF7F2FF00220421A1
:101350000348FFF7F0F8BDE81040C820FEF7E8BFEB
:101360000008024010B500F04BF900F0D9F8002257
:10137000BDE8104004210148FFF7DDB80008024035
:1013800001B501231A4669460148FFF75BFC08BD19
:10139000CC5700202DE9F04107461C4615460E4665
:1013A0002A2000F071F8380A00F08AF8F8B200F04C
:1013B00087F8280A00F084F8E8B200F081F82B20C2
:1013C00000F062F8300A00F07BF8F0B200F078F834
:1013D000200A00F075F8E0B200F072F8BDE8F041C4
:1013E0002C2000F051B82DE9F04107461C46154667
:1013F0000E462A2000F048F8380A00F061F8F8B2EA
:1014000000F05EF8280A00F05BF8E8B200F058F847
:101410002B2000F039F8300A00F052F8F0B200F05A
:101420004FF8200A00F04CF8E0B200F049F8BDE8AF
:10143000F0412C2000F028B82DE9F0410746362075
:1014400000F022F80120FEF773FF0E4CF0254FF458
:10145000A0766FB1012F0DD0022F0DD0032F05D133
:101460005FF0E80000F02CF866802580BDE8F08190
:10147000482002E02820F5E7882000F021F8658068
:101480002680F3E7B057002070B50B4C05460022CC
:1014900004212046FFF74FF800224FF4005107487F
:1014A000FFF749F82846FFF76BFF2046BDE870407C
:1014B00001220421FFF73FB800080240000C02405F
:1014C00070B50546012251030948FFF734F8094C6D
:1014D000002204212046FFF72EF82846FFF750FF90
:1014E0002046BDE8704001220421FFF724B8000027
:1014F000000C02400008024070B50B44DDE90465B1
:1015000002445B1E521E9BB292B2FFF743FF0024BF
:1015100003E0305DFFF7D4FF641CAC42F9D370BD2B
:101520002DE9F04786B014216846FEF793FE304857
:101530000024016841F020010160016801F02001F0
:101540000591016841F080010160016801F08001AE
:101550000591016841F004010160016801F0040196
:101560000591016841F008010160016801F008017E
:101570000591016841F0400101600068DFF8748066
:1015800000F040000590002204214046FEF7D3FF02
:10159000DFF864904FF40056002231464846FEF7CB
:1015A000CAFFDFF858A04FF4C04700223946504622
:1015B000FEF7C1FF042000900125CDE901546946E2
:1015C00040460394FEF7C6FE0096CDE901546946F5
:1015D00048460394FEF7BEFE0097CDE901546946E4
:1015E00050460394FEF7B6FE06B0BDE8F087000053
:1015F0003038024000080240000C0240001802404F
:101600000F4810B50D4901604FF48271416000210F
:101610008160C1604FF400720161C0E90512C161CF
:101620000162416281620A21C162FFF795FA0028D6
:1016300003D0BDE81040FEF77ABE10BD0050014057
:10164000CC570020FEE770477047000038B50446CD
:101650001248134B0068B0FBF3F04FF47A73584311
:1016600000906068B0F5827F0DD10B460092002299
:101670008021204600F016F870B1606D40F0200027
:101680006065032038BD009830B1401E009020688E
:101690008068C0430006F6D5002038BDC057002042
:1016A00000366E012DE9F0411D4617460E460446F0
:1016B000DDF8188008E0681C06D0FEF741FFA0EBBB
:1016C0000800A8420BD255B12068806836EA0000B5
:1016D00030D00020B842EED10020BDE8F081206873
:1016E000416821F0E00141606068B0F5827F0BD174
:1016F000A068B0F5004F02D0B0F5806F04D120682B
:10170000016821F040010160A06AB0F5005F09D1D5
:101710002068016821F4005101602068016841F4EB
:1017200000510160012084F85100002084F850002D
:101730000320D2E70120CDE77047FEF707BF000086
:1017400030B593B030216846FEF784FD14210CA813
:10175000FEF780FD1A480025016841F080510160C4
:10176000006800F0805011901648016821F4404153
:1017700041F4804101600068022400F4404011906F
:101780000120039010200490009406940820CDE9D5
:1017900007504620CDE9090407200B906846FFF763
:1017A0002DF80CA90F2081E83100E0020F904FF4D2
:1017B000A050109002210CA8FEF756FF13B030BDC8
:1017C00040380240007000400548016841F4700153
:1017D000016003494FF000608039086070470000E5
:1017E00088ED00E0FEE70907090E002804DB00F1A0
:1017F000E02080F80014704700F00F0000F1E020B6
:1018000080F8141D704702E008C8121F08C1002AA2
:10181000FAD170477047002001E001C1121F002A71
:10182000FBD1704710B5002821D0114B0022001FBA
:10183000196803E0814203D80A4649680029F9D1B2
:1018400052B11368841A9C4204D100681844106095
:10185000104602E0506000E0186039B102680B1ACF
:10186000934203D10B681A4402604968416010BD7D
:10187000C45700201CB5FEF771FEFFF761FFFFF7AC
:101880004FFEFFF7BDFEFFF753FC4FF6FF742046F7
:10189000FFF73AFC2046FFF737FC0320CDE90004B0
:1018A00000231A4619460FA0FFF712FC4FF4FA6006
:1018B000FEF73EFD45F2B0710B48CDE900015C2317
:1018C0007A2232210020FFF717FE084D4FF4C04462
:1018D0004FF47A7621462846FEF726FE3046FEF77C
:1018E00027FDF7E7434E43000000002000180240A8
:1018F000F0B50B30154D20F007010024144A0FE01D
:1019000003688B420BD38B4205D95E1A4318476894
:10191000C3E9006700E04368136002C004E0021DF1
:1019200010680028ECD12046002802D1286808B1B0
:101930000020F0BD064A07481060074A121A22F03C
:101940000702C0E9002401202860D7E7C85700201B
:10195000C45700202C580020285A00200000000006
:1019600000005C0000000000060006000000287C6B
:10197000287C28005C54FE54740044201008440065
:101980002854542050000600000000003844000095
:1019900000004438000000000207020000001010A0
:1019A0007C101000C000000000001010101010008B
:1019B00040000000000060100C0000007C64544CEB
:1019C0007C00487C40000000645454544800445457
:1019D00054546C003C20702020005C54545424006B
:1019E0007C5454547400040464140C007C54545407
:1019F0007C005C5454547C00440000000000C4008F
:101A00000000000010284400000028282828280092
:101A10004428100000000804540800007C4454547A
:101A20005C007C2424247C007C5454546C007C4452
:101A3000444444007C44444438007C54545444009E
:101A40007C14141404007C44445474007C10101062
:101A50007C0044447C444400604040447C007C1052
:101A6000102844007C40404040007C0810087C0066
:101A70007C0810207C003844444438007C14141442
:101A800008003C2464243C007C14141468005C545A
:101A90005454740004047C0404007C4040407C00E6
:101AA0000C3040300C003C4030403C0044281028B2
:101AB00044000C1060100C004464544C44007C44FE
:101AC000000000000C1060000000447C00000000DA
:101AD0000001000100004040404040400001000083
:101AE00000007C2424247C007C5454546C007C44EE
:101AF000444444007C44444438007C5454544400DE
:101B00007C14141404007C44445474007C101010A1
:101B10007C0044447C444400604040447C007C1091
:101B2000102844007C40404040007C0810087C00A5
:101B30007C0810207C003844444438007C14141481
:101B400008003C2464243C007C14141468005C5499
:101B50005454740004047C0404007C4040407C0025
:101B60000C3040300C003C4030403C0044281028F1
:101B700044000C1060100C004464544C4400107C71
:101B8000440000006C0000000000447C10000000D5
:101B9000020102010000000000000000000000003F
:101BA000000000000102030406070809CC1B00081E
:101BB00000000020CC570000CC020008845100082F
:101BC000CC5700205C060000161800088007E77D4F
:101BD000E73DE75D0212EF0261081005EF7DEF7D42
:101BE000202110527D02327E0220089EEF9EEFBE21
:101BF000F7DF1C13EF7E0C21101004BFEFDF021281
:101C0000FF0612BF0240099EF7BEFFDFFFFFF70E7F
:101C1000311271023006BEEFDFF7DF1A20049EF7A3
:101C2000DF26E10132F7142009EF9EC659BDF8BE48
:101C300018024009C5F8BE19D6DBF7BE30110830CE
:101C40000EBEE75DCE9AC659C639C659CE9A02A0D5
:101C500006BAD6BBD6DB022005DEDBE73C02200558
:101C6000DF3CCE7A3C81605007C679ADD7B5F7022C
:101C7000110A12BD0241107009BE38C67AC67ABE7A
:101C80005A02627A021011C67BBE9BCEFCD75DB6AB
:101C900039B659BE7BC6BC021016DDCEFDCF5ED76D
:101CA0009FDFBFCF7FC71EC71EBEBCCF1DEFBFB813
:101CB000100E9FDF5ED75ED75FD73ECEDDCEBC0273
:101CC000B018DBD6FCD6FCDF5EE79EDF5ED6FDC635
:101CD0007AD71CDF3DE77EEFBEF232FF14100E9E76
:101CE000CE9B4ACD29C931EA31EA320A0210044BAF
:101CF0007C9418265D34101BC6598CD3534E42ACCD
:101D000042CC534E63B06BD063AF63CF63D06C10E3
:101D1000745102B01A3174307C317C3084718CB2D1
:101D20009D34A554A55595145B2E73F0DF3CF4103B
:101D300004D6ADD70212F70612D6F665023004D6E5
:101D4000B617E8A1F4127B0210129BBE9BC69CC67C
:101D5000BCCEFDDF5EB619B65AB65A121110100984
:101D6000C6FDCF3ECF7FD79FF4523FF4159230058A
:101D7000EFBFD77F0210065FCEFDCEDCF41006DC8D
:101D8000CEFCCF1DF41404BFDF9F08E008DCE79F02
:101D9000E7BEE7BEF41AE7002009F7FFCEBB42CD4D
:101DA00029E9F4110212E9F42016B5DF5DCEDBA5B6
:101DB000966BF042AB428B4AEC534E5B6F5B8F04E9
:101DC00013638FF6100CB06BF0741174316C116CDE
:101DD00010FE1008107C5184918CB202480AD37C0A
:101DE000514AED7431E77E443009EFBFE75DBE79BB
:101DF000ADB6F411F645EA55F221F465DA727B02CC
:101E0000329BE221F41008DDDF7EADD8B63AF4450E
:101E100008140DDDC71DCF5FD77FCF5FCF1FCFE881
:101E20001806CEFCE7BFF7EA31F410069FD75FCF64
:101E30001DF021024410FCCEFDD75EDF9FDF7ECF78
:101E40001DC69BD73DBCC9DA35CE14069EBE5A428C
:101E5000ACE842E902100D3A4B84B4BE5A532D420D
:101E60008B42ABF050042D5B4E02626FF610056B97
:101E7000D06BF10212F0021404D073F0EA1651ECA8
:101E800011F848076BD04AEC8CB34C7811F7DFDFC0
:101E90005EDF5ECE9AB5F7B618B618B5F8E279E807
:101EA00057BE59E8137AB60271FC21E215E81417FF
:101EB000E79FA5D8AE39AE3AB65BB67BB69BBEDD22
:101EC000BEFECF3FCF5FE690081FC71FBEBDC6FD59
:101ED000F415E83BCF1EDC31F485E82DEE032DDC54
:101EE00003D5E81E7DF4031404BFC67AE812C9F6D0
:101EF0002104500EE9320A6C12953542AC4AED537A
:101F00002E02524E0238086E5B6E5B8E5BAFE2199A
:101F1000E414076BCF6BCF73F0EA2231F64C0984DF
:101F2000925B4E4ACC9D552404B00DE75EBE9BE704
:101F3000BFCEBABE38BE39021E3838041717BE08E5
:101F4000F5E829D821021DC20313CEDDF41008B72D
:101F5000AE19A619AE3A021C065AB69CBEDDCA03DB
:101F600030043FBF1EF413DDC620B1F424051DC6A6
:101F7000DCC6E836FDE829DC0405123DC69BDFE837
:101F80001EFFE2031DE2042408BE3952ED31C839B8
:101F9000E4300A0A3A2A3A097C517C72F2122D0284
:101FA0004106624DFC15F021F8168FF211FC11F478
:101FB00011F6277C10EC5C097C5152EC4ACCB61827
:101FC000BE041C059B8536A60E0521E622B602112D
:101FD000E611E81618045238F42E39C20452B6023B
:101FE0003DD40335EA1BCEBB2280245DE7BF9DB7FD
:101FF0009DF88DD78DD795F89619A65AA69CAEDD7B
:10200000B6FEBEDEBEFEC71EC6DDC6DCDF7FF4192F
:10201000F2121EF482BCF41DD2031F7FD7E8041D08
:10202000C4051DC203C9DC115C19DC2019B5F873A5
:102030008F94B373AF52EC7BF0738E7BEFD6BB63A0
:10204000AF530D5B4EE814095B4E9D76BE7A6BD0A4
:1020500000360D0211FA465BF019E8226BF636EFF6
:10206000EC4C0A3074104AAB530DCEBBBE041007C3
:10207000AE188536D75DF4200559BE59B6E84E38FE
:10208000180651F6100618B5D7B619F21E599E0556
:10209000321902423AF82FC67A10041D6A04141944
:1020A000BF8D147CF34450344F347034D13D12450D
:1020B000534D755D967DF8B6F07007C6FDC6BCDF62
:1020C0005EF41A5FF680041ECEDDF41EE7DA061F0A
:1020D000E7BFCE034DFA06DDC4041DC4063DD6039A
:1020E00020118C30DEBAE73C9D34D6DBAD349CD277
:1020F000E73CE04DC6032F7431DC053007B61853BA
:102100002D4B0DF645EA226FF86663EC31F64C096B
:102110006BCF3A6B5B6FD71CB2056007BE9A9DF917
:10212000CEFCF431F665EA1C0C18BE37BE18AD962D
:10213000B5F8BE399006400739AE19ADF9AEF61DB7
:1021400006031FD6DC5E071D1204100BEFDF7410B0
:10215000534C42AB3A6A02180EAB3AEB3B6D338DEF
:102160003BAE64B2AE7BDA1C06FDC6BDD73E9E0711
:102170001EDFA80641F253FEC6F41DB80519BC3592
:1021800036F7DFE7E63DD4074C1ABEEFDEEFDEDFC1
:102190003CA534D6999D13B5D7DF1CBDD6AD33D63B
:1021A000BA42ABCA0315E61E5616037C061CE77E30
:1021B0007C72DE035DE403335B6FF4128FFC5C0E14
:1021C000AE6BAF63AE5B4D3A4A6C11DF5D1E051C12
:1021D000069EBEDCD73DD0031239F655E679E011F4
:1021E0000C1405AD96ADD7E4400A18AE18ADD8A5CD
:1021F000D8ADD8F81FBE59600428049DEF9D841CFB
:102200001A6BCF4AAA4A8A424942294A284A086B8D
:102210004D630B4ACB6BF0AE1ABEB0073EC6AE069E
:1022200011F41F1ED7C80527CEFEE623C6BBF41245
:10223000D7F42D52042DD6050E11F7920869E42427
:1022400016E75C9CD2BDD69CD3ADB6DEFCC5D5B539
:1022500032AD95428B5BEA19E0180BB619DF1DDE33
:10226000FCDF3DD6DBEC34040D4B0DEE25F249E6E8
:1022700049E821021DC00428073A2A84B3E77E3AC0
:10228000295C1D1C0850067ED6FBC6790222590225
:1022900029EA36C6042DC0062DD20513ADF8F0414B
:1022A000022C08F8B5F8E73DEF9EE0081EF7720330
:1022B000101D8B8E8A29820981E879E87A087A08CC
:1022C000826982498A499AEDC473CCD5D516021029
:1022D0001436E5F8E5F8D556D557D557DD77DD57EF
:1022E000D536D53608100C97DDD8E619F67AF6BB48
:1022F000F69A06A29A0212EE0231161359EE021C49
:1023000021DDB69C0FB5139C71AD55DE9AB4D1C4D6
:10231000F2B3F09AAC9AED9AEDA2EE93B0CE7ADEDB
:10232000BB7809300ABBEF5D94F44AEC4AED041A1D
:10233000EDE88E0ED4053E5BD8051C07428B3A4A69
:102340009D76F2071C04FFDF1C7E05100CBBC69BAC
:10235000D6FCC658AD75AD95021008B6ADB6B5B68B
:10236000B5D6021D84091D900811021FB6188A09EE
:102370005E59D605250C100A79DEFBF79EE71CE6B0
:10238000FB021008DCE6FBBB4EC08502326506107E
:102390000485C86502310A43C0A6022005C887C863
:1023A000A6023005C0A7C0C70212E702100DE8C0A0
:1023B000E8C108C108C928C928C1021D8D0641020B
:1023C000400449C149081102210E201828BA0AA365
:1023D000CDAC2F9C50BDD7DE9AAC4FCC2FB1C9C825
:1023E000E8C9073C1007B30EDE59D67902300A9AC5
:1023F000DEDADF1C636E4ACC0222CDF655F22DDC0C
:102400000535FC1DF2052C046AB6192A054FD71CA8
:102410007A072009D6FCB5B594B294D202339CF267
:10242000028004F39D1302100CA5549D348CD294A9
:10243000D394F3941827AD96E411F012DB02200F29
:10244000BBE69AD38FC824C023C844C864C0022204
:10245000440613C86410110222D0065264021245C9
:102460000225128365D002300586D086C80250044A
:10247000D0A6C80C11061404A6C8C710202549C14F
:1024800069C189BA6BA42EAC70ACD2B575C5F7B46E
:10249000B1CC91B2EDC20AC20BC1EAC129CB6FD651
:1024A00038D6F6500B99D699E73CADB74ACC42F4F2
:1024B00041F681023C094AED31E942ABCE9A4E0524
:1024C0002C043DCEDC420AD011D71DAD74844F8C54
:1024D000708C908C90949194B102100CD194D18C0A
:1024E000B17C0F84308450241C0B91D6DAEF9DE729
:1024F0001CDEFBDEC00B801CD6BABE37BBEFB88437
:10250000C024C044A92699C799C791E79987B0C547
:10251000D0A5C0EC410252650212850261F25285DB
:102520000222A60222C80645021010A6C9EADCD281
:10253000DD75CD33DDD5D5D5D61602441957D6581D
:10254000D638BD74CDD5DE78DE78C595DDF7CB4FB6
:10255000ABF0B5D6CEEA100999D6DBE77E6BD04258
:10256000F611F842CDF849EA25002C0942CC29C8D9
:102570005B2DDF1C10071D10081EBC1E0C20069BC7
:10258000D71DB5B5F011F212B00231E6310291FE5D
:102590001405840F842F181C0450B595CE0C10041C
:1025A0003DE6FCF2481EDAD6DAA61654CF5B4AA9FD
:1025B00026C065B8E67A89438A3B6A3B8A534A9AC1
:1025C00049C107EA0910F625D619F055DE49F61972
:1025D000FA400487C8A70223C0C70A282BD471C5B4
:1025E00073BD54AD12CDF5CDD5C5B4BD73B553B5DE
:1025F000749470734CB554D656CE16BD95D5D6A3EB
:102600002D52EA43EDA617DC1C05CE99D69AA803F5
:1026100040077A4AED42CD42F252EEF422EC061C1B
:10262000083A6B29C873F1E7B60511F42D16095065
:10263000089BCEDCDF3DAD95EA23F19C0249E032F8
:10264000F20C42D202168CE41C0594919CF35A0EB3
:102650001E7E9C0D14041CDF1BE6403EDA65111B38
:10266000EB74D0C534CC93CD14BD75A5548D329583
:1026700073A574C5D6C4B2CBF1D3D0D3B0CB90CBB5
:102680004FD32FCB0ECB0ECAEEC2EDC2EDBB0EC3A5
:102690006FC36FCB2FC2ADC28D0232CA021007C208
:1026A000AEC30FC34F0210202FC2EECACEC2EEC47B
:1026B00092CDD5A4B1A4D1BD93BD52B5329C6F6B60
:1026C0002B62EA52A95AAA121806D4A4D1AD54E832
:1026D0002008B35BCD1AE98533F015E8269AEA2B7A
:1026E0008CD4C811EA1ECD6E0D5C04AC4AACE2037A
:1026F0001DB4051C0529E88CB302081FDFE7F809A3
:1027000013D71D02A00A1EDF5E9D1394D29D1202F4
:1027100063A513022DDA032B9CF2F424059CD2D678
:10272000BAE611F219DC100DD6DAD6BA64F01BAA9B
:1027300053AC9C91A0100CB2A4B29C918CD19CB1D2
:102740009C9110300671A490A491022005B1A4B10F
:10275000AC021004D1B4B2022004D2ACF2023006B2
:10276000B4F3B4F2B40A23ACF302100EB4D3ACD376
:10277000ACD2A4D2ACD2ACB2A4421011B4D2CDB47B
:10278000A4D2A512AD11ACF0ACD0A4D1F42017EBBB
:102790004A694A697BEEAD729490AD75BD558BF078
:1027A00042EA1B097DF41C0999D679CE79D6BADFA5
:1027B000920E2D560B21F01F428C860C110211F83F
:1027C000110C1DA80B1C0409A5971E071C045EDF35
:1027D0001DE80A1E5D620C30127EE79F9D3394F265
:1027E0009D539D339D33A533A553025254022112AC
:1027F0001333A5F61C079CF2BDD6F7DE4C103A1C2D
:10280000DA1022DBDEBACEB964AF236A3A67A34D91
:10281000A947A9269166724851E551E56A27916654
:10282000A126A14602100867996799879986021226
:10283000870212A7026004C799C802700491E89940
:102840000262910212C8022008A791A7A3EEC594C4
:10285000F41023A4F0ACCFACB09C4F6B2B6B4D525B
:10286000AA4A6A632CAD538C50AD74BC728B2D4256
:10287000282B2A7D12EE11F211F420089AD6DAE7FD
:102880007DA576E611F81D9C062C053A2A320990A2
:102890000D2C0729A821A83A4AEC0F1D140A72DF53
:1028A000027008FF9D349513A574E8600554A57463
:1028B000AD0222540221F62FAD54341129D8300430
:1028C000E6FCE6F42C1AD6B984B04B2A9C70CC7185
:1028D000B8A5C824B863A883A884A0A4A0A4B8BE3F
:1028E0000511024005C988B0C50A210EA2C8025EC2
:1028F00045C605724502410C1365C0142005C0860B
:10290000CC10F41C0DA4F2ACD0ACAFA4B09CB07B46
:10291000EE120E2018718431632CA5338C30AD5427
:10292000C3F1BBF17BCE42EA8CF3CE59F63DC8042D
:102930002016BADEFBE77E5B4E29E829C829C821AC
:10294000A821A729A729A80A1C0729A84AECBE7A0A
:10295000D80EBDAE0E41F415E612340211F41DAED0
:102960000791F61C096B6C52CA632CC618BE041181
:10297000F241F411F61014BADEB9BDF6B554C574BF
:10298000D513B946C844C043C043062DAC06134313
:10299000C80AB007C844C187B905EA0121021DDE93
:1029A000061DD2063005D3EFC574F4A022F1ACD1D8
:1029B000A4B08C4F7C507C506C2F7CB25B6D9533F7
:1029C0007C70AD54B3F0C49373EE63CEADD6F41DFA
:1029D000BE051C1C5DBE1829A7218729A831E83A2D
:1029E00029428B530C638E73F073D0A556C67AB40C
:1029F0000EBDA20F1FAD967A072C04548450A00779
:102A00001DCE041ED2A20852940215FE1C072944B2
:102A10001903632C7409525DF261F41007BAC617EA
:102A2000D638CDF45C04C24AC0920711EE210222CE
:102A300023021C05C905C926A407124302724402D9
:102A4000526402A10C11102DD006610A5C2DC085C4
:102A5000CBCECDD4B554B574A5316C4E540D440CC9
:102A6000340C33EC33CC4B8D4B8D4C4E64F0BE1696
:102A7000CD75B51332472AC9ADF6AE0651F41C0D1B
:102A8000DEFCF7BE94D3843194D3A5555E091004BF
:102A9000F7BE18082C047673D01C0ECFCEDB961030
:102AA0001804BE389DD01F7C2FA8043C06F294B2B7
:102AB0008C91940961023C087429852945CE796E70
:102AC0000AB1F412E6F61C0BE6BABD33C512DB4EB2
:102AD000B8858C081E84AA07180483C063D031F619
:102AE0003DA40769CE1DA6080210D002124502516E
:102AF0000822C8042265F2102DC885D3AEDE56D652
:102B000078CE56748E1A8712671B2913491329131E
:102B10002A332C43CE2BEC54D0CE98DE788C502A1E
:102B20002723099595F46DA4071EBA66041EFB16AB
:102B30000B1C047EC639160E5D08101C04AD96BD34
:102B40002C0B2C07BE19ADD8C6BB7C0AA1F41DCE38
:102B5000031E7444115D920819DA91F668055AEB68
:102B600094D3D835E866FBE83019DE99DE788BAD72
:102B70008BACA3CDBB0BBB2BCBACCB8CCB8C99C67E
:102B8000A1A602100586A186A9021006B166B1664B
:102B9000A9021108200446A9260233B146021247B1
:102BA0000262460C1D06053347A92012A1221C29EA
:102BB000BC0FD636CDF6AD735C0C1AE8098512A8A9
:102BC00013291B091AEA434D43EE1BEC43ECBDD518
:102BD000CE777C0F2A071AE9C404640738D638CEAA
:102BE00058CEE811F61C05F79ED6FBF0111C12F822
:102BF000B5D8ADD7A5968CD484938CB47C739D77CF
:102C0000D80E1E7EBE0E2D9C151D7C132FF7DFA047
:102C1000075DBA0469D435EA1C09B595A5349CF35F
:102C20007BEFF01589D82EFC840915E4101A9ADE82
:102C300099CE17BD9593EE830AA3AD9A89AA07A2F0
:102C400088B2EAAAC9814402700C25814589458170
:102C5000658A0781850272860A12A502B008A689D4
:102C6000C689C681A602303885816579657165811E
:102C700045B42FD615C5B4A53253CB1AC812881A3D
:102C8000E913091309230A4B4E33AE1C0C64CFBE63
:102C900015CE366B4B220622679553C658D658F48C
:102CA000129AF41C0EBADEDADEDAE71CEF9E9D768D
:102CB000D75D74131C0EBBBE7A8D3584D47CD47C56
:102CC000B4B63AA0141C041DCEFDB4102EBBBE0F2A
:102CD0001FDF3D700B8004B1A553F24005B594B5DC
:102CE00095021C05842F31A6BE042E9E9607011264
:102CF000F41C08B532BD12BCB1DDD2032DC0041DD9
:102D0000740B2E63CC0429DC1DCA04180424D22AB7
:102D1000F4CE43BC054D920B0114022DA40A1DD420
:102D2000091006A5CBEFD5F4F41004114BABF41247
:102D3000C8F215E82417332C4B6E2B8D1C0C6CF04D
:102D4000BDF5CE16634B2A263AC9B616E8B2D6F4BC
:102D50001C05DEDBEF7DC01112DFF61C0EFDC6DDAB
:102D60007CB453B074B484F6AE3AA21412DCF62EDE
:102D7000FC7A151DCC1010065DBDF694D1F461F0FF
:102D800091F44C05A53384108808A5E81DB80512F8
:102D9000DAF41C0479CE166C083C08F1BCD1CD33B2
:102DA000CB4DB4054DC2041C0E42C822C822C043FC
:102DB000D023C9E8C8A5CE045DD404310A3102523B
:102DC000D004F1022D980C100624C064CC2EF4100F
:102DD00008939CF14BAB12E8F4280529130922DA79
:102DE0000014116D1BAC1C0C74F0BDD5C5F67BEE48
:102DF00029E66BEEBE17F41C04DADF1B18101C0466
:102E0000DFD75E7A151C0BDD7D165C336CB57D1645
:102E1000A6E0111DA8141DFA101EAEF811440BBE39
:102E20007BD73DBDF69CD1A533E861EE31023C0471
:102E3000B5BDD6960791F245E81DAA0611F42C0DF2
:102E4000D637B5538C2EA490D513DC30BA052DBEE1
:102E500004310225E625EC12A4DC0211230292249F
:102E6000022DDC04711031F41C2485D44FCDD4BD67
:102E70007394D043AA1AE8124613081B093B0B4B64
:102E80004D3B6D13CB23CB6C8FB5B4BDD57E0B10F2
:102E900005AEA534C6F47ACEDC41F23C07D6DADEC4
:102EA000FAEF5D62162C0E9FBF1E961A8DD97D78A3
:102EB00095D9AE9BD2134DE8112DDE131007CF1D0F
:102EC000C5F69CF2F439DE21EA71012C04D5DF1B32
:102ED0003A0E1DD80920041CDEFC0251F221F42D0B
:102EE000F4092C0C57A59343294267BD12DC919835
:102EF000083C0DC044A88488E4890490E4A8A4BCDC
:102F00000525BA76A5E8322402AD8E078E459807CE
:102F10004ED07A0E19FE1C05B906D4D1AC06123279
:102F2000F4A01F8A128709E51AE92B0A430C432DE6
:102F30002B6C13EB23CB746FB594BDB5424742A9FC
:102F40009DF42DB805210221F41EDAE20F1D1C1A92
:102F50001C17D79FAEDD859985997D778DD9AE7B7E
:102F6000B65BAE1AA5F8ADF99017240A1AB65ACE78
:102F7000FCC616A512E882B5F22C08B6B5D5B5D5B3
:102F8000CE78141A1DCC1A221DF61D7C122D440E6B
:102F900021021D560D2EDEDC0B1C0E377D112B89F8
:102FA000532AAC91B430BAEC440C20130DA34D83DA
:102FB000CD7BCD83AD9B2CC28BCA4BC26BC2043080
:102FC000040AC1E90232C9021004E9C9EA0A22A9C5
:102FD00002110A310821162007C1E9B9C9B98802CE
:102FE000C02BAA09C4F2CDD4C5739CD04B4911E5BE
:102FF0001AA71AE9332B4B2D332B236A13CA2BEA5A
:103000008531BD94B5743A88226784D1F489DE2D68
:10301000A61A1DBA171C0E9FA67B8DB99E3B85B8BC
:103020009E3AAE7B8E161C051AA5F9A5E2121EB6B5
:1030300098161D2C11100436A532F44694DD33BDCC
:10304000D5023C04F6BE17460D51F045E835E44E76
:10305000DAA8061D0E083C103874F01B4853ABA4C8
:1030600070ACB1B4B1BCD2440C2013F3BCF3B513B3
:10307000B513C4F2BD12B532C513BD12C50270043A
:1030800033C532028213022006C4F2C4F2BC0230FD
:1030900004D2B4B102202D90B470AC0EBD32B51183
:1030A0009C4F940D6B695AE84B093B0A4B0C52EB51
:1030B0005B4C5B6B5BAB5B6A8C6FACF28C0F3AA8C2
:1030C0001A877CF421F27358D6F471F61EFBBE12F7
:1030D00014089EA639A65BA65BE6200E9CAE5BA5F7
:1030E000F99DD9A5F995979DB8FC13B65AF41D58CA
:1030F0000C2AADCE52D6021C04F6B5F618031DB04C
:103100000591F049D851F21DC2041C2278CE5874A2
:10311000F023683AA7ACB0938C9B0B9986A92681C3
:10312000A65266424552456A26A186B12598072DCA
:10313000A407700787A9A7A9A7B102A006A9C7A9D4
:10314000C7B102111E71021DDA075C2B91E6C51191
:10315000ACD093ED940C93EB8B8B7B2A52CB52CB60
:10316000634C842E8BCD940D7BAC8C0EACF2A49171
:10317000322722877CB1D0032E782C110511EA1D4D
:1031800088161C1D6411643264328D36851584D511
:1031900084D484F58D158D3695769D77B619C6370E
:1031A000480C1E3490071DA01B3D14131C06D7C6E7
:1031B00079DF1C1011B25DF22D2A103EBBBE042E29
:1031C000998E081DBC101C103784D03B08942EC566
:1031D00033BCB1CC71B167D003100EA489657924DA
:1031E0008124A104B863C06304100643B863B883A4
:1031F000042D3A12426302111A4DAE067263026D3B
:10320000BE061C0463C863D0032C0426CCB1360F61
:103210001D540D5020AF9C4F632A4ACB62EC8BEEBD
:10322000944E9C4E9C6F948F8BEEB553C5547BCEC1
:103230003AA98CF2F4E279F41DC8041D9E081FEF30
:103240007DFA195C04EC3AAB40114D3C121DE61AB4
:10325000180963CF741194F4CE58CA1C0437C658A9
:10326000CA162E18901C1DE2151E96701E877EDF52
:10327000E686FBE42D82121DC20431F41D80158008
:103280001E52CDB4CD74C573C594B4D2ABEFA3EECA
:10329000A3EE936C8AEA9B0BABADB3CDB3AD02400A
:1032A00006BBADBB8DBB06710252C30253BBAE025F
:1032B0001C2B8DAB2BAB0B9AEB93AD840E73ED9463
:1032C000D0AD94949242894A695B0A740D842E634E
:1032D0006A43084B2A94B1BDB5C5B6C5560657BD5D
:1032E000D6E60110F42D880A1C04DBE71BCA041E75
:1032F0009D1C1F6D381F6D5E1F1D181F1805F7BE22
:10330000DEDAA81299022DBA1E21081C0479DEFC0F
:1033100010117E3DCA035DB8042D1C0533D6B96279
:1033200021F21C1058CE37CDF6C594C5B4B573BD87
:1033300053B59466051D0B054DBF031DC303100552
:10334000E612E61A0250051B061B2602C006271BC2
:1033500027234702B32B68122005272306223410A7
:1033600004071B073C1018E732E93A893A494248FA
:103370003AC812C612C60AA60AA612A68512EE12EC
:10338000750211F48DC4043D3C106EB9D4037D9ECA
:1033900008BE5C2D172DAC1F2DEA1F1DAE1F2C057E
:1033A000F7DECE7898061DA4061D7C092D460E2753
:1033B000BDF7169DBC041D92072D181162D6F2466A
:1033C00079E61007CE37D617C5D502101074BD5355
:1033D000A573434912450A04020302430210044440
:1033E000026404122302F243027244084102810A79
:1033F000211A1006240A2402240A100E2412263A46
:10340000693A09328929E62A26121C0A0509E40AC2
:10341000251A67851260060114F4D299F43DB406AA
:103420001007F77DE6FBE71B02721C021D9A171FAF
:10343000EF7D7C0A100690946F840E021C062E8489
:103440000E8C50F604667EE462D6F40212BAF435AD
:10345000EA1010D6BDB58CF13AE82A873AC83AC8C6
:1034600011E4B421F21284F6C1EC526302811252CB
:10347000640E213041025263FC11F21C142A682AA6
:10348000282A6812471A261A250A2509C41A06325C
:10349000A20618053AA87C4FD8C695E8D2D6F46D96
:1034A00094091804E73CFFC67118629902100DDEFA
:1034B000DABDF6A4F2A4F18C4F83EEF41E2F7C0942
:1034C0008E7DB0051D08213EFBA421E1F4140457B4
:1034D000D657E8701237CE17CE17CDF6A5129D112C
:1034E000538B22053246F45264F4021623F4080783
:1034F000110A2322C60A230C1223F2100C252A27B4
:1035000031E72A481A260A4602601245024509E4B4
:103510001A26220632467C0E94D1BDB5F4A2C6F41A
:103520002D680C81E06D9E0818049DEF7DF6610208
:103530004D0403100599DEFBBDB41C0BA51194903E
:10354000840D8C6FA513961999D811F42D9622C568
:103550002C31F411F22E58D803280EDE58D657C558
:10356000F49CB053291A0422826805240A650AB61D
:103570000514E819F4AC0C22C65B8A94D0740D2AA9
:10358000860A000335E410051A252A0702200828B8
:103590001A2712250A4502301102450A2512051A7A
:1035A000253A877BCD9CB0BD94F43C04B5C5F7C6E5
:1035B000045DDA176D800A81F42DC0051C05E71C37
:1035C000FFDEB214A1F425E81C10FBC5D6AD12AD88
:1035D000329CB08C0E9490CE79CA038DBE0445E621
:1035E00089343E9A5C152DD0031C0478DE7962176D
:1035F0001298F01C0CB4B512A4F1738B4AE80A04BB
:10360000D0031D9003140722C71A8722C7F00117A1
:10361000F4B00E0A03536ABD948BEDB512742D12EB
:10362000F41C0D0A241A2621E629C729E71A07786F
:103630000A10066622662AC8F42265F61C090A24C6
:103640002AA76B8C9CB136121C08F2BD74C5B5C597
:10365000D65E033E3894083DC6195D740BADCA04AE
:103660003D520F3FF79D8A0411027D78062004FB2E
:10367000C5F6F429DE15E61E1BB005E8073CD71C8D
:10368000D71CD6D88D160339261C0BDE98CE16AD66
:1036900032AD12B55276172C0873A531746E0A0339
:1036A0007E04120AB81807438B4BEC1265D829D058
:1036B0002DAC03A2840258110A64126494F0946F32
:1036C00039E5736BAD5233070429F0240B2422250E
:1036D00021A529A629E722E411E610065BED853134
:1036E0001AF01B02653E1C0645438BA57364051D3D
:1036F00022141C099C90A4F2C5D5C616C8041E3716
:10370000FA142D8E096D980895EA3D3C111C061C93
:10371000F7DEDEDB06035D940B49DC1FDED82018E4
:10372000201055D655CE36CE97DF3BD73CCF3BCF7A
:103730001B023808D71BD6FBCEFACE2691021C0CF2
:10374000B9D6F9C698AD94A4F1A4F1A6061C0EB49E
:10375000C5D4C5D5BDB4AD7284AF09E3B6053DA2ED
:10376000033C071AA61A8622A6C40381EC43A40AC6
:10377000021284027C0D645B8AB5737BEDAD328CE2
:103780006F12C204300F0A441A051984216421A55E
:1037900032A81245121C08452AE733081A66CA05E2
:1037A0003DCE051C044BECA5EA0E1C04BDB5B51CB2
:1037B0000C1C05AD539CD182161ED5D6032258028F
:1037C0001C04CE79C6720769D653CEDAB81FFAD672
:1037D000880A2C04D6DBC606178D600812DBF4209D
:1037E0001554CDF3A5B2544B4C4C54AE5CCF54AFF2
:1037F00054AE54CF5C026007AE54CE54CE5C02127D
:10380000EE027010CE650F5CCE442B4C2B546C5CDA
:103810008C5CAD0260088C4C4B1B261346021005D5
:103820001B67238708600466138602521B0210136D
:1038300013871B671B473388646C74EE74EF3B6817
:103840001B4710136713041011234722E722C722D6
:10385000C72B294CEE0B470B4602124708200427C2
:10386000136808100913481368342B54EE98100895
:10387000CE5CAE5CCE64EF9E10048D4C2C92300674
:103880001064F065100210093065306D516D51659E
:103890000211082C10526D7275727D9385F585D4D6
:1038A0007593B698760D3DEC041E79240D7C0A972D
:1038B000D613CE126C8C0A8334066102A994C2A47A
:1038C0000215B61008C40AC402C402E40232E506B6
:1038D00031026006030503050B0262250230060370
:1038E0002503450B022203CC5102B00703460366B1
:1038F00003661020064603670367F2310C11F69346
:10390000032702A20602600502E602E608210C82F5
:103910000A022006E70AE70B0702113621083C06D7
:10392000280BC985D364081D72091D7409200DBBBD
:10393000E696D612B5704BA90262020159A0D102D7
:103940000213430292630232830441020213A30270
:10395000D2C402654061121004A50285042102123E
:10396000C502B2A5021004C502C602C114328530D8
:103970009285025265026004850286181C0B0A8635
:103980000A8602C60BA8750FAA052D8E1A2C1934AB
:103990009D35B5F7EF19E6B5E6B6B6330A4301E251
:1039A00009C209C301C3019A030114FC0D105A098D
:1039B000D6630402138302692A09123A8112D2855E
:1039C000D241B812A60232A50681DC81E0011802BC
:1039D0001DD8071DE6062DF605902CC5136784AE8D
:1039E000B48EACB0736D62F06B728CB6EF1AEED61B
:1039F000EED6CEB61A231A043A6753095B4B32A7A8
:103A000012040A2401E3F8F6030661E68D1003EEC2
:103A100063A2050D171C03C11A21E4211885B8768D
:103A2000A5B661F412860296A6CC011FF414390AD9
:103A300045120522674B2A536B32E80AA61BC8A51C
:103A4000D1CD50BCF0942E6B0B422A634FF73AF65F
:103A5000D8EEF7CEB6326542675AEA840FA53394A2
:103A6000D13287020301E3F0410121F2810A91F88A
:103A70003F12C5480C31021DE2032006E513061370
:103A8000260210060AE50AE50B0C5DA2041A47ACF3
:103A90000116F2B685E841E421E289AA52860221A4
:103AA000F49E656E04C5D84664DA420A061DC6084F
:103AB000101D3AC97C508C91842F73CD438B2BE918
:103AC000CE55DE55DE34D614CDD3B531B553F42002
:103AD0001AF8F6F8E718634A630A8C30B5B6AD9663
:103AE00073EE4B0A09A301C201E2F4410671FAB573
:103AF000EE3312C5F22D360D1F260A4E0D31E6218A
:103B0000021004671327FC2606042DA80551F409AA
:103B100010DA691881C87E858E03E1F45286F24D71
:103B2000940CCD7005211229CC49D4203A2501E40A
:103B300011C4534B6B6C9CF2B5B5AD7574704C4CA5
:103B4000D6B7DE97E697E676DE76DE56E6B8F73944
:103B5000EED7EE96DE76948FB5D5BE1794F2740F3D
:103B60003A484AA91183F4610255E2FDE6031D605B
:103B7000083D380E3009130612E60AC50AC5E611DB
:103B80000235F2110A14040B060AE22104B1DEAD7B
:103B90000203C1BA8D8204A9AA81F4021B44023D2A
:103BA000C2031D860D1C0A0409C421E552CA5289AC
:103BB000B41E101095CE79B6177D11DED9DED8E689
:103BC000B8E698F8140777E6D9EED8E6F8B0159479
:103BD0002E62E98C9073CD636B6B6B52474A8809F8
:103BE0006201A2F489DCD9E09DDA034DDE034DC801
:103BF00005C1DA41107D06073806124422C712A813
:103C0000620AEE65AE0D108A0441F4021766F29264
:103C100024024204021C0509A421A59C201C068A3A
:103C20006B4C73CD1422100AB5BE57D637DED8EED2
:103C3000B8F625EE141AD9E6B8DE35DE35B5116BC7
:103C40004A5B4A632A6B0A5A675A6832050161E87F
:103C500075EA29E215EE0C0413030A03D405CDC25C
:103C6000067264F40511D2114615D0BC0F2AA77C48
:103C70008F43490A2412445C2B12A5440FDE647A58
:103C8000059264F4021745EE61EC22E4F61C1B0178
:103C9000E401C40983428952A9630B83EE6B8C6BE8
:103CA000CC94D1A4F2D636DE57FE1B100A36D615B8
:103CB000DE98EED9E67502141076AD5111C2198264
:103CC00031E53A2529C40941E6E1F40C0A13C21A88
:103CD0000473ED538B09E3C205C1F40D10DE085DDA
:103CE0007C0B3E0A4E101C0722256BAC32A8920BAF
:103CF000B006441A850A64CA3D5610120A021C070F
:103D000002630A830A63C00B2D98044DBC04011B97
:103D1000F4200A09E43AE96BED22460AF411F61898
:103D20001111A43A6742A942A8226622E79511C55B
:103D3000D5DA2004B8DE77F81815E6B8EEF9E6957E
:103D4000E696E696BDF3122309A209820161D832F4
:103D500082F479DC1DC40515F64C082A2573AC5392
:103D60004A11580B021B4302ADAE0889F02D4A0CD4
:103D70001D12101C070A031182198332043EE41439
:103D8000114D92049D36118C120A4333236C449DCD
:103D900005AD65A52684C64BA412220A9E65B4040F
:103DA00059D83D5A111C0A0401E309A34AC9840FDA
:103DB000720641F41006E409C409A4042C09E402C3
:103DC000640B47AE35DECC031298F4140636DE36AB
:103DD000E6B8F4140A54E675DE76CE342264DC329A
:103DE000A20225E44EC29C0829D6000F2509C3096A
:103DF000C33B2819E42265222509C3F40D101E11C6
:103E0000881723122422A6120509C34AA79C6E52C2
:103E1000C8096311E5228712B225DC2C1A4422E37B
:103E200094C5CE05CDE5B4E4C546BCE5C564C5E69C
:103E3000B5874BC40A639006DF0A45AC05254228C6
:103E40000E241A4532E8120409A321E53AA8DE211E
:103E5000F249E41DD00F500A0402851368BE97DEB4
:103E600098F41C0A57DE77EED9CE15D613BA062879
:103E70000634CE3432C5C291022DA2074E03C803C8
:103E8000400A09E35B8B742D09C201F2011EF401A3
:103E90001202641B2309E34329846F32A811C46B07
:103EA00009C511734A11622A67742F4B8B0AEE18E9
:103EB0001E6302423AE3BD85D5E4D5E2D5C57B2336
:103EC000A46962627B059C05ACE4C5C67405EE017D
:103ED00010F425E81C07458531848F1AB010259A07
:103EE00011B46EE4CA043DE403180824028523A932
:103EF000D6F8D02DC2042DBA051DB8051C0DE6B7A5
:103F0000D613DDF2D5F3CE134B47B8032DC6032DE0
:103F1000800A213E6EE3AC06100A09E3122433083E
:103F2000540C0912E1F4CE0ADA110514104DCE0931
:103F30001C08022AA6638C2A660A111C0C265288C9
:103F400029E50983222663CD161061F45C20232223
:103F500081AD66D5A4D5C4DDE2DDC4BCC5BD26B443
:103F6000C5A4477B03ACA7A485C5C55BC3DA05958B
:103F7000E421F41C0712456C8F434A36131DC2041A
:103F800025A6C209F4600A4402A53C2BDEF9EED94D
:103F9000021DCE031005FADE97D5F221F43763A98E
:103FA000E82DCA0341F23D8809180911E31A0409F2
:103FB000E31A45969E44B605DDC412117212A3029F
:103FC000E120610A5DC20A16093E2C09020312852E
:103FD0001A6512040C104E0A6A055DD603BC230A4A
:103FE000027C45C5A4D5A3DD84DDC3D5A5CD25CCF4
:103FF000C4D4C4DD46CD0793E57302C546B5A72AF0
:10400000A3CC031D561119D81C0886122512861A36
:10401000C77A099DAC06B1F48008C554CDE719EE06
:10402000F9021404EF1ADEE83409D5F3D613D613D7
:10403000744CE84DD20355E8500909C25B6A846E9E
:104040002A45CEAD9E0795DC1D9A0C10040100A1F7
:10405000021C04C1014236040D149E0C8223421C32
:10406000051A452AC71C162E2436036E024612BCBA
:1040700024242241BD65CD63CD83D583D4E4C363BD
:10408000CA43C983C943D1A2DAE4D40693858BC459
:10409000C5A56BA4D6061C0A4412043A87844F5364
:1040A0008BB403EE45A2074DBC06111A500E440214
:1040B000E56D50EF3AF71AF6FAF71A0210083BDEF0
:1040C00055CDB1CD9102140DB1848D0A0209A2190A
:1040D000C3220411B439DE11F45C074B086B8B2A40
:1040E000458A0A0D118C091DEE030C1013040122E0
:1040F00010E218E318E310A200A10983940C4DAC60
:104100000A1C146453EB022301E23AA77C4E32A747
:1041100001E30A23540BBE0639FA3C2501E24B02A7
:10412000CD64CD45CD24D504C282C902C082C0C4AD
:10413000C0E4C863D083C964AA459BA6C58694C45D
:10414000321485E81C04043AA84E0BEC042911E44F
:10415000AA0729401C0711C41A051A05F0032404F4
:10416000E685B2DE73F6FAF610063BCDD3BCCD027F
:104170001DE5364C108C6C1A024AC76329634B5BF1
:104180006B32A709AE067C07C211A219E309BA0671
:10419000D1F415B41E092606100708E110C218A2B2
:1041A00004000816C2008101010A03F420040A4336
:1041B0001AE21C08022A65638B2A66390353231A04
:1041C000F21D02085C27E15B83B4A383429B83D387
:1041D00023C0C1C862D227E32CDAEBC0A3C904C153
:1041E00004C903AA65A464A52512230A101849CAA4
:1041F0001C040A04224A184D7E1475E82E03A806F2
:10420000A80F3AA86C0E742E636B330813069E1425
:10421000DA1C05EEF9F73BCA2010040EBCEE021CB6
:1042200009CEA4CD4AC57BAB7BAE091C077C0E6BC7
:10423000CC22044E0F12E30222E2021E0ABC054108
:10424000CC430A230231C42DD205100BC3118310B5
:10425000E210A210A218F4300508A109022A0D12DA
:10426000A4093D7C074DFA145212245DEC153DEC77
:1042700003181F5B64B46473048AA4C142B881D27A
:1042800069B9A6B8A4B8A3C0A4C105DB2CC0E3C11A
:1042900064DDAC050512220A04191DA80631F2429C
:1042A000240231F425841C12C32A26634B7C0FADF3
:1042B00095A51373ED2B89B655B20512D8021DBC16
:1042C000051C07EED8EED8EF1A600D1C0F2FC55055
:1042D000C570CD50BD707369944FAD1428500E84D5
:1042E0004F7B6B5AE811C21203122312E41DBA1657
:1042F000B2440241FC1C150311C319A3110210E3BF
:1043000018C318C210C200A1118412540A1D40091A
:104310001D4C0B3DF2130112021D720B1D061721DD
:10432000205264021C154412234B03BCC483238116
:10433000C2B881C144C228B842C098223011C062BC
:10434000C083B146D28AC0A2DC648C651243845219
:10435000645E1166C212941D2E161E129A036C1210
:10436000632A5AC9634B94F2BD9694F2540CC676F4
:10437000E6A8062D640C1E98B805300555D5B1CDBC
:10438000023011C5B29C8FCE369D32842D83CC8BEA
:104390008A6308F475D82D26054612525506251055
:1043A0002015120311E319C319843227110318E2EF
:1043B0001102116311E4F4021812F462A4F87108F6
:1043C000112A11322012232A42B4C6A3E49244B81F
:1043D000A2C1A5C8A4B842021FC042C01D500CA46F
:1043E000D2CBC0A2D42553431243585102E31265E5
:1043F0000224161A651A4521E47BAC7B6B738B7B18
:10440000CDB554CE788511D6E63D9C071D86091F93
:1044100056DEA00733DE56F4B016D2D5B1A48E73A3
:104420004A8C4E9C6EA46E93EB942B424411E3F4A1
:1044300031E6A10C21F221F411F61408C419E5119A
:10444000831983F22134011CF4B5F055B425A02062
:1044500012031A0283A49BE492A3B0E1B881B8824C
:10446000B862F21C0EB862C063B905D2EBB902ACF7
:1044700006221004B5D80111F6131A45026414047B
:104480006309A48E944D944E83AD8C90ADF5C636E1
:10449000DEB8EA1D720B1C0456E6B9B805B01B91D4
:1044A000CD90CD71CD91B4CF6B495B485AC773693C
:1044B0006B68428519A211E30AF201100221F41778
:1044C0001203E821F822C308311276238E022384D6
:1044D000F639DA29321C0F32029C85B3C4B182B896
:1044E000A2CA68B8C34C291C0E83B882C083C1C756
:1044F000CA07B1C452A3C2040910CC1D221831024C
:1045000045F2196011F61C12242A046B6A948E9CE1
:10451000AF6BCB638A736B83ED30102D7C0A4D4CEF
:104520000E1698E81DAC062C04D5B1D5AE061FB208
:1045300084BA051D5E0D12A1021404A211C3E85233
:1045400002020212030235E21009C321E442661995
:10455000A3190A440729E44AA719C3EA6588F102A6
:104560000110F01E63460D293224260211E119C103
:104570003A03A465C404B141C207D2AAB985B0E325
:10458000B944C104C0A4B10459A31A021A031A04FD
:10459000500119021C052412231AA20E5C111A44A0
:1045A000222422452A4522852327744DC5D4D003D1
:1045B000510232EEF415E82E91D6031C0594EE124A
:1045C00002A8051C08C109A211A211C2B8054DB468
:1045D000058202020110F620053A45636AEA3008B6
:1045E00011E32A24636A210A35ECF24302126302C2
:1045F000326406610A21248D24038023E211C1194B
:104600008229C18364BB46B963B924C227CA48CA98
:1046100007C125A8E4614319C211E20A231A5835DB
:10462000F24104410C2D6E0431021D5C0310041A8A
:104630002422F84C0A1A4412A50B668E13EE7A0A4D
:104640002DB0062D22112D7C0A140475D5D1E82237
:10465000D2021015BDB153063A643A433A233202EE
:1046600031E22A0232233264101004643A84027266
:10467000A40242A502200542A542850210054A6512
:1046800042640C9016C54A8552654A8542A54AA5E2
:1046900053075B475B68636863880232A9026289DB
:1046A00006136BC9021114136B89281C2A47632750
:1046B0005AE65AE652C552A352455224624292A388
:1046C0009A23B943B963B1639183498132033A2391
:1046D0003A433283326315233102C22A0227442A25
:1046E000DA500A24220322232A2422431E8C0A851C
:1046F0002AA53367B675E6F86E0B4DAC0613DE7669
:10470000F432D1F412B2F61C0870BD0EB4CDAC4C2C
:10471000A918100C2AAC8CB4EEBD2EC52FC54F02C3
:104720004370CD021E90FC03110C22C502125002F0
:104730002DE806120F02123002110822BD0C2C04C3
:104740002FCD502004193C2DE00912913020055046
:10475000CD70D50E5271465370CD1A112C124E02E7
:10476000502D2ECD2EC50DC4ECBC8CB42AB409BC82
:1047700009B429C3A9B3C8BBC8BC0AC44BBC2BB479
:104780000BB44CBCCDB50EC4CEB50DBCEDB40220FF
:1047900005B50EB4EE021005B50EACEE02100ACD52
:1047A000A4ADA48C9C8CA48D081C10CDACCEACCF39
:1047B000B530BD71B5D2BDF3E6971612A1F41C0851
:1047C000D9EF3AE6B6DE12580D1ED26A0C1C0AF278
:1047D000DDF2DDD2D590C52E98094006EDC52ECD6F
:1047E0006FE412D502410611B82E90FC03910C61C2
:1047F0000232911651D2310E411432B13E61126132
:104800002A7132150C40048FD56F0211FA230DCC9A
:10481000012411ACCCABC46ABC4AC46ACCCCD50D63
:10482000D50ED51230042ECD4F02726F0241926523
:104830008C310246C56C258E3C0D70D5D2DE33DE40
:1048400054DE75E6B7E68A0859DC19E64008EF1A27
:10485000E6B7DE33E6021254021634023004D1D534
:10486000B0E212900852B0D81406D1DDD1DDD212D8
:1048700081B8F291C26391D5F2E2B102213C3102DA
:10488000B2F2021005F1D5B0DD023170126FD623FD
:104890002ECDE2220EFE21021007D52ED54FD56F68
:1048A000222D7E0312B182210412F28A32D190119C
:1048B000920210D5022AF3B41C07CDB2D5F2D63439
:1048C000D4162E96820925DE91F414061BE697D69F
:1048D00012123234042F34DE4C0F26D180C102353F
:1048E000D8C1CC12B27222B20241D011942102413D
:1048F0009821A246B126810281FC3D480331C6B50C
:1049000018E10272D102452EB2D208615672F3F854
:104910001006B2DDF3DE140211C82005D614D5F45A
:10492000F41DF6122D780A6FD9E6C6042D4C0E261A
:104930003BE813DE130242330811902DC80549CE1F
:10494000397E71F20511C041FEF118A12C89124186
:104950002C552A31028908C004B2DDB2CC3914C00A
:1049600004D3DDF3E497D5D2DC25721004D2D5D37D
:1049700002610E12D3F21635DE81024D780A41F43F
:1049800041F692FAF431021D32112DDC032DD604CA
:104990009AD1C692910A25F0B2B2ECE1E2710260BE
:1049A00006CD71D591DDDE4291F235E8E2B20251D9
:1049B000F212F2E436F3CE32D3F0E5060910CC72EF
:1049C000B2F421082004D3D5F3EA1DB01832560200
:1049D0001E768E085EB8620CD5E823DDF32E11300A
:1049E00035F0255C754A6DB0085D840559E2F2B278
:1049F000E2B1EEB2CDFAB52C4156EDD0046EB1382D
:104A00000611EC6D0C0382B2027D4003A5286DC037
:104A10000341EC33B2CD0231F65235F611F251F4C6
:104A200055EC19E431F42005DE97CDF22C36D6E8AA
:104A30002D34115D22031EB2940A5E7154066392F6
:104A4000CDF2150461FC6D7A063D3C053E50A20690
:104A5000110C47D57102E1F8513E25F4A90C5E71A5
:104A6000460329FC700492D592EA11F43DF80551F1
:104A700012AD3C055BDDB12C3544E50A21CC15EACD
:104A80003E759C1A3E76B818BE9888091C06D8EF69
:104A90003ADE767C0A191A89E02DD20355E42D5CA2
:104AA0000710044FC50F46DC0435CD92C4035904EA
:104AB0004D8C0633CD2FF0DE90920672900231F2CB
:104AC000AADDFE1DDA069102113A22DD028DCA042A
:104AD00041E02112111A712E5290F6219C3E505C39
:104AE000063EB1F20661482D42031ED2CC041D9051
:104AF000051FE6348A0631FE110221064296029C09
:104B000005EEF8E67626046DC603314A15C02D3E43
:104B100006122ED0100472D5F4F461ACB5A811BA07
:104B2000B250BE2136424F145D5407A22F0242D527
:104B30000E2D9006D20E026128320F042102212C84
:104B40002182110C113820050FCCEEC528620F40D0
:104B50003C0FCCEEC4EDC4EEC4CDC4ADBCACBCAD1A
:104B6000F01141021EEE4A0961022D26094C050F83
:104B7000BD0EBD1A1111021DC80622F37C2007C507
:104B80000EC50DCD0E426D1C07114E12ED4E2102C9
:104B90002158110241A421185004CCEDCC0E1178FB
:104BA000210E812C32AD8041021E8C580930046BDD
:104BB000B44B0220082AB40AB40AABEA065007B381
:104BC000EAABE9ABC90222A9021004A3A8A304110D
:104BD000082102210C12C90241061102C2AB0222B5
:104BE000EA024005AC0AAC0A0A13ABC93A114A11F1
:104BF000444102313411201E2A193B10042AAC4BC7
:104C000008210210040AAC2B0C210210084ABD2F07
:104C1000B4EF9BA8023008C8A3A89B889B673412F6
:104C2000C8021106119A12E97221A0110A1005ABEF
:104C3000E9AC096A3209081209C411022108217E6F
:104C4000318212E9D4D2E90281B08004A9ABA80272
:104C500011A0B28802526804610661164128A13091
:104C600072A9FC716041F422ABB686C814119A6235
:104C70002AA6110A224A023506134AC5F431E41263
:104C8000E8EA1006A8A387ABC89C61B252C80461C9
:104C90000E11FC1006B409ABE8B30641021404B3CC
:104CA000E9B31252B3DC110832C8262005C8B3C9D3
:104CB000B310318A3112628802B1EA126702526877
:104CC00006410EE10231E8413656AB0095F2692EFD
:104CD00042A876550A25FE26E98425A015B82404A5
:104CE000E8ABE8A623AC290616A3BA1405BD0FBC91
:104CF000EFDC252412A702200487A3A7B811CA520B
:104D0000E8F042E83631BCA10221125004E8B3E8D1
:104D1000E8252A32A70472A71052A80632A8EA3260
:104D2000870221E87287F061DA528722A1EC41F014
:104D3000413431423538215685E625E82936311887
:104D400059104D140372A82249A06102299611F44A
:104D50001BB4CED272A7028287D047ABE8CE15DE55
:104D60005208F821162514310C2542210A56B308A1
:104D7000750061F69AC8D081D641DC8647CE4900DD
:104D800021D271F065E425EC63A8A32045F21DB49F
:104D9000035D28033EC926032926210259164DD654
:104DA0000341EC71F02D80034DD603240A0AB42987
:104DB000C50FB4AD9B665057ABA78C52A7D062C845
:104DC000D815C812C70213A7AB24110A32C806218E
:104DD0000281DC12C81C36A8F4B2A8F049D011D662
:104DE00059C4524702610A1114779B470486880A06
:104DF000339B4718210652681E6A68163DE2037EFF
:104E000088180441F072684C3D120445DEB5E82173
:104E1000F81E29E40321F45804CE9B467A31F45954
:104E20009E52C70449BA300887AB87A386A386F68B
:104E3000A10221DC69D456877E95E251C281B2611C
:104E4000F47004479B27FCB6270A6DE4039A68FCBC
:104E5000BE68F8035DDC0359D08288562528554288
:104E6000480488ABC8D2DD52053D8A054808BCEF2E
:104E7000B4CD9B46ABD611BE21F45AB3C235DC414A
:104E8000FC2008A7AB86A366A366FC510241E6900E
:104E900004A7B3C8EAC10A254845CA8226EA21EC1C
:104EA0002106339B26022108520602722616713013
:104EB0008AA304CE4710037102624744400692E67B
:104EC000930693481A261E3E88C8056DC0065D28C5
:104ED000062F9B87BC0411F416ADE81A66E03E6607
:104EE000600465CA25C012A7E61286EE2386AB1EB3
:104EF0001246021366AB0241FC250419B699220141
:104F0000119021C4520604A10A71EA300492E69A73
:104F10000260059B069AE5FE110E81281A260811EB
:104F200002253881148518553451507392E6F44E99
:104F300067BC062D8C06A1F81E9BEC033007B4CF8E
:104F4000B4AE9B46441A46BE4DD00325E01AA7CA0C
:104F500035DC3102200446AB46EE4106110E711AD3
:104F600065F41D9A04D66688219441AE11B8B1FE4D
:104F700051EE4102729A02640592E592C5024526FD
:104F800025B86A9308690E6534553C3693E261048E
:104F900055EC7C04479B686808210261083DB00815
:104FA0001007BCEFACAD9325F615EA112A2D0804C5
:104FB0001D5A05310825FE22460225E2357221BE22
:104FC000210C9E46A803CE877604229B023108312D
:104FD00014524602313C51426627CE729AF21500B5
:104FE00066C60421E671BC1D060311C411041B939F
:104FF00007C452070272270C31204293F83006078B
:1050000092E79307021227862E88CC092D6E09316C
:10501000081004C99BEA022004C99BCA021005B407
:10502000EFAC8E524F26932C054D08084DC2052932
:10503000ECAB46A34E29DE4D64034D64076E872A10
:10504000087DB00451164D740621FE71022DC40373
:10505000332793BE31A01005E68AC68AE81005936F
:10506000078AE702110E528202110C32E612111861
:10507000110EC004E78B070222831062270240074B
:10508000830782E782E706527A02137B07023228FF
:105090000242270233732802320802200628944E67
:1050A000A46E3423832702114C10064793688B6744
:1050B00002324754D20602516C129326B102128971
:1050C000023004689369064108426902118A52C796
:1050D0008E22C702127202710A22C60E011B02F250
:1050E000E70242E80210096AE86B086B086AE70207
:1050F000110C410E3102520902722902124902605A
:10510000042973490210096B49946F9CD17B690291
:10511000326A042102428A023005838A836A02D2FB
:105120008A02128B045004AA83AB0272CB0A1008C5
:10513000AB8BCC83CC83AC143004CC8BCD0C110E58
:105140001D2C1B4156A102F26B122178021E8B020C
:10515000316A528B0212AB5C1EAB3A1EB2AC0243F8
:10516000CC7B786102E2EC021C0A840C840DA4F171
:10517000F000401921500500001000016324F40ADA
:045180000200000029
:04000005080001AD41
:00000001FF
